:020000040800F2
:100000000010002049020008990200089902000827
:1000100000000000000000000000000000000000E0
:10002000000000000000000000000000990200082D
:10003000000000000000000099020008E50400082C
:1000400099020008000000009902000899020008C7
:100050009902000899020008990200089902000814
:1000600000000000010600082D06000879060008BF
:100070009902000899020008C1070008000000006A
:10008000910500080000000000000000AD05000818
:1000900000000000C9050008E505000899020008F5
:1000A000000000009902000800000000650500083B
:1000B0000000000000000000000000000000000040
:1000C00010B5064C2378002B07D1054B002B02D02E
:1000D000044800E000BF0123237010BD1C00002075
:1000E00000000000F8220008044B10B5002B03D0DC
:1000F0000349044800E000BF10BDC04600000000F6
:1001000020000020F822000802B471464908490086
:10011000095C49008E4402BC7047C04603B4714676
:10012000490840004900095A49008E4403BC704701
:10013000002243088B4274D303098B425FD3030A26
:100140008B4244D3030B8B4228D3030C8B420DD339
:10015000FF22090212BA030C8B4202D312120902C7
:1001600065D0030B8B4219D300E0090AC30B8B4205
:1001700001D3CB03C01A5241830B8B4201D38B03B3
:10018000C01A5241430B8B4201D34B03C01A524158
:10019000030B8B4201D30B03C01A5241C30A8B429B
:1001A00001D3CB02C01A5241830A8B4201D38B0286
:1001B000C01A5241430A8B4201D34B02C01A52412A
:1001C000030A8B4201D30B02C01A5241CDD2C3099C
:1001D0008B4201D3CB01C01A524183098B4201D318
:1001E0008B01C01A524143098B4201D34B01C01A03
:1001F000524103098B4201D30B01C01A5241C3087B
:100200008B4201D3CB00C01A524183088B4201D3E9
:100210008B00C01A524143088B4201D34B00C01AD5
:100220005241411A00D20146524110467047FFE741
:1002300001B5002000F006F802BDC0460029F7D045
:1002400076E770477047C0460D4885460D480E4911
:100250000E4A002302E0D458C4500433C4188C4220
:10026000F9D30B4A0B4C002301E013600432A24285
:10027000FBD300F029FA02F009F801F0E9F9FEE7F2
:1002800000100020000000201C000020682300084F
:100290001C0000203C020020FEE7000000280BD0DC
:1002A00004280BD005280BD0063843425841054B93
:1002B00040421840C01870470348FCE70348FAE77B
:1002C0000348F8E7C0C62D00006CDC0200366E0162
:1002D000001BB7007021034A000113688B431843C9
:1002E00010607047041002400321034A13688B43D7
:1002F000184310607047C046041002408023034931
:100300009B040A681A42FCD07047C04600100240A5
:100310008023034A5B0411680B4313607047C04697
:1003200000100240802303499B020A681A42FCD055
:100330007047C046001002408023034A5B021168E8
:100340000B4313607047C046001002408022044BEC
:10035000D20119681143196019681142FCD0704725
:1003600018100240034B10B518684005400FFFF706
:1003700095FF10BD04100240034A044913680002AF
:100380000B4018431060704704100240FFF8FFFF55
:10039000034A0449136880040B40184310607047F7
:1003A00004100240FFFFC3FF8022044B9202196831
:1003B0001143196019681142FCD0704714100240B3
:1003C0008022044BD2021968114319601968114246
:1003D000FCD07047141002400122044B19681143ED
:1003E000196019681142FCD07047C04614100240D1
:1003F0008022044B120119681143196019681142D7
:10040000FCD07047181002400421234B1A6813686F
:100410008B431360214A224B02391B6813688B43BC
:100420001360204B1A68002393611F4A126893617E
:100430001E4A126893611E4B1A6813681B031B0B3C
:1004400013601C4A1C4B1B6813689BB213601B4A49
:100450001B4B1B6813685B045B0C1360194A1A4B37
:100460001B6813685B045B0C1360184A184B1B680D
:1004700013685B045B0C1360164A174B1B68136808
:100480005B045B0C1360154A154B1B6813685B0417
:100490005B0C13607047C0467C00002000380140B0
:1004A00084000020680000206C00002078000020FC
:1004B00004000020003001408000002008000240BD
:1004C000080000201C0002400C0000203000024008
:1004D0001000002044000240140000205800024098
:1004E00018000020054B10B51C68002C05D02368AF
:1004F00020001B689847A468F7E710BD340100206E
:10050000037B002B0CD101330373064B5A68426006
:10051000002A00D090601A685860002A00D1186044
:100520007047C04634010020F0B501250300411892
:100530000A4E0B488B420FD008241A7850404210C4
:100540002840070090B2002F01D0724090B2013CC9
:10055000002CF4D10133EDE7F0BDC04601A0FFFF50
:10056000FFFF0000074B10B51C68002C05D0236866
:1005700020001B6898476468F7E7034B034A1A603A
:1005800010BDC04664000020203801405F0A020010
:10059000054B10B51C68002C05D0236820001B6893
:1005A00098476468F7E710BD5C000020054B10B564
:1005B0001C68002C05D0236820001B6898476468DD
:1005C000F7E710BD58000020054B10B51C68002C43
:1005D00005D0236820001B6898476468F7E710BDC2
:1005E00054000020054B10B51C68002C05D0236872
:1005F00020001B6898476468F7E710BD5000002092
:10060000084B10B51C68002C05D0236820001B681F
:1006100098476468F7E70F23034A11680B43136098
:1006200010BDC0464C000020040002400F4B70B5C6
:100630001C68002C05D0236820001B68984764685C
:10064000F7E7F0220A4D29680A432A60094A14682C
:10065000002C05D0236820001B6898476468F7E7E2
:10066000F0232A681B0113432B6070BD4800002053
:100670000400024044000020104B70B51C68002CA0
:1006800005D0236820001B6898476468F7E7F022CC
:100690000B4D120229680A432A600A4A1468002C8A
:1006A00005D0236820001B6898476468F7E7F023AB
:1006B0002A681B0313432B6070BDC0464000002016
:1006C000040002403C00002037B56B46DD1D0023CE
:1006D00007221A492B700B7893431A000123134306
:1006E0000B70FFF729FEFFF71DFE2C780134E4B2F2
:1006F0002C70002CF9D12000FFF7ECFD2000FFF753
:100700003BFE0420FFF744FE80230D4A5B02116884
:100710000B431360FFF7FCFDFFF7F0FD2B7801336F
:10072000DBB22B70002BF9D10220FFF7DDFD2B7817
:100730000133DBB22B70002BF9D137BD0020024012
:10074000041002404A688B68002A0DD0002B08D0A4
:1007500093608B685A6000234B608B607047036026
:10076000F8E742609360F6E7002BF8D1036043603E
:10077000F1E7000010B5037B0100002B04D000233B
:1007800003730248FFF7DEFF10BDC04634010020AE
:1007900010B50400024B0360FFF7ECFF200010BD12
:1007A00040230008054B10B51C68002C05D02368B9
:1007B00020001B6898476468F7E710BD60000020C0
:1007C00010B5FFF7EFFF10BD012370B504000370F3
:1007D0000D0012220021023001F085FD20001222BE
:1007E0000021143001F07FFD20001222002126306C
:1007F00001F079FD200012220021383001F073FD54
:100800002200002321005032E5641370A365114AD1
:10081000114B543163651368E465002B02D11160FC
:1008200004E013005A68002AFBD15960002321001C
:1008300063660A4A0A4B603123661368A466002B7C
:1008400002D1116004E013005A68002AFBD15960FC
:10085000200070BD6400002028230008480000200C
:1008600034230008F0B50500203585B004000E22C1
:10087000FF21280001F037FD01235B4223630E2294
:100880000021684601F02FFDA36B8022190001268C
:10089000D2009818226B88420FD0013222630A7866
:1008A0000D2A08D84F78A2180132D7776F460A78F8
:1008B000BE540231EEE7FF2AFBD1226B33495200CE
:1008C0009B18C21AD210002A1CDD1E888E4203D14A
:1008D0005E888E4209D002336A4698421FD00123B7
:1008E00000203434237005B0F0BD9E888E4201D0C4
:1008F0000433F1E7DE888E4201D00633ECE708339B
:10090000013AE0E7C21A5210022A1BD0032A14D07F
:10091000012A1DD119881D4A9142DDD16A4603ABD7
:100920001178002903D05178002913D101320E2308
:100930006B4400209A42D6D120E01988134A914294
:10094000CAD102331988114A9142C5D10233E1E775
:100950000300C1E79178002901D10232E7E7D1789D
:10096000002901D10332E2E704329A42D8D16B4622
:10097000187B0028B7D0587B0028B4D0E0690E223D
:10098000290001F0A7FC0120ADE7C046FFFF0000F1
:100990008022054BD2031A602023026811780B4392
:1009A00040218B4313707047180000488022054B8C
:1009B00052021A600423026851780B4302218B43D0
:1009C00053707047180400482022064B1A600368D1
:1009D000A03A19780A4301211A705A788A435A704A
:1009E0007047C0461800004880220821034B1A6057
:1009F000026853788B4353707047C0461800004814
:100A00004023044A1360026811780B4320218B4372
:100A100013707047180000488022044B12041A60BB
:100A20000823026851780B43537070471800004840
:100A300010B504004068FFF7C7FF6068FFF7ECFFE0
:100A40000023237010BD10B504004068FFF7BCFF01
:100A50006068FFF7E1FF0023237010BD70B504004C
:100A60000078032847D8FFF74FFB0235475A80220A
:100A70002C4B12011968114224D1802219685201AD
:100A800011420ED06068FFF783FF6068FFF78EFFAA
:100A90006068FFF799FF6068FFF7A6FF02232370E5
:100AA00029E01B68134226D16068FFF7A9FF606840
:100AB000FFF77CFF6068FFF787FF6068FFF794FF30
:100AC0000123ECE71B68134215D00022164B5A6233
:100AD0000323E4E78022134B12011D68154003D065
:100AE0006068FFF799FFF0E71B68DB0403D56068D7
:100AF000FFF792FF257070BD0A4B1A68120503D5E7
:100B00006068FFF761FFEBE71B689B04F3D5606843
:100B1000FFF75AFF6068FFF77FFF0423BFE700235A
:100B2000BDE7C04610040048002C01400221114BD3
:100B300010B51A7B04008A431A73007A013804281E
:100B40000CD8FFF7E1FA0C030C030300E068FFF791
:100B50003BFFE068FFF760FF0023237210BD142104
:100B6000625EE068628192B25A6305232372FFF7E6
:100B70001DFFF3E7002C014080221021094B1203D6
:100B80001A60036808205A780A435A701A78824318
:100B900080201A70044A000610601A788A431A707E
:100BA0007047C046180400481800004870B504009B
:100BB00000260568E868FFF707FFE868FFF72CFFE5
:100BC0002E7265682869FFF7D7FF03232B73A6737E
:100BD00070BD000080221021054B12021A600368CC
:100BE0001A780A431A705A788A435A707047C04676
:100BF0001800004810B50400007BC0B205280DD8CD
:100C0000FFF782FA030D17411C34637B002B05D0DC
:100C100021002248FFF796FD0023637310BD204B8F
:100C20001B681B04FAD52069FFF7A6FF0323237373
:100C3000F4E71B4B1B685B04F0D5F4E7E389A28A59
:100C400001339BB2E3819A42E8D80123082223733F
:100C5000236914491B680A6019780A4310211A7025
:100C60005A788A435A700023E381D7E7E389A28A3E
:100C700001339BB2E3819A42D0D8022320692373C7
:100C8000FFF7A8FFEFE7E389A28A01339BB2E38174
:100C90009A42C3D800232373E6E7C04634010020FC
:100CA00010040048180400480122054B1A60022372
:100CB000026851780B4304218B4353707047C04640
:100CC00018040048022370B50400754DA1822A7BE8
:100CD0000E0013432B73007A052828D8FFF714FA67
:100CE00003586D8899AC6B6A1BB299422EDAE068A2
:100CF000FFF786FE6A6AE18A521A12B2964217DB41
:100D0000E068FFF753FE0423B6B26E6323728022BD
:100D1000644B9203E0681A600122036859780A4321
:100D20007F215A701A780A401A70FFF75DFE70BD75
:100D30006B6A5B1A1BB29E42E9DAE068FFF7B4FF08
:100D4000E38A9E19B6B26E630323DFE76B6A1BB2B8
:100D50009942ECDDE068FFF71BFE6A6AE38A9A18A5
:100D600012B2964206DCE068B6B2FFF71FFE6E6371
:100D70000223CBE76A6A9B181BB29E42C7DDE0687C
:100D8000FFF792FFE38AF61AB6B26E630123BDE75E
:100D90006A6AE38A9A1812B291420ADCE068FFF7A5
:100DA00005FE6A6AE38A9B189BB263816B63052325
:100DB0000EE0CE1AB6B26E63B9E76B6A1BB2994207
:100DC00008DAE068FFF700FEE068FFF725FE002381
:100DD0002372ACE76A6AE38A9A1812B29142A6DBE0
:100DE000CE1AB6B26E63E068FFF75EFF0123EFE74D
:100DF000E18A6B6A8A195B1A92B21BB26A639E42DD
:100E000000DA94E7E068FFF7D1FD6B6AE28A9B1A8B
:100E1000CAE76B6A1BB29942D3DC6A6AE38AD21AC8
:100E200012B2914200DB82E7CE1AB6B26E63E0687E
:100E3000FFF73AFF0323CBE71B4B1A6852060BD48C
:100E40000A21625EB24207DA696AE28A521812B275
:100E5000964201DA66816AE71A68520605D4696A21
:100E6000E28A521812B29642BDDC1A6852060BD4BE
:100E70001B685B0600D45AE76B6AE28A9B1A1BB2B6
:100E80009E4200DB53E7D2E70A21625EB242EFDD09
:100E90006A6AE18A521A12B29642E9DDDAE7C0467E
:100EA000002C0140180000481000004810B5FFF762
:100EB00087FA032001210E4B1A6882431A601A68D0
:100EC0000A431A600B4B1A688A431A601A681A6040
:100ED000094B1A6882431A601A681A60074B1A682D
:100EE0008A431A601A681A60054B1A681A6010BDA6
:100EF0000004004804040048080400480C040048AA
:100F00002004004810B5FFF74FFA9023802180207D
:100F1000DB051A680E4CC90122401A601A68114399
:100F200019600C4B1968814319601A681A600A4BE2
:100F30001A6822401A601A681A60084B1A688243BD
:100F40001A601A681A60064B1A681A6010BDC0460B
:100F5000FF3FFFFF04000048080000480C00004865
:100F60002000004810B5FFF71FFA90238021402091
:100F7000DB051A680E4C490122401A601A681143B9
:100F800019600C4B1968814319601A681A600A4B82
:100F90001A6822401A601A681A60084B1A6882435D
:100FA0001A601A681A60064B1A681A6010BDC046AB
:100FB000FFCFFFFF04000048080000480C00004875
:100FC0002000004810B5FFF7EFF990238021202082
:100FD000DB051A680E4CC90022401A601A681143DA
:100FE00019600C4B1968814319601A681A600A4B22
:100FF0001A6822401A601A681A60084B1A688243FD
:101000001A601A681A60064B1A681A6010BDC0464A
:10101000FFF3FFFF04000048080000480C000048F0
:101020002000004810B5FFF7CBF9C0200F4B1A681D
:1010300082431A60402219680A4308211A600C4B47
:101040001A688A431A601A681A600A4B1A6882433F
:101050001A601A681A60084B1A688A431A601A687C
:101060001A60064B1A681A6010BDC046000400489A
:1010700004040048080400480C0400482004004808
:1010800010B5FFF791F99022D20513680F489B0025
:101090009B08136080231168DB050B4313600C4B26
:1010A0001968014019601A681A600A4A13689B009F
:1010B0009B08136013681360074B1A6802401A609C
:1010C0001A681A60054B5A685A6010BDFF7FFFFF0F
:1010D00004000048080000480C00004820000048B8
:1010E000437B002B0CD1074B5A684260002A00D08A
:1010F00090601A685860002A00D118600123437379
:101100007047C0463401002070B5837B002B13D19B
:101110000225254B85731A6844681B68120420D584
:101120005B040AD4237B002B07D12069FFF752FD13
:1011300025732000FFF7D4FF70BD237B012B05D161
:101140002069FFF719FD05232373F5E7237B042BA3
:10115000F9D0237B052BF6D0237BDBB2032BEBD11D
:10116000F2E71B0411D4237B002B0ED10822236944
:101170000E491B680A6019780A4310211A705A78C0
:101180008A435A7001232373D3E7237B022B04D1B4
:101190002069FFF7F1FC0423D6E7237B042BFAD068
:1011A000237B052BD8D1F6E710040048180400482B
:1011B0000122044B19689143196019681142FCD14E
:1011C0007047C0463000024070B58024074B2401B0
:1011D0001B68234209D08568FFF7EAFF044B5035AE
:1011E0001A6814431C6001232B7070BD1C38014029
:1011F000203801400122044B196891431960196895
:101200001142FCD17047C0461C00024010B520249A
:101210000A4B1B6823420FD0FFF7ECFFFFF7C8FF14
:10122000FF22074B1A600123064A11680B43136023
:10123000054B1A6814431C6010BDC04600000240F4
:1012400034000240300002400400024010B5FFF7B5
:10125000ABF89023DB051A68144C154822401A603D
:101260008022196892020A431A60124B1A680240DF
:101270001A6080221968D2010A431A600E4B19685D
:101280002140196080211A688903114319600B4BB2
:101290001A6802401A608022196812010A431A6013
:1012A0000223074A51680B43536010BDFFFFFCFF48
:1012B000FFFEFFFF04000048080000480C00004843
:1012C0002000004810B5FFF76FF89023DB051A687F
:1012D000144C154822401A608022196812030A43F0
:1012E0001A60124B1A6802401A60802219681202B2
:1012F0000A431A600E4B19682140196080211A6850
:101300000904114319600B4B1A6802401A608022CD
:10131000196852010A431A602023074A51680B4397
:10132000536010BDFFFFF3FFFFFDFFFF0400004807
:10133000080000480C0000482000004810B5FFF7E6
:1013400033F89023C020DB051A6882431A6082229A
:10135000196892010A4308211A60104B1A688A43DF
:101360001A6080221C68520022431A600C4B1A68D3
:1013700082431A6080221868D20002431A60094B27
:101380001A688A431A60202219680A431A60802367
:10139000054A5B0111680B43136010BD040000484F
:1013A000080000480C0000482000004810B5FEF777
:1013B000FBFF90233021DB051A688A431A608222E2
:1013C00018681201024304201A600F4B1A68824306
:1013D0001A6080221C6822431A600C4A13688B43EF
:1013E0001360802311685B0019431160084A11687B
:1013F000814311601021106801431160054A116892
:101400000B43136010BDC0460400004808000048AC
:101410000C0000482000004810B5FEF7C5FF9023DF
:101420000C24DB051A680220A2431A608222196884
:1014300092000A431A600E4B1A6882431A604022D7
:101440001968114319600B4B1968A1431960196899
:101450000A431A60084B1A6882431A600822196806
:101460000A431A601023054A11680B43136010BD2C
:1014700004000048080000480C0000482000004814
:1014800070B50E000500FFF759FFFFF78FFFFFF75C
:10149000C3FFFEF75BFF3468FEF764FF2100FEF731
:1014A00047FE3B4B3B4C18603379012B00D06BE07F
:1014B00080232268DB00134323607379002B5FD005
:1014C000802322689B001343334A23601368334907
:1014D0001940B37901261B030B43136004232168D1
:1014E0000B432360082321680B43402123602C4BCE
:1014F0001868014319608021186801432A20196087
:101500002849086080211068090401431160802285
:10151000196852000A431A6080221968D2010A43EE
:101520001A60236833432360FEF756FF1E4B1F4AA1
:101530001D601F4BA0211A60FF221E4B1A60002263
:101540001D4B1A60196019680E431E601B4B1C4925
:101550001D601C4B19601C4B1A6090321A6080226F
:101560002168D2040A4322608022184912050A60C9
:101570000222186802431A608023DB000B6070BDF2
:101580002368134A13409FE72368124AFAE7C046CC
:101590000C3801400038014004380140FFCFFFFF04
:1015A00008380140143801403C0002402438014012
:1015B000380002403400024030000240280002405F
:1015C00028380140240002401C00024000E100E0F5
:1015D000FFFDFFFFFFFBFFFF38230A7813B5134021
:1015E000082B23D0102B24D0182B25D0202B25D02E
:1015F000282B26D0302B26D0383B59424B4113495B
:101600005B420B40962189015B1800936B46D4071F
:1016100091075207C90FD20F52005971E40F694662
:10162000C06C1C719A71FFF72BFF13BDE1239B0166
:10163000EBE79623DB01E8E7E123FBE796231B02B8
:10164000E3E7E123FBE796235B02DEE7809C0100F2
:10165000F0B5ABB0FEF7D8FED84C072723002433F3
:101660000F93FFF723FCFFF74DFCFFF77BFCFFF721
:10167000A9FCFFF7D7FCFFF703FDD14DA782EB894B
:101680000126E3822B8A20002383AB7C23706383B3
:101690001823EA5EE2831A216B5ECA49E285A163E0
:1016A0002900A21CD387C84A10312384231DDA875E
:1016B0002685FFF791FFFFF7C9FDFFF703FEFEF751
:1016C00097FE0321C14BC2481A7ABA430A431A72E1
:1016D0001A7E8A4332431A765A7E8A430021324365
:1016E0005A7659621A7816431E701422AC5E1EAAEE
:1016F000D482802451601172517251819182B54916
:101700001E90E4010FA80EAED06016610C60B24CC2
:1017100004932168002902D1226004E019004B687B
:10172000002BFBD14A600023EC8A24A98C820B7326
:101730004B73CB8116910EA91B912900A74E1592D0
:1017400024961E000EAA179219AA1370183112AA15
:1017500015AC13701C911A350EA910AA2593269367
:101760002890A381A3731A901D9513901491137060
:101770001190059301251024994F90493A68CB1C8C
:10178000D87FD20B2A40A04312010243DA773A688D
:10179000D87F920B2A402419A0435201024328000B
:1017A000DA773A685031520B1040DA7FAA4302438D
:1017B000DA773A680220120B2A40AA40DC7F844381
:1017C0002243DA773A68DC7FD20A2A400735AC43F5
:1017D000D2002243DA773A68073D920A2A408240D3
:1017E000DC7F0335AC432243DA770B78DBB2099315
:1017F000002B00D191E300220A70FF211400794BE5
:101800001B6802929BB2CB1A019307920692039037
:101810006A4BDA6C19781278039B914203D00A2341
:10182000002A00D1039B023B082BF1D8F6E0042BE1
:101830000ED03B685B059DD52800FFF7F9F807221D
:1018400005260534E37F93433343E37701238CE399
:101850002800FFF7EDF8072205260534E37F9343C0
:101860003343E37786E7059B002B00D0CFE03B684E
:1018700015A85B050AD5FFF799F9072105264F4AF8
:101880000532D37F8B433343D377DFE73B68DB04F9
:1018900007D5049B4A4C5B6A1821625E1BB29A42D0
:1018A0000FD13B689B0412D4837B012B1BD0022BEE
:1018B00000D05FE73B681B041DD43B685B041AD46F
:1018C00058E7FFF773F9238B049A536252E7049B9E
:1018D0003B4C5B6A1A21625E1BB29A42E4D0FFF76E
:1018E00065F9638BF0E7049B0C21425E5B6A1BB2D7
:1018F0009A4200D03EE7002383733BE73B682F4DBD
:101900001B040AD419A8FFF79EF8072205260535FF
:10191000EB7F93433343EB772CE73B681B0400D406
:1019200028E73B681B0500D424E719AC207803287E
:1019300011D8FEF7E9FB022237596068FFF760F81B
:101940006068FFF733F86068FFF73EF86068FFF7FC
:101950004BF8012323702378032B47D03B685B05AA
:1019600000D407E72000FFF76EF8072205260535AB
:10197000EB7F93433343EB7768E73B68DB04EAD5BF
:101980006068FFF749F8049BE2685B6A606813804F
:10199000FEF7FEFF6068FFF709F86068FFF724F8BC
:1019A0000223D7E73B689B04D5D56068FFF734F87E
:1019B000049B22695B6A13800323CBE7C8000020E5
:1019C0008C0000203F00FF00E02E0000002C0140B2
:1019D0004C23000800E100E06000002058230008CC
:1019E00010040048340002400023B3E7A64B200057
:1019F0001A8B0226EA835B8B2B84FFF724F80722DD
:101A00000535EB7F9343063A1343EB77B2E60126A5
:101A1000B0E6032378E00623019301331800FEF7B4
:101A20007DFB3B0042005C007600A50009005002EF
:101A30005E02A7029549CB6C0D910B93DA1D6300F2
:101A40000C93099B9C46002308936B460298198CC3
:101A5000814200D39AE015785178089B2D020D43FE
:101A60000C99580040180D990B180020D98C0A9336
:101A70008D4240410A99C3B2088F0999854202D923
:101A800041424141C9B260461940089B08400133B8
:101A9000844608930232D8E70A23019A023B072AB8
:101AA000BCD9073BBAE7794BDD6C019B2800991E36
:101AB000C9B2FEF739FD019BC2B2ED18AB1E197811
:101AC0000A23023B9142A9D1013D00122A78C0B2FB
:101AD000063B8242A2D00633A0E76C4BDB6C9C78BD
:101AE000DA78240214431A795979120211436218E0
:101AF000013A92B2029107925A781300032A8DD0CC
:101B00000423102A8AD001230693062386E70A239A
:101B1000019A023B082A00D080E7079B082B33D8A4
:101B2000029B5A495B009C466246CB6C9A7000222D
:101B3000029B934214DDA318CD6C083350005B0068
:101B40002D18CB1808959D880193089B2D12DD70E8
:101B5000CB6C01321818019BD2B29B880371E7E766
:101B60006346033301930923023B57E7029B019924
:101B70005A000A230932023B8A4200D04EE7079AF4
:101B8000033B082A00D849E7039BBDE76346002BC7
:101B900000D13EE700233D4D029A934211DA0B98A3
:101BA00059004118C879E218097A52000002AA18AF
:101BB000084301335080DBB2EEE70426082400E03E
:101BC0001C00079B9C4200D925E7631C9BB2072C95
:101BD000F6D82000FEF798FA040B121B2847506035
:101BE0002A4A012453881383274A1382E9E7274AA4
:101BF000039C93885383244A9374E2E7234B032482
:101C0000DB88D03B5A425341214A1370D9E7204B1D
:101C10001A78002A04D01D490A89CA821A49CA8141
:101C2000012204241A70CCE7184B0A21595E15AB27
:101C30009A7B9981002A03D0012A10D00524C0E79D
:101C4000144A13681B0403D4136805245B04B8D535
:101C50001598FFF737F8012215AB9A73EEE718686D
:101C6000FFF730F8EAE7094B06240C229B5E1EAA18
:101C7000D382054A9382A4E7044B24AADB89072474
:101C80009382014AD3829CE78C000020C800002088
:101C90008800002010040048B94D2B7CDA0701D4DD
:101CA000012E72D1032201266B7C1340B34200D077
:101CB00084E712A8FEF7BCFE07216A1DD37F8B4381
:101CC00003990B43D3772B7C119C9B0702D52000F3
:101CD000FEF7A2FE2B7C5B0702D52000FEF74CFF2F
:101CE0004021A74A10AD127C2B780A4200D196E021
:101CF000002B76D0012B00D185E00822A04B1B7C65
:101D0000134200D09FE0802201219E4B92031A6073
:101D100023685A780A435A701A787E310A401A703A
:101D20001022974E2000337C134200D08FE0FEF744
:101D30003DFE327C10AD2B78920600D5A7E0002B3B
:101D400000D187E0012B00D192E08D4D6B7C9B0789
:101D500000D032E78C4B1E688023DB001E4000D091
:101D60002BE72000FEF730FE2000FEF755FE200096
:101D7000FEF702FF072210AB05351E70EB7F039EB6
:101D80009343063A1343EB7718E7022E25D19A07BF
:101D900001D45B0702D515A8FEF708FF15A8FFF7C9
:101DA000B3F903236A7C1A400192012A03D115A8D2
:101DB000FEF7FCFE80E7019B0824032B00D000E720
:101DC00015A8FEF7F3FE07220535EB7F019E93432E
:101DD0001A0004231343EB77F3E6042E00D0EDE65C
:101DE00071E7694B1B681B0487D40821674B196096
:101DF00023681A780A431A705A7849188A435A7025
:101E000001232B7079E7604B1B681B0400D574E736
:101E10002000FEF7B1FE2000FEF7DCFE6DE7002B90
:101E200008D0012B00D068E7574B1B68DB0400D5B6
:101E300063E7EDE7544B1B685B0400D55DE72000CA
:101E4000FEF7C8FEDCE72000FEF7BEFD68E7FEF700
:101E50002BFF6EE74C4B1B689B0400D575E72000F9
:101E6000FEF796FD2000FEF7BFFD01232B706CE707
:101E7000454B1B689B0400D567E72000FEF7CCFDAF
:101E80002000FEF785FD2000FEF7AEFD5DE7002B8C
:101E90000ED0012B00D058E73B4B1B68DB0400D56C
:101EA00053E72000FEF7B8FD2000FEF7A9FDEAE7A2
:101EB000354B1B68DB0400D547E72000FEF7A0FD8B
:101EC000D0E780232E4A5B42D16C487803434B70A5
:101ED000D36C069A9A700323019304339EE56B46F4
:101EE000274C1979E56C2800FEF71EFB019A019B2F
:101EF000A854E26C019901330012D05402310191CF
:101F0000FFF756F9FFF776F96B46214A9B88136075
:101F1000204A012113680B43136030BF022E00D109
:101F2000A1E4032E00D1E9E4012E00D022E43B68B5
:101F3000134C12A81B0400D48BE43B681B0401D48F
:101F4000FFF718FC12AD2800FEF788FD2B78032B55
:101F500000D06CE42800FEF76BFD07220534E37F18
:101F600093433343E377022600230593FFF702FCF4
:101F7000FFF71EF9FF23084A1360084AC9E7C04665
:101F8000C800002018000048100400481804004849
:101F9000200002401C000240340002403000024099
:101FA000044B1A7CD20903D0034A5A60034A5A6090
:101FB0007047C0460020024023016745AB89EFCD42
:101FC00070B5474D04002878042818D8FEF79CF80F
:101FD000031D39596E002300343319780323002977
:101FE00011D1404AE0691378E4180134C65CE07FFF
:101FF000864207D10133DBB20E2B01D0137070BDC6
:102000001170FCE701232B70F9E7374E337BDB07B8
:10201000F5D4337CDB09F2D0FFF7C2FF0123327C19
:10202000134333742F4BA06B1978E3695A5C2F4B21
:102030001A701B78226B1B020B43520013520223AF
:10204000E1E7294B1A7B9206D9D52022197B0A4356
:102050001A738022197C52420A431A74234B1A784D
:10206000204B1B78E3180133DA778022236B920030
:1020700001332363934202D90123343423700023B4
:10208000C1E7194C237BDB07B9D4237CDB09B6D02D
:10209000FFF786FF0223227C13432374144B6361F2
:1020A0004023227C134323740423ACE70E4B1A7B9A
:1020B0009206A4D52022197B00260A431A73802297
:1020C000197C52420A431A742300200034331E70D4
:1020D00020300E22FF2100F006F926632E708EE7D5
:1020E0003A00002038000020002002403900002083
:1020F000005000083E4B3F4AF0B51A609022002481
:102100003D4BD2051A603D4B3D4A01251A603D4BBF
:102110003D4A99B01A603D4B3D4A3E481A603E4BDD
:102120003E4A1A603E4B3F4A1A603F4B3F4A1A6094
:102130003F4B404A1C605C603F4B5A6004229C60ED
:1021400019780A431A70022219780A431A701A7809
:102150003A492A431A70FEF737FB3948394B3A4F50
:1021600043613A4B8574836103000E33C3610123DD
:102170005B420363030034331C70354BC48104821B
:1021800044608460047307608363FEF76BFB0500A3
:10219000A04221D101AC0E222E49200000F09AF875
:1021A00005A90B0045CC45C3322622886E441A800F
:1021B00030000E2200F08EF8012309AC5B4223634D
:1021C00016AB1D70224B6560A56025732000099732
:1021D000E661A363FEF7DCFA194C2000FEF790F9E4
:1021E0001D4A1E49200000F03BF819B0F0BDC04662
:1021F0007C00002000100240680000206C000020DD
:10220000000400487000002000080048740000200E
:10221000000C0048C800002078000020001400488E
:102220008400002000380140800000200030014080
:10223000340100207FBB000010E000E03C010020E2
:102240008C0000206400B80B4023000800C0004050
:10225000005000081023000800000020910700082B
:102260000B0010B50100180000F002F810BD0000CE
:1022700010B5040004481300002804D00A0002200E
:10228000210000E000BF10BD0000000070B5002676
:102290000C4D0D4C641BA410A64209D1002600F081
:1022A0002BF80A4D0A4C641BA410A64205D170BD40
:1022B000B300EB5898470136EEE7B300EB58984768
:1022C0000136F2E75C2300085C2300085C23000869
:1022D00064230008002310B59A4200D110BDCC5CE5
:1022E000C4540133F8E703001218934200D1704739
:1022F00019700133F9E70000F8B5C046F8BC08BC16
:102300009E467047F8B5C046F8BC08BC9E4670476C
:102310000000000001006400B80B00C00040000095
:102320000000000000000000C911000800000000CB
:10233000000000000D120008000000000000000076
:10234000C11F000800000000000000002D0B000865
:0C2350000000000000000000F50B000879
:08235C00E9000008F52000086B
:04236400C1000008AC
:102368000000000000000240080002401C0002407B
:0C237800300002404400024058000240C7
:0400000508000249A4
:00000001FF
