:020000040800F2
:10000000001000205D020008AD020008AD020008EB
:1000100000000000000000000000000000000000E0
:10002000000000000000000000000000AD02000819
:100030000000000000000000AD02000805050008F7
:10004000AD02000800000000AD020008AD0200088B
:10005000AD020008AD020008AD020008AD020008C4
:1000600000000000610600088D060008D90600089F
:10007000AD020008AD0200083D08000800000000C5
:10008000B10500080000000000000000DD050008C8
:10009000000000000906000835060008AD0200084F
:1000A00000000000AD020008000000008505000807
:1000B0000000000000000000000000000000000040
:1000C00010B5064C2378002B07D1054B002B02D02E
:1000D000044800E000BF0123237010BD2000002071
:1000E000000000006C290008044B10B5002B03D061
:1000F0000349044800E000BF10BDC04600000000F6
:10010000240000206C29000802B471464908490007
:10011000095C49008E4402BC7047C04603B4714676
:10012000490840004900095E49008E4403BC7047FD
:1001300003B47146490840004900095A49008E44F9
:1001400003BC7047002243088B4274D303098B42DF
:100150005FD3030A8B4244D3030B8B4228D3030C97
:100160008B420DD3FF22090212BA030C8B4202D339
:100170001212090265D0030B8B4219D300E0090A61
:10018000C30B8B4201D3CB03C01A5241830B8B426A
:1001900001D38B03C01A5241430B8B4201D34B0353
:1001A000C01A5241030B8B4201D30B03C01A5241B8
:1001B000C30A8B4201D3CB02C01A5241830A8B423D
:1001C00001D38B02C01A5241430A8B4201D34B0226
:1001D000C01A5241030A8B4201D30B02C01A52418A
:1001E000CDD2C3098B4201D3CB01C01A524183093E
:1001F0008B4201D38B01C01A524143098B4201D378
:100200004B01C01A524103098B4201D30B01C01AA2
:100210005241C3088B4201D3CB00C01A524183081C
:100220008B4201D38B00C01A524143088B4201D349
:100230004B00C01A5241411A00D2014652411046A9
:100240007047FFE701B5002000F006F802BDC04688
:100250000029F7D076E770477047C0460D488546BD
:100260000D480E490E4A002302E0D458C45004330E
:10027000C4188C42F9D30B4A0B4C002301E01360E5
:100280000432A242FBD300F04FFA02F039FB01F036
:1002900047FFFEE7001000200000002020000020A3
:1002A000E82900082000002050020020FEE74369F2
:1002B000013343617047000000280BD004280BD0A5
:1002C00005280BD0063843425841054B40421840A0
:1002D000C01870470348FCE70348FAE70348F8E70B
:1002E000C0C62D00006CDC0200366E01001BB7009A
:1002F0007021034A000113688B4318431060704754
:10030000041002400321034A13688B431843106012
:100310007047C04604100240802303499B040A68CA
:100320001A42FCD07047C046001002408023034AA6
:100330005B0411680B4313607047C0460010024015
:10034000802303499B020A681A42FCD07047C046CA
:10035000001002408023034A5B0211680B431360C4
:100360007047C046001002408022044BD201196839
:100370001143196019681142FCD0704718100240EF
:10038000034B10B518684005400FFFF795FF10BDEF
:1003900004100240034A0449136800020B4018434A
:1003A0001060704704100240FFF8FFFF034A044941
:1003B000136880040B40184310607047041002401B
:1003C000FFFFC3FF8022044B92021968114319609A
:1003D00019681142FCD07047141002408022044B6F
:1003E000D20219681143196019681142FCD0704794
:1003F000141002400122044B196811431960196856
:100400001142FCD07047C046141002408022044BB9
:10041000120119681143196019681142FCD0704724
:10042000181002400421234B1A6813688B43136091
:10043000214A224B02391B6813688B431360204BFF
:100440001A68002393611F4A126893611E4A12685A
:1004500093611E4A11680A681203120B0A601C4A53
:100460001C4912681C4A53801C4A12680A685204CC
:10047000520C0A601A491B4A12680A685204520C4C
:100480000A60194A194912680A685204520C0A6033
:100490001749184A12680A685204520C0A60164931
:1004A000164A12680A685204520C0A60144A12680A
:1004B0001365704784000020003801409000002040
:1004C0007000002074000020800000200400002044
:1004D0008800002008000240003001400800002091
:1004E0001C0002400C0000201000002030000240E0
:1004F0004400024014000020580002401800002070
:100500008C000020054B10B51C68002C05D023681A
:1005100020001B689847A468F7E710BD4801002039
:10052000037B002B0CD101330373064B5A684260E6
:10053000002A00D090601A685860002A00D1186024
:100540007047C04648010020F0B50125030041185E
:100550000A4E0B488B420FD008241A7850404210A4
:100560002840070090B2002F01D0724090B2013CA9
:10057000002CF4D10133EDE7F0BDC04601A0FFFF30
:10058000FFFF0000074B10B51C68002C05D0236846
:1005900020001B6898476468F7E7034B034A1A601A
:1005A00010BDC04668000020203801405F0A0200EC
:1005B000084B10B51C68002C05D0236820001B6870
:1005C00098476468F7E70821034A138A8B4313822C
:1005D00010BDC0466000002000040040084B10B56C
:1005E0001C68002C05D0236820001B6898476468AD
:1005F000F7E70821034A138A8B43138210BDC046D4
:100600005C00002000200040084B10B51C68002C46
:1006100005D0236820001B6898476468F7E7082125
:10062000034A138A8B43138210BDC0465800002032
:1006300000440140084B10B51C68002C05D023680D
:1006400020001B6898476468F7E70821034A138A6B
:100650008B43138210BDC046540000200048014067
:10066000084B10B51C68002C05D0236820001B68BF
:1006700098476468F7E70F23034A11680B43136038
:1006800010BDC04650000020040002400F4B70B562
:100690001C68002C05D0236820001B6898476468FC
:1006A000F7E7F0220A4D29680A432A60094A1468CC
:1006B000002C05D0236820001B6898476468F7E782
:1006C000F0232A681B0113432B6070BD4C000020EF
:1006D0000400024048000020104B70B51C68002C3C
:1006E00005D0236820001B6898476468F7E7F0226C
:1006F0000B4D120229680A432A600A4A1468002C2A
:1007000005D0236820001B6898476468F7E7F0234A
:100710002A681B0313432B6070BDC04644000020B1
:10072000040002404000002037B56B46DD1D002369
:1007300007221A492B700B6893431A0001231343B5
:100740000B60FFF707FEFFF7FBFD2C780134E4B2E6
:100750002C70002CF9D12000FFF7CAFD2000FFF714
:1007600019FE0420FFF722FE80230D4A5B02116868
:100770000B431360FFF7DAFDFFF7CEFD2B78013353
:10078000DBB22B70002BF9D10220FFF7BBFD2B78D9
:100790000133DBB22B70002BF9D137BD00200240B2
:1007A000041002404A688B68002A0DD0002B08D044
:1007B00093608B685A6000234B608B6070470360C6
:1007C000F8E742609360F6E7002BF8D103604360DE
:1007D000F1E7000010B5037B0100002B04D00023DB
:1007E00003730248FFF7DEFF10BDC046480100203A
:1007F000002310B54361FFF7EDFF10BD10B50400F5
:10080000024B0360FFF7E6FF200010BD9C290008A3
:10081000084B10B51C68002C05D0236820001B680D
:1008200098476468F7E70821034A138A8B431382C9
:1008300010BDC04664000020002C014010B5FFF739
:10084000E7FF10BD012370B5040003700D001222F4
:100850000021023002F081F820001422002114301F
:1008600002F07BF8200012220021283002F075F8F7
:100870002000122200213A3002F06FF820000922F5
:1008800000214C3002F069F82200002321005C3284
:10089000A56513706366114A114B603123661368B6
:1008A000A466002B02D1116004E013005A68002AEC
:1008B000FBD159600023210023670A4A0A4B6C319F
:1008C000E36613686467002B02D1116004E0130033
:1008D0005A68002AFBD15960200070BD68000020D2
:1008E000A82900084C000020B4290008F0B5050034
:1008F000203585B004000E22FF21280002F02DF8DB
:1009000001235B4223630E220021684602F025F892
:10091000A36B802219000126D2009818226B88420E
:100920000FD0013222630A780D2A08D84F78A21816
:100930000132D7776F460A78BE540231EEE7FF2ABC
:10094000FBD1226B334952009B18C21AD210002AE5
:100950001CDD1E888E4203D15E888E4209D0023390
:100960006A4698421FD0012300203434237005B01A
:10097000F0BD9E888E4201D00433F1E7DE888E42BE
:1009800001D00633ECE70833013AE0E7C21A52100F
:10099000022A1BD0032A14D0012A1DD119881D4A0E
:1009A0009142DDD16A4603AB1178002903D051781A
:1009B000002913D101320E236B4400209A42D6D174
:1009C00020E01988134A9142CAD102331988114A8A
:1009D0009142C5D10233E1E70300C1E791780029D4
:1009E00001D10232E7E7D178002901D10332E2E7F1
:1009F00004329A42D8D16B46187B0028B7D0587B76
:100A00000028B4D0E0690E22290001F09DFF0120EA
:100A1000ADE7C046FFFF0000024B18684004C00F5E
:100A20007047C04610040048024B18688004C00F8D
:100A30007047C04610040048024B1868C004C00F3D
:100A40007047C046100400480120024B1B689B08F9
:100A500098437047100400482022064B1A60036830
:100A6000A03A19780A4301211A705A788A435A70B9
:100A70007047C046180000488022044B12041A60D8
:100A80000823026851780B435370704718000048E0
:100A900010B504004068FFF7DFFF6068FFF7ECFF68
:100AA0000023237010BD10B504004068FFF7D4FF89
:100AB0006068FFF7E1FF0023237010BD10B504004C
:100AC0000078013803280FD8FFF71EFB020F121E13
:100AD000FFF7AAFF002807D06068FFF7BDFF606836
:100AE000FFF7CAFF0023237010BDFFF7A5FFF1E752
:100AF0000A4B1021625E5B6A1BB29A42EFDAFFF783
:100B00009BFF0028EBD1EFE7044B1021625E5B6A8C
:100B10001BB29A42E3DDFFF787FFF2E7002C0140AA
:100B20008022054BD2031A602023026811780B4300
:100B300040218B4313707047180000488022054BFA
:100B400052021A600423026851780B4302218B433E
:100B5000537070471804004870B50400007A0138DB
:100B600004280FD80F4DFFF7CFFA031103110E0021
:100B70001422A35EE06863819BB2EB6305232372BA
:100B8000FFF7DCFF70BDE068FFF766FFE068FFF786
:100B900073FFA38A0822E38200232372EB68934346
:100BA000EB60EFE7002C014080220821034B1A6024
:100BB000026853788B4353707047C0461800004852
:100BC0004023044A1360026811780B4320218B43B1
:100BD000137070471800004870B5040000780328AF
:100BE00041D8FFF791FA02244151284D2B681B058B
:100BF00029D4FFF721FF00280BD06068FFF790FF92
:100C00006068FFF79BFF6068FFF7CEFF0223237049
:100C100029E02B68DB0426D46068FFF7D1FF606809
:100C2000FFF78CFF6068FFF7BFFF0123EFE7174B6B
:100C30001D6880231B011D400AD06068FFF70CFF70
:100C40006068FFF719FF0022114B5A620323DEE7A9
:100C5000FFF7F2FE002806D06068FFF7FDFE60682F
:100C6000FFF70AFF257070BD084B1B681B05E4D415
:100C7000FFF7DAFE0028F6D06068FFF7EDFE606847
:100C8000FFF7FAFE0423C2E70023C0E71004004880
:100C9000002C0140037810B50400012B13D0002B69
:100CA00002D0022B25D010BD4068FFF789FF606895
:100CB000FFF744FF6068FFF7CFFE6068FFF774FF3F
:100CC00001232370EFE7FFF7B7FE0028EBD0606841
:100CD000FFF7D2FE0D4BE2685B6A60681380FFF796
:100CE0001FFF6068FFF72AFF6068FFF75DFF0223C0
:100CF000E7E7FFF799FE0028D5D06068FFF7BCFE54
:100D0000024B22695B6A13800323DAE7002C01405F
:100D10000122054B1A600223026851780B4304211B
:100D20008B4353707047C0461804004870B50400E8
:100D30000D001622A35EA582AB4227D0207AC0B256
:100D4000052823D8FFF7E0F9037289A6B8CC082359
:100D5000864EF2681343F360736A1BB29D4232DA27
:100D6000E068FFF72DFF726A218B521A12B295428A
:100D70000DDBE068FFF7E2FEE068FFF76DFE04239D
:100D8000ADB2F5632372E068FFF70EFF70BD736AC2
:100D90005B1A1BB29D42F6DAE068FFF7B9FF8021CB
:100DA000734A8903E368116001221B6859780A437A
:100DB0007F215A701A780A401A70238B5D19ADB2E0
:100DC000F5630323DEE7736A1BB29D42DEDDE06854
:100DD000FFF7A6FE726A238B9A1812B2954209DCBD
:100DE000E068FFF7ABFEADB2E068FFF735FEF563F4
:100DF0000223C7E7726A9B181BB29D42C3DDE068FD
:100E0000FFF786FF80215A4A8903E36811600121B8
:100E10007F201B685A780A435A701A7802401A7069
:100E2000238BED1AADB2F5632172ACE74F4E238BE5
:100E3000726A9A1812B295420BDCE068FFF77EFEE8
:100E4000726A238B9B189BB26381F3630523237221
:100E50009CE7ED1AADB2F56398E744494B6A1BB2C3
:100E60009D4208DAE068FFF7F7FDE068FFF704FE4F
:100E7000002323725DE74A6A238B9A1812B29542C7
:100E800000DA83E7ED1AADB2CD63E068FFF740FF0B
:100E90000123DCE7354E218B736A4A195B1A92B243
:100EA0001BB2F2639D4200DA70E7E068FFF746FE8E
:100EB000736A228B9B1AC6E72C494B6A1BB29D4270
:100EC000D0DC4A6A238BD21A12B2954200DD5DE76C
:100ED0005D19ADB2CD63E068FFF71AFF0323B6E7F3
:100EE000244B1A6852060CD40A21625EAA4208DA20
:100EF0001E4A516A228B521812B2954201DA65815C
:100F000044E71A68520606D4184E228B716A5218AA
:100F100012B2954216DC1A6852061BD41B685B0697
:100F200000D433E7114E228B736A9B1A1BB29D4289
:100F300000DB2BE7E068FFF7EBFE238B5D19ADB21A
:100F4000F563CBE7E068FFF7E3FE238BED1AADB264
:100F5000F5639DE70A21625EAA42DFDD034A218B29
:100F6000526A521A12B29542D8DDC8E7002C0140ED
:100F700018000048100000480122044B19689143F2
:100F8000196019681142FCD17047C0463000024018
:100F900070B58024074B24011B68234209D0856863
:100FA000FFF7EAFF044B5C351A6814431C60012309
:100FB0002B7070BD1C380140203801400122044BC9
:100FC00019689143196019681142FCD17047C046F5
:100FD0001C0002400123024A11680B431360704752
:100FE0003000024010B52024084B1B6823420CD06F
:100FF000FFF7E4FFFFF7C0FFFF22054B1A60FFF782
:10100000E9FF044B1A6814431C6010BD0000024045
:10101000340002400400024010B5FFF7DFF903205E
:1010200001210E4B1A6882431A601A680A431A603B
:101030000B4B1A688A431A601A681A60094B1A68BF
:1010400082431A601A681A60074B1A688A431A604A
:101050001A681A60054B1A681A6010BD000400482F
:1010600004040048080400480C0400482004004818
:1010700010B5FFF7A7F9902380218020DB051A68BF
:101080000E4CC90122401A601A68114319600C4BBA
:101090001968814319601A681A600A4B1A6822405D
:1010A0001A601A681A60084B1A6882431A601A6834
:1010B0001A60064B1A681A6010BDC046FF3FFFFF5A
:1010C00004000048080000480C00004820000048C8
:1010D00010B5FFF777F9902380214020DB051A68CF
:1010E0000E4C490122401A601A68114319600C4BDA
:1010F0001968814319601A681A600A4B1A682240FD
:101100001A601A681A60084B1A6882431A601A68D3
:101110001A60064B1A681A6010BDC046FFCFFFFF69
:1011200004000048080000480C0000482000004867
:1011300010B5FFF747F9902380212020DB051A68BE
:101140000E4CC90022401A601A68114319600C4BFA
:101150001968814319601A681A600A4B1A6822409C
:101160001A601A681A60084B1A6882431A601A6873
:101170001A60064B1A681A6010BDC046FFF3FFFFE5
:1011800004000048080000480C0000482000004807
:1011900010B5FFF723F9C0200F4B1A6882431A607D
:1011A000402219680A4308211A600C4B1A688A43C6
:1011B0001A601A681A600A4B1A6882431A601A6821
:1011C0001A60084B1A688A431A601A681A60064B3C
:1011D0001A681A6010BDC0460004004804040048A4
:1011E000080400480C0400482004004810B5FFF72C
:1011F000E9F89022D20513680F489B009B08136002
:1012000080231168DB050B4313600C4B1968014008
:1012100019601A681A600A4A13689B009B081360D9
:1012200013681360074B1A6802401A601A681A6044
:10123000054B5A685A6010BDFF7FFFFF040000484D
:10124000080000480C0000482000004810B5FFF7D7
:10125000C5F8802120200F4B0F4C1A68C90022408E
:101260001A601A68114319600C4B196881431960A0
:101270001A681A600A4B1A6822401A601A681A60C3
:10128000084B1A6882431A601A681A60064B1A687B
:101290001A6010BD00040048FFF3FFFF040400487B
:1012A000080400480C0400482004004880230C492E
:1012B0001B0310B50B600368102008245A78024302
:1012C0005A701A78A24380241A70064A24061460C1
:1012D0001A7882431A7080239B030B6010BDC046AE
:1012E000180400481800004810B5037B0400002BC8
:1012F00004D00069FFF7DAFF0323237310BD70B534
:1013000004680500237A002B07D0E068FFF7A4FBF0
:10131000E068FFF7B1FB002323726868FFF7E4FF82
:101320000023AB7370BD70B5040000254068FFF763
:1013300093FB6068FFF7A0FB2570A068FFF7D4FF60
:10134000257070BDF0B501261021C34D42682B6891
:10135000D71CFA7FDB0B33408A431B01134385B054
:10136000FB770400FFF758FB202230404301F87F51
:1013700090431843F8776768FFF756FB020003377E
:10138000F87F3240B0431043F8776768FFF754FBAB
:1013900002218022033730404300F87F1201884346
:1013A000296818430A40F87717006368791E8F414F
:1013B0000193D91C0823C87FFF0098433843C8779E
:1013C0002868430502D42868800806400427C87F9F
:1013D000B600B8430643CE77A04E002A01D00022C3
:1013E0007262726A019B01201A84197C9A1D202363
:1013F000D77FC90801409F43490139432700D1776E
:10140000A6373B781900014002938B0103934023D8
:10141000D17F9943039B19430300D1779049096811
:10142000C9098B43DB0003930823D17F9943039BB6
:101430001943D177E368197800239C460B0703D43E
:10144000C906C90F48408446634619011023D07F5E
:1014500098430143D17720780138032826D8FEF736
:1014600067FE04005400CE001601029B002B0DD134
:1014700020005C30FFF70CFB022307212370636818
:101480000533DA7F8A43110001220DE02B681B042B
:101490000ED420005C30FFF7FBFA052207206368BA
:1014A00022709B18D97F81430A43DA7705B0F0BDDB
:1014B0002B681B04FAD526005C363000FFF78CFB46
:1014C0003378032B09D1002340213B70636830003F
:1014D0000633DA7F8A43DA77CCE7042B01D1300078
:1014E000D9E72B685B050BD422000123A5321370CA
:1014F00040223B7063680633D97F0A43DA77EEE710
:10150000FFF7A2FA0028EFD1D0E7029B002B09D009
:1015100001220721019B22700533DA7F8A431100E3
:101520000322C1E72B685B0526D5FFF78DFA00285B
:1015300022D1FFF781FA00282ED1FFF775FA002893
:101540003CD163680A229B5E002B45D0260068369A
:10155000B37B012B4BD0022BA8D1E36E1A7B002A60
:1015600002D01B7B032BA1D12B681B0444D4FFF7B3
:1015700053FA002840D199E722000123A5321370C5
:10158000402220003B70636868300633D97F0A43ED
:10159000DA77FFF7B4FE80E7A268736A1821525E1B
:1015A0001BB29A42C9D020006830FFF7A8FEA3689A
:1015B0001B8B7362726A63681A8477E7A268736A26
:1015C0001A21525E1BB29A42BBD020006830FFF74E
:1015D00096FEA3685B8BECE7736A1BB2002BB5D158
:1015E0002B681B05B2D401233B7023705EE7A36E0A
:1015F0001B7A002B00D059E70023B37356E72B6802
:101600001B0404D420007830FFF74DFA45E72B681F
:101610001B0400D44AE7260078363000FFF73AFB77
:101620003378032B1ED1A26863681820115E300046
:1016300099831A21525EDA83FFF735FA02230721D4
:1016400023706368A7345A1DD37F8B4306390B433D
:10165000D37721702AE7C04610040048002C0140CF
:10166000100000482B685B050CD422000123A53232
:10167000137040223B70636830000633D97F0A4301
:10168000DA77C1E7FFF7E0F90028EED10EE7802610
:101690002B68F600334209D12300A5331B78002BB9
:1016A00008D020004830FFF709FAFFE6FFF7CCF931
:1016B0000028F1D12B68334229D12600A536337892
:1016C000002B28D1200001254830FFF72CFE357073
:1016D00026008C363D703000FFF78AF8FA23DB00D5
:1016E00033613000FEF71CFF402063683A78591DD3
:1016F00006332A40DD7F920185431543DD770523BC
:10170000CA7F3938824323701343CB77CEE6FFF785
:101710009BF90028D1D12B685B0506D52000483005
:10172000FFF7CCF9A53400235FE7FFF78DF9002818
:10173000F4D1BBE610B50400007BC0B205280DD87B
:10174000FEF7E2FC030D17501C36637B002B05D01F
:1017500021002948FFF726F80023637310BD274BAB
:101760001B681B04FAD52069FFF7A0FD0323237330
:10177000F4E7FFF751F90028F0D0F4E7E389A28AF3
:1017800001339BB2E3819A42E8D8012308222373F4
:1017900023691B491B680A601878024310201A70DD
:1017A0005A7882435A7020230B600023E381D5E7E7
:1017B000E389A28A01339BB2E3819A42CED8802189
:1017C0000223104A090223732369116010211B6848
:1017D0001A780A431A705A788A435A702022084BA2
:1017E0001A60E2E7E389A28A01339BB2E3819A425D
:1017F000B4D800232373D9E748010020100400481F
:101800001804004818000048437B002B0CD1074BFC
:101810005A684260002A00D090601A685860002A16
:1018200000D11860012343737047C046480100206F
:10183000184B10B51B6804001B0416D4037B002B47
:1018400013D10822036914491B680A6018780243FF
:1018500010201A705A7882435A7020230B601F3B65
:1018600023732000FFF7D0FF10BD237B022B04D190
:101870002069FFF71BFD042309E0237B042BFAD02A
:10188000237B052BF7D0237BDBB2032BECD1237317
:10189000EAE7C046100400481804004810B50400E8
:1018A000FFF7BAF8002818D1237B002B15D180212F
:1018B000144A09022369116010211B6820001A785C
:1018C0000A431A705A788A435A7020220E4B1A60C3
:1018D00002232373FFF798FF10BD237B012B04D154
:1018E0002069FFF7E3FC052309E0237B042BFAD0F2
:1018F000237B052BF7D0237BDBB2032BECD12373A7
:10190000EAE7C046180000481804004870B5040013
:10191000082910D80800FEF70BFC09000F0015007D
:101920001D00290053005B006200E40162685388D7
:101930001383A268138270BD626893885383A26880
:101940009374F8E76368DB88D03B5A425341C64A38
:101950001370F0E7C44B1A78002A04D061680A8932
:10196000CA82A168CA8101221A70E4E72378022B97
:10197000E1D12600636868360A255D5FB37BB581D7
:10198000002B06D0012BD6D12900A06EFFF7CEF98F
:10199000D1E7E36E1A7B002A02D01B7B032BCAD14E
:1019A000B24B1B681B0406D52900A06EFFF7BEF9D9
:1019B0000123B373BFE7FFF72FF80028F4D1BAE78C
:1019C00062689389D384A2681BB2A3859382B2E72D
:1019D0006368A21DDB89D387A268D382ABE7237833
:1019E000002B13D163681A7C1207A4D501220721AA
:1019F000581D2270C27F06338A43110003220A4316
:101A0000C2772022D97F0A43DA7794E7012B2DD1C0
:101A100063681D7C2B07DE0F002B15DB20005C307C
:101A2000FFF736F8072062682670511DCB7F06321B
:101A30008343CB77937A1B07DB0FD17F19305B0190
:101A400081430B43D37776E707263540022D00D03C
:101A500071E720005C30FFF71BF8042323706368F4
:101A60000533DA7FB2431543DD7764E7032B16D1E4
:101A700063681B7C1B07DD0F002B00DA5BE720008F
:101A80007830FFF710F8072062682570511DCB7F72
:101A900006328343CB77937A1B07DB0FCDE7022B0C
:101AA00060D163681B7C1A07D50F002A04DB200075
:101AB0006830FFF724FCE6E7DA0601D49B0603D57D
:101AC00020006830FFF71BFC63685A7C1307DB0FAC
:101AD000520700D44BE1002B06D1230068339B7BD7
:101AE000002B14D0022B1ED0072663681D7C3540C6
:101AF000022D28D120006830FFF701FC0423626822
:101B000023700532D37FB3431D43D57713E7574B7B
:101B10001B681B0402D4E06EFFF78AFE230002223A
:101B200068339A73E0E7514B1B681B04DCD4E06E0A
:101B3000FFF77EFED8E7FEF76FFF0028EED1E06EDC
:101B4000FFF7ACFEEAE7042D00D0F4E62300A7334C
:101B50001B78002B00D0EEE620006830FFF7CFFBAB
:101B600003237BE7042B00D094E063681B7C1A07F7
:101B7000D50F002A04DB20004830FFF7D4FB82E7B2
:101B8000DB0606D5E06CFEF777FF23000022483322
:101B90001A7063681B7C9B0602D5206DFFF7A4FBBF
:101BA0006268517C0B07DB0F490700D4F4E0002B7F
:101BB00005D1137C9B0602D4206DFFF739FE6368C4
:101BC000E06C1B7C5B063CD48022294B92031A609C
:101BD0000122036859780A437F215A701A780A4013
:101BE0001A706368E06C1B7C7F2B2DD8FEF7A6FF74
:101BF0006268517C8B07DB0FC90700D4D7E0002B4C
:101C000009D1137CDB0606D4250048352B78002B40
:101C10001DD0022B2ED0072663681D7C3540012D78
:101C200000D088E6114B1A68520500D483E61B6881
:101C30005B0700D47FE620004830FFF774FB0223E7
:101C40000CE7FEF709FFCCE7FFF762F8D0E7074B98
:101C50001B689B04DFD4E06CFEF762FFE06CFEF7CC
:101C6000A3FF01232B70D6E76C000020100400486E
:101C700018000048E06CFEF7FFFEECE7564B1B68CF
:101C8000DB04C8D4E06CFEF79BFFE06CFEF78CFF32
:101C90000223E7E7052B00D04DE6072563681A7C91
:101CA0002A40022A0CD121008C31486909698842F6
:101CB00006D30421581D2170C17FA9430A43C2776E
:101CC0001A7C1207D10F002A00DA34E607202170AF
:101CD000591DCA7F06338243CA772021DA7F8A439F
:101CE00092E62378042B00D025E66268D37C59065F
:101CF0001DD5260048363378002B00D01BE6558AC8
:101D0000364BAD045B6AAD0C5B1BE06C3382FEF7B7
:101D100015FFE06CFEF7A0FE002D05D0E06CFEF78D
:101D20004FFFE06CFEF740FF0323337003E6DB094F
:101D300000D100E6260048363378002B00D0FAE5C3
:101D4000558A264BAD045B6AAD0CEB18E06C338210
:101D5000FEF7F4FEE06CFEF77FFE002D05D0E06C90
:101D6000FEF7DEFEE06CFEF71FFF0423DDE7002B2D
:101D700000D1B9E6230068339B7B002B00D1DAE663
:101D8000022B00D0B0E6FEF747FE002800D0ABE6FD
:101D9000E06EFFF783FDA7E6002B00D10FE7137C71
:101DA0009B0600D50BE7206DFFF778FD07E7002BBA
:101DB00000D130E7137CDB0600D52CE72500483541
:101DC0002B78002B00D159E7012B00D023E7E06CE2
:101DD000FEF752FE56E7C04610040048002C0140B2
:101DE00070B5FEF7EFFA9023DB051A68104D114C21
:101DF0002A401A608022196892020A431A600E4B28
:101E00001868204018601A681A600C4B196829403D
:101E100019601A681A600A4B1A6822401A601A6818
:101E20001A600223074A51680B43536070BDC046D5
:101E3000FFFFFCFFFFFEFFFF040000480800004812
:101E40000C0000482000004870B5FEF7BBFA902354
:101E5000DB051A68104D114C2A401A60802219685F
:101E600012030A431A600E4B1868204018601A6863
:101E70001A600C4B1968294019601A681A600A4BDD
:101E80001A6822401A601A681A602023074A5168AB
:101E90000B43536070BDC046FFFFF3FFFFFDFFFF24
:101EA00004000048080000480C00004820000048DA
:101EB00010B5FEF787FA9023C020DB051A6882432D
:101EC0001A60802219680A4308211A600C4B1A68AC
:101ED0008A431A601A681A600A4B1A6882431A60A9
:101EE0001A681A60084B1A688A431A601A681A60DE
:101EF0008023064A5B0111680B43136010BDC04686
:101F000004000048080000480C0000482000004879
:101F100010B5FEF757FA90233020DB051A6882438C
:101F20001A60202219680A4304211A600C4B1A68AF
:101F30008A431A601A681A600A4B1A6882431A6048
:101F40001A681A60084B1A688A431A601A681A607D
:101F50008023064A5B0011680B43136010BDC04626
:101F600004000048080000480C0000482000004819
:101F700010B5FEF727FA90230C20DB051A68824380
:101F80001A60082219680A4302211A600B4B1A686A
:101F90008A431A601A681A60094B1A6882431A60E9
:101FA0001A681A60074B1A688A431A601A681A601E
:101FB0001023054A11680B43136010BD040000484C
:101FC000080000480C0000482000004870B50E00D2
:101FD0000500FFF76DFFFFF79BFFFFF7C9FFFEF757
:101FE000C3F93468FEF7CCF92100FEF7ABF83A4BA1
:101FF0003A4C18603379012B6AD180232268DB00C8
:10200000134323607379002B5ED0802322689B00EA
:102010001343334A2360136832491940B3790026C9
:102020001B030B431360042321680B432360082325
:1020300021680B43402123602B4B18680143196032
:102040008021186801432A201960284908608021EE
:1020500010680904014311608022196852000A4384
:102060001A6080221968D2010A431A60012322688B
:1020700013432360FEF7BEF91D4B1E4A1D601E4B25
:102080001A60FF221D4B1A601D4B5F3A1E601A60DA
:10209000FEF7A0FF1B4B1C4A1D601C4B1A609022D0
:1020A0001B4B1E601A6080222168D2040A43226002
:1020B0008022184912050A600222186802431A6039
:1020C0008023DB000B6070BD2368134A1340A0E738
:1020D0002368124AFAE7C0460C3801400038014034
:1020E00004380140FFCFFFFF083801401438014099
:1020F0003C000240243801403800024034000240D5
:1021000030000240280002402838014024000240EC
:102110001C00024000E100E0FFFDFFFFFFFBFFFFAE
:10212000F0B50025B7B0CA4B0CACCA4E636024337F
:10213000E3602570A660FFF753FEFFF785FEFEF70C
:1021400065F9802107207027C34B49001A6A0A43AA
:102150001A629A688243043802439A60DA69BA4381
:10216000170010223A43DA619A69BC4F8243023861
:1021700002439A619A693A4011439961F021DA6900
:102180008A43110050220A43DA615D621A881043C3
:1021900018801422B35EB24AA38562610FAA22623C
:1021A00010AA62628022AF4BD201A56125776577C4
:1021B000E58316951A60AC4A1368AB4203D111ABA4
:1021C000136005E013005A68002AFBD111AA5A6077
:1021D0000025A64BF18A23631BAB1D7045230AAA79
:1021E0009B181D700E230AA81B18D9871EAB1D70E3
:1021F00010AB6365636623672C93330018332D930C
:10220000330018A92165E16629A90D807E211A33C2
:1022100023A82E9332AB05701D7011A8944BA066B5
:102220000AA8091808330FAA0D702F932AA935ABF5
:102230002264E2642266E2670D706563A563E58748
:102240003095319533951D70AD231B181D70AE234D
:1022500001241B181C70AF231B181D703495FEF74A
:10226000DBFEFEF705FFFEF733FFFEF761FFFEF72B
:102270008FFFFEF7BBFFFEF7E9FFFEF7D3F87D4BBC
:10228000734A1B689D6107239382F389D382338A43
:102290001383B37C137053831823F15E91831A2048
:1022A000335ED383B08A1186111DCB871300724928
:1022B0005033D0841C703F20931DD9873823317C44
:1022C0005087C030548590870B40082B4CD0102B82
:1022D0004DD0182B4ED0202B4ED0282B4FD0302B4A
:1022E0004FD0383B581E834164485B420340E12095
:1022F00040021B1857488C07007C4907C007C90FCC
:10230000C00F49000A930AAB18719971E40F1900C4
:10231000906D5C71FFF75AFE4D4B5C3307930CA830
:10232000FFF710F8079B1B78DBB20593002B00D159
:1023300053E10022FF211700079B1A70504B1B68C6
:1023400000929BB2CE1A04920192414B9A6D197879
:1023500012780223914203D00833002A00D1083BAF
:10236000023B082BF1D8A6E0E1239B01C2E79623AC
:10237000DB01BFE7E123FBE796231B02BAE7E1237A
:10238000FBE796235B02B5E702230193043392E057
:1023900003230193DB188EE006260923023B8AE023
:1023A00000242B4B05999A6D0893069207329446A8
:1023B0007A000992009AA3B2934200D3C7E0089A28
:1023C000E3194C33D35C099A0293634618785B781F
:1023D0000002034360008018089A1BB21018428F55
:1023E000058D0392029A002A00D1A1E02DB2EA0FD6
:1023F000D817AB4242411140039A15B29D4203DA0D
:1024000050424241D3B20293029B1940022301344D
:102410009C44CFE70A23023B072E4CD9073B4AE0F6
:102420000B4BB11E9C6DC9B22000A419FEF78CF8AD
:10243000A31E19780A23C2B2023B91423BD1013C50
:1024400000122278C0B2063B824234D0063332E01A
:10245000D000002094000020002C0140FFFCFFFF72
:10246000C029000800E100E064000020CC29000839
:10247000D02900081C000020E02E00008063FEFF31
:10248000340002405A4B9B6D9A78DF781202174352
:102490001A795979120211437A18013A92B20091CD
:1024A00004925A781300032A05D00423102A02D07C
:1024B0000123019305331800FDF730FEACFFB2FF96
:1024C000E4FF09002D0072FF6B00770091000A23E2
:1024D000023B082EEFD1049B092B00D954E70022C0
:1024E000009B43495D008B6D9D70009B934210DD06
:1024F000BB1808335B00CB189C88886D5600801988
:102500002412C470886D9B88861901323371D2B24F
:10251000EBE7EE1C41E7009B5A000A230932023B1D
:10252000B242C8D1049A033B082AC4D9033B2CE722
:10253000029A9BB2AB42524103981140059A8342E2
:1025400003D9020050424241D2B211405EE7002955
:1025500000D11DE70023264C009A93420DDA06981D
:1025600059004118C879FA18097A52000002A218D5
:10257000084301335080DBB2EEE7049B9F4200D951
:102580000AE77C1C3900A4B20CA8FFF7BFF92700AA
:10259000F3E78023164A5B42916D03264878034394
:1025A0004B70936D019A9A70F7E6114CF1B2A56DDC
:1025B0002800FDF7C9FFA855A26D731C0012D05466
:1025C000FEF7DAFC0236FEF7F9FC0A4AB3B21360F2
:1025D0000123094A11680B43136030BF9FE6FEF7E1
:1025E000CBFCFF22054B1A60FEF7F4FCF5E7C04672
:1025F000D0000020200002401C00024034000240B5
:10260000044B1A69120603D5034A5A60034A5A60FA
:102610007047C0460020024023016745AB89EFCDDB
:1026200070B5464D04002878042818D8FDF76CFDD5
:10263000031D39586D002300343319780323002912
:1026400011D13F4AE0691378E4180134C65CE07F99
:10265000864207D10133DBB20E2B01D0137070BD5F
:102660001170FCE701232B70F9E7364EF368DB07A6
:10267000F5D433691B06F2D5FFF7C2FF0123326997
:10268000134333612E4BA06B1978E3695A5C2E4BD0
:102690001A701B78226B1B020B4352001352022349
:1026A000E1E7284BDA689206D9D52022D9680A4397
:1026B000DA60802219690A431A61234B1A78204B89
:1026C0001B78E3180133DA778022236B9200013301
:1026D0002363934202D90123343423700023C2E7D9
:1026E000184CE368DB07BAD423691B06B7D5FFF79C
:1026F00087FF0223226913432361144B6361402344
:102700002269134323610423ADE70E4BDA68920676
:10271000A5D52022D96800260A43DA6080221969EB
:1027200020000A431A61230034331E7020300E2229
:10273000FF2100F012F926632E7090E73E00002082
:102740003C000020002002403D000020007C0008EA
:10275000414B424AF0B51A609022414BD2051A60B3
:10276000404B414A41491A60414B424A01241A6098
:10277000414B424A99B01A60414B424A1A60424B5F
:10278000424A1A60424B434A1A60434B434A1A601A
:102790000023434A13605360424A5160042193600E
:1027A0001068014311600221106801431160116833
:1027B0003D48214311603D4AC381038242613C4A46
:1027C0004360826102000E32C26101225242026302
:1027D00002003432836003731370364B364F8363C9
:1027E0008023364A8474076011690B431361FEF736
:1027F0007DF8051E21D101AC0E223149200000F0E8
:10280000A3F805A90B0045CC45C3322622886E44A7
:102810001A8030000E2200F097F8012309AC5B42C9
:10282000236316AB1D70234B6560A56025732000E4
:102830000997E661A363FDF7E1FF1B4C2000FDF75C
:102840006FFE204A2049200000F044F81F4920482C
:10285000FDF7F8FF19B0F0BD840000200010024021
:102860007000002074000020000400487FBB0000BE
:1028700078000020000800487C000020000C004880
:102880008000002000140048900000200038014023
:102890008C000020002C0140880000200030014006
:1028A0004801002010E000E0940000206400B80B14
:1028B00000C00040007C00089C2900080020024065
:1028C0008429000800000020FD07000850010020B6
:1028D000D00000200B0010B50100180000F002F835
:1028E00010BD000010B5040004481300002804D0F7
:1028F0000A000220210000E000BF10BD000000001F
:1029000070B500260C4D0D4C641BA410A64209D1D5
:10291000002600F02BF80A4D0A4C641BA410A642B6
:1029200005D170BDB300EB5898470136EEE7B30010
:10293000EB5898470136F2E7DC290008DC2900084B
:10294000DC290008E4290008002310B59A4200D1D0
:1029500010BDCC5CC4540133F8E703001218934255
:1029600000D1704719700133F9E70000F8B5C0468F
:10297000F8BC08BC9E467047F8B5C046F8BC08BC19
:042980009E467047B8
:102984000000000001006400B80B00C0004000001B
:1029940000000000000000002126000800000000E4
:1029A40000000000910F000800000000000000007B
:1029B400E50F00080000000000000000590B0008AB
:1029C40000000000000000003517000800000000AF
:0829D40000000000AF02000842
:0829DC00E90000085127000882
:0429E400C100000826
:1029E8000000000000000240080002401C000240F5
:1029F80030000240440002405800024000000048F5
:040000050800025D90
:00000001FF
