:020000040800F2
:100000000010002049020008990200089902000827
:1000100000000000000000000000000000000000E0
:10002000000000000000000000000000990200082D
:10003000000000000000000099020008750600089A
:1000400099020008000000009902000899020008C7
:100050009902000899020008990200089902000814
:1000600000000000F90600082507000871070008D5
:100070009902000899020008990200080000000097
:10008000990200080000000000000000990200082A
:100090000000000099020008990200089902000877
:1000A000000000009902000800000000CD060008D2
:1000B0000000000000000000000000000000000040
:1000C00010B5064C2378002B07D1054B002B02D02E
:1000D000044800E000BF0123237010BD2800002069
:1000E0000000000078150008044B10B5002B03D069
:1000F0000349044800E000BF10BDC04600000000F6
:100100002C0000207815000802B471464908490007
:10011000095C49008E4402BC7047C04603B4714676
:10012000490840004900095E49008E4403BC7047FD
:10013000002243088B4274D303098B425FD3030A26
:100140008B4244D3030B8B4228D3030C8B420DD339
:10015000FF22090212BA030C8B4202D312120902C7
:1001600065D0030B8B4219D300E0090AC30B8B4205
:1001700001D3CB03C01A5241830B8B4201D38B03B3
:10018000C01A5241430B8B4201D34B03C01A524158
:10019000030B8B4201D30B03C01A5241C30A8B429B
:1001A00001D3CB02C01A5241830A8B4201D38B0286
:1001B000C01A5241430A8B4201D34B02C01A52412A
:1001C000030A8B4201D30B02C01A5241CDD2C3099C
:1001D0008B4201D3CB01C01A524183098B4201D318
:1001E0008B01C01A524143098B4201D34B01C01A03
:1001F000524103098B4201D30B01C01A5241C3087B
:100200008B4201D3CB00C01A524183088B4201D3E9
:100210008B00C01A524143088B4201D34B00C01AD5
:100220005241411A00D20146524110467047FFE741
:1002300001B5002000F006F802BDC0460029F7D045
:1002400076E770477047C0460D4885460D480E4911
:100250000E4A002302E0D458C4500433C4188C4220
:10026000F9D30B4A0B4C002301E013600432A24285
:10027000FBD300F0A5FA01F049F900F045FFFEE7D5
:10028000001000200000002028000020C0150008F9
:1002900028000020D8020020FEE7000000B5062854
:1002A0000AD8FFF731FF040A1018232830001D4A2E
:1002B000538813871C4A538000BD1A4A938853877A
:1002C000194A1371F8E7174BDB88D03B5A42534168
:1002D000164A1370F0E7154B1A78002A04D011491A
:1002E0000A89CA8610490A80012214E00D4B5A89F6
:1002F0000F4B9A80E0E70B4B0C229B5E0C4AD3809D
:10030000094AD380D8E73F22064B9B7B9343402B7F
:1003100003D1084B3C3A1A70CEE7002BCCD1054BE9
:10032000E2E7C0460C010020880000208400002085
:10033000020100200001002000280BD004280BD06F
:1003400005280BD0063843425841054B404218401F
:10035000C01870470348FCE70348FAE70348F8E78A
:10036000C0C62D00006CDC0200366E01001BB70019
:100370007021034A000113688B43184310607047D3
:10038000041002400321034A13688B431843106092
:100390007047C04604100240802303499B040A684A
:1003A0001A42FCD07047C046001002408023034A26
:1003B0005B0411680B4313607047C0460010024095
:1003C000802303499B020A681A42FCD07047C0464A
:1003D000001002408023034A5B0211680B43136044
:1003E0007047C046001002408022044BD2011968B9
:1003F0001143196019681142FCD07047181002406F
:10040000034B10B518684005400FFFF795FF10BD6E
:1004100004100240034A0449136800020B401843C9
:100420001060704704100240FFF8FFFF034A0449C0
:10043000136880040B40184310607047041002409A
:10044000FFFFC3FF8022044B920219681143196019
:1004500019681142FCD07047141002408022044BEE
:10046000D20219681143196019681142FCD0704713
:10047000141002400122044B1968114319601968D5
:100480001142FCD07047C046141002400721034AB5
:1004900013688B43184310607047C0460020024029
:1004A0008023024A11680B431360704710200240FA
:1004B000024B18680006C00F7047C046102002406B
:1004C00010B5FFF7F5FF002804D0034B034A1A606C
:1004D000034A1A6010BDC04604200240230167454C
:1004E000AB89EFCD0123024A11680B4313607047BB
:1004F000102002408023034A5B0111680B43136004
:100500007047C04610200240024B18688006C00F9A
:100510007047C0460C2002402023024A11680B435A
:10052000136070470C200240024B186801231840EA
:100530007047C0460C2002400421324B1A681368F1
:100540008B431360304A314B49181B6813688B4347
:1005500013602F4A2F4B06391B6813688B431360B7
:1005600000222D4B1B689A612C4B1B689A612C4B07
:100570001B689A612B4B19680B681B031B0B0B60E4
:1005800029492A4B1B680B689B059B0D0B6028496A
:10059000284B1B680B689B059B0D0B60264B60214D
:1005A0001B689A60254A264B1B6813689BB2136030
:1005B000244A254B1B6813685B045B0C1360234AB9
:1005C000234B1B6813685B045B0C1360214A224BAE
:1005D0001B6813685B045B0C1360204A204B1B688C
:1005E00013685B045B0C13601E4A1F4B1B68136887
:1005F0005B045B0C13601D4A1D4B1B6813688B4327
:100600001360704778000020002002406000002046
:1006100000380140800000206400002068000020B5
:100620007400002004000020002C01402000002065
:1006300000040040240000201C0000200030014085
:100640007C00002008000240080000201C0002403E
:100650000C00002030000240100000204400024046
:10066000140000205800024018000020002401401F
:1006700000000020054B10B51C68002C05D0236835
:1006800020001B689847A468F7E710BDD001002040
:10069000F0B50125030041180A4E0B488B420FD0DC
:1006A00008241A78504042102840070090B2002FCA
:1006B00001D0724090B2013C002CF4D10133EDE73F
:1006C000F0BDC04601A0FFFFFFFF0000074B10B5C3
:1006D0001C68002C05D0236820001B6898476468BC
:1006E000F7E7034B034A1A6010BDC0465C000020C8
:1006F000203801405F0A0200084B10B51C68002C2E
:1007000005D0236820001B6898476468F7E70F232B
:10071000034A11680B43136010BDC0465800002007
:10072000040002400F4B70B51C68002C05D02368F4
:1007300020001B6898476468F7E7F0220A4D296893
:100740000A432A60094A1468002C05D02368200057
:100750001B6898476468F7E7F0232A681B01134376
:100760002B6070BD540000200400024050000020A7
:10077000104B70B51C68002C05D0236820001B6846
:1007800098476468F7E7F0220B4D120229680A4384
:100790002A600A4A1468002C05D0236820001B68D0
:1007A00098476468F7E7F0232A681B0313432B601C
:1007B00070BDC0464C0000200400024048000020EC
:1007C00037B56B46DD1D002301202B70FFF75EFE61
:1007D000FFF700FEFFF7F4FD2C780134E4B22C7033
:1007E000002CF9D12000FFF7C3FD2000FFF712FE17
:1007F0000420FFF71BFE80230C4A5B0211680B43A9
:100800001360FFF7D3FDFFF7C7FD2B780133DBB291
:100810002B70002BF9D10220FFF7B4FD2B780133A8
:10082000DBB22B70002BF9D137BDC046041002405B
:10083000012370B5040003700D0032220021023044
:1008400000F091FE20000C220021343000F08BFEDD
:10085000200032220021403000F085FE20003222AC
:100860000021723000F07FFE23000022A4331A71B1
:100870001D6008335A601149114A9C601A600A6869
:10088000002A02D10B6004E00A0051680029FBD164
:10089000536023000022B8335A600A490A4A9C6018
:1008A0001A600A68002A02D10B6004E00A0051684D
:1008B0000029FBD15360200070BDC0465C000020C1
:1008C0009815000854000020A415000884B0F0B565
:1008D0008DB01593012303716333C38080230025FA
:1008E00004003B4EDB014381139114920580458047
:1008F0000681202229000C3000F035FE2200354B05
:10090000A6816366344BA465A366344B683259688C
:1009100025676467E166A94200D08A6019685A6059
:10092000002900D11A6026002C36FFF7E3FD2C22A7
:10093000FF21300000F017FE012301AD5B422C22A5
:10094000E3650021280000F00EFE0022606E5100D9
:1009500041180B78DBB22B2B0DD849788C466746B3
:10096000E1182C310F700121E95480230132DB00A2
:100970009A42ECD102E0FF2BF7D1E265E36D5A1CFD
:100980000AD0174A174993420ED8676E5800C05BC9
:10099000884201D10133F6E72300012260331A7047
:1009A0002C2213A920000AE000220123A95C0132B5
:1009B0000B402C2AFAD1002BF2D03100A06D00F0B0
:1009C000C9FD20000DB0F0BC08BC04B01847C046FB
:1009D00000C0FFFF00500008B0150008D001002043
:1009E000FF030000FFFF000070B5FFF72BFD902311
:1009F000DB051A680F4D104C2A401A6080221968D6
:100A0000D2040A431A600D4B1868204018601A6817
:100A10001A600B4B1968294019601A681A60094B53
:100A20001A6822401A601A681A60074B5A685A609E
:100A300070BDC046FFFFFFF3FFDFFFFF040000486B
:100A4000080000480C0000482000004810B5FFF7DF
:100A5000F9FC9022D20513680F489B009B08136095
:100A600080231168DB050B4313600C4B19680140B0
:100A700019601A681A600A4A13689B009B08136081
:100A800013681360074B1A6802401A601A681A60EC
:100A9000054B5A685A6010BDFF7FFFFF04000048F5
:100AA000080000480C0000482000004810B5FFF77F
:100AB000D5FC032001210E4B1A6882431A601A6884
:100AC0000A431A600B4B1A688A431A601A681A6044
:100AD000094B1A6882431A601A681A60074B1A6831
:100AE0008A431A601A681A60054B1A681A6010BDAA
:100AF0000004004804040048080400480C040048AE
:100B00002004004810B5FFF7A9FC0C200F4B1A6811
:100B100082431A60042219680A4302211A600C4BAE
:100B20001A688A431A601A681A600A4B1A68824364
:100B30001A601A681A60084B1A688A431A601A68A1
:100B40001A60064B1A681A6010BDC04600040048BF
:100B500004040048080400480C040048200400482D
:100B60000122044B19689143196019681142FCD1A4
:100B70007047C0463000024070B58024074B240106
:100B80001B68234209D08568FFF7EAFF044BA835AC
:100B90001A6814431C6001232B7070BD1C3801407F
:100BA000203801400122044B1968914319601968EB
:100BB0001142FCD17047C0461C0002400300F0B552
:100BC0008BB00891A8331A780700D2B20492002A99
:100BD00000D118E10022FF2116001A708F4B1C680B
:100BE0000092A4B20C1B0192029209933B00A43321
:100BF0001B6839781A780223914203D00833002AFF
:100C000000D1083B023B082BF0D875E0022300938B
:100C1000043371E003230093DB186DE006240923FD
:100C2000023B69E0A422019B944604335B000793D6
:100C300073000693049BBC4403930823079A9342D2
:100C400000D197E062461268D11801390878D25C69
:100C500000021043069A99187A1800210592128F03
:100C600090424941CAB2059915006A310988049A2F
:100C7000814202D24A424A41D2B203992A401140EB
:100C800003910233DAE70A23023B072C34D9073BEE
:100C900032E03B00A4331D68A11EC9B228002D1903
:100CA000FFF7F6FCAB1E19780A23C2B2023B914251
:100CB00022D1013D00122A78C0B2063B82421BD0ED
:100CC000063319E03B00A4331B689A78DE781202E1
:100CD00016431A795979120211437218013A92B2E5
:100CE000019102925A781300032A05D00423102A96
:100CF00002D00123009305331800FFF70FFAC4FF59
:100D0000CAFFE3FF09002E0093FF5E006B00860020
:100D10000A23023B082CEFD1029B052B00D975E773
:100D20003900019BA4315C000B689C700023019A80
:100D30009A4210DD58008446F2185200BA18958E77
:100D400008682D126044C5700868928E60440133B3
:100D50000271DBB2EBE7033461E7019B5A000A231F
:100D60000932023BA242C7D1029A033B182AC3D9D7
:100D7000033B4CE7039B002B00D14BE738000023DB
:100D8000A430019A93420DDA046859006118CC79B5
:100D9000F218097A52002402BA1821430133518013
:100DA000DBB2EEE7029B9E4200D937E7741C3000AD
:100DB000A4B2089B98472600F4E73A008023A432A7
:100DC00011685B424878032403434B701368009A10
:100DD0009A7024E73D00A4352E68E1B23000FFF799
:100DE00057FC30552A68631C0012D054FFF7B8FE38
:100DF0000234FFF7D7FE0A4BA4B21C600123094A54
:100E000011680B4313600BB0F0BDFFF7A9FEFF2381
:100E1000099A1360044AFE3B1168F2E7340002406D
:100E2000200002401C0002403000024010B5202487
:100E30000A4B1B6823420FD0FFF7B4FEFFF790FE6A
:100E4000FF22074B1A600123064A11680B43136007
:100E5000054B1A6814431C6010BDC04600000240D8
:100E600034000240300002400400024010B5FFF799
:100E7000E9FA9023C020DB051A6882431A608222B7
:100E8000196892010A4308211A60104B1A688A43B4
:100E90001A6080221C68520022431A600C4B1A68A8
:100EA00082431A6080221868D20002431A60094BFC
:100EB0001A688A431A60202219680A431A6080233C
:100EC000054A5B0111680B43136010BD0400004824
:100ED000080000480C0000482000004810B5FFF74B
:100EE000B1FA90233021DB051A688A431A60822206
:100EF00018681201024304201A600F4B1A688243DB
:100F00001A6080221C6822431A600C4A13688B43C3
:100F10001360802311685B0019431160084A11684F
:100F2000814311601021106801431160054A116866
:100F30000B43136010BDC046040000480800004881
:100F40000C0000482000004810B5FFF77BFA902302
:100F50000C24DB051A680220A2431A608222196859
:100F600092000A431A600E4B1A6882431A604022AC
:100F70001968114319600B4B1968A143196019686E
:100F80000A431A60084B1A6882431A6008221968DB
:100F90000A431A601023054A11680B43136010BD01
:100FA00004000048080000480C00004820000048E9
:100FB00070B50E000500FFF759FFFFF78FFFFFF731
:100FC000C3FFFFF711FA3468FFF71AFA2100FFF7A1
:100FD000AFF83B4B3B4C18603379012B00D06BE0F2
:100FE00080232268DB00134323607379002B5FD0DA
:100FF000802322689B001343334A236013683349DC
:101000001940B37901261B030B43136004232168A5
:101010000B432360082321680B43402123602C4BA2
:101020001868014319608021186801432A2019605B
:10103000284908608021106809040143116080225A
:10104000196852000A431A6080221968D2010A43C3
:101050001A60236833432360FFF70CFA1E4B1F4AC4
:101060001D601F4BA0211A60FF221E4B1A60002238
:101070001D4B1A60196019680E431E601B4B1C49FA
:101080001D601C4B19601C4B1A6090321A60802244
:101090002168D2040A4322608022184912050A609E
:1010A0000222186802431A608023DB000B6070BDC7
:1010B0002368134A13409FE72368124AFAE7C046A1
:1010C0000C3801400038014004380140FFCFFFFFD9
:1010D00008380140143801403C00024024380140E7
:1010E0003800024034000240300002402800024034
:1010F00028380140240002401C00024000E100E0CA
:10110000FFFDFFFFFFFBFFFFF7B5FFF715FA072312
:10111000554C5649A3860B883F22E3864B8823878C
:101120000B7923706387230072331A80231D3E3AA4
:10113000DA872300FE3274331A8038238A7813400A
:10114000082B35D0102B36D0182B37D0202B37D08A
:10115000282B38D0302B38D0383B584243414448B4
:101160005B420340962080011B180126500852075D
:10117000D20FB24000936B4689783040C907C90F3F
:10118000197158719A712300A43369461868FFF7E2
:101190000FFF0025032720003649FFF70FFD364BD0
:1011A0001878042824D8FEF7AFFF132A37193E0019
:1011B000E1239B01D9E79623DB01D6E7E123FBE797
:1011C00096231B02D1E7E123FBE796235B02CCE7E2
:1011D00080212A4A49011068084201D01E7007E0A8
:1011E0001068084202D01268520401D504221A7015
:1011F000032D28D82800FEF787FF22282E341F4A07
:1012000011680905F2D411684905EFD480211268EC
:10121000C9010A40EAD1EAE7032D22D0174A126831
:101220005204E3D5E4E70221154A11608021154AF2
:10123000090611600021144A1F701170D8E70F4B86
:101240001D68ED0A354030BFA5E70C4B1B685B05F8
:10125000F9D50225F7E7094B1D68ED04ED0F0235BE
:10126000F1E71E703D00EEE70C0100208800002031
:10127000809C01009D020008000100201000004831
:10128000180400481800004802010020F8B54B4D32
:1012900004002878042818D8FEF736FF031F3A54B4
:1012A0006C002300603319780323002913D1444ACA
:1012B000A06D1378E4182C34C65C2078864207D1E0
:1012C0000133DBB22C2B01D01370F8BD1170FCE799
:1012D000FFF7E6F801232B70F7E7FFF725F9002861
:1012E000F3D1FFF7E5F80028EFD0FFF7E9F8FFF7B3
:1012F000F9F8334B606E1978A36D5A5C314B1A7054
:101300001B78E26D1B020B43520013520223E2E7EB
:10131000FFF7FAF80028D8D0FFF7FEF8FFF7C0F87B
:10132000284B1A78264B1B78E3182C331A70E36D80
:10133000254A0133E365934202DD012360342370C3
:101340000023C8E7FFF7F0F80028BED1FFF7B0F898
:101350000028BAD0FFF7B4F802221C4B19680A43E0
:101360001A601B491B4A1160402219680A431A601F
:101370000423B0E7FFF7C8F8061EA6D0FFF7CCF8A5
:10138000FFF78EF880210022606E89005300124F13
:101390001B5A0132DB195F427B411E408A42F5D164
:1013A000002ECDD023000026200060331E702C308C
:1013B0002C22FF2100F0D7F8E665C1E746000020A7
:1013C0004400002045000020FF03000010200240E0
:1013D00000500008142002400100FFFF10B5C06853
:1013E000FFF754FF10BD00002F4B304AF0B51A60D4
:1013F000902200252E4BD2051A602E4B2E4A012634
:101400001A602E4B2E4A95B01A602E4B2E4A09AC0C
:101410001A602E4B2E4A2F491A602F4B2F4A304804
:101420001A60304B304A1A60304B314A1A60314BE7
:10143000314A1D605D60314B5A609A6006221A6025
:101440001A6832431A60FFF7F3F929002C222000B2
:1014500000F089F880226423D20162816A46E38029
:10146000274B26712381A3810CAB83CB83C283CB13
:1014700083C203CB03C2234E0999A368626830007C
:10148000FFF724FA0623F25E1F4B1D705D809D80DE
:10149000DA80FFF7A9FAFFF7D9FAFFF707FBFFF7A2
:1014A00031FB15B0F0BDC0467800002000100240AE
:1014B0006400002068000020000400486C00002048
:1014C0000008004870000020000C00487400002054
:1014D00000140048D80100206000002000200240D5
:1014E0000C01002080000020003801407C0000201A
:1014F00000300140D00100207FBB000010E000E080
:1015000000C0FFFF880000200201002070B5002607
:101510000C4D0D4C641BA410A64209D1002600F00E
:101520002BF80A4D0A4C641BA410A64205D170BDCD
:10153000B300EB5898470136EEE7B300EB589847F5
:101540000136F2E7B4150008B4150008B415000818
:10155000BC150008002310B59A4200D110BDCC5C28
:10156000C4540133F8E703001218934200D17047C6
:1015700019700133F9E70000F8B5C046F8BC08BCA3
:101580009E467047F8B5C046F8BC08BC9E467047FA
:101590000000000000000000790B000800000000BF
:1015A000000000002D0E00080000000000000000F8
:0415B000DD1300083F
:0815B400E9000008E91300083A
:0415BC00C100000862
:1015C0000024014000000240080002401C000240CC
:1015D00030000240440002405800024010E000E0A9
:0815E000002C01400004004052
:0400000508000249A4
:00000001FF
