:020000040800F2
:100000000010002049020008990200089902000827
:1000100000000000000000000000000000000000E0
:10002000000000000000000000000000990200082D
:10003000000000000000000099020008A10600086E
:1000400099020008000000009902000899020008C7
:100050009902000899020008990200089902000814
:100060000000000025070008510700089D07000850
:100070009902000899020008990200080000000097
:10008000990200080000000000000000990200082A
:100090000000000099020008990200089902000877
:1000A000000000009902000800000000F9060008A6
:1000B0000000000000000000000000000000000040
:1000C00010B5064C2378002B07D1054B002B02D02E
:1000D000044800E000BF0123237010BD2800002069
:1000E00000000000D41F0008044B10B5002B03D003
:1000F0000349044800E000BF10BDC04600000000F6
:100100002C000020D41F000802B4714649084900A1
:10011000095C49008E4402BC7047C04603B4714676
:10012000490840004900095A49008E4403BC704701
:10013000002243088B4274D303098B425FD3030A26
:100140008B4244D3030B8B4228D3030C8B420DD339
:10015000FF22090212BA030C8B4202D312120902C7
:1001600065D0030B8B4219D300E0090AC30B8B4205
:1001700001D3CB03C01A5241830B8B4201D38B03B3
:10018000C01A5241430B8B4201D34B03C01A524158
:10019000030B8B4201D30B03C01A5241C30A8B429B
:1001A00001D3CB02C01A5241830A8B4201D38B0286
:1001B000C01A5241430A8B4201D34B02C01A52412A
:1001C000030A8B4201D30B02C01A5241CDD2C3099C
:1001D0008B4201D3CB01C01A524183098B4201D318
:1001E0008B01C01A524143098B4201D34B01C01A03
:1001F000524103098B4201D30B01C01A5241C3087B
:100200008B4201D3CB00C01A524183088B4201D3E9
:100210008B00C01A524143088B4201D34B00C01AD5
:100220005241411A00D20146524110467047FFE741
:1002300001B5002000F006F802BDC0460029F7D045
:1002400076E770477047C0460D4885460D480E4911
:100250000E4A002302E0D458C4500433C4188C4220
:10026000F9D30B4A0B4C002301E013600432A24285
:10027000FBD300F0BBFA01F077FE01F00FFAFEE7C6
:100280000010002000000020280000202820000886
:1002900028000020DC020020FEE7000000B503007B
:1002A000007BC0B2052814D8FFF72EFF03182346A1
:1002B0002B3A5A7B002A0CD059689A68002945D0FD
:1002C000002A07D08A609A68516000225A609A60BA
:1002D0005A7300BD20488A604160F6E71F4A1268E1
:1002E0005207F6D580211E4A0903116003221A73B2
:1002F000EFE71A4A1268D206EBD58021184A890323
:10030000F3E7DA89198A013292B2DA819142E0D8B0
:10031000012208211A73124A11600022DA81D8E7FB
:10032000DA89198A013292B2DA819142D1D8022255
:1003300020211A730A4AEFE7DA89198A013292B248
:10034000DA819142C5D800221A73E7E7002ABCD0AF
:1003500001480260B8E7C046D401002010040048FC
:100360001804004800280BD004280BD005280BD017
:10037000063843425841054B40421840C018704768
:100380000348FCE70348FAE70348F8E7C0C62D0036
:10039000006CDC0200366E01001BB7007021034ABE
:1003A000000113688B43184310607047041002402B
:1003B0000321034A13688B43184310607047C046FB
:1003C00004100240802303499B040A681A42FCD0AF
:1003D0007047C046001002408023034A5B04116846
:1003E0000B4313607047C04600100240802303494E
:1003F0009B020A681A42FCD07047C04600100240B7
:100400008023034A5B0211680B4313607047C046A8
:10041000001002408022044BD20119681143196078
:1004200019681142FCD0704718100240034B10B5F8
:1004300018684005400FFFF795FF10BD04100240FB
:10044000034A0449136800020B40184310607047C8
:1004500004100240FFF8FFFF034A044913688004B8
:100460000B4018431060704704100240FFFFC3FFA9
:100470008022044B920219681143196019681142D5
:10048000FCD07047141002408022044BD20219683D
:100490001143196019681142FCD0704714100240D2
:1004A0000122044B19681143196019681142FCD0EC
:1004B0007047C046141002400721034A13688B435B
:1004C000184310607047C046002002408023024A53
:1004D00011680B431360704710200240024B1868EC
:1004E0000006C00F7047C0461020024010B5FFF74D
:1004F000F5FF002804D0034B034A1A60034A1A6030
:1005000010BDC0460420024023016745AB89EFCDF2
:100510000123024A11680B43136070471020024008
:100520008023034A5B0111680B4313607047C04688
:1005300010200240024B18688006C00F7047C0466A
:100540000C2002402023024A11680B4313607047BD
:100550000C200240024B1868012318407047C04627
:100560000C2002400421324B1A6813688B4313603D
:10057000304A314B49181B6813688B4313602F4A6C
:100580002F4B06391B6813688B43136000222D4BD9
:100590001B689A612C4B1B689A612C4B1B689A61F3
:1005A0002B4B19680B681B031B0B0B6029492A4B4B
:1005B0001B680B689B059B0D0B602849284B1B682B
:1005C0000B689B059B0D0B60264B60211B689A6096
:1005D000254A264B1B6813689BB21360244A254B9F
:1005E0001B6813685B045B0C1360234A234B1B6876
:1005F00013685B045B0C1360214A224B1B68136871
:100600005B045B0C1360204A204B1B6813685B047F
:100610005B0C13601E4A1F4B1B6813685B045B0C6A
:1006200013601D4A1D4B1B6813688B431360704792
:1006300078000020002002406000002000380140C7
:10064000800000206400002068000020740000206A
:1006500004000020002C0140200000200004004085
:10066000240000201C000020003001407C000020FD
:1006700008000240080000201C0002400C0000207E
:10068000300002401000002044000240140000200E
:100690005800024018000020002401400000002003
:1006A000054B10B51C68002C05D0236820001B6882
:1006B0009847A468F7E710BDD4010020F0B50125E4
:1006C000030041180A4E0B488B420FD008241A78B9
:1006D000504042102840070090B2002F01D07240D5
:1006E00090B2013C002CF4D10133EDE7F0BDC046DF
:1006F00001A0FFFFFFFF0000074B10B51C68002C96
:1007000005D0236820001B6898476468F7E7034B0F
:10071000034A1A6010BDC0465C000020203801402A
:100720005F0A0200084B10B51C68002C05D0236836
:1007300020001B6898476468F7E70F23034A116895
:100740000B43136010BDC046580000200400024057
:100750000F4B70B51C68002C05D0236820001B6867
:1007600098476468F7E7F0220A4D29680A432A602F
:10077000094A1468002C05D0236820001B6898479C
:100780006468F7E7F0232A681B0113432B6070BDF0
:10079000540000200400024050000020104B70B5AF
:1007A0001C68002C05D0236820001B6898476468EB
:1007B000F7E7F0220B4D120229680A432A600A4A21
:1007C0001468002C05D0236820001B6898476468D3
:1007D000F7E7F0232A681B0313432B6070BDC04664
:1007E0004C000020040002404800002037B56B4652
:1007F000DD1D002301202B70FFF75EFEFFF700FEDA
:10080000FFF7F4FD2C780134E4B22C70002CF9D100
:100810002000FFF7C3FD2000FFF712FE0420FFF7C2
:100820001BFE80230C4A5B0211680B431360FFF729
:10083000D3FDFFF7C7FD2B780133DBB22B70002B04
:10084000F9D10220FFF7B4FD2B780133DBB22B7016
:10085000002BF9D137BDC04604100240012370B50A
:10086000040003700D0034220021023001F0A9FBC6
:1008700020000C220021363001F0A3FB200034229E
:100880000021423001F09DFB20003422002176300F
:1008900001F097FB23000022AC331A711D6008336E
:1008A0005A601149114A9C601A600A68002A02D1F4
:1008B0000B6004E00A0051680029FBD1536023005B
:1008C0000022C0335A600A490A4A9C601A600A68CA
:1008D000002A02D10B6004E00A0051680029FBD114
:1008E0005360200070BDC0465C000020F41F00086B
:1008F000540000200020000884B0F0B58DB015939E
:10090000012303716333C3803E4B002503818023A1
:1009100004003D4EDB01C381139114920580458094
:100920004581868120222900103001F04AFB2200F7
:10093000364B2682E366364B24662367354B70328E
:100940005968A567E4676167A94200D08A601968A1
:100950005A60002900D11A6025003035FFF7E0FD0C
:100960003022FF21280001F02CFB01235B423022C2
:1009700063660021684601F024FB01270022E66E31
:10098000510071180B78DBB22F2B0DD849788C46AB
:100990006046E118303108706946CF548023013237
:1009A000DB009A42ECD102E0FF2BF7D16266636E66
:1009B0005A1C0AD0184A194993420ED8E66E5800BC
:1009C000805B884201D10133F6E7230001226833BE
:1009D0001A70302213A920000BE00022012369467F
:1009E000895C01320B40302AF9D1002BF1D029006B
:1009F000206E01F0DDFA20000DB0F0BC08BC04B0A0
:100A00001847C046B80B000000C0FFFF00500008A8
:100A10000C200008D4010020FF030000FFFF0000AD
:100A20000300007810B5042866D8FFF76DFB033586
:100A30004D5D5F008021314A49011068084226D18E
:100A4000802110680901084210D0802280202C49A2
:100A500052020A602B4A80051060802080020860E4
:100A600080210902116002221A7045E012680A42D0
:100A700042D18024012222482249A40502600C6050
:100A80008024A4020460802000020860ECE7126861
:100A90000A4231D00322E7E78020184940010A6862
:100AA000024007D00221164A11608021154A09062A
:100AB0001160EFE7096809051ED50220104908609A
:100AC000802010490006E0E70C4A1168C904E9D407
:100AD0001268520510D50221094A11608021094A85
:100AE000090611600422BFE70022BDE78021034A06
:100AF000C90012680A40B7D010BDC04610000048B7
:100B000018040048180000480300007810B50328B6
:100B100019D82D4AFFF7F8FA0229354180211068CB
:100B20000901084210D080228020284952020A6020
:100B3000274A800510608020800208608021090219
:100B4000116002221A7010BD12680A42FBD1802483
:100B500001221E481E49A40502600C608024A402E4
:100B60000460802000020860ECE712681205EAD5F4
:100B70000221164A11608021154A090611600022DF
:100B8000E0E712685205DED50221104A116080218B
:100B90000F4A090611600322D4E7012180240B4883
:100BA000A40101600A490C608024A402046080242E
:100BB00024020C601268D204C5D502220260802291
:100BC00012060A60DBE7C04610000048180400481F
:100BD0001800004830B503000181007805281CD8B2
:100BE000FFF792FA033D4B646C7B5A680020125E5B
:100BF0008A4218DD0124554804605C89121B544C5C
:100C000091420BDB80229205226004221A7080231D
:100C10009B02036080231B02236030BD802292016F
:100C200022600322F2E78A42F7DA8020474C400232
:100C3000206058898218464891420BDC8022920538
:100C4000026002221A7080239B02236080231B0211
:100C50000360E2E78022920102600122F2E75A6813
:100C60000020125E588912189142D6DC8020384943
:100C7000800508605A80052216E05A680020105E40
:100C8000884208DD0221314A11608021304A09067C
:100C90001160002208E05A8912189142BDDB8021C0
:100CA0002B4A8901116001221A70B6E75A680020A8
:100CB000125E5889121A9142AFDBD7E75A680020BA
:100CC000125E8A42DEDB5889121A9142A5DA80212F
:100CD0001F4A890111600322E6E71E4A1068C00717
:100CE0000CD40224185F884208DA58680024005F98
:100CF0005C890019814201DA59808EE7012410686D
:100D0000204206D158680025405F5D894019814224
:100D10000ADC1068C0070DD41268D20700D47CE743
:100D20005A680020125ECEE78021094A89011160CD
:100D30001C7072E70224185F8842EDDD58680024B9
:100D4000005F5C89001B8142E6DDD5E7180400489E
:100D50001800004810040048026930B50023D15E35
:100D60000425445F03688C4205DA00255C5F8C42F1
:100D700001DD002181840024115F00255C5F8C422D
:100D800005DA02255C5F8C4201DD012181840024AB
:100D9000115F02255C5F8C4205DA04255C5F8C42A2
:100DA00001DD022181840024115F04255C5F8C42F7
:100DB00005DA06255C5F8C4201DD03218184002475
:100DC000115F06255C5F8C4205DA08255C5F8C426A
:100DD00001DD042181840024115F08255C5F8C42C1
:100DE00005DA0A255C5F8C4201DD0521818400243F
:100DF000115F0A255C5F8C4205DA0C255C5F8C4232
:100E000001DD062181840024115F0C255C5F8C428A
:100E100005DA0E255C5F8C4201DD07218184002408
:100E2000115F0E255C5F8C4205DA10255C5F8C42F9
:100E300001DD082181840024115F10255C5F8C4254
:100E400005DA12255C5F8C4201DD092181840024D2
:100E5000115F12255C5F8C4205DA14255C5F8C42C1
:100E600001DD0A2181840024115F14255C5F8C421E
:100E700005DA16255C5F8C4201DD0B21818400249C
:100E8000115F16255C5F8C4205DA18255C5F8C4289
:100E900001DD0C2181840024115F18255C5F8C42E8
:100EA00005DA1A255C5F8C4201DD0D218184002466
:100EB000115F1A255C5F8C4205DA1C255C5F8C4251
:100EC00001DD0E2181840021525E1C24195F9142B4
:100ED00005DA1E215B5E934201DD0F23838430BD62
:100EE000437B002B0CD1074B5A684260002A00D08C
:100EF00090601A685860002A00D11860012343737B
:100F00007047C046D4010020124B10B51B685B0728
:100F10000AD4037B002B07D108220F4B1A60012350
:100F20000373FFF7DDFF10BD037B022B05D1802289
:100F3000094B92031A60042309E0037B042BFAD0C7
:100F4000037B052BF7D0037BDBB2032BEBD10373C1
:100F5000E9E7C0461004004818040048124B10B5D9
:100F60001B68DB060AD4037B002B07D120220F4B22
:100F70001A6002230373FFF7B3FF10BD037B012B3D
:100F800005D18022094B12031A60052309E0037B77
:100F9000042BFAD0037B052BF7D0037BDBB2032BAA
:100FA000EBD10373E9E7C046100400481804004879
:100FB00070B506002C3635780400022D23D0032DA1
:100FC00033D0012D2AD1FFF7C7FE236900229A5E94
:100FD0002621635E9A4202D1002333701EE0534BF8
:100FE0001A682A4207D12422A35EE418637D002BED
:100FF00014D00323F1E71B682B420FD02422A35EF9
:10100000E418E37CF3E70424484DC0682B682342CE
:1010100005D0FFF7A3FF2B68DB06DDD470BDFFF71B
:1010200073FF2B682342D7D1F8E7437D002B03D011
:10103000036800229B5E0385A37D002B03D02368F9
:1010400002229B5E2385E37D002B03D023680422CC
:101050009B5E2385237E002B03D0236806229B5EA4
:101060002385637E002B03D0236808229B5E2385A3
:10107000A37E002B03D023680A229B5E2385E37E98
:10108000002B03D023680C229B5E2385237F002B3B
:1010900003D023680E229B5E2385637F002B03D041
:1010A000236810229B5E2385A37F002B03D0236837
:1010B00012229B5E2385E37F002B03D0236814223A
:1010C0009B5E2385631CDB7F002B03D023681622E5
:1010D0009B5E2385A31CDB7F002B03D02368182293
:1010E0009B5E2385E31CDB7F002B03D023681A2241
:1010F0009B5E2385231DDB7F002B03D023681C22EE
:101100009B5E23852823E15EA068FFF763FD2A220A
:10111000A35EE3181B7D002B00D07FE72623E15E52
:10112000A068FFF757FD012357E7C04610040048A9
:1011300070B5FFF79DF99023DB051A680F4D104C31
:101140002A401A6080221968D2040A431A600D4BA3
:101150001868204018601A681A600B4B19682940FB
:1011600019601A681A60094B1A6822401A601A68D6
:101170001A60074B5A685A6070BDC046FFFFFFF304
:10118000FFDFFFFF04000048080000480C00004893
:101190002000004810B5FFF76BF99022D2051368C4
:1011A0000F489B009B08136080231168DB050B43ED
:1011B00013600C4B1968014019601A681A600A4ADA
:1011C00013689B009B08136013681360074B1A6831
:1011D00002401A601A681A60054B5A685A6010BDBE
:1011E000FF7FFFFF04000048080000480C00004893
:1011F0002000004810B5FFF747F9032001210E4BEE
:101200001A6882431A601A680A431A600B4B1A68FC
:101210008A431A601A681A60094B1A6882431A6076
:101220001A681A60074B1A688A431A601A681A60AB
:10123000054B1A681A6010BD0004004804040048F9
:10124000080400480C0400482004004810B5FFF7CB
:101250001BF90C200F4B1A6882431A60042219688C
:101260000A4302211A600C4B1A688A431A601A68F2
:101270001A600A4B1A6882431A601A681A60084B8F
:101280001A688A431A601A681A60064B1A681A604C
:1012900010BDC0460004004804040048080400488B
:1012A0000C0400482004004810B5FFF7EDF8C020FA
:1012B0000F4B1A6882431A60402219680A430821BA
:1012C0001A600C4B1A688A431A601A681A600A4B33
:1012D0001A6882431A601A681A60084B1A688A43AF
:1012E0001A601A681A60064B1A681A6010BDC04668
:1012F0000004004804040048080400480C040048A6
:101300002004004810B5FFF7BFF8802120200F4BC4
:101310000F4C1A68C90022401A601A6811431960FC
:101320000C4B1968814319601A681A600A4B1A68D5
:1013300022401A601A681A60084B1A6882431A60C1
:101340001A681A60064B1A681A6010BD000400483B
:10135000FFF3FFFF04040048080400480C040048A1
:10136000200400480122044B196891431960196850
:101370001142FCD17047C0463000024070B5802455
:10138000074B24011B68234209D08568FFF7EAFF59
:10139000044BB0351A6814431C6001232B7070BDD8
:1013A0001C380140203801400122044B1968914348
:1013B000196019681142FCD17047C0461C000240F8
:1013C0000123024A11680B4313607047300002404A
:1013D00010B52024084B1B6823420CD0FFF7E4FF14
:1013E000FFF7C0FFFF22054B1A60FFF7E9FF044B30
:1013F0001A6814431C6010BD000002403400024013
:101400000400024010B5FFF733F89023C020DB053D
:101410001A6882431A608222196892010A430821DD
:101420001A60104B1A688A431A6080221C685200A6
:1014300022431A600C4B1A6882431A608022186893
:10144000D20002431A60094B1A688A431A602022AC
:1014500019680A431A608023054A5B0111680B432F
:10146000136010BD04000048080000480C0000484C
:101470002000004810B5FEF7FBFF90233021DB056C
:101480001A688A431A6082221868120102430420F3
:101490001A600F4B1A6882431A6080221C6822432C
:1014A0001A600C4A13688B431360802311685B0039
:1014B00019431160084A11688143116010211068B6
:1014C00001431160054A11680B43136010BDC0460B
:1014D00004000048080000480C00004820000048B4
:1014E00010B5FEF7C5FF90230C24DB051A68022017
:1014F000A2431A608222196892000A431A600E4BB6
:101500001A6882431A6040221968114319600B4B14
:101510001968A143196019680A431A60084B1A68D0
:1015200082431A60082219680A431A601023054A88
:1015300011680B43136010BD040000480800004808
:101540000C0000482000004870B50E000500FFF7B1
:1015500059FFFFF78FFFFFF7C3FFFEF75BFF34680C
:10156000FEF764FF2100FEF7E3FD3A4B3A4C1860AA
:101570003379012B6AD180232268DB001343236077
:101580007379002B5ED0802322689B001343334A7B
:101590002360136832491940B37900261B030B43BB
:1015A0001360042321680B432360082321680B4345
:1015B000402123602B4B1868014319608021186873
:1015C00001432A2019602849086080211068090415
:1015D000014311608022196852000A431A60802278
:1015E0001968D2010A431A60012322681343236059
:1015F000FEF756FF1D4B1E4A1D601E4B1A60FF2250
:101600001D4B1A601D4B5F3A1E601A60FFF7D8FE33
:101610001B4B1C4A1D601C4B1A6090221B4B1E600A
:101620001A6080222168D2040A432260802218496D
:1016300012050A600222186802431A608023DB0048
:101640000B6070BD2368134A1340A0E72368124A59
:10165000FAE7C0460C380140003801400438014028
:10166000FFCFFFFF08380140143801403C00024022
:10167000243801403800024034000240300002406B
:101680002800024028380140240002401C0002408B
:1016900000E100E0FFFDFFFFFFFBFFFFF0B5A3B09F
:1016A000FEF760FFFFF744FDFFF774FDFFF7A2FDB3
:1016B000FFF7CCFD0723D84FD84DFB862B883F2260
:1016C0003B876B887B872B793B70BB873B007633EE
:1016D0001A80BB1D3E3ADA873B00FE3278331A800F
:1016E0003823AA781340082B00D1D3E0102B00D167
:1016F000D3E0182B00D1D3E0202B00D1D2E0282B4F
:1017000000D1D2E0302B00D1D1E0383B591E8B41C3
:10171000C3495B420B40E12149025B180124A978CF
:1017200050085207D20FA240204016932B34C9070D
:101730000CAB1B19C90F19702D210CAB5B1818705D
:1017400001310CAB5B181A703B000024AC331868F5
:1017500016A9FFF7F9FEEB88B24A0EAE0F9234706D
:1017600074707480348173812B89AF4A11AD2B82E0
:101770001192129413942C736C73EC81FFF794FD07
:10178000FFF7C0FDA94B1F941693A94B2094179304
:10179000A44B18961A9321AB1C700CAB1C700DABAC
:1017A0001C7001231995019316A8FFF701FC0DA8E1
:1017B000FFF736F90CA8FFF7A7F99E49019B0A68C5
:1017C000102492081A403B00403318781201A043BD
:1017D0000243202002251A700A68019912090A4062
:1017E00019785201814394480A431A70026801999A
:1017F000920A019C11401A78A2430A431A700268A7
:101800001978D20A2240A94352000A431A7002688A
:101810001978120B22400824D200A1430A431A70FF
:1018200002680199920B0A400420AA40197881436A
:101830000A431A703B00B0331A78D2B20792002ADA
:1018400000D144E20022FF2614001A707B4B1B6873
:1018500002929BB2F61A0592049203956E4B1A00FF
:10186000AC32126819781278039B914203D00A2394
:10187000002A00D1039B023B082BEFD81800FEF78B
:101880004DFC56005C0075009200BB001F0000027A
:101890000D022802E1239B0140E79623DB013DE78F
:1018A000E123FBE796231B0238E7E123FBE79623BE
:1018B0005B0233E7032373E006260923023BDDE7DF
:1018C00055490B00AC331B680B910893DA1D63007C
:1018D0000A93079B9C46002306936B460298198B3C
:1018E000814200D3ACE015785178069B2D020D4360
:1018F0000A99580040180B994318190000204231EA
:10190000098809938D424041C3B2099807997630FE
:101910000088854202D941424141C9B2604619401E
:10192000069B08400133844606930232D5E70A231A
:10193000023B072EA2D9073BA0E7374BB11EAC33C1
:101940001D68C9B22800AD19FEF7B8FEAB1E1978A4
:101950000A23C2B2023B914290D1013D00122A7883
:10196000C0B2063B824289D0063387E72A4BAC33AC
:101970001B689C78DA78240214431A795979120288
:1019800011436218013A92B2029105925A781300FB
:10199000032A00D172E70423102A00D16EE7019BCD
:1019A000049306236AE70A23023B082E00D065E76A
:1019B000059B052B2DD8184800220100029BAC3155
:1019C0005E000B6806909E70029B934212DD5500EC
:1019D000AC46A318069818335B00C318D8880D6866
:1019E00000126544E8700868DB88604401320371C6
:1019F000D2B2E9E7033660E7029B5A000A230932B4
:101A0000023BB24200D039E7059A033B192A00D8BD
:101A100034E7039BC4E7C04608010020880000208B
:101A20008063FEFF86000020182000089800002038
:101A30000000E02E1004004810000048340002406E
:101A40006346002B00D135E70023A64D029A93424E
:101A500026DB1A261925059B9C4200D92CE7631C1E
:101A60009BB2192C2AD82000FEF758FB2A0031001F
:101A7000380041004E0056005C0064006C002800F5
:101A80002800B100B700BD00C300C900CF00D500D9
:101A9000DB00E100E700ED00F300F900FF000501C5
:101AA000089859004118C879E218097A52000002D2
:101AB000AA18084301335080DBB2C7E71C00CAE70D
:101AC000884A019C53885387874A5380C3E7854AD5
:101AD000039C93889387844A1371BCE7814B03244A
:101AE000DB88D03B5A425341804A1370B3E77F4BA7
:101AF0001A78002A04D07B490A890A877A490A8021
:101B0000019A04241A70A6E7764B0EA80A21595EA2
:101B1000FFF760F805249EE7724B06249A89724B02
:101B20005A8198E76F4B0EAADB89072453816E4ACE
:101B3000D38090E76B4B11AA1B8A082413826A4A50
:101B4000138188E767496A4A8B7CDB0732D580239B
:101B50001B02887C1360674B800707D5039800241D
:101B600018608020000610600EA80470887C400772
:101B700008D58020000318608020032480031860AB
:101B800011A80473897C080717D48020800218608C
:101B90001020014213D18020800510608A0611D4E4
:101BA000802252021A6011A84B060DD5FFF7ACF93E
:101BB000092450E780231B06CBE70398E7E7802042
:101BC0008001EAE7019AEDE7FFF7C8F9F0E7454B36
:101BD0000C241A8B444B5A823DE7424B0D245A8BFE
:101BE000414B9A8237E73F4B0E249A8B3E4BDA8269
:101BF00031E73C4B0F24DA8B3B4B1A832BE7394BF5
:101C000010241A8C384B5A8325E7364B11245A8CF2
:101C1000354B9A831FE7334B12249A8C324BDA836D
:101C200019E7304B1324DA8C2F4B1A8413E72D4B12
:101C300014241A8D2C4B5A840DE72A4B15245A8DE7
:101C4000294B9A8407E7274B16249A8D264BDA8472
:101C500001E7244B1724DA8D234B1A85FBE6214B31
:101C600018241A8E204B5A85F5E61E4B2C005A8EEE
:101C70001D4B9A85EFE61B4B34009A8E1A4BDA8582
:101C8000E9E68022174B5242AC33196803264878A4
:101C900002434A701B68049A9A700EE63C00AC340A
:101CA0002568F1B22800FEF709FDA8552268731CCB
:101CB0000012D054FFF756FB0236FFF775FB0E4AB1
:101CC000B3B213600D4A019913680B43136030BF20
:101CD0006AE5FFF747FBFF23094A1360FFF770FB34
:101CE000F5E7C0460801002088000020840000209D
:101CF0001800004818040048200002401C00024060
:101D000034000240F8B54B4D04002878042818D858
:101D1000FEF7FAF9031F3A546C0023006833197870
:101D20000323002913D1444A206E1378E418303479
:101D3000C65C2078864207D10133DBB2302B01D05C
:101D40001370F8BD1170FCE7FEF7C0FB01232B7088
:101D5000F7E7FEF7FFFB0028F3D1FEF7BFFB0028F3
:101D6000EFD0FEF7C3FBFEF7D3FB334BE06E1978E1
:101D7000236E5A5C314B1A701B78626E1B020B4348
:101D8000520013520223E2E7FEF7D4FB0028D8D01A
:101D9000FEF7D8FBFEF79AFB284B1A78264B1B78E8
:101DA000E31830331A70636E254A01336366934239
:101DB00002DD0123683423700023C8E7FEF7CAFB65
:101DC0000028BED1FEF78AFB0028BAD0FEF78EFBB2
:101DD00002221C4B19680A431A601B491B4A1160F6
:101DE000402219680A431A600423B0E7FEF7A2FBF9
:101DF000061EA6D0FEF7A6FBFEF768FB8021002298
:101E0000E06E89005300124F1B5A0132DB195F420A
:101E10007B411E408A42F5D1002ECDD02300002602
:101E2000200068331E7030303022FF2100F0C9F8E6
:101E30006666C1E7460000204400002045000020FF
:101E4000FF03000010200240005000081420024050
:101E50000100FFFF10B5C068FFF754FF10BD000080
:101E6000274B284A70B51A6090220025264BD205D0
:101E70001A60264B264A01261A60264B264A96B03F
:101E80001A60264B264A0AAC1A60264B264A274976
:101E90001A60274B274A28481A60284B284A1A609C
:101EA000284B294A1A60294B294A1D605D60294B3D
:101EB0005A609A6006221A601A6832431A60FEF766
:101EC000CDFC29003022200000F07BF864236A4614
:101ED000E380214B26712381204B0D93204B2382DD
:101EE0000DAB23CB23C223CB23C223CB23C21D485C
:101EF0000A996268A368FEF7FFFC16B070BDC04681
:101F000078000020001002406400002068000020DB
:101F1000000400486C000020000800487000002009
:101F2000000C00487400002000140048DC01002070
:101F300060000020002002400801002080000020F6
:101F4000003801407C00002000300140D401002016
:101F50007FBB000010E000E0B80B000000C00040B4
:101F600000C0FFFF8800002070B500260C4D0D4C0E
:101F7000641BA410A64209D1002600F02BF80A4DDC
:101F80000A4C641BA410A64205D170BDB300EB58E7
:101F900098470136EEE7B300EB5898470136F2E771
:101FA0001C2000081C2000081C2000082420000819
:101FB000002310B59A4200D110BDCC5CC45401334B
:101FC000F8E703001218934200D1704719700133EB
:101FD000F9E70000F8B5C046F8BC08BC9E4670475B
:0C1FE000F8B5C046F8BC08BC9E4670472F
:101FEC0000000000000000007D130008000000004D
:101FFC0000000000D11300080000000000000000E9
:10200C00551E000800000000000000009D020008A2
:08201C00E9000008611E000844
:04202400C1000008EF
:102028000024014000000240080002401C00024059
:1020380030000240440002405800024010E000E036
:08204800002C014000040040DF
:0400000508000249A4
:00000001FF
