:020000040800F2
:100000000010002049020008990200089902000827
:1000100000000000000000000000000000000000E0
:10002000000000000000000000000000990200082D
:10003000000000000000000099020008750600089A
:1000400099020008000000009902000899020008C7
:100050009902000899020008990200089902000814
:100060000000000005070008310700087D070008B0
:100070009902000899020008990200080000000097
:10008000990200080000000000000000990200082A
:100090000000000099020008990200089902000877
:1000A000000000009902000800000000D9060008C6
:1000B0000000000000000000000000000000000040
:1000C00010B5064C2378002B07D1054B002B02D02E
:1000D000044800E000BF0123237010BD2800002069
:1000E00000000000F4120008044B10B5002B03D0F0
:1000F0000349044800E000BF10BDC04600000000F6
:100100002C000020F412000802B47146490849008E
:10011000095C49008E4402BC7047C04603B4714676
:10012000490840004900095E49008E4403BC7047FD
:10013000002243088B4274D303098B425FD3030A26
:100140008B4244D3030B8B4228D3030C8B420DD339
:10015000FF22090212BA030C8B4202D312120902C7
:1001600065D0030B8B4219D300E0090AC30B8B4205
:1001700001D3CB03C01A5241830B8B4201D38B03B3
:10018000C01A5241430B8B4201D34B03C01A524158
:10019000030B8B4201D30B03C01A5241C30A8B429B
:1001A00001D3CB02C01A5241830A8B4201D38B0286
:1001B000C01A5241430A8B4201D34B02C01A52412A
:1001C000030A8B4201D30B02C01A5241CDD2C3099C
:1001D0008B4201D3CB01C01A524183098B4201D318
:1001E0008B01C01A524143098B4201D34B01C01A03
:1001F000524103098B4201D30B01C01A5241C3087B
:100200008B4201D3CB00C01A524183088B4201D3E9
:100210008B00C01A524143088B4201D34B00C01AD5
:100220005241411A00D20146524110467047FFE741
:1002300001B5002000F006F802BDC0460029F7D045
:1002400076E770477047C0460D4885460D480E4911
:100250000E4A002302E0D458C4500433C4188C4220
:10026000F9D30B4A0B4C002301E013600432A24285
:10027000FBD300F0ABFA01F007F800F0DBFDFEE77E
:100280000010002000000020280000203C1300087F
:100290002800002078020020FEE7000000B50328B7
:1002A00008D8FFF731FF02080E16104A5388D38191
:1002B0000F4A538000BD0D4A938813820C4A137174
:1002C000F8E70A4BDB88D03B5A425341094A137086
:1002D000F0E7084B1A78002A04D004490A898A8179
:1002E00003490A8001221A70E4E7C046B0000020EA
:1002F000880000208400002000280BD004280BD0A8
:1003000005280BD0063843425841054B404218405F
:10031000C01870470348FCE70348FAE70348F8E7CA
:10032000C0C62D00006CDC0200366E01001BB70059
:100330007021034A000113688B4318431060704713
:10034000041002400321034A13688B4318431060D2
:100350007047C04604100240802303499B040A688A
:100360001A42FCD07047C046001002408023034A66
:100370005B0411680B4313607047C04600100240D5
:10038000802303499B020A681A42FCD07047C0468A
:10039000001002408023034A5B0211680B43136084
:1003A0007047C046001002408022044BD2011968F9
:1003B0001143196019681142FCD0704718100240AF
:1003C000034B10B518684005400FFFF795FF10BDAF
:1003D00004100240034A0449136800020B4018430A
:1003E0001060704704100240FFF8FFFF034A044901
:1003F000136880040B4018431060704704100240DB
:10040000FFFFC3FF8022044B920219681143196059
:1004100019681142FCD07047141002408022044B2E
:10042000D20219681143196019681142FCD0704753
:10043000141002400122044B196811431960196815
:100440001142FCD07047C046141002400721034AF5
:1004500013688B43184310607047C0460020024069
:100460008023024A11680B4313607047102002403A
:10047000024B18680006C00F7047C04610200240AB
:1004800010B5FFF7F5FF002804D0034B034A1A60AC
:10049000034A1A6010BDC04604200240230167458C
:1004A000AB89EFCD0123024A11680B4313607047FB
:1004B000102002408023034A5B0111680B43136044
:1004C0007047C04610200240024B18688006C00FDB
:1004D0007047C0460C2002402023024A11680B439B
:1004E000136070470C200240024B1868012318402B
:1004F0007047C0460C2002400421324B1A68136832
:100500008B431360304A314B49181B6813688B4387
:1005100013602F4A2F4B06391B6813688B431360F7
:1005200000222D4B1B689A612C4B1B689A612C4B47
:100530001B689A612B4B19680B681B031B0B0B6024
:1005400029492A4B1B680B689B059B0D0B602849AA
:10055000284B1B680B689B059B0D0B60264B60218D
:100560001B689A60254A264B1B6813689BB2136070
:10057000244A254B1B6813685B045B0C1360234AF9
:10058000234B1B6813685B045B0C1360214A224BEE
:100590001B6813685B045B0C1360204A204B1B68CC
:1005A00013685B045B0C13601E4A1F4B1B681368C7
:1005B0005B045B0C13601D4A1D4B1B6813688B4367
:1005C0001360704778000020002002406000002087
:1005D00000380140800000206400002068000020F6
:1005E0007400002004000020002C014020000020A6
:1005F00000040040240000201C00002000300140C6
:100600007C00002008000240080000201C0002407E
:100610000C00002030000240100000204400024086
:10062000140000205800024018000020002401405F
:100630000000002010B50368002B11D01A79002AA1
:100640000CD05A79D2B2002A08D199680131996048
:100650009C6819688C425241D2B25A71DB68EBE750
:100660004468002C05D0236820001B689847646804
:10067000F7E710BD10B50248FFF7DCFF10BDC0461C
:10068000700100204368002B02D1416004E0130098
:100690005A68002AFBD1596070470000F0B5012567
:1006A000030041180A4E0B488B420FD008241A78D9
:1006B000504042102840070090B2002F01D07240F5
:1006C00090B2013C002CF4D10133EDE7F0BDC046FF
:1006D00001A0FFFFFFFF0000074B10B51C68002CB6
:1006E00005D0236820001B6898476468F7E7034B30
:1006F000034A1A6010BDC0465C000020203801404B
:100700005F0A0200084B10B51C68002C05D0236856
:1007100020001B6898476468F7E70F23034A1168B5
:100720000B43136010BDC046580000200400024077
:100730000F4B70B51C68002C05D0236820001B6887
:1007400098476468F7E7F0220A4D29680A432A604F
:10075000094A1468002C05D0236820001B689847BC
:100760006468F7E7F0232A681B0113432B6070BD10
:10077000540000200400024050000020104B70B5CF
:100780001C68002C05D0236820001B68984764680B
:10079000F7E7F0220B4D120229680A432A600A4A41
:1007A0001468002C05D0236820001B6898476468F3
:1007B000F7E7F0232A681B0313432B6070BDC04684
:1007C0004C000020040002404800002037B56B4672
:1007D000DD1D002301202B70FFF738FEFFF7DAFD47
:1007E000FFF7CEFD2C780134E4B22C70002CF9D147
:1007F0002000FFF79DFD2000FFF7ECFD0420FFF730
:10080000F5FD80230C4A5B0211680B431360FFF770
:10081000ADFDFFF7A1FD2B780133DBB22B70002B70
:10082000F9D10220FFF78EFD2B780133DBB22B705C
:10083000002BF9D137BDC046041002400122044B01
:1008400019689143196019681142FCD17047C0467C
:100850003000024070B58024074B24011B682342FE
:1008600009D08568FFF7EAFF044B28351A6814435E
:100870001C6001232B7070BD1C38014020380140E2
:100880000122044B19689143196019681142FCD187
:100890007047C0461C0002400300F0B58BB00891C1
:1008A00028331A780500D2B20492002A00D108E158
:1008B0000022FF2117001A70884B1C680092A4B216
:1008C0000C1B0192029209936B6A29781A78022311
:1008D000914203D00833002A00D1083B023B082B89
:1008E000F2D86EE00223009304336AE003230093FE
:1008F000DB1866E006240923023B62E00022019B2C
:10090000944604335B0007937B000693049B039398
:100910000823079A934200D18EE06A6AD118013900
:100920000878D25C00021043069A99186A1861464A
:100930000592528990424941CAB21600059A518ADD
:10094000049A814202D24A424A41D2B203993240C9
:10095000114003910233DCE70A23023B072C30D914
:10096000073B2EE06E6AA11EC9B230003619FFF7B0
:1009700095FEB31E19780A23C2B2023B914220D1E0
:10098000013E00123278C0B2063B824219D00633D3
:1009900017E06B6A9A78DF78120217431A7959794F
:1009A000120211437A18013A92B2019102925A78D6
:1009B0001300032A05D00423102A02D00123009338
:1009C00005331800FFF7AAFBC8FFCEFFE5FF0900BB
:1009D0002B009AFF590064007F000A23023B082C79
:1009E000EFD1029B032B00D97CE7019B5C006B6A73
:1009F0009C700023019A9A420FDDFA185200AA183F
:100A00005089696A5E0089190012C870696A528942
:100A10008E1901333271DBB2ECE703346BE7019BD3
:100A20005A000A230932023BA242CAD1029A033B6E
:100A3000032AC6D9033B56E7039B002B00D155E799
:100A40000023019A93420DDA686A59004118C87967
:100A5000FA18097A52000002AA18014301335180A2
:100A6000DBB2EEE7029B9F4200D943E77C1C3800D3
:100A7000A4B2089B98472700F4E780236A6A5B4288
:100A8000517803240B4353706B6A009A9A7032E7D3
:100A90006E6AE1B23000FFF701FE30556A6A012547
:100AA000631C0012D0540E4B02341D60FFF7C6FECB
:100AB000FFF7E6FE0B4BA4B21C600B4B1A68154304
:100AC0001D600BB0F0BDFFF7B9FEFF23099A13605C
:100AD000064AFE3B11680B431360F2E73400024004
:100AE00018040048200002401C0002403000024070
:100AF00010B520240C4B1B68234213D0FFF7C0FE17
:100B000080220A4B52021A60FFF798FEFF22084B20
:100B10001A600123074A11680B431360064B1A68D9
:100B200014431C6010BDC046000002401804004879
:100B300034000240300002400400024010B5FFF7CC
:100B40006DFC032001210E4B1A6882431A601A685B
:100B50000A431A600B4B1A688A431A601A681A60B3
:100B6000094B1A6882431A601A681A60074B1A68A0
:100B70008A431A601A681A60054B1A681A6010BD19
:100B80000004004804040048080400480C0400481D
:100B90002004004810B5FFF735FC9023C020DB058A
:100BA0001A6882431A608222196892010A43082156
:100BB0001A60104B1A688A431A6080221C6852001F
:100BC00022431A600C4B1A6882431A60802218680C
:100BD000D20002431A60094B1A688A431A60202225
:100BE00019680A431A608023054A5B0111680B43A8
:100BF000136010BD04000048080000480C000048C5
:100C00002000004810B5FFF7FDFB90233021DB05E5
:100C10001A688A431A60822218681201024304206B
:100C20001A600F4B1A6882431A6080221C682243A4
:100C30001A600C4A13688B431360802311685B00B1
:100C400019431160084A116881431160102110682E
:100C500001431160054A11680B43136010BDC04683
:100C600004000048080000480C000048200000482C
:100C700010B5FFF7C7FB90230C24DB051A68022090
:100C8000A2431A608222196892000A431A600E4B2E
:100C90001A6882431A6040221968114319600B4B8D
:100CA0001968A143196019680A431A60084B1A6849
:100CB00082431A60082219680A431A601023054A01
:100CC00011680B43136010BD040000480800004881
:100CD0000C0000482000004870B50E000500FFF72A
:100CE00059FFFFF78FFFFFF7C3FFFFF727FFFFF75E
:100CF0005BFB3468FFF764FB2100FFF719FA3B4BFD
:100D00003B4C18603379012B00D06BE080232268C4
:100D1000DB00134323607379002B5FD080232268AC
:100D20009B001343334A2360136833491940B37956
:100D300001261B030B431360042321680B4323602C
:100D4000082321680B43402123602C4B1868014382
:100D500019608021186801432A2019602849086019
:100D60008021106809040143116080221968520033
:100D70000A431A6080221968D2010A431A60236864
:100D800033432360FFF756FB1E4B1F4A1D601F4B6A
:100D9000A0211A60FF221E4B1A6000221D4B1A6010
:100DA000196019680E431E601B4B1C491D601C4BCB
:100DB00019601C4B1A6090321A6080222168D2049C
:100DC0000A4322608022184912050A60022218682C
:100DD00002431A608023DB000B6070BD2368134A56
:100DE00013409FE72368124AFAE7C0460C380140D7
:100DF0000038014004380140FFCFFFFF08380140B0
:100E0000143801403C0002402438014038000240C0
:100E100034000240300002402800024028380140DF
:100E2000240002401C00024000E100E0FFFDFFFF43
:100E3000FFFBFFFF13B5FFF75FFB07232D4C2E4988
:100E400063810B888A78A3814B88E3810B792370B7
:100E500023823F2363833E3BA382FE33A383C73BAE
:100E60001340082B35D0102B36D0182B37D0202B21
:100E700037D0282B38D0302B38D0383B584243411C
:100E80001E485B420340962080011B1800936B466E
:100E900089789007C9075207C90FC00FD20F5200B7
:100EA000197158716946606A9A71FFF715FF144904
:100EB0002000FFF7F1FC134B9868134B9A6F511CFD
:100EC00092009967D0501E2901D100229A6730BF45
:100ED000EDE7E1239B01D9E79623DB01D6E7E12388
:100EE000FBE796231B02D1E7E123FBE796235B0296
:100EF000CCE7C046B000002088000020809C0100A4
:100F00009D02000810E000E0F4000020F8B5474D15
:100F100004002878042815D8FFF7F6F8031C374F8B
:100F20006700217D0323002912D1414AE06813782C
:100F3000E418C65CA079864207D10133DBB2062BE8
:100F400001D01370F8BD1170FCE7FFF789FA012397
:100F50002B70F7E7FFF7C8FA0028F3D1FFF788FAFC
:100F60000028EFD0FFF78CFAFFF79CFA304BA0690E
:100F70001978E3685A5C2F4B1A701B7822691B02A0
:100F80000B43520013520223E2E7FFF79DFA0028B9
:100F9000D8D0FFF7A1FAFFF763FA264B1A78244B53
:100FA0001B78E3189A712369234A01332361934222
:100FB00001DD012323750023CAE7FFF795FA002816
:100FC000C0D1FFF755FA0028BCD0FFF759FA02222A
:100FD0001A4B19680A431A6019491A4A11604022CB
:100FE00019680A431A600423B2E7FFF76DFA061E78
:100FF000A8D0FFF771FAFFF733FA80210022A06929
:1010000089005300104F1B5A0132DB195F427B41AC
:101010001E408A42F5D1002ECDD00026A01D267597
:101020000622FF2100F05DF92661C4E7460000209A
:101030004400002045000020FF0300001020024073
:1010400000500008142002400100FFFF10B5806826
:10105000FFF75CFF10BD00006C4B6D4AF0B51A60E5
:10106000902200266B4BD2051A606B4B6B4A6C4D7D
:101070001A606C4B6C4A2E601A606C4B6C4A6E6046
:101080001A606C4B6C4A01211A606C4B6C4A6D4CB7
:101090001A606D4B6D4A85B01A606D4B6D4AA01C8D
:1010A0001A606D4B6D4A5A609A6006221A601A687F
:1010B0000A431A6021700822310000F012F9200062
:1010C000082231000A3000F00CF92000082231001B
:1010D000123000F006F9200008221A30310000F02A
:1010E00000F95F4B5F4A6362230028331E705E4B3A
:1010F0002663E36213686463B34204D123002C3394
:10110000136006E013005A68002AFBD122002C323B
:101110005A600023554AE363554B2464A363136864
:10112000002B03D13834146005E013005A68002AFC
:10113000FBD138345C6000266B460127C1221E803B
:101140009B784C4CBB4313406A46937053883F22B4
:1011500013406A4621005380474B2800A361474B48
:101160001771E3611C3126806680277126626462F4
:10117000E460FFF787FAFFF79DF90622FF21A01D23
:1011800000F0AFF8012302AD5B42310006222800D7
:10119000236100F0A6F8A16972008A181378DBB207
:1011A000052B0BD85278EF5494466046E2189071A4
:1011B00080230136DB009E42EED102E0FF2BF7D107
:1011C000266123695A1C07D101232375009B2360E4
:1011D0006B469B88A38017E0A269294929488B4266
:1011E00005D85E00B65A8642EED10133F7E70022F9
:1011F0000123A95C01320B40062AFAD1002BE5D06D
:10120000E068A11D00F064F805B0F0BD7800002092
:101210000010024064000020680000200004004824
:10122000700100206C0000200008004870000020C1
:10123000000C0048740000200014004860000020EA
:1012400000200240B0000020800000200038014053
:101250007C0000200030014010E000E07FBB000077
:10126000780100205C0000201413000854000020C6
:101270002013000888000020005000082C130008EC
:10128000FF030000FFFF000070B500260C4D0D4C61
:10129000641BA410A64209D1002600F02BF80A4DC9
:1012A0000A4C641BA410A64205D170BDB300EB58D4
:1012B00098470136EEE7B300EB5898470136F2E75E
:1012C00030130008301300083013000838130008EA
:1012D000002310B59A4200D110BDCC5CC454013338
:1012E000F8E703001218934200D1704719700133D8
:1012F000F9E70000F8B5C046F8BC08BC9E46704748
:0C130000F8B5C046F8BC08BC9E4670471B
:10130C00000000000000000055080008000000006C
:10131C0000000000F10A00080000000000000000BE
:04132C004D10000858
:08133000E90000085910000853
:04133800C1000008E8
:10133C000024014000000240080002401C00024052
:10134C0030000240440002405800024010E000E02F
:08135C00002C014000040040D8
:0400000508000249A4
:00000001FF
