:020000040800F2
:10000000001000205D020008AD020008AD020008EB
:1000100000000000000000000000000000000000E0
:10002000000000000000000000000000AD02000819
:100030000000000000000000AD020008FD04000800
:10004000AD02000800000000AD020008AD0200088B
:10005000AD020008AD020008AD020008AD020008C4
:10006000000000005906000885060008D1060008B7
:10007000AD020008AD0200082908000800000000D9
:10008000A90500080000000000000000D5050008D8
:1000900000000000010600082D060008AD0200085F
:1000A00000000000AD020008000000007D0500080F
:1000B0000000000000000000000000000000000040
:1000C00010B5064C2378002B07D1054B002B02D02E
:1000D000044800E000BF0123237010BD2000002071
:1000E0000000000058280008044B10B5002B03D076
:1000F0000349044800E000BF10BDC04600000000F6
:10010000240000205828000802B47146490849001C
:10011000095C49008E4402BC7047C04603B4714676
:10012000490840004900095E49008E4403BC7047FD
:1001300003B47146490840004900095A49008E44F9
:1001400003BC7047002243088B4274D303098B42DF
:100150005FD3030A8B4244D3030B8B4228D3030C97
:100160008B420DD3FF22090212BA030C8B4202D339
:100170001212090265D0030B8B4219D300E0090A61
:10018000C30B8B4201D3CB03C01A5241830B8B426A
:1001900001D38B03C01A5241430B8B4201D34B0353
:1001A000C01A5241030B8B4201D30B03C01A5241B8
:1001B000C30A8B4201D3CB02C01A5241830A8B423D
:1001C00001D38B02C01A5241430A8B4201D34B0226
:1001D000C01A5241030A8B4201D30B02C01A52418A
:1001E000CDD2C3098B4201D3CB01C01A524183093E
:1001F0008B4201D38B01C01A524143098B4201D378
:100200004B01C01A524103098B4201D30B01C01AA2
:100210005241C3088B4201D3CB00C01A524183081C
:100220008B4201D38B00C01A524143088B4201D349
:100230004B00C01A5241411A00D2014652411046A9
:100240007047FFE701B5002000F006F802BDC04688
:100250000029F7D076E770477047C0460D488546BD
:100260000D480E490E4A002302E0D458C45004330E
:10027000C4188C42F9D30B4A0B4C002301E01360E5
:100280000432A242FBD300F04BFA02F0AFFA01F0C5
:10029000C9FEFEE700100020000000202000002022
:1002A000C82800082000002050020020FEE70000BF
:1002B00000280BD004280BD005280BD00638434269
:1002C0005841054B40421840C01870470348FCE7AE
:1002D0000348FAE70348F8E7C0C62D00006CDC02CB
:1002E00000366E01001BB7007021034A000113683D
:1002F0008B43184310607047041002400321034AE7
:1003000013688B43184310607047C04604100240C6
:10031000802303499B040A681A42FCD07047C046F8
:10032000001002408023034A5B0411680B431360F2
:100330007047C04600100240802303499B020A68B0
:100340001A42FCD07047C046001002408023034A86
:100350005B0211680B4313607047C04600100240F7
:100360008022044BD20119681143196019681142A7
:10037000FCD0704718100240034B10B518684005B8
:10038000400FFFF795FF10BD04100240034A0449D7
:10039000136800020B4018431060704704100240BD
:1003A000FFF8FFFF034A0449136880040B40184319
:1003B0001060704704100240FFFFC3FF8022044B0F
:1003C000920219681143196019681142FCD07047F4
:1003D000141002408022044BD202196811431960A4
:1003E00019681142FCD07047141002400122044BDE
:1003F00019681143196019681142FCD07047C04652
:10040000141002408022044B120119681143196034
:1004100019681142FCD07047181002400421234B88
:100420001A6813688B431360214A224B02391B68F8
:1004300013688B431360204B1A68002393611F4A93
:10044000126893611E4A126893611E4A11680A6815
:100450001203120B0A601C4A1C4912681C4A538082
:100460001C4A12680A685204520C0A601A491B4A54
:1004700012680A685204520C0A60194A1949126833
:100480000A685204520C0A601749184A12680A682E
:100490005204520C0A601649164A12680A6852043D
:1004A000520C0A60144A12681365704784000020D9
:1004B00000380140900000207000002074000020EF
:1004C0008000002004000020880000200800024076
:1004D00000300140080000201C0002400C000020F9
:1004E00010000020300002404400024014000020B0
:1004F00058000240180000208C000020054B10B569
:100500001C68002C05D0236820001B689847A4684D
:10051000F7E710BD48010020037B002B0CD101330D
:100520000373064B5A684260002A00D090601A6834
:100530005860002A00D118607047C046480100206A
:10054000F0B50125030041180A4E0B488B420FD02D
:1005500008241A78504042102840070090B2002F1B
:1005600001D0724090B2013C002CF4D10133EDE790
:10057000F0BDC04601A0FFFFFFFF0000074B10B514
:100580001C68002C05D0236820001B68984764680D
:10059000F7E7034B034A1A6010BDC046680000200D
:1005A000203801405F0A0200084B10B51C68002C7F
:1005B00005D0236820001B6898476468F7E7082186
:1005C000034A138A8B43138210BDC046600000208B
:1005D00000040040084B10B51C68002C05D02368AF
:1005E00020001B6898476468F7E70821034A138ACC
:1005F0008B43138210BDC0465C00002000200040E9
:10060000084B10B51C68002C05D0236820001B681F
:1006100098476468F7E70821034A138A8B431382DB
:1006200010BDC0465800002000440140084B10B5E2
:100630001C68002C05D0236820001B68984764685C
:10064000F7E70821034A138A8B43138210BDC04683
:100650005400002000480140084B10B51C68002CD5
:1006600005D0236820001B6898476468F7E70F23CC
:10067000034A11680B43136010BDC04650000020B0
:10068000040002400F4B70B51C68002C05D0236895
:1006900020001B6898476468F7E7F0220A4D296834
:1006A0000A432A60094A1468002C05D023682000F8
:1006B0001B6898476468F7E7F0232A681B01134317
:1006C0002B6070BD4C000020040002404800002058
:1006D000104B70B51C68002C05D0236820001B68E7
:1006E00098476468F7E7F0220B4D120229680A4325
:1006F0002A600A4A1468002C05D0236820001B6871
:1007000098476468F7E7F0232A681B0313432B60BC
:1007100070BDC0464400002004000240400000209C
:1007200037B56B46DD1D002307221A492B700B6875
:1007300093431A00012313430B60FFF707FEFFF7F3
:10074000FBFD2C780134E4B22C70002CF9D1200090
:10075000FFF7CAFD2000FFF719FE0420FFF722FE75
:1007600080230D4A5B0211680B431360FFF7DAFD2B
:10077000FFF7CEFD2B780133DBB22B70002BF9D1C4
:100780000220FFF7BBFD2B780133DBB22B70002B6F
:10079000F9D137BD00200240041002404A688B683E
:1007A000002A0DD0002B08D093608B685A6000237C
:1007B0004B608B6070470360F8E742609360F6E738
:1007C000002BF8D103604360F1E7000010B5037B14
:1007D0000100002B04D0002303730248FFF7DEFF63
:1007E00010BDC0464801002010B50400024B036054
:1007F000FFF7ECFF200010BD88280008084B10B55B
:100800001C68002C05D0236820001B68984764688A
:10081000F7E70821034A138A8B43138210BDC046B1
:1008200064000020002C014010B5FFF7E7FF10BD69
:10083000012370B5040003700D0012220021023064
:1008400002F001F8200014220021143001F0FBFF17
:10085000200012220021283001F0F5FF2000122292
:1008600000213A3001F0EFFF2000092200214C3036
:1008700001F0E9FF2200002321005C32A56513701E
:100880006366114A114B603123661368A466002B1E
:1008900002D1116004E013005A68002AFBD15960AC
:1008A0000023210023670A4A0A4B6C31E366136870
:1008B0006467002B02D1116004E013005A68002A1B
:1008C000FBD15960200070BD68000020942800080A
:1008D0004C000020A0280008F0B50500203585B0A8
:1008E00004000E22FF21280001F0ADFF01235B422E
:1008F00023630E220021684601F0A5FFA36B80222E
:1009000019000126D2009818226B88420FD00132BC
:1009100022630A780D2A08D84F78A2180132D777B7
:100920006F460A78BE540231EEE7FF2AFBD1226BF4
:10093000334952009B18C21AD210002A1CDD1E88AF
:100940008E4203D15E888E4209D002336A469842B5
:100950001FD0012300203434237005B0F0BD9E88E1
:100960008E4201D00433F1E7DE888E4201D0063397
:10097000ECE70833013AE0E7C21A5210022A1BD012
:10098000032A14D0012A1DD119881D4A9142DDD1B4
:100990006A4603AB1178002903D05178002913D19E
:1009A00001320E236B4400209A42D6D120E01988F0
:1009B000134A9142CAD102331988114A9142C5D1D2
:1009C0000233E1E70300C1E79178002901D1023247
:1009D000E7E7D178002901D10332E2E704329A42F5
:1009E000D8D16B46187B0028B7D0587B0028B4D0EC
:1009F000E0690E22290001F01DFF0120ADE7C0468D
:100A0000FFFF0000024B18684004C00F7047C0464B
:100A100010040048024B18688004C00F7047C0469D
:100A200010040048024B1868C004C00F7047C0464D
:100A3000100400482022064B1A600368A03A197877
:100A40000A4301211A705A788A435A707047C04687
:100A5000180000488022044B12041A600823026820
:100A600051780B43537070471800004810B50400CC
:100A70004068FFF7DFFF6068FFF7ECFF002323709B
:100A800010BD10B504004068FFF7D4FF6068FFF7A1
:100A9000E1FF0023237010BD10B504000078013879
:100AA00003280FD8FFF730FB020F121EFFF7B2FF2B
:100AB000002807D06068FFF7BDFF6068FFF7CAFF36
:100AC0000023237010BDFFF7ADFFF1E70A4B1021A3
:100AD000625E5B6A1BB29A42EFDAFFF7A3FF00285F
:100AE000EBD1EFE7044B1021625E5B6A1BB29A42C6
:100AF000E3DDFFF78FFFF2E7002C01408022054B7A
:100B0000D2031A602023026811780B4340218B43E3
:100B100013707047180000488022054B52021A607B
:100B20000423026851780B4302218B4353707047B2
:100B30001804004870B50400007A013804280FD862
:100B40000F4DFFF7E1FA031103110E001422A35E0B
:100B5000E06863819BB2EB6305232372FFF7DCFF40
:100B600070BDE068FFF766FFE068FFF773FFA38AD8
:100B70000822E38200232372EB689343EB60EFE7E4
:100B8000002C014080220821034B1A600268537830
:100B90008B4353707047C046180000484023044AF6
:100BA0001360026811780B4320218B431370704748
:100BB0001800004870B504000078032841D8FFF7FA
:100BC000A3FA02244151284D2B681B0529D4FFF7B5
:100BD00029FF00280BD06068FFF790FF6068FFF7DF
:100BE0009BFF6068FFF7CEFF0223237029E02B688C
:100BF000DB0426D46068FFF7D1FF6068FFF78CFF45
:100C00006068FFF7BFFF0123EFE7174B1D688023E4
:100C10001B011D400AD06068FFF70CFF6068FFF7FA
:100C200019FF0022114B5A620323DEE7FFF7FAFE99
:100C3000002806D06068FFF7FDFE6068FFF70AFF36
:100C4000257070BD084B1B681B05E4D4FFF7E2FE5E
:100C50000028F6D06068FFF7EDFE6068FFF7FAFE47
:100C60000423C2E70023C0E710040048002C014021
:100C7000037810B50400012B13D0002B02D0022BF7
:100C800025D010BD4068FFF789FF6068FFF744FF7B
:100C90006068FFF7CFFE6068FFF774FF01232370E1
:100CA000EFE7FFF7BFFE0028EBD06068FFF7D2FE4A
:100CB0000D4BE2685B6A60681380FFF71FFF606896
:100CC000FFF72AFF6068FFF75DFF0223E7E7FFF702
:100CD000A1FE0028D5D06068FFF7BCFE024B226958
:100CE0005B6A13800323DAE7002C01400122054BE5
:100CF0001A600223026851780B4304218B4353701E
:100D00007047C0461804004870B504000D00162254
:100D1000A35EA582AB4227D0207AC0B2052823D893
:100D2000FFF7F2F9037289A6B8CC0823864EF26861
:100D30001343F360736A1BB29D4232DAE068FFF737
:100D40002DFF726A218B521A12B295420DDBE068B8
:100D5000FFF7E2FEE068FFF76DFE0423ADB2F56336
:100D60002372E068FFF70EFF70BD736A5B1A1BB257
:100D70009D42F6DAE068FFF7B9FF8021734A8903E4
:100D8000E368116001221B6859780A437F215A7079
:100D90001A780A401A70238B5D19ADB2F5630323EC
:100DA000DEE7736A1BB29D42DEDDE068FFF7A6FE58
:100DB000726A238B9A1812B2954209DCE068FFF739
:100DC000ABFEADB2E068FFF735FEF5630223C7E77F
:100DD000726A9B181BB29D42C3DDE068FFF786FF75
:100DE00080215A4A8903E368116001217F201B6832
:100DF0005A780A435A701A7802401A70238BED1AF7
:100E0000ADB2F5632172ACE74F4E238B726A9A182C
:100E100012B295420BDCE068FFF77EFE726A238B0C
:100E20009B189BB26381F363052323729CE7ED1A41
:100E3000ADB2F56398E744494B6A1BB29D4208DAAC
:100E4000E068FFF7F7FDE068FFF704FE0023237278
:100E50005DE74A6A238B9A1812B2954200DA83E75B
:100E6000ED1AADB2CD63E068FFF740FF0123DCE788
:100E7000354E218B736A4A195B1A92B21BB2F26328
:100E80009D4200DA70E7E068FFF746FE736A228B46
:100E90009B1AC6E72C494B6A1BB29D42D0DC4A6ABA
:100EA000238BD21A12B2954200DD5DE75D19ADB217
:100EB000CD63E068FFF71AFF0323B6E7244B1A68F7
:100EC00052060CD40A21625EAA4208DA1E4A516A0E
:100ED000228B521812B2954201DA658144E71A68F2
:100EE000520606D4184E228B716A521812B29542DD
:100EF00016DC1A6852061BD41B685B0600D433E765
:100F0000114E228B736A9B1A1BB29D4200DB2BE7AA
:100F1000E068FFF7EBFE238B5D19ADB2F563CBE71D
:100F2000E068FFF7E3FE238BED1AADB2F5639DE7B2
:100F30000A21625EAA42DFDD034A218B526A521AFD
:100F400012B29542D8DDC8E7002C014018000048D5
:100F5000100000480122044B196891431960196878
:100F60001142FCD17047C0463000024070B5802469
:100F7000074B24011B68234209D08568FFF7EAFF6D
:100F8000044B5C351A6814431C6001232B7070BD40
:100F90001C380140203801400122044B196891435C
:100FA000196019681142FCD17047C0461C0002400C
:100FB0000123024A11680B4313607047300002405E
:100FC00010B52024084B1B6823420CD0FFF7E4FF28
:100FD000FFF7C0FFFF22054B1A60FFF7E9FF044B44
:100FE0001A6814431C6010BD000002403400024027
:100FF0000400024010B5FFF7EDF9032001210E4B6C
:101000001A6882431A601A680A431A600B4B1A68FE
:101010008A431A601A681A60094B1A6882431A6078
:101020001A681A60074B1A688A431A601A681A60AD
:10103000054B1A681A6010BD0004004804040048FB
:10104000080400480C0400482004004810B5FFF7CD
:10105000B5F9902380218020DB051A680E4CC90168
:1010600022401A601A68114319600C4B19688143B9
:1010700019601A681A600A4B1A6822401A601A68C6
:101080001A60084B1A6882431A601A681A60064B85
:101090001A681A6010BDC046FF3FFFFF04000048F9
:1010A000080000480C0000482000004810B5FFF779
:1010B00085F9902380214020DB051A680E4C4901F8
:1010C00022401A601A68114319600C4B1968814359
:1010D00019601A681A600A4B1A6822401A601A6866
:1010E0001A60084B1A6882431A601A681A60064B25
:1010F0001A681A6010BDC046FFCFFFFF0400004809
:10110000080000480C0000482000004810B5FFF718
:1011100055F9902380212020DB051A680E4CC90068
:1011200022401A601A68114319600C4B19688143F8
:1011300019601A681A600A4B1A6822401A601A6805
:101140001A60084B1A6882431A601A681A60064BC4
:101150001A681A6010BDC046FFF3FFFF0400004884
:10116000080000480C0000482000004810B5FFF7B8
:1011700031F9C0200F4B1A6882431A604022196867
:101180000A4308211A600C4B1A688A431A601A68CD
:101190001A600A4B1A6882431A601A681A60084B70
:1011A0001A688A431A601A681A60064B1A681A602D
:1011B00010BDC0460004004804040048080400486C
:1011C0000C0400482004004810B5FFF7F7F89022FF
:1011D000D20513680F489B009B0813608023116899
:1011E000DB050B4313600C4B1968014019601A684A
:1011F0001A600A4A13689B009B0813601368136007
:10120000074B1A6802401A601A681A60054B5A6840
:101210005A6010BDFF7FFFFF04000048080000482F
:101220000C0000482000004810B5FFF7D3F88021DB
:1012300020200F4B0F4C1A68C90022401A601A6810
:10124000114319600C4B1968814319601A681A60C0
:101250000A4B1A6822401A601A681A60084B1A680A
:1012600082431A601A681A60064B1A681A6010BD29
:1012700000040048FFF3FFFF04040048080400488E
:101280000C0400482004004880230C491B0310B5BF
:101290000B600368102008245A7802435A701A78A9
:1012A000A24380241A70064A240614601A788243E6
:1012B0001A7080239B030B6010BDC04618040048C1
:1012C0001800004810B5037B0400002B04D000690F
:1012D000FFF7DAFF0323237310BD70B50468050020
:1012E000237A002B07D0E068FFF7A4FBE068FFF744
:1012F000B1FB002323726868FFF7E4FF0023AB73A0
:1013000070BD0000F0B501261021C54D42682B6864
:10131000D71CFA7FDB0B33408A431B01134385B094
:10132000FB770400FFF76EFB202230404301F87F7B
:1013300090431843F8776768FFF76CFB02000337A8
:10134000F87F3240B0431043F8776768FFF76AFBD5
:101350000221033730404300F87F082288431843B6
:1013600063682968019380231B011940F8770F00F7
:10137000781E8741019BFF00D81CC37F93433B43EA
:101380000427C3772B689B0A3340C67F9B00BE436C
:101390003343C377A34E002901D000237362736ADD
:1013A000019A012013841300117C20220633DF7F71
:1013B000C90801409743490139432700D9778E373F
:1013C0003A781100014002928A0103924022D97FAB
:1013D0009143039A11430200D97793490968C909D7
:1013E0008A43D20003920822D97F9143039A114382
:1013F000D977E2681178002294460A0703D4C90617
:10140000C90F48408446624611011022D87F90439C
:101410000143D97720780138032826D8FEF788FEC3
:1014200004004C00C100FB00029B002B0DD12000EA
:101430005C30FFF71BFB0223072123706368053331
:10144000DA7F8A43110001220DE02B681B040ED4C1
:1014500020005C30FFF70AFB05220720636822703A
:101460009B18D97F81430A43DA7705B0F0BD2B681A
:101470001B04FAD526005C363000FFF79BFB33785F
:10148000032B09D1002340213B70636830000633F1
:10149000DA7F8A43DA77CCE7042B01D13000D9E731
:1014A0002B685B05E1D4012340223B70636806335F
:1014B000D97F0A43DA77F1E7029A002A0BD0012399
:1014C0000721019A23700532D37F8B431900032330
:1014D0000B43D377C9E72A6852050AD401222000BA
:1014E0003A70D97F3F320A43DA776830FFF7F5FE6A
:1014F000B2E7FFF797FA002811D0A268736A1821A3
:10150000525E1BB29A420AD020006830FFF7E5FE17
:10151000A3681B8B7362726A63681A84A5E7FFF77E
:1015200079FA002806D0A268736A1A21525E1BB2AB
:101530009A421CD163680A229B5E002B1ED02600B3
:101540006836B37B012B24D0022B00D08DE7E36EED
:101550001A7B002A03D01B7B032B00D085E72B6866
:101560001B041BD4FFF74EFA002817D17DE720009B
:101570006830FFF7B2FEA3685B8BCBE7736A1BB2E0
:10158000002BDCD12B681B05D9D401233B702370C1
:101590006BE7A36E1B7A002B00D066E70023B373C2
:1015A00063E72B681B0404D420007830FFF769FA46
:1015B00052E72B681B0400D457E72600783630002A
:1015C000FFF756FB3378032B17D1A2686368182006
:1015D000115E300099831A21525EDA83FFF751FAC7
:1015E00002230721237063688F345A1DD37F8B43F6
:1015F00006390B43D377217037E72B685B0500D59D
:1016000033E7012340223B70636830000633D97F03
:101610000A43DA77CAE720004830FFF73DFA24E7AB
:1016200010040048002C01401000004870B5040070
:1016300000254068FFF7FEF96068FFF70BFA257098
:10164000A068FFF73FFE257070BD000010B50400D4
:10165000007BC0B205280DD8FEF756FD030D1750CC
:101660001C36637B002B05D021002948FFF796F834
:101670000023637310BD274B1B681B04FAD5206938
:10168000FFF702FE03232373F4E7FFF7BBF90028FB
:10169000F0D0F4E7E389A28A01339BB2E3819A4256
:1016A000E8D801230822237323691B491B680A60B9
:1016B0001878024310201A705A7882435A702023F7
:1016C0000B600023E381D5E7E389A28A01339BB253
:1016D000E3819A42CED880210223104A0902237363
:1016E0002369116010211B681A780A431A705A780E
:1016F0008A435A702022084B1A60E2E7E389A28AE3
:1017000001339BB2E3819A42B4D800232373D9E713
:101710004801002010040048180400481800004840
:10172000437B002B0CD1074B5A684260002A00D043
:1017300090601A685860002A00D118600123437332
:101740007047C04648010020184B10B51B680400C4
:101750001B0416D4037B002B13D108220369144900
:101760001B680A601878024310201A705A78824366
:101770005A7020230B601F3B23732000FFF7D0FF1C
:1017800010BD237B022B04D12069FFF77DFD0423CC
:1017900009E0237B042BFAD0237B052BF7D0237B96
:1017A000DBB2032BECD12373EAE7C04610040048F8
:1017B0001804004810B50400FFF724F9002818D1D8
:1017C000237B002B15D18021144A09022369116063
:1017D00010211B6820001A780A431A705A788A432D
:1017E0005A7020220E4B1A6002232373FFF798FFD2
:1017F00010BD237B012B04D12069FFF745FD052394
:1018000009E0237B042BFAD0237B052BF7D0237B25
:10181000DBB2032BECD12373EAE7C0461800004883
:101820001804004870B50400082910D80800FEF715
:101830007FFC09000F0015001D00290053005B000C
:101840006200DA01626853881383A268138270BD54
:10185000626893885383A2689374F8E76368DB88AF
:10186000D03B5A425341C64A1370F0E7C44B1A7832
:10187000002A04D061680A89CA82A168CA8101224B
:101880001A70E4E72378022BE1D1260063686836FA
:101890000A255D5FB37BB581002B06D0012BD6D125
:1018A0002900A06EFFF730FAD1E7E36E1A7B002A19
:1018B00002D01B7B032BCAD1B24B1B681B0406D57D
:1018C0002900A06EFFF720FA0123B373BFE7FFF7EB
:1018D00099F80028F4D1BAE762689389D384A268A2
:1018E0001BB2A3859382B2E76368A21DDB89D3870D
:1018F000A268D382ABE72378002B13D163681A7CEC
:101900001207A4D501220721581D2270C27F063379
:101910008A43110003220A43C2772022D97F0A4357
:10192000DA7794E7012B2DD163681D7C2B07DE0F3E
:10193000002B15DB20005C30FFF798F80720626869
:101940002670511DCB7F06328343CB77937A1B07DA
:10195000DB0FD17F19305B0181430B43D37776E7EF
:1019600007263540022D00D071E720005C30FFF7DC
:101970007DF80423237063680533DA7FB24315438F
:10198000DD7764E7032B16D163681B7C1B07DD0F33
:10199000002B00DA5BE720007830FFF772F80720B1
:1019A00062682570511DCB7F06328343CB77937AD3
:1019B0001B07DB0FCDE7022B60D163681B7C1A0786
:1019C000D50F002A04DB20006830FFF786FCE6E72D
:1019D000DA0601D49B0603D520006830FFF77DFCB2
:1019E00063685A7C1307DB0F520700D441E1002BD8
:1019F00006D1230068339B7B002B14D0022B1ED012
:101A0000072663681D7C3540022D28D120006830F0
:101A1000FFF763FC0423626823700532D37FB3436E
:101A20001D43D57713E7574B1B681B0402D4E06EA8
:101A3000FFF78AFE2300022268339A73E0E7514BD6
:101A40001B681B04DCD4E06EFFF77EFED8E7FEF7D0
:101A5000D9FF0028EED1E06EFFF7ACFEEAE7042DD7
:101A600000D0F4E623008F331B78002B00D0EEE685
:101A700020006830FFF731FC03237BE7042B00D004
:101A800090E063681B7C1A07D50F002A04DB200056
:101A90004830FFF7CBFD82E7DB0606D5E06CFEF7AA
:101AA000D9FF2300002248331A7063681B7C9B0611
:101AB00002D5206DFFF706FC6268517C0B07DB0F37
:101AC000490700D4EAE0002B05D1137C9B0602D421
:101AD000206DFFF739FE6368E06C1B7C5B0638D431
:101AE0008022294B92031A600122036859780A4325
:101AF0007F215A701A780A401A706368E06C1B7C68
:101B00007F2B29D8FFF708F86268517C8B07DB0F21
:101B1000C90700D4CDE0002B09D1137CDB0606D425
:101B2000250048352B78002B19D0022B24D007260E
:101B300063681D7C3540012D00D088E6114B1B6881
:101B40005B0500D483E620004830FFF76FFD0223D9
:101B500010E7FEF76FFFD0E7FFF7C8F8D4E7094BAF
:101B60001B689B04E3D4E06CFEF7C8FFE06CFFF752
:101B700009F801232B70DAE7E06CFEF76BFFF2E760
:101B80006C0000201004004818000048534B1B68EC
:101B9000DB04CCD4E06CFFF701F8E06CFEF7F2FF59
:101BA0000223E7E7052B00D051E6072563681A7C7E
:101BB0002A40022A06D10421581D2170C17FA94361
:101BC0000A43C2771A7C1207D10F002A00DA3EE6D8
:101BD00007202170591DCA7F06338243CA7720210E
:101BE000DA7F8A439CE62378042B00D02FE66268D4
:101BF000D37C59061DD5260048363378002B00D0FB
:101C000025E6558A364BAD045B6AAD0C5B1BE06C78
:101C10003382FEF781FFE06CFEF70CFF002D05D04C
:101C2000E06CFEF7BBFFE06CFEF7ACFF0323337004
:101C30000DE6DB0900D10AE6260048363378002B92
:101C400000D004E6558A264BAD045B6AAD0CEB1858
:101C5000E06C3382FEF760FFE06CFEF7EBFE002DD8
:101C600005D0E06CFEF74AFFE06CFEF78BFF042323
:101C7000DDE7002B00D1C3E6230068339B7B002BFC
:101C800000D1E4E6022B00D0BAE6FEF7BBFE002846
:101C900000D0B5E6E06EFFF78DFDB1E6002B00D178
:101CA00019E7137C9B0600D515E7206DFFF782FD31
:101CB00011E7002B00D13AE7137CDB0600D536E7AD
:101CC000250048352B78002B00D15FE7012B00D091
:101CD0002DE7E06CFEF7BEFE5CE7C046100400484E
:101CE000002C014070B5FEF769FB9023DB051A68F4
:101CF000104D114C2A401A608022196892020A4342
:101D00001A600E4B1868204018601A681A600C4B55
:101D10001968294019601A681A600A4B1A6822402B
:101D20001A601A681A600223074A51680B4353600D
:101D300070BDC046FFFFFCFFFFFEFFFF0400004830
:101D4000080000480C0000482000004870B5FEF76D
:101D500035FB9023DB051A68104D114C2A401A60A0
:101D60008022196812030A431A600E4B186820403B
:101D700018601A681A600C4B1968294019601A68B3
:101D80001A600A4B1A6822401A601A681A602023E7
:101D9000074A51680B43536070BDC046FFFFF3FF15
:101DA000FFFDFFFF04000048080000480C00004849
:101DB0002000004810B5FEF701FB9023C020DB0592
:101DC0001A6882431A60802219680A4308211A603F
:101DD0000C4B1A688A431A601A681A600A4B1A6810
:101DE00082431A601A681A60084B1A688A431A609C
:101DF0001A681A608023064A5B0111680B4313605E
:101E000010BDC04604000048080000480C0000480F
:101E10002000004810B5FEF7D1FA90233020DB05F2
:101E20001A6882431A60202219680A4304211A6042
:101E30000C4B1A688A431A601A681A600A4B1A68AF
:101E400082431A601A681A60084B1A688A431A603B
:101E50001A681A608023064A5B0011680B431360FE
:101E600010BDC04604000048080000480C000048AF
:101E70002000004810B5FEF7A1FA90230C20DB05E6
:101E80001A6882431A60082219680A4302211A60FC
:101E90000B4B1A688A431A601A681A60094B1A6851
:101EA00082431A601A681A60074B1A688A431A60DC
:101EB0001A681A601023054A11680B43136010BD9D
:101EC00004000048080000480C00004820000048BA
:101ED00070B50E000500FFF76DFFFFF79BFFFFF7E2
:101EE000C9FFFEF73DFA3468FEF746FA2100FEF717
:101EF00029F93A4B3A4C18603379012B6AD1802387
:101F00002268DB00134323607379002B5ED08023AB
:101F100022689B001343334A2360136832491940F7
:101F2000B37900261B030B431360042321680B4382
:101F30002360082321680B43402123602B4B186842
:101F4000014319608021186801432A20196028493B
:101F5000086080211068090401431160802219681B
:101F600052000A431A6080221968D2010A431A609B
:101F70000123226813432360FEF738FA1D4B1E4AE3
:101F80001D601E4B1A60FF221D4B1A601D4B5F3AED
:101F90001E601A60FFF70CF81B4B1C4A1D601C4B9F
:101FA0001A6090221B4B1E601A6080222168D204A6
:101FB0000A4322608022184912050A60022218682A
:101FC00002431A608023DB000B6070BD2368134A54
:101FD0001340A0E72368124AFAE7C0460C380140D4
:101FE0000038014004380140FFCFFFFF08380140AE
:101FF000143801403C0002402438014038000240BF
:1020000034000240300002402800024028380140DD
:10201000240002401C00024000E100E0FFFDFFFF41
:10202000FFFBFFFFF0B50026B1B0D84B0CACD84D8C
:1020300063602433E3602670A560FFF753FEFFF76B
:1020400085FEFEF7DFF9802107207027D14B49007C
:102050001A6A0A431A629A688243043802439A60F1
:10206000DA69BA43170010223A43DA619A69CA4F13
:102070008243023802439A619A693A401143996156
:10208000F021DA698A43110050220A43DA615E6264
:102090001A88104318801422AB5EC04AA38562617F
:1020A0000FAA226210AA62628022BD4BD201A661F1
:1020B00026776677E68316961A60BA4A1368B342A3
:1020C00003D111AB136005E013005A68002AFBD15D
:1020D00011AA5A600026B44BE98A23631BAB1E7019
:1020E00045230AAA9B181E700E230AA81B18D9871D
:1020F0001EAB1E7010AB6365636623672C932B00C9
:1021000018332D932B001A332E932FAB1E7095236B
:1021100023A8067011A8A0660AA81B180FAA1E7093
:1021200018A996232264E2642266E2672165E166CB
:102130006663A663E687012429A90E807E211B1809
:102140001C70972309180E702AA91B180E701E7098
:10215000FEF750FFFEF77AFFFEF7A8FFFEF7D6FF67
:10216000FFF704F8FFF730F8FFF75EF8FEF756F9CF
:102170008E4B864A1B689E6107239382EB89D3822C
:102180002B8A1383AB7C137053831823E95E9183EE
:102190001A202B5ED383A88A1186111DCB871300CA
:1021A00083495033D0841C703F20931DD987382336
:1021B000297C5087C030548590870B40082B4BD02A
:1021C000102B4CD0182B4DD0202B4DD0282B4ED07F
:1021D000302B4ED0383B581E834176485B4203403B
:1021E000E12040021B186A488C07007C4907C007A1
:1021F000C90FC00F49000A930AAB18719971E40F17
:102200001900906D5C71FFF763FE604B5C330793C0
:102210000CA8FFF777F8079B1B78DBB20593002B20
:1022200000D150E10027FF22079B1F70624B1B6803
:1022300004979BB2D61A00970197544B9A6D197860
:1022400012780223914203D00833002A00D1083BC0
:10225000023B082BF1D88DE0E1239B01C3E79623D5
:10226000DB01C0E7E123FBE796231B02BBE7E12389
:10227000FBE796235B02B6E702230193043379E080
:1022800003230193DB1875E006260923023B71E066
:1022900000243E4B05999A6D0893069207329446A6
:1022A000009A52000992A3B2BB4200D3C4E0009B43
:1022B000089AE3184C33D35C099A02936346187862
:1022C0005B780002034360008018089A1BB2101864
:1022D000428F058D0392029A002A00D19DE02DB213
:1022E000EA0FD817AB4242411140039A15B29D4202
:1022F00003DA50424241D3B20293029B19400223B7
:1023000001349C44CFE70A23023B072E32D9073B16
:1023100030E01E4BB11E9C6DC9B22000A419FEF71F
:102320000FF9A31E19780A23C2B2023B914221D1B0
:10233000013C00122278C0B2063B82421AD006331A
:1023400018E0124B9B6D9A78D978120211430091D4
:102350001A795F7912021743CA19013A92B20492AC
:102360005A781300032A05D00423102A02D001232F
:10237000019305331800FDF7D1FEC6FFCCFFE4FF43
:10238000210044008BFF82008E00A800D0000020B6
:1023900094000020002C0140FFFCFFFFAC28000847
:1023A00000E100E064000020B82800081C000020C4
:1023B000E02E00008063FEFF340002400A23023B4F
:1023C000082ED7D1049B092B00D955E70022434999
:1023D0007D008B6D9D70974211DD009B886D9B1871
:1023E00008335B00CB189C88560080192412C470F7
:1023F000886D9B88861901323371D2B2EBE7EE1CEF
:1024000043E70A237A000932023BB242B2D1049A6E
:10241000033B082AAED9033B2FE7029A9BB2AB429B
:10242000524103981140059A834203D90200504259
:102430004241D2B2114062E7002900D120E70023D7
:10244000264CBB420EDA069859004118009AC8790A
:10245000D218097A52000002A218084301335080B2
:10246000DBB2EEE7009B049A934200D90CE75C1CB8
:10247000A4B219000CA8FFF7D5F90094F2E7802365
:10248000164A5B42916D0326487803434B70936D67
:10249000019A9A70F9E6114CF1B2A56D2800FEF789
:1024A0004FF8A855A26D731C0012D054FEF752FDD0
:1024B0000236FEF771FD0A4AB3B213600123094ADE
:1024C00011680B43136030BFA2E6FEF743FDFF2205
:1024D000054B1A60FEF76CFDF5E7C046D000002002
:1024E000200002401C00024034000240044B1A69E4
:1024F000120603D5034A5A60034A5A607047C04621
:102500000020024023016745AB89EFCD70B5464DF1
:1025100004002878042818D8FDF7F6FD031D395863
:102520006D002300343319780323002911D13F4A69
:10253000E0691378E4180134C65CE07F864207D175
:102540000133DBB20E2B01D0137070BD1170FCE7AC
:1025500001232B70F9E7364EF368DB07F5D43369B6
:102560001B06F2D5FFF7C2FF012332691343336123
:102570002E4BA06B1978E3695A5C2E4B1A701B78AE
:10258000226B1B020B43520013520223E1E7284B3C
:10259000DA689206D9D52022D9680A43DA60802207
:1025A00019690A431A61234B1A78204B1B78E318E8
:1025B0000133DA778022236B920001332363934245
:1025C00002D90123343423700023C2E7184CE36896
:1025D000DB07BAD423691B06B7D5FFF787FF0223B1
:1025E000226913432361144B63614023226913431F
:1025F00023610423ADE70E4BDA689206A5D52022AD
:10260000D96800260A43DA608022196920000A434B
:102610001A61230034331E7020300E22FF2100F097
:1026200012F926632E7090E73E0000203C00002047
:10263000002002403D000020007C0008414B424A3F
:10264000F0B51A609022414BD2051A60404B414AC6
:1026500041491A60414B424A01241A60414B424AA7
:1026600099B01A60414B424A1A60424B424A1A6082
:10267000424B434A1A60434B434A1A600023434A81
:1026800013605360424A5160042193601068014313
:102690001160022110680143116011683D48214317
:1026A00011603D4AC381038242613C4A43608261BA
:1026B00002000E32C2610122524202630200343231
:1026C000836003731370364B364F83638023364A1F
:1026D0008474076011690B431361FEF7FDF8051E52
:1026E00021D101AC0E223149200000F0A3F805A948
:1026F0000B0045CC45C3322622886E441A80300038
:102700000E2200F097F8012309AC5B42236316AB5D
:102710001D70234B6560A560257320000997E66155
:10272000A363FEF761F81B4C2000FDF7F5FE204A7D
:102730002049200000F044F81F492048FEF778F8AF
:1027400019B0F0BD8400002000100240700000208D
:1027500074000020000400487FBB000078000020C7
:10276000000800487C000020000C00488000002089
:102770000014004890000020003801408C00002028
:10278000002C01408800002000300140480100205A
:1027900010E000E0940000206400B80B00C000408E
:1027A000007C0008882800080020024070280008EB
:1027B00000000020E907000850010020D0000020A0
:1027C0000B0010B50100180000F002F810BD000069
:1027D00010B5040004481300002804D00A000220A9
:1027E000210000E000BF10BD0000000070B5002611
:1027F0000C4D0D4C641BA410A64209D1002600F01C
:102800002BF80A4D0A4C641BA410A64205D170BDDA
:10281000B300EB5898470136EEE7B300EB58984702
:102820000136F2E7BC280008BC280008BC280008D4
:10283000C4280008002310B59A4200D110BDCC5C1A
:10284000C4540133F8E703001218934200D17047D3
:1028500019700133F9E70000F8B5C046F8BC08BCB0
:102860009E467047F8B5C046F8BC08BC9E46704707
:102870000000000001006400B80B00C00040000030
:1028800000000000000000000D250008000000000E
:10289000000000006D0F00080000000000000000B4
:1028A000C10F00080000000000000000350B000808
:0C28B00000000000000000004D160008B1
:0828BC00E90000083D260008B8
:0428C400C100000847
:1028C8000000000000000240080002401C00024016
:1028D8003000024044000240580002400000004816
:040000050800025D90
:00000001FF
