:020000040800F2
:10000000001000202102000871020008710200089F
:1000100000000000000000000000000000000000E0
:100020000000000000000000000000007102000855
:10003000000000000000000071020008190800081C
:10004000710200080000000071020008710200083F
:1000500071020008710200087102000871020008B4
:1000600000000000690A0008770A0008890A0008F1
:100070007102000871020008230A00080000000055
:10008000310A000800000000000000003F0A0008DC
:10009000000000004D0A00085B0A00087102000819
:1000A000000000007102000800000000150A0008AE
:1000B0000000000000000000000000000000000040
:1000C00010B5064C2378002B07D1054B002B02D02E
:1000D000044800E000BF0123237010BD8800002009
:1000E000000000009C750008044B10B5002B03D0E5
:1000F0000349044800E000BF10BDC04600000000F6
:100100008C0000209C750008002243088B4274D3A9
:1001100003098B425FD3030A8B4244D3030B8B4208
:1001200028D3030C8B420DD3FF22090212BA030C11
:100130008B4202D31212090265D0030B8B4219D3F2
:1001400000E0090AC30B8B4201D3CB03C01A524112
:10015000830B8B4201D38B03C01A5241430B8B425A
:1001600001D34B03C01A5241030B8B4201D30B0343
:10017000C01A5241C30A8B4201D3CB02C01A52416A
:10018000830A8B4201D38B02C01A5241430A8B422D
:1001900001D34B02C01A5241030A8B4201D30B0216
:1001A000C01A5241CDD2C3098B4201D3CB01C01A30
:1001B000524183098B4201D38B01C01A524143093A
:1001C0008B4201D34B01C01A524103098B4201D328
:1001D0000B01C01A5241C3088B4201D3CB00C01A95
:1001E000524183088B4201D38B00C01A524143080D
:1001F0008B4201D34B00C01A5241411A00D2014632
:10020000524110467047FFE701B5002000F006F8A4
:1002100002BDC0460029F7D076E770477047C04658
:100220000D4885460D480E490E4A002302E0D45879
:10023000C4500433C4188C42F9D30B4A0B4C00232E
:1002400001E013600432A242FBD300F026FC07F069
:1002500013F900F083FCFEE70010002000000020EE
:10026000880000206477000888000020C002002079
:10027000FEE7000080B582B000AF0200FB1D1A70DF
:10028000FB1D1B785BB21F221A40044B01219140D9
:100290000A001A60C046BD4602B080BD00E100E021
:1002A00080B500AF014B1800BD4680BD0010024074
:1002B00080B582B000AF78607B681A6804218A43F9
:1002C0001A60C046BD4602B080BD000080B500AFD8
:1002D000014B1800BD4680BD0010024080B500AF44
:1002E000014B1800BD4680BD0410024080B500AF30
:1002F000014B1800BD4680BD1810024080B500AF0C
:10030000014B1800BD4680BD1410024080B500AFFF
:10031000C046BD4680BD80B500AFC046BD4680BD6D
:1003200080B582B000AF0200FB1D1A70FB1D1B7868
:10033000002B13D0FB1D1B78042B0DD0FB1D1B784D
:10034000052B07D0FB1D1B78062B01D1064B06E0C1
:10035000064B04E0064B02E0064B00E0064B18009B
:10036000BD4602B080BDC046808D5B00C0C62D007A
:10037000001BB70000366E01006CDC0290B585B042
:1003800000AF0200FB1D1A70FFF7A8FF03001B68F7
:10039000FB60FB6870229343FB60FB1D1B781B0115
:1003A000FA681343FB60FC68FFF798FF03001C60CA
:1003B000C046BD4605B090BD90B585B000AF020007
:1003C000FB1D1A70FFF78AFF03001B68FB60FB68C8
:1003D00003229343FB60FB1D1B78FA681343FB6009
:1003E000FC68FFF77BFF03001C60C046BD4605B0FC
:1003F00090BD80B500AFFFF769FF03001A68802346
:100400009B0413405A425341DBB2002B00D0F2E769
:10041000C046BD4680BD80B500AFFFF757FF030063
:100420001A68802149040A431A60C046BD4680BD4F
:1004300080B500AFFFF74AFF03001A6880239B02D4
:1004400013405A425341DBB2002B00D0F2E7C046C2
:10045000BD4680BD80B500AFFFF738FF03001A68C6
:10046000802149020A431A60C046BD4680BD80B55E
:1004700000AFFFF73BFF03001A688021C9010A4360
:100480001A60FFF733FF03001A688023DB01134073
:100490005A425341DBB2002B00D0F2E7C046BD46C2
:1004A00080BD000080B582B000AF0200FB1D1A7055
:1004B000FB1D1B78002B08D0FFF710FF03001A6804
:1004C000802149020A431A6006E0FFF707FF030094
:1004D0001A6803490A401A60C046BD4602B080BD92
:1004E000FFFFFEFF80B582B000AFFFF7F7FE03000D
:1004F0001B681B0ADAB2FB1D07210A401A70FB1D9C
:100500001B781800FFF70CFF03001800BD4602B06F
:1005100080BD000090B585B000AF0200FB1D1A70D1
:10052000FFF7DCFE03001B68FB60FB68084A134012
:10053000FB60FB1D1B781B02FA681343FB60FC6821
:10054000FFF7CCFE03001C60C046BD4605B090BD61
:10055000FFF8FFFF90B585B000AF0200FB1D1A70D9
:10056000FFF7BCFE03001B68FB60FB68084A1340F2
:10057000FB60FB1D1B789B04FA681343FB60FC685F
:10058000FFF7ACFE03001C60C046BD4605B090BD41
:10059000FFFFC3FF80B500AFFFF7B0FE03001A688E
:1005A000802189020A431A60FFF7A8FE03001A6837
:1005B00080239B0213405A425341DBB2002B00D0F0
:1005C000F2E7C046BD4680BD80B500AFFFF796FE9E
:1005D00003001A688021C9020A431A60FFF78EFEE1
:1005E00003001A688023DB0213405A425341DBB2F6
:1005F000002B00D0F2E7C046BD4680BD80B500AFFD
:10060000FFF77CFE03001A6801210A431A60FFF716
:1006100075FE03001B68012213405A425341DBB2AE
:10062000002B00D0F3E7C046BD4680BD80B500AFCB
:10063000FFF75CFE03001A68802109010A431A6073
:10064000FFF754FE03001A6880231B0113405A422F
:100650005341DBB2002B00D0F2E7C046BD4680BD5F
:1006600080B500AF214B1B681800FFF721FE204B1F
:100670001B68180000F020FB1E4B1B68180000F0E0
:100680002AFB1D4B1B68180000F030FB1B4B1B683E
:10069000180000F036FB1A4B1B68180000F03CFBFA
:1006A000184B1B68180000F044FB174B1B68180020
:1006B00000F04CFB154B1B68180000F056FB144B68
:1006C0001B68180000F060FB124B1B68180000F05C
:1006D0006AFB114B1B68180000F074FB0F4B1B6882
:1006E000180000F07EFBC046BD4680BDA40000207F
:1006F000BC000020A8000020AC000020B8000020B2
:1007000004000020C4000020080000200C0000208D
:10071000100000201400002018000020C00000205D
:1007200080B582B000AF786039607B683A681100AC
:10073000180000F061FBC046BD4602B080BD80B528
:1007400082B000AF786039607B683A6811001800A9
:1007500000F071FBC046BD4602B080BD90B587B0C9
:1007600000AF78607B687B617B69180000F0B3FBA9
:100770000300FB607B69180000F0CAFB0300BB604C
:100780000823FA180C23FB181100180000F0D0FB06
:10079000031E11D00C243B19180000F0E8FB0300E5
:1007A0003B613B691B681B683A69100098473B191D
:1007B000180000F0CEFBE3E7C046BD4607B090BD91
:1007C00080B582B000AF78607B6800221A607B68D9
:1007D00000225A607B681800BD4602B080BD80B51B
:1007E00082B000AF78607B681800FFF7E9FF7B6894
:1007F0001800BD4602B080BD80B582B000AF786001
:100800007B681800FFF7EBFF00F0BCFB7B6818006B
:10081000BD4602B080BD000080B500AF034B18009C
:10082000FFF79CFFC046BD4680BDC046C800002003
:1008300080B582B000AF78607B6800221A607B6868
:1008400000225A607B681800BD4602B080BD0000DF
:1008500080B582B000AF78607B6804331800FFF782
:10086000E7FF044A7B681A607B681800BD4602B047
:1008700080BDC046F876000880B582B000AF7860D1
:100880007B681800FFF7E4FF054A7B681A607B6805
:1008900000221A737B681800BD4602B080BDC046B6
:1008A000EC76000880B582B000AF78607B685B6949
:1008B0005A1C7B685A61C046BD4602B080BD80B5F7
:1008C00082B000AF786039607B683A681A617B68F3
:1008D000180000F03BF8C046BD4602B080BD80B5B0
:1008E00082B000AF78607B6800225A617B68180094
:1008F00000F014F8C046BD4602B080BD80B582B09D
:1009000000AF78607B6859697B681A69002391425F
:100910005B41DBB21800BD4602B080BD80B582B03D
:1009200000AF78607B681B7B002B08D07B680022BF
:100930001A737A68044B11001800FFF700FFC046D5
:10094000BD4602B080BDC046C800002080B582B060
:1009500000AF78607B681B7B01225340DBB2002B29
:1009600008D07B6801221A737A68044B11001800C2
:10097000FFF7D6FEC046BD4602B080BDC8000020CD
:1009800080B584B000AF78600A00FB1C1A700A239F
:10099000FB18012252421A80FB1C1B78FA1C591EBC
:1009A00011705A1E9341DBB2002B2AD07B685A1C6F
:1009B0007A601B7899B20A22BB18BA1812884A408A
:1009C0001A800023FB60FB68072BE5DC0A23FB1879
:1009D0001B88012213400AD00A217B181B885B1058
:1009E0001BB20B4A53401AB27B181A8005E00A2149
:1009F0007B181B885A107B181A80FB680133FB6038
:100A0000E1E70A23FB181B881800BD4604B080BD2F
:100A100001A0FFFF80B500AF00F0CCFAC046BD4694
:100A200080BD80B500AF00F0E1FAC046BD4680BD94
:100A300080B500AF00F0F6FAC046BD4680BD80B577
:100A400000AF00F00BFBC046BD4680BD80B500AFD7
:100A500000F020FBC046BD4680BD80B500AF00F071
:100A600035FBC046BD4680BD80B500AF00F04AFBF7
:100A7000C046BD4680BD80B500AF00F05FFB00F012
:100A800079FBC046BD4680BD80B500AF00F08EFB4F
:100A900000F0A8FBC046BD4680BD80B582B000AF67
:100AA000FB1D00221A70012000F080FCFFF7D2FC31
:100AB000FFF7BEFCFB1D1B78DBB20133DBB2FA1D76
:100AC000191C11705A1E9341DBB2002B00D0F1E7C4
:100AD0000020FFF753FC0020FFF71CFD0420FFF768
:100AE00039FD0120FFF7DEFCFFF795FCFFF781FCE5
:100AF000FB1D1B78DBB20133DBB2FA1D191C117030
:100B00005A1E9341DBB2002B00D0F1E70220FFF721
:100B100053FCFB1D1B78DBB20133DBB2FA1D191C41
:100B200011705A1E9341DBB2002B00D0F1E7C04692
:100B3000BD4602B080BD80B582B000AF78600A00CB
:100B4000BB1C1A807B681A68BB1C1B88190010002C
:100B500001F0CCF8C046BD4602B080BD80B5B4B04F
:100B600000AF304A30493B1D180000F051FCFFF740
:100B700077FD2E4B1B68180000F0ADF82A4B0722BA
:100B8000DA82284BDA89284B1A83274B254A128AA6
:100B90005A83244B9A7C244B1A70234B1B789AB2AD
:100BA000214B9A831F4B18229A5E1F4BDA831D4BF1
:100BB0001A229A5E1C4B1A841A4B14229B5E9AB21C
:100BC000194B1A85184B3F22DA87174B01229A8559
:100BD000154B4022FF219952124B18229A5E124B5C
:100BE0005A86104B1A21595E0F4B462299520E4BD2
:100BF0005622012199540C4B48220D4999520D4A15
:100C0000094B1100180000F09FFC3B1D180000F07C
:100C1000B1FC3B1D1A00044B1100180001F0E2FB6F
:100C200030BFF2E7D00100200C0200201C000020A1
:100C3000E02E0000E001002080B500AF9023DB052E
:100C40001800BD4680BD000080B500AF014B180004
:100C5000BD4680BD0004004880B500AF014B1800C0
:100C6000BD4680BD0008004880B500AF014B1800AC
:100C7000BD4680BD000C004880B500AF014B180098
:100C8000BD4680BD0014004880B500AF014B180080
:100C9000BD4680BD0038014080B500AF014B180053
:100CA000BD4680BD002C014080B500AF014B18004F
:100CB000BD4680BD0030014080B582B000AF786095
:100CC00001F082FE03001A6802218A431A60C046BE
:100CD000BD4602B080BD80B582B000AF78607B6851
:100CE00000229A61C046BD4602B080BD80B582B088
:100CF00000AF78607B6800229A61C046BD4602B0B2
:100D000080BD80B582B000AF78607B6800229A61B8
:100D1000C046BD4602B080BD80B582B000AF7860ED
:100D20007B681A681203120B1A60C046BD4602B0F7
:100D300080BD80B582B000AF786001F04DFE030049
:100D400000225A80C046BD4602B080BD80B582B048
:100D500000AF786001F048FE03001A685204520C9C
:100D60001A60C046BD4602B080BD80B582B000AFFB
:100D7000786001F041FE03001A685204520C1A60B8
:100D8000C046BD4602B080BD80B582B000AF78607D
:100D900001F03AFE03001A685204520C1A60C04671
:100DA000BD4602B080BD80B582B000AF786001F072
:100DB00033FE03001A685204520C1A60C046BD4646
:100DC00002B080BD80B582B000AF786001F02CFE2B
:100DD00003001A685204520C1A60C046BD4602B0A5
:100DE00080BD80B582B000AF78607B6800221A6554
:100DF000C046BD4602B080BD80B582B000AF78600D
:100E000039607B685A683B685A607B685B68002B76
:100E100003D07B685B683A689A607B683A685A607E
:100E20007B681B68002B02D17B683A681A60C04659
:100E3000BD4602B080BD80B582B000AF7860396039
:100E40003B685B68002B0ED03B689B68002B0AD088
:100E50003B685B683A6892689A603B689B683A684E
:100E600052685A602DE03B689B68002B0FD03B68AE
:100E70009A687B681A607B681B6800225A607B68EE
:100E80001B68002B1DD17B6800225A6019E03B686B
:100E90005B68002B0FD03B685A687B685A607B68A0
:100EA0005B6800229A607B685B68002B09D17B68D5
:100EB00000221A6005E07B6800221A607B6800222D
:100EC0005A603B6800225A603B6800229A60C04624
:100ED000BD4602B080BD80B584B000AF78607B684D
:100EE0001A680C23FB181100180001F0A5FDFB681F
:100EF0001800BD4604B080BD80B582B000AF7860F8
:100F00007B6800221A607B681800BD4602B080BD75
:100F100080B584B000AF78600023FB600C23FB1821
:100F20001800FFF7E9FFFB681800BD4604B080BD5C
:100F300080B582B000AF786039607B681A683B6822
:100F40001B68D31A5A1E9341DBB21800BD4602B08B
:100F500080BD80B582B000AF78607B681B689A68FE
:100F60007B681A607B681800BD4602B080BD80B502
:100F700082B000AF78607B681B681800BD4602B085
:100F800080BD000080B582B000AF094B7B60084B8C
:100F9000180001F067FD01F072FD012001F079FDFC
:100FA00001F091FD01F09BFDC046BD4602B080BD41
:100FB0007FBB000080B582B000AF0B4B1B687B602D
:100FC0007B68002B09D07B681B681B687A6810005F
:100FD00098477B685B687B60F2E701F08DFDC04657
:100FE000BD4602B080BDC0468C02002080B582B0F4
:100FF00000AF0B4B1B687B607B68002B09D07B68C4
:101000001B681B687A68100098477B685B687B6088
:10101000F2E701F085FDC046BD4602B080BDC04686
:101020009002002080B582B000AF0B4B1B687B6044
:101030007B68002B09D07B681B681B687A681000EE
:1010400098477B685B687B60F2E701F07DFDC046F6
:10105000BD4602B080BDC0469402002080B582B07B
:1010600000AF0B4B1B687B607B68002B09D07B6853
:101070001B681B687A68100098477B685B687B6018
:10108000F2E701F075FDC046BD4602B080BDC04626
:101090009802002080B582B000AF0B4B1B687B60CC
:1010A0007B68002B09D07B681B681B687A6810007E
:1010B00098477B685B687B60F2E701F06DFDC04696
:1010C000BD4602B080BDC0469C02002080B582B003
:1010D00000AF0B4B1B687B607B68002B09D07B68E3
:1010E0001B681B687A68100098477B685B687B60A8
:1010F000F2E701F065FDC046BD4602B080BDC046C6
:10110000A002002080B582B000AF0B4B1B687B6053
:101110007B68002B09D07B681B681B687A6810000D
:1011200098477B685B687B60F2E701F055FDC0463D
:10113000BD4602B080BDC046A402002080B582B08A
:1011400000AF0B4B1B687B607B68002B09D07B6872
:101150001B681B687A68100098477B685B687B6037
:10116000F2E701F040FDC046BD4602B080BDC0467A
:10117000A802002080B582B000AF0B4B1B687B60DB
:101180007B68002B09D07B681B681B687A6810009D
:1011900098477B685B687B60F2E701F02BFDC046F7
:1011A000BD4602B080BDC046AC02002080B582B012
:1011B00000AF0B4B1B687B607B68002B09D07B6802
:1011C0001B681B687A68100098477B685B687B60C7
:1011D000F2E701F016FDC046BD4602B080BDC04634
:1011E000B002002080B582B000AF0B4B1B687B6063
:1011F0007B68002B09D07B681B681B687A6810002D
:1012000098477B685B687B60F2E701F001FDC046B0
:10121000BD4602B080BDC046B402002080B582B099
:1012200000AF78607B6800221A807B6800225A80B9
:101230007B6801221A717B686422DA807B68FA225B
:1012400092001A817B68054A5A817B688022D2010C
:101250009A817B681800BD4602B080BD00C0FFFFC8
:10126000B0B598B002AF78607B680E331800FFF716
:10127000D5FF7B681800FFF7FFFA214A7B681A60E8
:101280007B680E331A007B68DA617B680122524268
:101290001A637B6834220021995401F0C1FC0300D9
:1012A0001A007B689A6301F0C3FC7B68180001F0A8
:1012B000DEFC03001A0001235340DBB2002B15D0E3
:1012C00048217B180F4A31CA31C312881A807B1813
:1012D0000C24381969469A890A8019685A689B68EB
:1012E00001F056FD3B19180001F09AFD7B681800CB
:1012F000FFF72CFB7B681800BD4616B0B0BDC0469A
:10130000C8760008B475000880B582B000AF786078
:1013100039607B6801221A707B6802229B181422B4
:101320000021180006F0D5F87B6816229B181422BD
:101330000021180006F0CDF87B682A229B181422A1
:101340000021180006F0C5F87B683E229B18142285
:101350000021180006F0BDF87B6852229B180A2273
:101360000021180006F0B5F87B683A68DA657B68FA
:101370006022002199547B6864337A681100180058
:1013800001F072FD7B6870337A681100180001F07B
:1013900085FD7B681800BD4602B080BD80B500AFFA
:1013A000014B1800BD4680BD0020024090B583B0BF
:1013B00000AF0200FB1D1A70FB1D1B7807221340B3
:1013C000DCB2FFF7EBFF0300072222401968072079
:1013D00081430A431A60C046BD4603B090BD000079
:1013E00080B582B000AF78607B681800FFF744FAE0
:1013F000064A7B681A607B6800221A617B680022BB
:101400005A617B681800BD4602B080BDE0760008D6
:1014100090B587B002AFF860B9607A60FB680022CF
:101420001A70FB68BA685A60FB687A689A60FB6851
:101430000C331A00BB6826331900100001F048FD78
:10144000FB681033180001F050FDFB6814331800DE
:10145000FB680C331900FB6810331A007B681424F6
:101460001B5F01F061FDFB6830331800FB680C3333
:1014700019007B68DB8A1A0001F090FDFB68483395
:101480001800FB680C3319007B68DB8A1A0001F036
:10149000ABFDFB6864331800FB680C331900FB6874
:1014A00030331A00FB68103301F0CAFDFB68783353
:1014B0001800FB680C331900FB6810331A0001F0A8
:1014C000D7FDFB6884331800FB6814331900FB68F0
:1014D00030331A00FB6848331C00FB68103300935C
:1014E000230001F0D9FDFB689C331800FB680C3326
:1014F0001900FB6810331A007B6818331C007B68E6
:101500001A330093230001F0E8FDFB68B0331800A4
:10151000FFF766FFFB68C82200219954FB68C922C7
:1015200000219954FB68CA2201219954FB68CB22FF
:1015300000219954FB680C33180001F0E9FDFB68A9
:101540001800BD4605B090BD90B585B000AF78607D
:10155000396008243B193A681100180001F0ECFDCD
:101560003A197B681100180001F070FEC046BD46B4
:1015700005B090BD90B583B000AF78607B685C68C3
:1015800001F074FE03001900242301220A40100117
:10159000E25C10218A43111C021C0A43E2547B685E
:1015A0005C6801F06FFE03001900242301220A4049
:1015B0009001E25C40218A43111C021C0A43E25460
:1015C0007B685C6801F06CFE030019002423012293
:1015D0000A405001E25C20218A43111C021C0A438C
:1015E000E2547B685C6801F06AFE03001900242362
:1015F000012211400800E25C01218A43111C021CF7
:101600000A43E2547B685C6801F068FE030019003D
:10161000242301220A409018E25C02218A43111C13
:10162000021C0A43E2547B685C6801F066FE03001A
:101630001900242301220A40D000E25C08218A43D9
:10164000111C021C0A43E25401F066FE031E03D182
:1016500001F071FE031E01D0012100E000217B6832
:101660005B682422012001408C00995C04208143A6
:10167000081C211C014399547B685B6824229B5CF5
:101680001B07DB0FDBB2002B05D07B68103300217A
:10169000180001F05EFE7B6810331A007B685C68FE
:1016A000100001F069FE030063847B685A687B6860
:1016B0005B68127C1207D20FD2B226215B1801217F
:1016C0000A4050015A7820218A43111C021C0A4307
:1016D0005A707B6848331A007B685C68100001F020
:1016E00057FE03001A002623E318D0015A787F2101
:1016F0000A40111C021C0A435A707B685B687A68B6
:10170000CA21525C26215B1801210A4090015A78B7
:1017100040218A43111C021C0A435A7001F042FE08
:10172000030019007B685B6801224A40D2B226217F
:101730005B1801210A40D0005A7808218A43111C05
:10174000021C0A435A707B68DB681B781B07DB0F9F
:10175000DBB201225340DBB2002B0CD07B68DB688C
:101760001B78DB06DB0FDBB201225340DBB2002B20
:1017700001D0012200E000227B685B6826215B1813
:1017800001210A4010015A7810218A43111C021CC1
:101790000A435A707B681B78052B00D9A1E29A0096
:1017A000D44BD3181B689F467B68CA229B5C0122DE
:1017B0005340DBB2002B12D07B687833180001F065
:1017C000FFFD7B6802221A707B685B682622995CA9
:1017D00007208143081C0121014399547CE201F058
:1017E00004FE031E12D07B687833180001F00AFE55
:1017F0007B6805221A707B685B682622995C07204B
:101800008143081C05210143995465E201F02EFD36
:10181000031E00D160E27B687833180001F0FEFD02
:101820007B687833180001F0A9FE031E27D07B687F
:10183000CA22002199547B685B687A68CA21525C8D
:1018400026215B1801210A4090015A7840218A43E1
:10185000111C021C0A435A707B687833180001F08F
:10186000AFFD7B6802221A707B685B682622995C58
:1018700007208143081C0121014399542CE27B6815
:101880007833180001F088FE031E12D07B6878338D
:10189000180001F0B7FD7B6805221A707B685B6851
:1018A0002622995C07208143081C05210143995495
:1018B00012E201F07FFE031E03D101F08AFE031E37
:1018C00001D0012300E00023002B00D104E27B685B
:1018D000C922012199547B68CA22012199547B684D
:1018E0005B687A68CA21525C26215B1801210A4094
:1018F00090015A7840218A43111C021C0A435A70F5
:101900007B687833180001F07DFD7B6805221A7032
:101910007B685B682622995C07208143081C0521AF
:1019200001439954D8E17B68CA229B5C002B0DD0FF
:101930007B6801221A707B685B682622995C07200D
:101940008143081C032101439954CAE101F032FE8E
:10195000031E03D101F03DFE031E01D0012300E070
:101960000023002B2BD07B68C922012199547B686E
:10197000CA22012199547B685B687A68CA21525C4B
:1019800026215B1801210A4090015A7840218A43A0
:10199000111C021C0A435A707B688433180001F042
:1019A00026FE7B6805221A707B685B682622995C9C
:1019B00007208143081C05210143995491E101F05E
:1019C0008DFC031E0ED07B6810331A007B689B6869
:1019D0001A215B5E1900100001F015FE031E01D0F4
:1019E000012300E00023002B19D07B68843318000A
:1019F00001F0FDFD7B689B681A229A5E7B681033BC
:101A00001100180001F0A5FC7B6810331A007B68F8
:101A10005C68100001F0B0FC0300638461E101F038
:101A20004EFC031E0ED07B6810331A007B689B6847
:101A300018215B5E1900100001F0E5FD031E01D0C6
:101A4000012300E00023002B19D07B6884331800A9
:101A500001F0CDFD7B689B6818229A5E7B6810338D
:101A60001100180001F075FC7B6810331A007B68C8
:101A70005C68100001F080FC0300638431E17B6846
:101A80005B680A229B5E002B0CD17B681033180028
:101A900001F072FC031E05D101F0CCFD031E01D044
:101AA000012300E00023002B07D07B68CA2201211C
:101AB00099547B6801221A7013E17B688433180003
:101AC00001F0C7FD0DE101F090FC031E14D07B680E
:101AD0009C33180001F019FE7B6805221A707B68A0
:101AE0005B682622995C07208143081C052101437D
:101AF0009954F3E0C475000801F0B8FB031E00D14F
:101B0000ECE07B689C33180001F00BFE7B689C3393
:101B1000180001F06FFE031E24D07B689A687B6872
:101B20005B681821525EDA837B689A687B685B6821
:101B30001A21525E1A847B689C33180001F068FEFB
:101B40007B6802221A707B685B682622995C0720FA
:101B50008143081C0121014399547B68CB22012158
:101B60009954BBE001F026FD031E03D101F031FDC5
:101B7000031E01D0012300E00023002B00D1ADE0C3
:101B80007B68C922012199547B68CA22012199549A
:101B90007B685B687A68CA21525C26215B18012148
:101BA0000A4090015A7840218A43111C021C0A43C2
:101BB0005A707B689C33180001F0A7FD7B680522F2
:101BC0001A707B685B682622995C07208143081C99
:101BD00005210143995481E001F0ECFC031E03D17F
:101BE00001F0F7FC031E06D07B68C9229B5C002B2A
:101BF00001D0012300E00023002B05D07B68643373
:101C0000180001F01BFE6BE001F0D4FC031E03D1B1
:101C100001F0DFFC031E09D07B68C9229B5C012216
:101C20005340DBB2002B01D0012300E00023002B46
:101C300039D07B686433180001F076FE7B68C922D6
:101C4000012199547B68CA22012199547B68B033E1
:101C50001800FEF744FE7B68B0331A00FA23DB005D
:101C600019001000FEF72BFE7B685B687A68CA21BA
:101C7000525C26215B1801210A4090015A784021CC
:101C80008A43111C021C0A435A707B6805221A7091
:101C90007B685B682622995C07208143081C05212C
:101CA000014399541CE001F037FB031E05D001F0FD
:101CB00090FC031E01D0012300E00023002B0FD075
:101CC0007B686433180001F0B9FD7B68C9220021EC
:101CD000995405E0C04604E0C04602E0C04600E07A
:101CE000C046C046BD4603B090BDC04680B582B078
:101CF00000AF78600A00BB1C1A80BB1C1B88092B34
:101D000000D963E39A00D24BD3181B689F467B68C7
:101D10005A687B685B6852885A837B685B681A33B1
:101D20001A007B689B6812881A8256E37B685A689F
:101D30007B685B6892889A839A8B7B689B68D2B237
:101D40009A744AE37B685B68DB88D03B5A42534114
:101D5000DAB2C04B1A7040E3BE4B1B78002B0CD09C
:101D6000BC4B00221A707B685A687B685B681289DA
:101D70001A837A6892681B8BD381B64B01221A7042
:101D80002BE37B68180001F0DBFD031E00D11FE38D
:101D90007B6884331A007B685B680A215B5E1900EC
:101DA000100001F0DBFD13E37B68180001F0C8FDB3
:101DB000031E09D07B6848331A007B685B689B8AE6
:101DC0001900100001F01AFE7B685A687B685B6896
:101DD00092891A851B8D1AB27B689A857B689B68ED
:101DE0007A682C21525E9A82F7E27B685B68D98917
:101DF0007B68442299527B689B687A684421525AD6
:101E0000DA82EAE27B68180001F09EFE031E09D028
:101E10007B685B681B7C1B07DB0FDBB2002B01D0F0
:101E2000012300E00023002B18D07B68180001F08C
:101E300098FE7B685A687B685B68127C1207D20F39
:101E4000D2B226215B1801210A4050015A78202184
:101E50008A43111C021C0A435A70BBE27B681800BB
:101E600001F094FE031E3BD07B685B681B7C1B0764
:101E7000DB0FDBB201225340DBB2002B1DD07B68AD
:101E80007833180001F0BEFA7B68180001F08CFE70
:101E90007B685A687B685B68127C1207D20FD2B2EB
:101EA00026215B1801210A4050015A7820218A43DB
:101EB000111C021C0A435A708FE27B685B681B7C12
:101EC00007221340DBB2022B00D083E27B68783319
:101ED000180001F075FA7B68180001F077FE79E2CE
:101EE0007B68180001F087FE031E29D07B685B68C1
:101EF0001B7C1B07DB0FDBB201225340DBB2002B44
:101F000000D167E27B689C33180001F0FEFB7B6820
:101F1000180001F049FE7B685A687B685B68127C98
:101F20001207D20FD2B226215B1801210A405001BC
:101F30005A7820218A43111C021C0A435A7049E234
:101F40007B68180001F0FCFC031E00D1A0E07B6858
:101F50005B681B7C1B07DB0FDBB201225340DBB24B
:101F6000002B1DD07B688433180001F040FB7B6898
:101F7000180001F019FE7B685A687B685B68127C68
:101F80001207D20FD2B226215B1801210A4050015C
:101F90005A7820218A43111C021C0A435A701CE201
:101FA0007B685B681B7CDB06DB0FDBB2002B07D199
:101FB0007B685B681B7C9B06DB0FDBB2002B04D0CD
:101FC0007B688433180001F024FE7B685B685B7CCF
:101FD0005B07DB0FDBB2002B10D07B685B685B7CA0
:101FE0001B07DB0FDBB201225340DBB2002B05D015
:101FF0007B688433180001F026FE17E07B685B687D
:102000005B7C1B07DB0FDBB2002B0FD07B685B68B0
:102010005B7C5B07DB0FDBB201225340DBB2002BA2
:1020200004D07B688433180001F04AFE7B685B684B
:102030001B7C07221340DBB2022B0DD17B6884335B
:10204000180001F0E6FD7B68180001F0BFFDC1E15A
:10205000DC750008880200207B685B681B7C072217
:102060001340DBB2042B00D0B4E17B68CB229B5C35
:1020700001225340DBB2002B00D1ABE17B688433FB
:10208000180001F0C6FD7B68180001F056FEA1E1C2
:102090007B68180001F066FE031E00D126E17B6814
:1020A0005B681B7C1B07DB0FDBB201225340DBB2FA
:1020B000002B1DD07B686433180001F035FC7B6871
:1020C000180001F071FD7B685A687B685B68127CC0
:1020D0001207D20FD2B226215B1801210A4050010B
:1020E0005A7820218A43111C021C0A435A7074E159
:1020F0007B685B681B7CDB06DB0FDBB2002B04D04C
:102100007B686433180001F03BFE7B685B681B7CD6
:102110009B06DB0FDBB2002B04D07B686433180016
:1021200001F03EFE7B685B685B7C5B07DB0FDBB22C
:10213000002B1BD07B685B685B7C1B07DB0FDBB273
:1021400001225340DBB2002B10D07B685B681B7C04
:102150009B06DB0FDBB201225340DBB2002B05D024
:102160007B686433180001F028FE22E07B685B681E
:102170005B7C1B07DB0FDBB2002B1AD07B685B6834
:102180005B7C5B07DB0FDBB201225340DBB2002B31
:102190000FD07B685B681B7C9B06DB0FDBB20122E8
:1021A0005340DBB2002B04D07B686433180001F08D
:1021B00011FE7B685B681B7C40221340DBB2002B66
:1021C00005D17B686433180001F011FE0CE07B68D8
:1021D0005B681B7C40221340DBB2002B04D07B6881
:1021E0006433180001F010FE7B685B681B7C7F2263
:1021F0009343DBB2002B05D17B686433180001F0F8
:1022000010FE0CE07B685B681B7C7F229343DBB293
:10221000002B04D07B686433180001F00FFE7B684C
:102220005B685B7CDB07DB0FDBB2002B1BD07B68C2
:102230005B685B7C9B07DB0FDBB201225340DBB2A8
:10224000002B10D07B685B681B7CDB06DB0FDBB2EE
:1022500001225340DBB2002B05D07B6864331800A9
:1022600001F0FAFD22E07B685B685B7C9B07DB0F7B
:10227000DBB2002B1AD07B685B685B7CDB07DB0F73
:10228000DBB201225340DBB2002B0FD07B685B68CE
:102290001B7CDB06DB0FDBB201225340DBB2002BE1
:1022A00004D07B686433180001F012FE7B685B6821
:1022B0001B7C07221340DBB2012B09D101F02CF863
:1022C000031E05D001F037F8031E01D0012300E002
:1022D0000023002B00D17DE07B686433180001F0FF
:1022E00030FE7B68180001F043FE73E07B68180045
:1022F00001F053FE031E00D16CE07B685B681B7C21
:1023000007221340DBB2022B0AD17B68B0331800DE
:10231000FEF7F4FA031E03D07B68180001F056FCA8
:102320007B685B681B7C1B07DB0FDBB20122534021
:10233000DBB2002B4ED07B68180001F035FC7B68C7
:102340005A687B685B68127C1207D20FD2B22621D2
:102350005B1801210A4050015A7820218A43111C40
:10236000021C0A435A7035E07B68180001F0FAFC41
:10237000031E31D07B685B68DB7C5B06DB0FDBB266
:10238000002B0DD07B6864331A007B685B685B8A26
:102390009B049B0C9BB21900100001F00CFE1BE08B
:1023A0007B685B68DB7C1B06DB0FDBB2002B13D08A
:1023B0007B6864331A007B685B685B8A9B049B0CB8
:1023C0009BB21900100001F032FE05E0C04604E0A7
:1023D000C04602E0C04600E0C046C046BD4602B06E
:1023E00080BDC046F0B58BB000AF786039607B68C7
:1023F00060229B5CDBB2002B00D1E0E27B686022B4
:10240000002199542723FB1800221A702623FB1859
:1024100001221A707B68DB6D180001F044FE030096
:102420003B621223FB1800221A801E23FB18002295
:102430001A801C23FB1800221A801A23FB18002282
:102440001A801923FB1801221A702623FB181B7807
:10245000002B00D1B3E22623FB181B780A2BF4D8FB
:102460009A00CD4BD3181B689F467B68DB6D1A78AA
:102470007B681B789A4204D07B68DB6D1B78002B4D
:1024800004D12623FB1802221A7097E22623FB1898
:102490000A221A7092E23B6A072B01D9032200E05C
:1024A0000A222623FB181A7088E27B68DB6D1A006B
:1024B0003B6ADBB2023BDBB212257C19190010002B
:1024C000FEF75EFA030023807B191B88DAB27B6873
:1024D000D96D3B6A023BCB5C9A420BD11223FB18AD
:1024E0001B881B12DAB27B68D96D3B6A013BCB5C5F
:1024F0009A4204D02623FB180A221A705EE2262391
:10250000FB1804221A7059E27B68DB6D9B781B0272
:102510001AB27B68DB6DDB781BB213431AB21E2143
:102520007B181A807B68DB6D1B791B021AB27B68F3
:10253000DB6D5B791BB213431AB21A203B181A8069
:102540007A183B1812881B88D3189AB21C23FB18E0
:10255000013A1A807B68DB6D5B78032B04D126235C
:10256000FB1805221A7029E27B68DB6D5B78102B63
:1025700004D12623FB1806221A701FE22723FB181A
:1025800001221A702623FB1808221A7016E23B6AF1
:10259000082B04D02623FB180A221A700EE21C23F3
:1025A000FB181B88092B08D92723FB1802221A7055
:1025B0002623FB1808221A7000E21A23FB181B8836
:1025C0005B003B627B68DB6D3A6AD2B29A7018237B
:1025D000FB1800221A701823FB181A781A23FB180C
:1025E0001B889A422EDA1E243B191A8818203B18A1
:1025F0001B78D3187A6808335B00D31806331B881E
:1026000019127B68DA6D3B181B785B000333C9B283
:10261000D1543B191A883B181B78D3187A680833B1
:102620005B00D318063319887B68DA6D3B181B787A
:1026300002335B00C9B2D1543B183A181278013208
:102640001A70C8E73B6A03333B622623FB18092252
:102650001A70B3E11A23FB181B885B0009333A6A2E
:102660009A4204D02623FB180A221A70A6E11C23E2
:10267000FB181B88092B08D92723FB1802221A7084
:102680002623FB1808221A7098E12623FB1807223C
:102690001A7093E11923FB1801221A701623FB18F4
:1026A00000221A801623FA181A23FB1812881B8896
:1026B0009A4200D3D4E01623FB181A881E23FB1875
:1026C0001B88D3187A685221D3185B181B78002B0B
:1026D00064D07B68DA6D16257B191B885B00073395
:1026E000D35C1B0219B27B68DA6D7B191B8804333B
:1026F0005B00D35C1AB20E26BB190A431A8019205C
:102700003B1819787B191A881E23FB181B88D318CD
:102710007A6814335B00D31802331B881BB2BA19D2
:102720000024125FD417D80F9A4244412300DBB231
:102730000B401A0019203B18511E8A411A703B1891
:102740001B787A1911881E22BA1812888A1879689B
:102750001C3252008A180632128812B2B9190020AF
:10276000095E91420EDD1622BA1811881E22BA188F
:1027700012888A1879681C3252008A180632128828
:10278000002A01D1012200E000221A401923FB187F
:10279000511E8A411A705CE0047600087B68DA6D8D
:1027A00016243B191B885B000733D35C1B021AB24B
:1027B0007B68D96D3B191B8804335B00CB5C1BB273
:1027C00013431AB210257B191A801926BB191A78DF
:1027D0003B1919881E23FB181B88CB187968143302
:1027E0005B00CB18023319887B19188800238842B4
:1027F0005B41DBB21A40BB19511E8A411A70BB19EA
:102800001B783A1911881E22BA1812888A1879681A
:102810001C3252008A1806321288791909889142AE
:102820000ED91622BA1811881E22BA1812888A18D0
:1028300079681C3252008A1806321288002A01D1A7
:10284000012200E000221A401923FB18511E8A4180
:102850001A701622BB18BA18128801321A8021E7A2
:102860001923FB181B78002B4DD01523FB180022D1
:102870001A701523FB181A781A23FB181B889A4222
:1028800026DA7B68DA6D15203B181B785B0007336E
:10289000D35C1B021AB27B68D96D3B181B780433DA
:1028A0005B00CB5C1BB2134319B21E23FB181A88C2
:1028B0003B181B78D31889B27A685B00D3180233AF
:1028C0000A1C1A803B183A18127801321A70D0E7A5
:1028D0001E23FA181C23FB1812881B889A420BD857
:1028E0001E22BB181B88BA18591C11803A00190007
:1028F0001000FEF720F9EBE706233B622623FB18C6
:1029000009221A705AE02723FB1803221A70262383
:10291000FB1808221A7051E07B68DB6D5A787B68DF
:10292000DB6D802149420A43D2B25A707B68DB6D6D
:102930002722BA1812789A7003233B622623FB18C9
:1029400009221A703AE07B68DB6D1A003B6ADBB241
:10295000122425003C1919001000FEF711F803009D
:1029600023802C003B191B88D8B27B68DA6D3B6A48
:10297000591C3962011CD1543B191B881B12D8B257
:102980007B68DA6D3B6A591C3962011CD1547B6843
:10299000DB6D3A6A1100180001F093FB2623FB1847
:1029A00000221A700AE07B68DB6D180001F09FFBC3
:1029B0002623FB1800221A7000E0C04645E5C046F9
:1029C000BD460BB0F0BDC04680B500AF014B18004E
:1029D000BD4680BD0038014080B500AF014B1800F6
:1029E000BD4680BD0030014080B500AF014B1800EE
:1029F000BD4680BD0800024080B500AF014B180005
:102A0000BD4680BD1C00024080B500AF014B1800E0
:102A1000BD4680BD3000024080B500AF014B1800BC
:102A2000BD4680BD4400024080B500AF014B180098
:102A3000BD4680BD5800024080B582B000AF7860CE
:102A400039607B683A681A607B681800BD4602B03E
:102A500080BD000080B500AF014B1800BD4680BDB1
:102A600010E000E090B583B000AF78607C68FFF7BD
:102A7000F1FF03005C60C046BD4603B090BD80B569
:102A800000AFFFF7E7FF030000229A60C046BD4693
:102A900080BD90B583B000AF0200FB1D1A70FB1D16
:102AA0001B7801221340DCB2FFF7D4FF03000122A0
:102AB000224092001968042081430A431A60C046EC
:102AC000BD4603B090BD80B500AFFFF7C3FF030064
:102AD0001A6802210A431A60C046BD4680BD80B50F
:102AE00000AFFFF7B7FF03001A6801210A431A601D
:102AF000C046BD4680BD000080B500AF01F006FBBA
:102B00000300024A1A60C046BD4680BD5F0A02004B
:102B100080B500AF014B1800BD4680BD002C0140C0
:102B200080B500AFFFF7F4FF03001A8A08218A433B
:102B30001A82C046BD4680BD80B500AF014B18006B
:102B4000BD4680BD0004004080B500AFFFF7F4FF34
:102B500003001A8A08218A431A82C046BD4680BDF6
:102B600080B500AF014B1800BD4680BD002000407D
:102B700080B500AFFFF7F4FF03001A8A08218A43EB
:102B80001A82C046BD4680BD80B500AF014B18001B
:102B9000BD4680BD0044014080B500AFFFF7F4FFA3
:102BA00003001A8A08218A431A82C046BD4680BDA6
:102BB00080B500AF014B1800BD4680BD0048014004
:102BC00080B500AFFFF7F4FF03001A8A08218A439B
:102BD0001A82C046BD4680BD80B500AF01F09EFAA6
:102BE000C046BD4680BD80B500AF01F0A7FAC04623
:102BF000BD4680BD80B500AF01F0B0FAC046BD460D
:102C000080BD80B500AF01F0BBFAC046BD4680BDB7
:102C100080B500AF01F0C6FAC046BD4680BD0000D9
:102C200080B500AF014B1800BD4680BD007C000898
:102C300080B500AFFEF7B2FB03001A6980210A439A
:102C40001A61C046BD4680BD80B582B000AF7860D5
:102C50007B681800BD4602B080BD80B582B000AF71
:102C600078607B680E331800BD4602B080BDF0B5B9
:102C70008BB000AF78607B6820330E22FF211800F4
:102C800004F027FC7B68012252421A630823FB18D8
:102C900018000E231A00002104F01BFC7B689B6BBC
:102CA0003B623B6A7B623B6A8022D200944663446B
:102CB000FB617A6AFB699A4226D07B6ABB617B68BA
:102CC0001B6B5A1C7B681A63BB691B780D2B12D8CF
:102CD000BB691B781800BB6959787B6820221B18D8
:102CE0009B180A1C1A70BB691B781A000823FB1872
:102CF0000121995403E0BB691B78FF2B03D07B6A49
:102D000002337B62D5E7C0467B689B6B180001F0FD
:102D10005BFA02007B681B6B5B00D4187B689B6BC3
:102D2000180001F05AFA0300321C1900200001F0CB
:102D300061FA03001A0001235340DBB2002B05D0D7
:102D40007B6834220121995400231CE00826BB191A
:102D50001800FFF779FF0400BB191800FFF77DFF8B
:102D600003002A1C1900200001F05BFA031E09D0A1
:102D70007B68D8697B6820330E22190004F0A0FB21
:102D8000012300E000231800BD460BB0F0BD000099
:102D900084B090B5C64600B582B000AF786004201C
:102DA0001024A4460824A046B844C44460440160EA
:102DB000426083607B680E22042110208446082034
:102DC0008046B844C44461449B180E22180004F0A5
:102DD00077FB7B681800FDF74FFD104A7B681A608F
:102DE0007B680E331A007B68DA617B6801225242ED
:102DF0001A637B68342200219954FFF711FF030006
:102E00001A007B689A637B681800BD4602B004BC58
:102E1000904690BC08BC04B01847C046C87600086D
:102E200080B582B000AF7860054A7B681A607B6825
:102E30001800FDF773FD7B681800BD4602B080BD29
:102E4000C876000880B582B000AF7860054A7B681C
:102E50001A607B6800225A607B681800BD4602B089
:102E600080BDC046D476000880B582B000AF7860DF
:102E700039607B681800FFF7E5FF074A7B681A6036
:102E80007B683A689A607B68180001F0E1F97B681A
:102E90001800BD4602B080BDBC76000880B582B087
:102EA00000AF786039607B681800FFF7CBFF074AF6
:102EB0007B681A607B683A689A607B68180001F04A
:102EC000E7F97B681800BD4602B080BDB076000807
:102ED00080B582B000AF786039607B683A681A606C
:102EE0007B681800BD4602B080BD80B582B000AFDF
:102EF000786001F0EDF901F0F2F901F0F7F901F075
:102F0000FCF901F007FA01F013FA01F01FFA01F0E1
:102F10002BFA01F03BFA01F047FA01F04FFA7B6817
:102F20001800BD4602B080BD80B584B000AFF86027
:102F3000B9607A601A00BB1C1A80FB681800FFF7A2
:102F400081FF154AFB681A60FB6800221A72FB6851
:102F500000225A72FB6800225A81FB68BA68DA6064
:102F6000FB687A681A61FB6800229A82FB6800227B
:102F7000DA82FB68BA1C12881A837B68180001F099
:102F80002FFA0200FB681900100001F038FAFB6804
:102F90001800BD4604B080BDA476000880B584B09A
:102FA00000AFF860B960BB1D1A80FB681800FDF720
:102FB0004FFC0C4AFB681A60FB6800221A73FB681E
:102FC00000225A73FB680022DA81FB68BA681A6132
:102FD000FB68BA1D12889A82FB681800BD4604B0CF
:102FE00080BDC0469876000880B584B000AFF86018
:102FF000B960BB1D1A80FB681800FDF729FC0F4A59
:10300000FB681A60FB6800221A73FB6800225A737F
:10301000FB680022DA81FB68BA681A61FB6800224B
:103020009A82FB6800229A75FB68BA1D12881A837F
:10303000FB681800BD4604B080BDC0468C76000811
:1030400080B584B000AFF860B9607A603B60FB681F
:1030500000221A70FB68BA685A60FB687A689A6046
:10306000FB683A68DA60FB681800BD4604B080BDB2
:1030700080B584B000AFF860B9607A60FB68002268
:103080001A70FB68BA685A60FB687A689A60FB68D5
:103090001800BD4604B080BD80B584B000AFF860B4
:1030A000B9607A603B60FB68BA681A60FB687A684E
:1030B0005A60FB683A689A60FB68BA69DA60FB6834
:1030C00000221A82FB6800225A82FB6800221A75CD
:1030D000FB681800BD4604B080BD80B584B000AF69
:1030E000F860B9607A603B60FB6800221A70FB6888
:1030F000BA685A60FB687A689A60FB683A68DA6076
:10310000FB68BA691A61FB681800BD4604B080BD4F
:1031100080B582B000AF786001F07EF901F083F9EC
:1031200001F088F901F08DF901F092F901F097F9B9
:10313000C046BD4602B080BD80B584B000AF7860A7
:1031400039603B681B7838221340DBB2082B3ED035
:103150003B681B7838221340DBB2102B34D03B681D
:103160001B7838221340DBB2182B2AD03B681B781F
:1031700038221340DBB2202B20D03B681B7838224A
:103180001340DBB2282B16D03B681B783822134043
:10319000DBB2302B0CD03B681B7838221340DBB2FB
:1031A000382B02D1E1235B0213E096239B0110E050
:1031B00096235B020DE0E1231B020AE096231B022B
:1031C00007E0E123DB0104E09623DB0101E0E123DA
:1031D0009B01FB603B681B78DB07DB0FDBB2002B3E
:1031E00001D0012200E000220B23FB181A703B687B
:1031F0001B7802221340DBB2002B01D1002200E039
:1032000001220A23FB181A703B681B780422134022
:10321000DBB2002B01D1002200E0022209217B1841
:103220001A707B68FA681A607B680B22BA181278E9
:103230001A717B680A22BA1812785A717B687A1858
:1032400012789A717868BD4604B080BD80B582B0AE
:1032500000AF786039607B68DB6D3A681100180058
:1032600001F020F9C046BD4602B080BD80B500AF78
:1032700001F0A3F903001BB29BB2DB0BDBB2180019
:10328000BD4680BD80B500AF01F097F903001A007C
:10329000022313405A1E9341DBB21800BD4680BD85
:1032A00080B500AF01F089F903001A008023DB012B
:1032B00013405A1E9341DBB21800BD4680BD80B555
:1032C00000AF01F07AF903001A0080239B0113403C
:1032D0005A1E9341DBB21800BD4680BD80B500AFD9
:1032E00001F06BF903001A0080235B0113405A1EA2
:1032F0009341DBB21800BD4680BD80B500AF01F040
:103300005CF903001A0080231B0113405A1E9341ED
:10331000DBB21800BD4680BD80B500AF01F04DF9AD
:1033200003001A008023DB0013405A1E9341DBB2D6
:103330001800BD4680BD80B500AF01F03EF9030026
:103340001A00042313405A1E9341DBB21800BD46F5
:1033500080BD80B582B000AF78600A00BB1C1A80C7
:10336000BB1C1B88180001F032F9BB1C00229B5EBD
:103370001800BD4602B080BD80B582B000AF786055
:1033800001F035F903001BB21800BD4602B080BD44
:1033900080B582B000AF78607B689B7D1800BD4629
:1033A00002B080BD80B500AF01F02BF903001A0018
:1033B000802313405A1E9341DBB21800BD4680BDE6
:1033C00080B582B000AF78607B685B68180001F060
:1033D00022F97B685B68180001F034F97B680022F1
:1033E0001A70C046BD4602B080BD80B500AF01F086
:1033F000E4F803001BB2DB439BB2DB0BDBB218002B
:10340000BD4680BD80B582B000AF78607B68180093
:10341000FFF7D6FFC046BD4602B080BD80B582B082
:1034200000AF78607B681B78042B00D9A0E09A007D
:10343000514BD3181B689F4600F0FCF8031E2ED09A
:10344000FFF73DFF031E12D07B685B68180001F098
:1034500009F97B685B68180001F01AF97B685B6802
:10346000180001F02BF97B6801221A707BE001F053
:1034700035F9031E00D176E07B685B68180001F027
:103480003CF97B685B68180001F002F97B685B68B7
:10349000180001F013F97B6802221A7063E07B6860
:1034A0009B6800211800FFF754FF7B6803221A7005
:1034B00059E0FFF722FF031E13D07B685B681800FA
:1034C00001F0A9F87B685B68180001F0BBF87B6825
:1034D0009B6800211800FFF73CFF7B6803221A70ED
:1034E00043E0FFF7ECFE031E3FD07B685B681800EB
:1034F00001F091F87B685B68180001F0A3F87B6825
:1035000000221A7031E0FFF7F8FE031E13D07B682B
:103510005B68180001F07FF87B685B68180001F0B9
:1035200091F87B689B6800211800FFF712FF7B6809
:1035300003221A701BE0FFF7D1FE031E17D07B6831
:103540005B68180001F067F87B685B68180001F0A1
:1035500079F87B6804221A7009E07B6800221A70EF
:1035600006E0C04604E0C04602E0C04600E0C046B7
:10357000C046BD4602B080BD3076000880B582B03E
:1035800000AF78607B681B78033B5A425341DBB243
:103590001800BD4602B080BD80B582B000AF786033
:1035A0007B681B78043B5A425341DBB21800BD468E
:1035B00002B080BD80B500AF00F0FFFF03001A002D
:1035C0008023DB0013405A425341DBB21800BD4652
:1035D00080BD80B500AF00F0F0FF03001A000423A7
:1035E00013405A425341DBB21800BD4680BD80B53E
:1035F00082B000AF78607B68180000F00AFBC0461C
:10360000BD4602B080BD80B582B000AF78600A00D0
:10361000BB1C1A8000F0EBFF03001BB2BA1C002198
:10362000525ED31A5A1E9341DBB21BB21800BD463C
:1036300002B080BD80B500AF00F0BFFF03001A00EC
:1036400080231B0113405A425341DBB21800BD4690
:1036500080BD80B582B000AF78607B681B7D012B98
:1036600005D047DD022B12D0032B33D049E07B6815
:103670001B68180001F057F803001A00012353409B
:10368000DBB2002B38D07B6800221A7534E07B68EF
:103690005B68180001F055F803001A00012353403D
:1036A000DBB2002B0FD07B685B68180001F05EF87E
:1036B000031E06D17B685B68180001F062F8031EE8
:1036C00001D0012300E00023002B17D07B680022EB
:1036D0001A7513E07B689B68180001F05DF8030021
:1036E0001A0001235340DBB2002B09D07B68002273
:1036F0001A7505E0C04604E0C04602E0C04600E09E
:10370000C046C046BD4602B080BD80B582B000AFA5
:1037100078607B68180000F07BF8C046BD4602B0B8
:1037200080BD90B583B000AF78607B681B78012BBB
:1037300043D002DC002B03D058E0022B18D055E018
:103740007B685B68180000F0D8FF7B685B68180036
:1037500000F09EFF7B685B68180000F05CFF7B68F0
:103760005B68180000F0AAFF7B6802221A703DE037
:10377000FFF7A5FD031E36D07B685B68180000F0DC
:1037800061FF7B685B68180000F06CFF7B685B681A
:10379000180000F07DFF7B685B68180000F08EFF6A
:1037A0007B689A687B68DC681000FFF7E5FD030022
:1037B00023807B6801221A7015E0FFF78FFD031E3E
:1037C00013D07B685B68180000F03CFF7B689A6848
:1037D0007B681C691000FFF7CFFD030023807B6826
:1037E00003221A7001E0C04600E0C046C046BD4654
:1037F00003B090BD80B582B000AF78607B681B7865
:10380000033B5A425341DBB21800BD4602B080BDB3
:1038100080B582B000AF78607B685B68180000F00C
:10382000FAFE7B685B68180000F00CFF7B680022E2
:103830001A70C046BD4602B080BD000080B582B09F
:1038400000AF78607B681B78042B00D965E09A0094
:10385000344BD3181B689F46FFF731FD031E55D02C
:103860007B68180000F0D0FA7B68180000F088FA36
:103870007B6800221A7049E0FFF730FD031E47D035
:103880007B68180000F0C0FA7B68180000F078FA36
:103890007B6800221A703BE07B68DA687B68102145
:1038A0005B5E1900100000F08CFF031E03D1FFF7D0
:1038B00015FD031E01D0012300E00023002B29D0B9
:1038C0007B68180000F05CFA7B6800221A7021E027
:1038D0007B68DA687B6810215B5E1900100000F0DD
:1038E00088FF031E03D1FFF7EAFC031E01D001236A
:1038F00000E00023002B0FD07B68180000F040FA96
:103900007B6800221A7007E0C04606E0C04604E06B
:10391000C04602E0C04600E0C046C046BD4602B018
:1039200080BDC0464476000880B582B000AF7860A4
:103930007B68180000F005FBC046BD4602B080BDA4
:1039400080B582B000AF78607B681B78023B5A423A
:103950005341DBB21800BD4602B080BD80B582B0D5
:1039600000AF78600A00BB1C1A807B68BA1C128802
:103970001A827B681B7D012B2FD038DC002B00D0F6
:1039800038E07B685B68180000F0DBFE03001A007B
:1039900001235340DBB2002B0FD07B685B6818001B
:1039A00000F0E4FE031E06D17B685B68180000F09F
:1039B000E8FE031E01D0012300E00023002B18D0F5
:1039C0007B681A68BB1C00215B5E1900100000F0C8
:1039D0006DFF7B6801221A750BE07B681A68BB1CBF
:1039E00000215B5E1900100000F060FF02E0C0469D
:1039F00000E0C046C046BD4602B080BD80B582B082
:103A000000AF78600A00BB1C1A807B689B7D012296
:103A10005340DBB2002B00D189E0BB1C1B88002B7C
:103A200000D184E0FFF722FC03001A000123534079
:103A3000DBB2002B0FD0FFF725FC03001A00012397
:103A40005340DBB2002B06D07B681B7BDBB2002B24
:103A500001D1012300E00023002B10D07B681B69FB
:103A6000180001F023FA7B6801221A737B68BA1CE4
:103A700012889A827B68180001F02EFA5FE0FFF747
:103A800001FC031E06D07B681B7BDBB2002B01D13F
:103A9000012300E00023002B10D07B681B69180075
:103AA00001F034FA7B6802221A737B68BA1C128810
:103AB0009A827B68180001F00FFA40E0FFF7D6FB0E
:103AC000031E06D07B681B7BDBB2002B01D10123D8
:103AD00000E00023002B03D07B6800221A732EE045
:103AE0007B681B7BDBB2043B5A425341DBB2002BA9
:103AF00003D07B6804221A7321E07B681B7BDBB256
:103B0000053B5A425341DBB2002B03D07B680522B0
:103B10001A7314E07B681B7BDBB2033B5A425341B0
:103B2000DBB2002B0BD07B6803221A7307E0BB1CAF
:103B30001B88002B04D17B6800229A7500E0C046E8
:103B4000C046BD4602B080BD80B582B000AF78608F
:103B50007B681B785A425341DBB21800BD4602B065
:103B600080BD80B582B000AF78607B6801221A709A
:103B70007B685B682622995C07208143081C03212F
:103B800001439954C046BD4602B080BD80B582B0A5
:103B900000AF78607B681B78013B5A425341DBB22F
:103BA0001800BD4602B080BD80B582B000AF78601D
:103BB0007B6800221A707B685B682622995C07206C
:103BC00081439954C046BD4602B080BD80B582B0E5
:103BD00000AF78607B6804221A707B685B682622DD
:103BE000995C07208143081C022101439954C04677
:103BF000BD4602B080BD80B582B000AF78607B6802
:103C00001B78033B5A425341DBB21800BD4602B059
:103C100080BD80B582B000AF78607B681B681800FB
:103C200001F08AF97B685B68180001F0A2F97B68F3
:103C30009B68180001F0B5F97B6800221A75C04630
:103C4000BD4602B080BD80B582B000AF78607B68B1
:103C50001B7D012B2DD002DC002B03D02CE0022B8E
:103C600015D029E07B685B68180000F07FFD030039
:103C70001A0001235340DBB2002B04D07B685B6841
:103C8000180001F0A6F97B6802221A7514E07B681F
:103C90005B68180000F06AFD03001A00012353401E
:103CA000DBB2002B07D07B685B68180001F091F94C
:103CB00001E0C04600E0C046C046BD4602B080BD3F
:103CC00080B582B000AF78607B681B7D012B2DD062
:103CD00002DC002B03D02CE0022B15D029E07B68FE
:103CE0005B68180000F04DFD03001A0001235340EB
:103CF000DBB2002B04D07B685B68180001F0C2F9CE
:103D00007B6802221A7514E07B685B68180000F07B
:103D100038FD03001A0001235340DBB2002B07D00B
:103D20007B685B68180001F0ADF901E0C04600E077
:103D3000C046C046BD4602B080BD80B582B000AF6F
:103D400078607B6803221A707B685B682622995C26
:103D500007208143081C042101439954C046BD46F5
:103D600002B080BD80B582B000AF78607B681B7800
:103D7000043B5A425341DBB21800BD4602B080BD3D
:103D800080B582B000AF78607B685B68180000F097
:103D900059FC7B6800221A70C046BD4602B080BD47
:103DA00080B582B000AF78607B689B68180001F036
:103DB000E0F8C046BD4602B080BD80B582B000AF1D
:103DC00078607B689B68180001F003F9C046BD4627
:103DD00002B080BD80B582B000AF78607B689B6820
:103DE000180001F04FF9C046BD4602B080BD80B555
:103DF00082B000AF78607B685B68180001F09BF9C7
:103E0000C046BD4602B080BD80B582B000AF7860CC
:103E10007B685B68180000F0FEFBC046BD4602B040
:103E200080BD80B582B000AF78607B685B681800A9
:103E300000F02EFCC046BD4602B080BD80B582B009
:103E400000AF78607B685B68180001F08AF9C046B3
:103E5000BD4602B080BD000080B582B000AF786082
:103E60007B681B78042B2CD89A00184BD3181B683E
:103E70009F4600F033FC031E22D07B685B6818006D
:103E800000F03BFC7B685B68180000F017FC7B6867
:103E900001221A7014E07B685B68180000F0D2FB06
:103EA0007B685B68180000F028FC7B685B68180082
:103EB00000F004FC7B6801221A7002E0C04600E0BA
:103EC000C046C046BD4602B080BDC0465876000818
:103ED00080B582B000AF78607B681B78012B18D06A
:103EE00002DC002B03D028E0042B26DC25E001F0C7
:103EF0004EF9031E20D07B685B68180000F0B2FB0F
:103F00007B685B68180000F0D9FB7B6802221A709E
:103F100012E07B685B68180000F094FB7B685B68CC
:103F2000180000F09FFB7B685B68180000F0C6FB80
:103F30007B6802221A7000E0C046C046BD4602B04F
:103F400080BD80B582B000AF78607B681800FFF755
:103F50005BFF7B681800FFF713FF7B681800FFF713
:103F60001FFF7B6800221A70C046BD4602B080BDAC
:103F700080B582B000AF78607B6802221A707B68DF
:103F80005B682622995C07208143081C01210143BC
:103F90009954C046BD4602B080BD80B582B000AF26
:103FA00078607B681B78053B5A425341DBB21800AE
:103FB000BD4602B080BD80B582B000AF78600A0017
:103FC000BB1C1A807B681B78002B2CD17B68DB68BC
:103FD0001800FFF7D1F903001A007B681A827B688A
:103FE00010229B5E9AB2BB1C1B88D31A9BB21AB2DA
:103FF0007B681A827B681800FFF713FF7B68180044
:10400000FFF702FFBB1C1B88002B09D07B685B6895
:10401000180000F027FB7B685B68180000F04EFB7F
:104020007B6803221A70C046BD4602B080BD80B5D1
:1040300082B000AF78600A00BB1C1A807B681B78D6
:10404000002B2CD17B68DB681800FFF795F9030083
:104050001A007B681A827B6810229B5E9AB2BB1C96
:104060001B88D3189BB21AB27B681A827B6818002F
:10407000FFF7D7FE7B681800FFF7C6FEBB1C1B8846
:10408000002B09D07B685B68180000F036FB7B686A
:104090005B68180000F012FB7B6804221A70C046AF
:1040A000BD4602B080BD80B582B000AF786001F03F
:1040B0007DF803001A00FF239B1A1800BD4602B0CA
:1040C00080BD80B582B000AF78603960FCF71EF922
:1040D00001F076F801F08CF83B689BB2180001F013
:1040E0009FF801F0ADF8C046BD4602B080BD80B576
:1040F00082B000AF786001F063F8FF2001F0ACF807
:1041000001F0BAF8C046BD4602B080BD80B500AF30
:10411000014B1800BD4680BD2038014080B582B0FB
:1041200000AF0F237B6001F0B3F803001A680F2182
:104130000A431A60C046BD4602B080BD80B582B059
:1041400000AFF0237B6001F0A3F803001A68F021B0
:104150000A431A60C046BD4602B080BD80B582B039
:1041600000AFF0231B017B6001F092F803001A6896
:10417000F02109010A431A60C046BD4602B080BD65
:1041800080B582B000AFF0231B027B6001F080F8A5
:1041900003001A68F02109020A431A60C046BD46AE
:1041A00002B080BD80B582B000AFF0231B037B60FE
:1041B00001F06EF803001A68F02109030A431A603F
:1041C000C046BD4602B080BD80B582B000AF786009
:1041D0007B681800BD4602B080BD80B582B000AFDC
:1041E00078607B688022D200944663441800BD4604
:1041F00002B080BD90B585B000AFF860B9603B1DDE
:104200001A70B968FB68221C180001F049F8020016
:10421000BB689B1A5A425341DBB21800BD4605B039
:1042200090BD90B585B000AFF860B9603B1D1A70C5
:10423000B968FB68221C180001F047F80200BB684F
:104240009B1A5A425341DBB21800BD4605B090BDDF
:1042500080B584B000AF78600C4B1B68FB60FB68D6
:10426000002B0BD0FB685B68002B03D0FB685B68FE
:10427000FB60F7E7FB687A685A6002E0034B7A68F4
:104280001A60C046BD4604B080BDC0468C02002006
:1042900080B584B000AF78600C4B1B68FB60FB6896
:1042A000002B0BD0FB685B68002B03D0FB685B68BE
:1042B000FB60F7E7FB687A685A6002E0034B7A68B4
:1042C0001A60C046BD4604B080BDC046A8020020AA
:1042D00080B500AF01F00EF8C046BD4680BD80B588
:1042E00000AF01F00EF8C046BD4680BD80B500AFFE
:1042F000FCF79CF9C046BD4680BD80B500AFFEF717
:1043000007FC03001A6A802149000A431A62C0466A
:10431000BD4680BD80B500AFFEF7FAFB03009A688A
:1043200007218A4303210A439A60C046BD4680BDE7
:1043300080B500AFFEF7ECFB0300DA6970218A4319
:1043400010210A43DA61C046BD4680BD80B500AF8A
:10435000FEF7DEFB03009A6903218A4301210A4329
:104360009A61C046BD4680BD80B500AFFEF7D0FB68
:1043700003009A6904490A40802149000A439A616E
:10438000C046BD4680BDC046FFFCFFFF80B500AF04
:10439000FEF7BEFB0300DA69F0218A4350210A438D
:1043A000DA61C046BD4680BD80B500AFFEF7B0FB08
:1043B000030000225A62C046BD4680BD80B500AFF2
:1043C000FEF7A6FB03001A8801210A431A80C046A3
:1043D000BD4680BD80B500AF0E231800BD4680BD30
:1043E00080B582B000AF7860FFF7F4FF03001800DB
:1043F000FBF740FF7B681800BD4602B080BD80B56A
:1044000082B000AF786039603B68180000F080FF30
:10441000C046BD4602B080BD80B500AF00F0CFFF02
:10442000C046BD4680BD80B500AF01F051F8C04622
:10443000BD4680BD80B500AF01F09EF8C046BD46C8
:1044400080BD80B500AF01F0EBF8C046BD4680BD31
:1044500080B500AF01F038F9C046BD4680BD80B5DB
:1044600000AF01F083F9C046BD4680BD80B500AF06
:10447000014B1800BD4680BD2438014080B500AF17
:10448000014B1800BD4680BD2838014080B500AF03
:104490001B231800BD4680BD80B500AF0A2318005D
:1044A000BD4680BD90B585B000AF7860396001F041
:1044B000B1F901F0B8F901F0BBF93B681B681800CD
:1044C00001F0BDF93B681B79012B08D1012001F0F7
:1044D000CBF93B685B79180001F0E6F902E00020B7
:1044E00001F0C2F93B689B79180001F0FDF9012049
:1044F00001F01AFA012001F034FA01F04FFA01F04C
:1045000059FA2A2001F062FA01F06DFA01F078FA06
:1045100001F083FA012001F08DFA01F0A8FA7B681E
:10452000180001F0ABFAFFF7A1FF0300180001F03B
:10453000B2FAFF2000F090FE08243B1900221A7006
:104540003B1900225A703B1900229A703B19012234
:10455000DA703B1900221A713B1901225A713B197A
:10456000180001F0A5FA00F087FE7B68180001F042
:10457000FFFAFFF783FF0300180001F006FB3B1969
:1045800001221A703B1900225A713B19180001F0E0
:1045900009FB01F067FBFFF779FF03001800FBF749
:1045A00069FE01F06CFBFFF777FF03001800FBF7D3
:1045B00061FEC046BD4605B090BD80B500AF01F0BC
:1045C0006BFB03001B689BB21800BD4680BD90B515
:1045D00083B000AF0200BB1D1A80BB1D1C88FEF714
:1045E00097FA03005C62C046BD4603B090BD80B53B
:1045F00000AFFEF78DFA03005B6A9BB21800BD4660
:1046000080BD80B500AF01F04FFB03001B689BB27B
:104610001800BD4680BD80B582B000AF786001F063
:104620004BFB7B681B681A78802149420A431A7049
:104630007B681B685A7801218A435A70C046BD4680
:1046400002B080BD80B582B000AF786001F03BFB66
:104650007B681B685A7808210A435A70C046BD46D9
:1046600002B080BD80B582B000AF786001F032FB4F
:104670007B681B681A7840210A431A707B681B68A4
:104680001A7820218A431A70C046BD4602B080BD08
:1046900080B582B000AF786001F023FB7B681B68B7
:1046A0005A7804210A435A707B681B685A780221A1
:1046B0008A435A70C046BD4602B080BD80B582B004
:1046C00000AF786001F014FB7B681B685A78082102
:1046D0008A435A70C046BD4602B080BD80B500AF67
:1046E000FFF76BFF03001A0080239B0113405A421F
:1046F0005341DBB21800BD4680BD80B582B000AF2B
:10470000786001F0FCFA7B681B681A7820210A4364
:104710001A707B681B681A7840218A431A70C04659
:10472000BD4602B080BD80B582B000AF78607B68C6
:104730001B7ADBB25A1E9341DBB21800BD4602B0B1
:1047400080BD80B582B000AF78607B681B7BDBB238
:10475000002B06D07B681B7BDBB2032B01D001232F
:1047600000E000231800BD4602B080BD80B582B0D5
:1047700000AF7860FEF77AFD03001800BD4602B076
:1047800080BD80B582B000AF7860FEF789FD030080
:104790001800BD4602B080BD80B582B000AF786021
:1047A0007B681B7BDBB2002B06D07B681B7BDBB2FC
:1047B000032B01D0012300E000231800BD4602B006
:1047C00080BD80B582B000AF78600A00BB1C1A8043
:1047D000FFF70DFF03001BB2BA1C0021525ED01779
:1047E000D90F9A4248410300DBB21800BD4602B01F
:1047F00080BD80B582B000AF78600A00BB1C1A8013
:10480000FFF7F5FE03001AB2BB1C00215B5ED80F58
:10481000D1179A4248410300DBB21800BD4602B0EE
:1048200080BD90B583B000AF78607B6814229A5E3B
:104830007B680A215B5E9A4210DD7B6814241C5F52
:104840007B681A697B6818215B5E1900100001F013
:104850008BFA03009C4201DA012300E000231800D8
:10486000BD4603B090BD90B583B000AF78607B6863
:1048700014229A5E7B680A215B5E9A4210DA7B689A
:1048800014241C5F7B681A697B6818215B5E190021
:10489000100001F045FA03009C4201DD012300E015
:1048A00000231800BD4603B090BD000080B582B063
:1048B00000AF78600A00BB1C1A807B68BA1C1288A3
:1048C0009A827B6816229B5EBA1C0021525E9A4235
:1048D00000D1E7E27B681B7ADBB2052B00D9E1E26D
:1048E0009A00CD4BD3181B689F467B681B69180044
:1048F00001F00CFA7B681B691800FEF73DFD030010
:104900001A00BB1C012100201B5E934201DB002327
:10491000191CCBB2002B68D07B68DB681800FFF74E
:10492000ECFE7B681A697B6818215B5E1900100039
:1049300001F0F6F903001A00BB1C00215B5ED817DA
:10494000D10F934248410300DBB2002B16D07B68A5
:10495000DB681800FFF79CFE7B68DB681800FFF738
:104960005AFE7B681A69BB1C00215B5E19001000AF
:1049700001F0EAF97B6802221A7230E07B681A695A
:104980007B6818215B5E1900100001F0C9F9030073
:104990001A00BB1C012100201B5E934201DB002397
:1049A000191CCBB2002B1AD07B68DB68180000F012
:1049B000D8FB7B68DB68180000F0BDFB7B681869DA
:1049C0007B6818229B5E9AB2BB1C1B88D3189BB2D3
:1049D0001BB2190001F0B8F97B6801221A727B68DA
:1049E000DB681800FFF76AFE55E27B681B69180058
:1049F000FEF7C2FC03001A00BB1C012100201B5E55
:104A0000934201DC0023191CCBB2002B00D142E2FF
:104A10007B68DB681800FFF725FE7B681A697B68F6
:104A200018215B5E1900100001F09EF903001A00C6
:104A3000BB1C00215B5ED80FD1179A42484103008E
:104A4000DBB2002B16D07B68DB681800FFF720FE76
:104A50007B68DB681800FFF7DEFD7B681A69BB1C0A
:104A600000215B5E1900100001F06EF97B680422E2
:104A70001A7230E07B681A697B6818215B5E190046
:104A8000100001F071F903001A00BB1C0121002085
:104A90001B5E934201DC0023191CCBB2002B1AD001
:104AA0007B68DB68180000F05CFB7B68DB68180043
:104AB00000F041FB7B681869BB1C1A887B681821D1
:104AC0005B5E9BB2D31A9BB21BB2190001F03CF99A
:104AD0007B6803221A727B68DB681800FFF7EEFD23
:104AE000D9E17B681A697B6818215B5E19001000A8
:104AF00001F016F903001A00BB1C00215B5ED80F01
:104B0000D1179A4248410300DBB2002B1ED07B68CC
:104B1000DB681800FFF7BCFD7B681A697B68182109
:104B20005B5E1900100001F01FF903001A007B689A
:104B30005A817B681A697B680A215B5E1900100044
:104B400001F002F97B6805221A72ABE17B681869F3
:104B50007B6818229B5E9AB2BB1C1B88D3189BB241
:104B60001BB2190001F0F0F89CE17B681B6918008A
:104B7000FEF702FC03001A00BB1C012100201B5E93
:104B8000934201DB0023191CCBB2002B15D07B68AC
:104B9000DB681800FFF73FFD7B68DB681800FFF754
:104BA00051FD7B6800221A72BB1C00229A5E7B6852
:104BB00011001800FFF77AFE6FE17B681A697B68C5
:104BC00018215B5E1900100001F0AAF803001A001A
:104BD000BB1C00215B5ED817D10F934248410300F4
:104BE000DBB2002B00D158E17B6818697B68182282
:104BF0009B5E9AB2BB1C1B88D3189BB21BB21900D8
:104C000001F0A2F87B68DB68180000F0AAFA7B6864
:104C100001221A7241E1C0466C7600087B681A696D
:104C20007B6818215B5E1900100001F09DF80300FD
:104C30001A00BB1C00215B5ED817D10F934248417C
:104C40000300DBB2002B2CD07B681869BB1C1A88D0
:104C50007B6818215B5E9BB2D31A9BB21BB2190012
:104C600001F072F87B68DB681800FFF711FD7B68C4
:104C70001A697B6818215B5E1900100001F050F87A
:104C800003001A007B685A817B681A697B680A21D5
:104C90005B5E1900100001F057F87B6805221A725C
:104CA00000E17B681869BB1C1A887B6818215B5E71
:104CB0009BB2D31A9BB21BB2190001F045F8F1E088
:104CC0007B681B691800FEF757FB03001A00BB1C2A
:104CD000012100201B5E934201DC0023191CCBB292
:104CE000002B15D07B68DB681800FFF794FC7B680D
:104CF000DB681800FFF7A6FC7B6800221A72BB1C59
:104D000000229A5E7B6811001800FFF7CFFDC6E015
:104D10007B681A697B6818215B5E1900100001F03E
:104D200023F803001A00BB1C00215B5ED80FD117CB
:104D30009A4248410300DBB2002B00D1AFE07B6810
:104D40001869BB1C1A887B6818215B5E9BB2D31A5A
:104D50009BB21BB2190000F0F7FF7B68DB681800FC
:104D600000F0FFF97B6803221A7298E07B68DB6829
:104D7000180001F00DF8031E07D07B681800FFF73C
:104D800050FD031E01D0012300E00023002B04D0BE
:104D90007B68BA1C12885A8183E07B68DB68180044
:104DA00000F0F6FF031E11D07B681A697B6818219A
:104DB0005B5E1900100000F0B3FF03001A00BB1C7B
:104DC00000215B5E934201DD012300E00023002B04
:104DD00016D07B68DB68180000F0C3F97B6818699F
:104DE0007B6818229B5E9AB2BB1C1B88D3189BB2AF
:104DF0001BB2190000F0A8FF7B6801221A7250E074
:104E00007B68DB68180000F0CEFF031E07D07B68CC
:104E10001800FFF728FD031E01D0012300E0002346
:104E2000002B04D07B68BA1C12885A8139E07B6859
:104E3000DB68180000F0B7FF031E11D07B681A6909
:104E40007B6818215B5E1900100000F08DFF0300E5
:104E50001A00BB1C00215B5E934201DA012300E0D3
:104E60000023002B1DD07B68DB68180000F079F967
:104E70007B681869BB1C1A887B6818215B5E9BB233
:104E8000D31A9BB21BB2190000F05EFF7B680322AD
:104E90001A72C04605E0C04604E0C04602E0C046C3
:104EA00000E0C046C046BD4602B080BD80B582B0BD
:104EB00000AF786000F082FF7B681B681A780821D9
:104EC0000A431A707B681B685A7810218A435A700B
:104ED000C046BD4602B080BD80B582B000AF7860EC
:104EE0007B685B7B01225340DBB2002B08D07A68E1
:104EF000054B11001800FBF713FC7B6801225A7365
:104F0000C046BD4602B080BDC800002080B582B05A
:104F100000AF786000F059FF7B681B681A78102199
:104F20000A431A707B681B685A7810218A435A70AA
:104F3000C046BD4602B080BD80B582B000AF78608B
:104F40007B681B7ADBB25A1E9341DBB2002B0CD07C
:104F50007B68DB681800FFF75EFB7B68DB68180086
:104F6000FFF770FB7B6800221A72C046BD4602B094
:104F700080BD80B582B000AF78607B681B7BDBB200
:104F80005A1E9341DBB2002B07D07B681B691800C7
:104F900000F022FF7B6803221A73C046BD4602B0B0
:104FA00080BD80B582B000AF78607B681B7BDBB2D0
:104FB0005A1E9341DBB2002B07D07B681B69180097
:104FC00000F00AFF7B6803221A73C046BD4602B098
:104FD00080BD80B582B000AF7860FEF747F903006E
:104FE0001A0001235340DBB2002B06D07B681B7BE9
:104FF000DBB2002B01D1012300E00023002B0CD0F9
:105000007B681B691800FFF751FF7B6801221A7348
:105010007B68180000F0FEFE30E07B681B7BDBB293
:10502000023B5A425341DBB2002B08D07B681B691C
:10503000180000F0D1FE7B6804221A731EE07B6822
:105040001B7BDBB2042B04D07B681B7BDBB2052B04
:1050500001D1012300E00023002B03D07B68042250
:105060001A730BE07B681B7BDBB2033B5A42534154
:10507000DBB2002B02D07B6803221A73C046BD4608
:1050800002B080BD80B582B000AF7860FEF708F94D
:1050900003001A0001235340DBB2002B06D07B68CB
:1050A0001B7BDBB2002B01D1012300E00023002B8E
:1050B0000CD07B681B691800FFF728FF7B68022271
:1050C0001A737B68180000F0A5FE30E07B681B7B3C
:1050D000DBB2013B5A425341DBB2002B08D07B6864
:1050E0001B69180000F078FE7B6805221A731EE029
:1050F0007B681B7BDBB2042B04D07B681B7BDBB2A1
:10510000052B01D1012300E00023002B03D07B6895
:1051100005221A730BE07B681B7BDBB2033B5A4210
:105120005341DBB2002B02D07B6803221A73C046C6
:10513000BD4602B080BD80B582B000AF786000F09F
:1051400083FE7B681B685A7801210A435A707B688A
:105150001B681A787F210A401A70C046BD4602B00B
:1051600080BD80B582B000AF786000F074FE7B68CF
:105170001B685A7802210A435A707B681B685A7868
:1051800004218A435A70C046BD4602B080BD80B536
:1051900000AFFFF712FA03001A0080235B011340EF
:1051A0005A425341DBB21800BD4680BD80B500AF06
:1051B00000F058FE03001B689BB21800BD4680BD7E
:1051C00080B500AFFDF720FC03001A6801218A4377
:1051D0001A60FDF719FC03001B68012213405A1ED8
:1051E0009341DBB2002B00D0F3E7C046BD4680BD43
:1051F00080B500AFFDF700FC03001A6801218A4367
:105200001A60FDF7F9FB03001B68012213405A1EC8
:105210009341DBB2002B00D0F3E7C046BD4680BD12
:1052200090B583B000AF0200BB1D1A80BB1D1C8867
:1052300000F020FE03001C60C046BD4603B090BDD8
:1052400080B500AFFDF7D8FB03001A6801210A43BF
:105250001A60C046BD4680BD90B583B000AF020065
:10526000BB1D1A80BB1D1C8800F0FCFD03001C60E8
:10527000C046BD4603B090BD80B500AFFDF7C4FB8E
:1052800003001A6801210A431A60C046BD4680BD6A
:1052900080B500AF014B1800BD4680BD0400024040
:1052A000B0B584B000AFF860B9603B1D1A70281C1F
:1052B00000F0F1FDB968FB68221C180000F006FE42
:1052C00003001800BD4604B0B0BDB0B584B000AF57
:1052D000F860B9603B1D1A70281C00F01DFEB9680B
:1052E000FB68221C180000F032FE03001800BD46C7
:1052F00004B0B0BD80B500AF00F046FEC046BD466C
:1053000080BD80B500AF00F09DFEC046BD4680BDAB
:1053100080B584B000AF78600C4B1B68FB60FB6805
:10532000002B0BD0FB685B68002B03D0FB685B682D
:10533000FB60F7E7FB687A685A6002E0034B7A6823
:105340001A60C046BD4604B080BDC0469002002031
:1053500080B582B000AF78607B68DBB20322134077
:10536000DBB21800BD4602B080BD80B582B000AF90
:1053700078607B689B08DBB201221340DBB2180027
:10538000BD4602B080BD80B582B000AF78607B685A
:10539000DB08DBB203221340DBB21800BD4602B0CB
:1053A00080BD80B582B000AF78607B685B09DBB2FE
:1053B00003221340DBB21800BD4602B080BDB0B579
:1053C00000AF00F09DFE00F0A3FE03001A68032169
:1053D0008A431A600120FFF7BBFF03001C0000F0A6
:1053E00097FE03001A6822431A6000F099FE03003A
:1053F0001A6801218A431A600120FFF7B6FF0300F3
:105400001C0000F08DFE03001A6822431A6000F0B1
:105410008FFE03001A6803218A431A600120FFF7F8
:10542000B2FF03001C0000F083FE03001A68224351
:105430001A6000F085FE03001A6801218A431A6091
:105440000120FFF7AEFF03001C0000F079FE03000F
:105450001A6822431A6000F07BFEC046BD46B0BD0C
:1054600080B582B000AF78607B68DBB20322134066
:10547000DBB21800BD4602B080BD80B582B000AF7F
:1054800078607B689B08DBB201221340DBB2180016
:10549000BD4602B080BD80B582B000AF78607B6849
:1054A000DB08DBB203221340DBB21800BD4602B0BA
:1054B00080BD80B582B000AF78607B685B09DBB2ED
:1054C00003221340DBB21800BD4602B080BD0000CD
:1054D000B0B500AF00F04DFE00F052FE03001A68B8
:1054E00024490A401A600120FFF7BAFF03009C0319
:1054F00000F046FE03001A6822431A6000F048FEDE
:1055000003001A6880218A431A600120FFF7B5FF63
:105510000300DC0100F03CFE03001A6822431A601D
:1055200000F03EFE03001A6812490A401A6001208A
:10553000FFF7B1FF03009C0300F032FE03001A687E
:1055400022431A6000F034FE03001A6880218A4367
:105550001A600120FFF7ADFF0300DC0100F028FE18
:1055600003001A6822431A6000F02AFEC046BD46B6
:10557000B0BDC046FF3FFFFFB0B500AF00F0F9FD82
:1055800000F0FEFD03001A6824490A401A60012059
:10559000FFF766FF03001C0300F0F2FD03001A682A
:1055A00022431A6000F0F4FD03001A6840218A4388
:1055B0001A600120FFF761FF03009C0100F0E8FD85
:1055C00003001A6822431A6000F0EAFD03001A681B
:1055D00012490A401A600120FFF75DFF03001C0317
:1055E00000F0DEFD03001A6822431A6000F0E0FDBF
:1055F00003001A6840218A431A600120FFF759FF0F
:1056000003009C0100F0D4FD03001A6822431A60D5
:1056100000F0E7FDC046BD46B0BDC046FFCFFFFF6E
:10562000B0B500AF00F0A5FD00F0AAFD03001A68B8
:1056300024490A401A600120FFF712FF03009C0270
:1056400000F09EFD03001A6822431A6000F0A0FDDE
:1056500003001A6820218A431A600120FFF70DFF1A
:1056600003005C0100F094FD03001A6822431A60F5
:1056700000F096FD03001A6812490A401A600120E2
:10568000FFF709FF03009C0200F08AFD03001A687F
:1056900022431A6000F08CFD03001A6820218A431F
:1056A0001A600120FFF705FF03005C0100F080FD98
:1056B00003001A6822431A6000F0A4FDC046BD46EC
:1056C000B0BDC046FFF3FFFFB0B500AF00F018FD5E
:1056D00000F01EFD03001A68C0218A431A600120F1
:1056E000FFF736FE03009C0100F012FD03001A686C
:1056F00022431A6000F014FD03001A6808218A434F
:105700001A600120FFF731FE0300DC0000F008FD05
:1057100003001A6822431A6000F00AFD03001A68A9
:10572000C0218A431A600120FFF72DFE03009C016F
:1057300000F0FEFC03001A6822431A6000F000FD2E
:1057400003001A6808218A431A600120FFF729FE26
:105750000300DC0000F0F4FC03001A6822431A6026
:1057600000F061FDC046BD46B0BD0000B0B500AF61
:1057700000F0FFFC00F004FD03001A68920092089C
:105780001A600120FFF76CFE03009C0700F0F8FC94
:1057900003001A6822431A6000F0FAFC03001A683A
:1057A0001B490A401A600120FFF767FE0300DC0373
:1057B00000F0EEFC03001A6822431A6000F0F0FCCF
:1057C00003001A68920092081A600120FFF763FE36
:1057D00003009C0700F0E4FC03001A6822431A60EF
:1057E00000F0E6FC03001A6809490A401A6001202B
:1057F000FFF75FFE0300DC0300F0DAFC03001A6829
:1058000022431A6000F020FDC046BD46B0BDC04630
:10581000FF7FFFFF80B500AF00F027FD00F02CFDFB
:10582000C046BD4680BD80B500AFC046BD4680BD08
:1058300080B500AFFAF71BFEC046BD4680BD90B5EF
:1058400083B000AF7860FAF74DFE03007968180066
:10585000FAF75AFC03001C0000F018FD03001C605E
:10586000C046BD4603B090BD80B582B000AF020017
:10587000FB1D1A70FB1D1B78002B08D0FDF7A4F848
:1058800003001A688021C9000A431A6006E0FDF788
:105890009BF803001A6803490A401A60C046BD46D7
:1058A00002B080BDFFFBFFFF80B582B000AF0200F9
:1058B000FB1D1A70FB1D1B78002B08D0FDF784F828
:1058C00003001A68802189000A431A6006E0FDF788
:1058D0007BF803001A6803490A401A60C046BD46B7
:1058E00002B080BDFFFDFFFF90B585B000AF0200A4
:1058F000FB1D1A7000F0D2FC03001B68FB60FB6804
:10590000084A1340FB60FB1D1B781B03FA68134316
:10591000FB60FC6800F0C2FC03001C60C046BD4692
:1059200005B090BDFFCFFFFF80B582B000AF020091
:10593000FB1D1A70FB1D1B78002B07D0FDF744F8E8
:1059400003001A6804210A431A6006E0FDF73CF8D8
:1059500003001A6804218A431A60C046BD4602B09B
:1059600080BD80B582B000AF0200FB1D1A70FB1D28
:105970001B78002B07D0FDF727F803001A680821D1
:105980000A431A6006E0FDF71FF803001A680821B1
:105990008A431A60C046BD4602B080BD80B500AFE4
:1059A00000F084FC03001A6840210A431A60C046D4
:1059B000BD4680BD80B500AF00F078FC03001A68DA
:1059C00080210A431A60C046BD4680BD90B583B0B1
:1059D00000AF78607C6800F071FC03001C60C0467A
:1059E000BD4603B090BD80B500AF00F057FC03008A
:1059F0001A68802109040A431A60C046BD4680BD6A
:105A000080B500AF00F052FC03001A688021490005
:105A10000A431A60C046BD4680BD80B500AF00F0A5
:105A200045FC03001A688021C9010A431A60C04678
:105A3000BD4680BD80B582B000AF0200FB1D1A706C
:105A4000FB1D1B78002B07D0FCF7BEFF03001A6874
:105A500001210A431A6006E0FCF7B6FF03001A684A
:105A600001218A431A60C046BD4602B080BD80B5A0
:105A700000AF00F02BFCC046BD4680BD90B583B0A2
:105A800000AF78607C6800F029FC03001C60C04611
:105A9000BD4603B090BD90B583B000AF78607C6820
:105AA00000F024FC03001C60C046BD4603B090BD5E
:105AB00090B585B000AF7860FCF7A6FF0300002228
:105AC0001A600023FB607B681B781A1C01231340BB
:105AD000DBB2012213401B01FA6810218A431343F1
