:020000040800F2
:10000000001000202102000871020008710200089F
:1000100000000000000000000000000000000000E0
:100020000000000000000000000000007102000855
:100030000000000000000000710200081508000820
:10004000710200080000000071020008710200083F
:1000500071020008710200087102000871020008B4
:1000600000000000650A0008730A0008850A0008FD
:1000700071020008710200081F0A00080000000059
:100080002D0A000800000000000000003B0A0008E4
:1000900000000000490A0008570A00087102000821
:1000A000000000007102000800000000110A0008B2
:1000B0000000000000000000000000000000000040
:1000C00010B5064C2378002B07D1054B002B02D02E
:1000D000044800E000BF0123237010BD8800002009
:1000E00000000000C4700008044B10B5002B03D0C2
:1000F0000349044800E000BF10BDC04600000000F6
:100100008C000020C4700008002243088B4274D386
:1001100003098B425FD3030A8B4244D3030B8B4208
:1001200028D3030C8B420DD3FF22090212BA030C11
:100130008B4202D31212090265D0030B8B4219D3F2
:1001400000E0090AC30B8B4201D3CB03C01A524112
:10015000830B8B4201D38B03C01A5241430B8B425A
:1001600001D34B03C01A5241030B8B4201D30B0343
:10017000C01A5241C30A8B4201D3CB02C01A52416A
:10018000830A8B4201D38B02C01A5241430A8B422D
:1001900001D34B02C01A5241030A8B4201D30B0216
:1001A000C01A5241CDD2C3098B4201D3CB01C01A30
:1001B000524183098B4201D38B01C01A524143093A
:1001C0008B4201D34B01C01A524103098B4201D328
:1001D0000B01C01A5241C3088B4201D3CB00C01A95
:1001E000524183088B4201D38B00C01A524143080D
:1001F0008B4201D34B00C01A5241411A00D2014632
:10020000524110467047FFE701B5002000F006F8A4
:1002100002BDC0460029F7D076E770477047C04658
:100220000D4885460D480E490E4A002302E0D45879
:10023000C4500433C4188C42F9D30B4A0B4C00232E
:1002400001E013600432A242FBD300F024FC06F06C
:10025000A7FE00F081FCFEE7001000200000002057
:10026000880000206472000888000020BC02002082
:10027000FEE7000080B582B000AF0200FB1D1A70DF
:10028000FB1D1B785BB21F221A40044B01219140D9
:100290000A001A60C046BD4602B080BD00E100E021
:1002A00080B500AF014B1800BD4680BD0010024074
:1002B00080B582B000AF78607B681A6804218A43F9
:1002C0001A60C046BD4602B080BD000080B500AFD8
:1002D000014B1800BD4680BD0010024080B500AF44
:1002E000014B1800BD4680BD0410024080B500AF30
:1002F000014B1800BD4680BD1810024080B500AF0C
:10030000014B1800BD4680BD1410024080B500AFFF
:10031000C046BD4680BD80B500AFC046BD4680BD6D
:1003200080B582B000AF0200FB1D1A70FB1D1B7868
:10033000002B13D0FB1D1B78042B0DD0FB1D1B784D
:10034000052B07D0FB1D1B78062B01D1064B06E0C1
:10035000064B04E0064B02E0064B00E0064B18009B
:10036000BD4602B080BDC046808D5B00C0C62D007A
:10037000001BB70000366E01006CDC0290B585B042
:1003800000AF0200FB1D1A70FFF7A8FF03001B68F7
:10039000FB60FB6870229343FB60FB1D1B781B0115
:1003A000FA681343FB60FC68FFF798FF03001C60CA
:1003B000C046BD4605B090BD90B585B000AF020007
:1003C000FB1D1A70FFF78AFF03001B68FB60FB68C8
:1003D00003229343FB60FB1D1B78FA681343FB6009
:1003E000FC68FFF77BFF03001C60C046BD4605B0FC
:1003F00090BD80B500AFFFF769FF03001A68802346
:100400009B0413405A425341DBB2002B00D0F2E769
:10041000C046BD4680BD80B500AFFFF757FF030063
:100420001A68802149040A431A60C046BD4680BD4F
:1004300080B500AFFFF74AFF03001A6880239B02D4
:1004400013405A425341DBB2002B00D0F2E7C046C2
:10045000BD4680BD80B500AFFFF738FF03001A68C6
:10046000802149020A431A60C046BD4680BD80B55E
:1004700000AFFFF73BFF03001A688021C9010A4360
:100480001A60FFF733FF03001A688023DB01134073
:100490005A425341DBB2002B00D0F2E7C046BD46C2
:1004A00080BD000080B582B000AF0200FB1D1A7055
:1004B000FB1D1B78002B08D0FFF710FF03001A6804
:1004C000802149020A431A6006E0FFF707FF030094
:1004D0001A6803490A401A60C046BD4602B080BD92
:1004E000FFFFFEFF80B582B000AFFFF7F7FE03000D
:1004F0001B681B0ADAB2FB1D07210A401A70FB1D9C
:100500001B781800FFF70CFF03001800BD4602B06F
:1005100080BD000090B585B000AF0200FB1D1A70D1
:10052000FFF7DCFE03001B68FB60FB68084A134012
:10053000FB60FB1D1B781B02FA681343FB60FC6821
:10054000FFF7CCFE03001C60C046BD4605B090BD61
:10055000FFF8FFFF90B585B000AF0200FB1D1A70D9
:10056000FFF7BCFE03001B68FB60FB68084A1340F2
:10057000FB60FB1D1B789B04FA681343FB60FC685F
:10058000FFF7ACFE03001C60C046BD4605B090BD41
:10059000FFFFC3FF80B500AFFFF7B0FE03001A688E
:1005A000802189020A431A60FFF7A8FE03001A6837
:1005B00080239B0213405A425341DBB2002B00D0F0
:1005C000F2E7C046BD4680BD80B500AFFFF796FE9E
:1005D00003001A688021C9020A431A60FFF78EFEE1
:1005E00003001A688023DB0213405A425341DBB2F6
:1005F000002B00D0F2E7C046BD4680BD80B500AFFD
:10060000FFF77CFE03001A6801210A431A60FFF716
:1006100075FE03001B68012213405A425341DBB2AE
:10062000002B00D0F3E7C046BD4680BD80B500AFCB
:10063000FFF75CFE03001A68802109010A431A6073
:10064000FFF754FE03001A6880231B0113405A422F
:100650005341DBB2002B00D0F2E7C046BD4680BD5F
:1006600080B500AF214B1B681800FFF721FE204B1F
:100670001B68180000F01EFB1E4B1B68180000F0E2
:1006800028FB1D4B1B68180000F02EFB1B4B1B6842
:10069000180000F034FB1A4B1B68180000F03AFBFE
:1006A000184B1B68180000F042FB174B1B68180022
:1006B00000F04AFB154B1B68180000F054FB144B6C
:1006C0001B68180000F05EFB124B1B68180000F05E
:1006D00068FB114B1B68180000F072FB0F4B1B6886
:1006E000180000F07CFBC046BD4680BDA400002081
:1006F000BC000020A8000020AC000020B8000020B2
:1007000004000020C4000020080000200C0000208D
:10071000100000201400002018000020C00000205D
:1007200080B582B000AF786039607B683A681100AC
:10073000180000F05FFBC046BD4602B080BD80B52A
:1007400082B000AF786039607B683A6811001800A9
:1007500000F06FFBC046BD4602B080BD90B587B0CB
:1007600000AF78607B687B617B69180000F0B1FBAB
:100770000300FB607B69180000F0C8FB0300BB604E
:100780000823FA180C243B191100180000F0CEFBC6
:10079000031E10D03B19180000F0E7FB03003B617B
:1007A0003B691B681B683A69100098473B191800A1
:1007B00000F0CDFBE4E7C046BD4607B090BD80B574
:1007C00082B000AF78607B6800221A607B680022EC
:1007D0005A607B681800BD4602B080BD80B582B00B
:1007E00000AF78607B681800FFF7E9FF7B681800AE
:1007F000BD4602B080BD80B582B000AF78607B6836
:100800001800FFF7EBFF00F0BBFB7B681800BD464C
:1008100002B080BD80B500AF034B1800FFF79EFF0C
:10082000C046BD4680BDC046C800002080B582B02D
:1008300000AF78607B6800221A607B6800225A60F3
:100840007B681800BD4602B080BD000080B582B054
:1008500000AF78607B6804331800FFF7E7FF044AB5
:100860007B681A607B681800BD4602B080BDC04638
:100870001072000880B582B000AF78607B68180005
:10088000FFF7E4FF054A7B681A607B6800221A7351
:100890007B681800BD4602B080BDC04604720008E7
:1008A00080B582B000AF78607B685B695A1C7B685A
:1008B0005A61C046BD4602B080BD80B582B000AF6F
:1008C000786039607B683A681A617B68180000F0CC
:1008D0003BF8C046BD4602B080BD80B582B000AFD7
:1008E00078607B6800225A617B68180000F014F879
:1008F000C046BD4602B080BD80B582B000AF786012
:100900007B6859697B681A69002391425B41DBB2BD
:100910001800BD4602B080BD80B582B000AF7860DF
:100920007B681B7B002B08D07B6800221A737A68D7
:10093000044B11001800FFF702FFC046BD4602B08D
:1009400080BDC046C800002080B582B000AF78608E
:100950007B681B7B01225340DBB2002B08D07B68F5
:1009600001221A737A68044B11001800FFF7D8FEB1
:10097000C046BD4602B080BDC800002080B584B02E
:1009800000AF78600A00FB1C1A700A23FB180122D2
:1009900052421A80FB1C1B78FA1C591E11705A1EF9
:1009A0009341DBB2002B29D07B685A1C7A601B78FC
:1009B00099B20A22BB18BA1812884A401A8000233A
:1009C000FB60FB68072BE5DC0A217B181B880122F2
:1009D000134009D07B181B885B101BB20B4A534095
:1009E0001AB27B181A8005E00A217B181B885A105E
:1009F0007B181A80FB680133FB60E2E70A23FB18CF
:100A00001B881800BD4604B080BDC04601A0FFFF92
:100A100080B500AF00F0CCFAC046BD4680BD80B5C1
:100A200000AF00F0E1FAC046BD4680BD80B500AF22
:100A300000F0F6FAC046BD4680BD80B500AF00F0BC
:100A40000BFBC046BD4680BD80B500AF00F020FB6B
:100A5000C046BD4680BD80B500AF00F035FBC04646
:100A6000BD4680BD80B500AF00F04AFBC046BD4624
:100A700080BD80B500AF00F05FFB00F079FBC046A1
:100A8000BD4680BD80B500AF00F08EFB00F0A8FB36
:100A9000C046BD4680BD80B582B000AFFB1D0022C0
:100AA0001A70012000F07EFCFFF7D4FCFFF7C0FCB9
:100AB000FB1D1B78DBB20133DBB2FA1D191C117070
:100AC0005A1E9341DBB2002B00D0F1E70020FFF764
:100AD00055FC0020FFF71EFD0420FFF73BFD012021
:100AE000FFF7E0FCFFF797FCFFF783FCFB1D1B788B
:100AF000DBB20133DBB2FA1D191C11705A1E93418F
:100B0000DBB2002B00D0F1E70220FFF755FCFB1D04
:100B10001B78DBB20133DBB2FA1D191C11705A1EAF
:100B20009341DBB2002B00D0F1E7C046BD4602B0D6
:100B300080BD80B582B000AF78600A00BB1C1A800F
:100B40007B681A68BB1C1B881900100001F096F81E
:100B5000C046BD4602B080BD80B5AAB000AF304AE5
:100B600030493B00180000F04FFCFFF779FD2E4B99
:100B70001B68180000F0ADF82A4B07229A82284B18
:100B8000DA89284BDA82274B254A128A1A83244BAA
:100B90009A7C244B1A70234B1B789AB2214B5A83B0
:100BA0001F4B18229A5E1F4B9A831D4B1A229A5E86
:100BB0001C4BDA831A4B14229B5E9AB2194BDA84CF
:100BC000184B3F225A87174B01225A85154BFF229B
:100BD0009A87134B18229A5E124B1A86104B1A21D1
:100BE000595E104B422299520E4B502201219954CA
:100BF0000C4B44220D4999520D4A0A4B1100180022
:100C000000F08EFC3B00180000F0A0FC3B001A0036
:100C1000044B1100180001F09DFB30BFF2E7C04605
:100C2000D00100200C0200201C000020E02E00005B
:100C3000E001002080B500AF9023DB051800BD4621
:100C400080BD000080B500AF014B1800BD4680BDDF
:100C50000004004880B500AF014B1800BD4680BDC0
:100C60000008004880B500AF014B1800BD4680BDAC
:100C7000000C004880B500AF014B1800BD4680BD98
:100C80000014004880B500AF014B1800BD4680BD80
:100C90000038014080B500AF014B1800BD4680BD53
:100CA000002C014080B500AF014B1800BD4680BD4F
:100CB0000030014080B582B000AF786001F02CFEBA
:100CC00003001A6802218A431A60C046BD4602B07A
:100CD00080BD80B582B000AF78607B6800229A61E9
:100CE000C046BD4602B080BD80B582B000AF78601E
:100CF0007B6800229A61C046BD4602B080BD80B5C7
:100D000082B000AF78607B6800229A61C046BD4621
:100D100002B080BD80B582B000AF78607B681A6891
:100D20001203120B1A60C046BD4602B080BD80B5EA
:100D300082B000AF786001F0F7FD030000225A8016
:100D4000C046BD4602B080BD80B582B000AF7860BD
:100D500001F0F2FD03001A685204520C1A60C046FA
:100D6000BD4602B080BD80B582B000AF786001F0B2
:100D7000EBFD03001A685204520C1A60C046BD46CF
:100D800002B080BD80B582B000AF786001F0E4FDB4
:100D900003001A685204520C1A60C046BD4602B0E5
:100DA00080BD80B582B000AF786001F0DDFD03004A
:100DB0001A685204520C1A60C046BD4602B080BD8B
:100DC00080B582B000AF786001F0D6FD03001A68EC
:100DD0005204520C1A60C046BD4602B080BD80B5B8
:100DE00082B000AF78607B6800221A65C046BD46BD
:100DF00002B080BD80B582B000AF786039607B689A
:100E00005A683B685A607B685B68002B03D07B683C
:100E10005B683A689A607B683A685A607B681B68CE
:100E2000002B02D17B683A681A60C046BD4602B00A
:100E300080BD80B582B000AF786039603B685B6888
:100E4000002B0ED03B689B68002B0AD03B685B6888
:100E50003A6892689A603B689B683A6852685A6040
:100E60002DE03B689B68002B0FD03B689A687B683D
:100E70001A607B681B6800225A607B681B68002B25
:100E80001DD17B6800225A6019E03B685B68002B2B
:100E90000FD03B685A687B685A607B685B680022A9
:100EA0009A607B685B68002B09D17B6800221A601E
:100EB00005E07B6800221A607B6800225A603B686C
:100EC00000225A603B6800229A60C046BD4602B0CC
:100ED00080BD80B584B000AF78607B681A680C2351
:100EE000FB181100180001F04FFDFB681800BD460B
:100EF00004B080BD80B582B000AF78607B6800220E
:100F00001A607B681800BD4602B080BD80B584B011
:100F100000AF78600023FB600C23FB181800FFF77C
:100F2000E9FFFB681800BD4604B080BD80B582B003
:100F300000AF786039607B681A683B681B68D31A19
:100F40005A1E9341DBB21800BD4602B080BD80B589
:100F500082B000AF78607B681B689A687B681A6013
:100F60007B681800BD4602B080BD80B582B000AF7E
:100F700078607B681B681800BD4602B080BD000029
:100F800080B582B000AF094B7B60084B180001F0C0
:100F900011FD01F01CFD012001F023FD01F03BFDDE
:100FA00001F045FDC046BD4602B080BD7FBB0000DC
:100FB00080B582B000AF0B4B1B687B607B68002B59
:100FC00009D07B681B681B687A68100098477B68AB
:100FD0005B687B60F2E701F037FDC046BD4602B0BA
:100FE00080BDC0468802002080B582B000AF0B4BA8
:100FF0001B687B607B68002B09D07B681B681B68C3
:101000007A68100098477B685B687B60F2E701F0C4
:101010002FFDC046BD4602B080BDC0468C020020F8
:1010200080B582B000AF0B4B1B687B607B68002BE8
:1010300009D07B681B681B687A68100098477B683A
:101040005B687B60F2E701F027FDC046BD4602B059
:1010500080BDC0469002002080B582B000AF0B4B2F
:101060001B687B607B68002B09D07B681B681B6852
:101070007A68100098477B685B687B60F2E701F054
:101080001FFDC046BD4602B080BDC0469402002090
:1010900080B582B000AF0B4B1B687B607B68002B78
:1010A00009D07B681B681B687A68100098477B68CA
:1010B0005B687B60F2E701F017FDC046BD4602B0F9
:1010C00080BDC0469802002080B582B000AF0B4BB7
:1010D0001B687B607B68002B09D07B681B681B68E2
:1010E0007A68100098477B685B687B60F2E701F0E4
:1010F0000FFDC046BD4602B080BDC0469C02002028
:1011000080B582B000AF0B4B1B687B607B68002B07
:1011100009D07B681B681B687A68100098477B6859
:101120005B687B60F2E701F0FFFCC046BD4602B0A1
:1011300080BDC046A002002080B582B000AF0B4B3E
:101140001B687B607B68002B09D07B681B681B6871
:101150007A68100098477B685B687B60F2E701F073
:10116000EAFCC046BD4602B080BDC046A4020020D5
:1011700080B582B000AF0B4B1B687B607B68002B97
:1011800009D07B681B681B687A68100098477B68E9
:101190005B687B60F2E701F0D5FCC046BD4602B05B
:1011A00080BDC046A802002080B582B000AF0B4BC6
:1011B0001B687B607B68002B09D07B681B681B6801
:1011C0007A68100098477B685B687B60F2E701F003
:1011D000C0FCC046BD4602B080BDC046AC02002087
:1011E00080B582B000AF0B4B1B687B607B68002B27
:1011F00009D07B681B681B687A68100098477B6879
:101200005B687B60F2E701F0ABFCC046BD4602B014
:1012100080BDC046B002002080B582B000AF7860CB
:101220007B6800221A807B6800225A807B6801223A
:101230001A717B686422DA807B68FA2292001A8134
:101240007B68054A5A817B688022D2019A817B683B
:101250001800BD4602B080BD00C0FFFFB0B598B019
:1012600002AF78607B680E331800FFF7D5FF7B680C
:101270001800FFF7FFFA214A7B681A607B680E337B
:101280001A007B68DA617B68012252421A637B682C
:1012900034220021995401F06BFC03001A007B6892
:1012A0009A6301F06DFC7B68180001F088FC030074
:1012B0001A0001235340DBB2002B15D048217B18C4
:1012C0000F4A31CA31C312881A807B180C2438198E
:1012D00069469A890A8019685A689B6801F000FD7E
:1012E0003B19180001F044FD7B681800FFF72CFB48
:1012F0007B681800BD4616B0B0BDC046E07100085E
:10130000DC70000880B582B000AF786039607B681F
:1013100001221A707B6802229B18122200211800F9
:1013200005F06BFE7B68143314220021180005F0D1
:1013300064FE7B68283312220021180005F05DFE50
:101340007B683A229B1812220021180005F055FEF6
:101350007B684C3309220021180005F04EFE7B68A3
:101360003A689A657B685C22002199547B686033F7
:101370007A681100180001F01FFD7B686C337A68F1
:101380001100180001F032FD7B681800BD4602B064
:1013900080BD000080B500AF014B1800BD4680BD88
:1013A0000020024090B583B000AF0200FB1D1A7010
:1013B000FB1D1B7807221340DCB2FFF7EBFF030095
:1013C000072222401968072081430A431A60C04659
:1013D000BD4603B090BD000080B582B000AF78601C
:1013E0007B681800FFF746FA064A7B681A607B683C
:1013F00000221A617B6800225A617B681800BD4692
:1014000002B080BDF871000890B587B002AFF860F7
:10141000B9607A60FB6800221A70FB68BA685A608B
:10142000FB687A689A60FB680C331A00BB68243347
:101430001900100001F0F4FCFB681033180001F0F3
:10144000FCFCFB6814331800FB680C331900FB68C4
:1014500010331A007B6814241B5F01F00DFDFB683C
:1014600030331800FB680C3319007B68DB8A1A00E4
:1014700001F03CFDFB6848331800FB680C33190091
:10148000FB6830331A00FB68103301F055FDFB6830
:101490005C331800FB680C331900FB6810331A002A
:1014A00001F062FDFB6868331800FB681433190013
:1014B000FB6830331A00FB68103301F069FDFB68EC
:1014C00078331800FB680C331900FB6810331A00DE
:1014D0007B6818331C007B681A330093230001F0EB
:1014E00072FDFB688C331800FFF776FFFB68A422BF
:1014F00000219954FB68A52200219954FB68A6227B
:1015000001219954FB68A72200219954FB680C33F0
:10151000180001F073FDFB681800BD4605B090BDD2
:1015200090B585B000AF7860396008243B193A68FF
:101530001100180001F076FD3A197B6811001800BF
:1015400001F0FAFDC046BD4605B090BD90B583B030
:1015500000AF78607B685C6801F0FEFD0300190055
:10156000222301220A401001E25C10218A43111C4F
:10157000021C0A43E2547B685C6801F0F9FD030039
:101580001900222301220A405001E25C20218A43F3
:10159000111C021C0A43E2547B685C6801F0F7FDF1
:1015A000030019002223012211400800E25C0121FE
:1015B0008A43111C021C0A43E2547B685C6801F0F8
:1015C000F5FD03001900222301220A409018E25C75
:1015D00002218A43111C021C0A43E2547B685C68A6
:1015E00001F0F3FD03001900222301220A40D0007C
:1015F000E25C08218A43111C021C0A43E25401F0F8
:10160000F3FD031E03D101F0FEFD031E01D00121F5
:1016100000E000217B685B682222012001408C00F1
:10162000995C04208143081C211C014399547B6868
:101630005B6822229B5C1B07DB0FDBB2002B05D013
:101640007B6810330021180001F0EBFD7B6810333C
:101650001A007B685C68100001F0F6FD030023842B
:101660007B685A687B685B68127C1207D20FD2B223
:1016700024215B1801210A4050015A7820218A4315
:10168000111C021C0A435A707B685B687A68A621A9
:10169000525C24215B1801210A4090015A784021B4
:1016A0008A43111C021C0A435A7001F0D9FD030041
:1016B00019007B685B6801224A40D2B224215B1882
:1016C00001210A40D0005A7808218A43111C021CCB
:1016D0000A435A707B68DB681B781B07DB0FDBB2A1
:1016E00001225340DBB2002B0CD07B68DB681B78F7
:1016F000DB06DB0FDBB201225340DBB2002B01D053
:10170000012200E000227B685B6824215B18012134
:101710000A4010015A7810218A43111C021C0A4306
:101720005A707B681B78052B00D9A2E29A00D54B32
:10173000D3181B689F467B68A6229B5C01225340FE
:10174000DBB2002B12D07B685C33180001F096FDF1
:101750007B6802221A707B685B682422995C0720F0
:101760008143081C0121014399547DE201F09BFD56
:10177000031E12D07B685C33180001F0A1FD7B686A
:1017800005221A707B685B682422995C07208143DC
:10179000081C05210143995466E201F0DDFC031E9B
:1017A00000D161E27B685C33180001F095FD7B6835
:1017B0005C33180001F040FE031E27D07B68A62290
:1017C000002199547B685B687A68A621525C2421C9
:1017D0005B1801210A4090015A7840218A43111C6C
:1017E000021C0A435A707B685C33180001F046FD06
:1017F0007B6802221A707B685B682422995C072050
:101800008143081C0121014399542DE27B685C331C
:10181000180001F01FFE031E12D07B685C33180015
:1018200001F04EFD7B6805221A707B685B682422FC
:10183000995C07208143081C05210143995413E258
:1018400001F016FE031E03D101F021FE031E01D09C
:10185000012300E00023002B00D105E27B68A522D4
:10186000012199547B68A622012199547B685B6809
:101870007A68A621525C24215B1801210A4090015C
:101880005A7840218A43111C021C0A435A707B6813
:101890005C33180001F014FD7B6805221A707B6828
:1018A0005B682422995C07208143081C05210143C1
:1018B0009954D9E17B68A6229B5C002B0DD07B68F4
:1018C00001221A707B685B682422995C072081439F
:1018D000081C032101439954CBE101F0C9FD031E0B
:1018E00003D101F0D4FD031E01D0012300E0002349
:1018F000002B2BD07B68A522012199547B68A6225E
:10190000012199547B685B687A68A621525C242186
:101910005B1801210A4090015A7840218A43111C2A
:10192000021C0A435A707B686833180001F0BDFD41
:101930007B6805221A707B685B682422995C07200B
:101940008143081C05210143995492E101F02EFCCA
:10195000031E0ED07B6810331A007B689B681A2127
:101960005B5E1900100001F0ACFD031E01D00123E5
:1019700000E00023002B19D07B686833180001F0C9
:1019800094FD7B689B681A229A5E7B681033110075
:10199000180001F046FC7B6810331A007B685C6815
:1019A000100001F051FC0300238462E101F0EFFB21
:1019B000031E0ED07B6810331A007B689B681821C9
:1019C0005B5E1900100001F07CFD031E01D00123B5
:1019D00000E00023002B19D07B686833180001F069
:1019E00064FD7B689B6818229A5E7B681033110047
:1019F000180001F016FC7B6810331A007B685C68E5
:101A0000100001F021FC0300238432E17B685B6855
:101A10000A229B5E002B0CD17B681033180001F06A
:101A200013FC031E05D101F063FD031E01D0012349
:101A300000E00023002B07D07B68A62201219954E7
:101A40007B6801221A7014E17B686833180001F08A
:101A50005EFD0EE101F027FC031E15D07B68783394
:101A6000180001F09BFD7B6805221A707B685B689B
:101A70002422995C07208143081C052101439954C5
:101A8000F4E0C046EC70000801F066FB031E00D1D4
:101A9000ECE07B687833180001F08CFD7B687833CC
:101AA000180001F0F0FD031E24D07B689A687B6863
:101AB0005B681821525E9A837B689A687B685B68D2
:101AC0001A21525EDA837B687833180001F0E9FD51
:101AD0007B6802221A707B685B682422995C07206D
:101AE0008143081C0121014399547B68A7220121ED
:101AF0009954BBE001F0BCFC031E03D101F0C7FC0C
:101B0000031E01D0012300E00023002B00D1ADE033
:101B10007B68A522012199547B68A6220121995452
:101B20007B685B687A68A621525C24215B180121DE
:101B30000A4090015A7840218A43111C021C0A4332
:101B40005A707B687833180001F028FD7B68052205
:101B50001A707B685B682422995C07208143081C0B
:101B600005210143995481E001F082FC031E03D159
:101B700001F08DFC031E06D07B68A5229B5C002B28
:101B800001D0012300E00023002B05D07B684833FF
:101B9000180001F09BFD6BE001F06AFC031E03D10D
:101BA00001F075FC031E09D07B68A5229B5C012215
:101BB0005340DBB2002B01D0012300E00023002BB7
:101BC00039D07B684833180001F0F6FD7B68A52208
:101BD000012199547B68A622012199547B688C339A
:101BE0001800FEF77AFE7B688C331A00FA23DB00BC
:101BF00019001000FEF761FE7B685B687A68A62119
:101C0000525C24215B1801210A4090015A7840213E
:101C10008A43111C021C0A435A707B6805221A7001
:101C20007B685B682422995C07208143081C05219E
:101C3000014399541CE001F0D7FA031E05D001F0CE
:101C400026FC031E01D0012300E00023002B0FD04F
:101C50007B684833180001F039FD7B68A52200211C
:101C6000995405E0C04604E0C04602E0C04600E0EA
:101C7000C046C046BD4603B090BDC04680B582B0E8
:101C800000AF78600A00BB1C1A80BB1C1B88082BA5
:101C900000D953E39A00D84BD3181B689F467B6842
:101CA0005A687B685B6852881A837B685B68183364
:101CB0001A007B689B6812881A8246E37B685A6820
:101CC0007B685B6892885A835A8B7B689B68D2B228
:101CD0009A743AE37B685B68DB88D03B5A42534195
:101CE000DAB2C64B1A7030E3C44B1B78002B0CD011
:101CF000C24B00221A707B685A687B685B68128945
:101D0000DA827A689268DB8AD381BC4B01221A702E
:101D10001BE37B68180001F05BFD031E00D10FE39D
:101D20007B6868331A007B685B680A215B5E190078
:101D3000100001F05BFD03E37B685A687B685B6819
:101D40009289DA84DB8C1AB27B689A857B689B68FF
:101D50007A682C21525E9A82F7E27B685B68D989A7
:101D60007B68442299527B689B687A684421525A66
:101D7000DA82EAE27B68180001F088FD031E09D0D0
:101D80007B685B681B7C1B07DB0FDBB2002B01D081
:101D9000012300E00023002B18D07B68180001F01D
:101DA00082FD7B685A687B685B68127C1207D20FE1
:101DB000D2B224215B1801210A4050015A78202117
:101DC0008A43111C021C0A435A70BBE27B6818004C
:101DD00001F07EFD031E3BD07B685B681B7C1B070C
:101DE000DB0FDBB201225340DBB2002B1DD07B683E
:101DF0005C33180001F064FA7B68180001F076FD8E
:101E00007B685A687B685B68127C1207D20FD2B27B
:101E100024215B1801210A4050015A7820218A436D
:101E2000111C021C0A435A708FE27B685B681B7CA2
:101E300007221340DBB2022B00D083E27B685C33C5
:101E4000180001F01BFA7B68180001F061FD79E2CF
:101E50007B68180001F071FD031E29D07B685B6868
:101E60001B7C1B07DB0FDBB201225340DBB2002BD4
:101E700000D167E27B687833180001F08FFB7B6844
:101E8000180001F033FD7B685A687B685B68127C40
:101E90001207D20FD2B224215B1801210A4050014F
:101EA0005A7820218A43111C021C0A435A7049E2C5
:101EB0007B68180001F08CFC031E00D1A0E07B6859
:101EC0005B681B7C1B07DB0FDBB201225340DBB2DC
:101ED000002B1DD07B686833180001F0E6FA7B68A0
:101EE000180001F003FD7B685A687B685B68127C10
:101EF0001207D20FD2B224215B1801210A405001EF
:101F00005A7820218A43111C021C0A435A701CE291
:101F10007B685B681B7CDB06DB0FDBB2002B07D129
:101F20007B685B681B7C9B06DB0FDBB2002B04D05D
:101F30007B686833180001F00EFD7B685B685B7C92
:101F40005B07DB0FDBB2002B10D07B685B685B7C30
:101F50001B07DB0FDBB201225340DBB2002B05D0A5
:101F60007B686833180001F00BFD17E07B685B6845
:101F70005B7C1B07DB0FDBB2002B0FD07B685B6841
:101F80005B7C5B07DB0FDBB201225340DBB2002B33
:101F900004D07B686833180001F02CFD7B685B6817
:101FA0001B7C07221340DBB2022B09D17B6868330C
:101FB000180001F0D0FC7B68180001F0A9FCC1E119
:101FC0007B685B681B7C07221340DBB2042B00D0CC
:101FD000B8E17B68A7229B5C01225340DBB2002B57
:101FE00000D1AFE17B686833180001F0B4FC7B6876
:101FF000180001F039FDA5E10471000884020020F9
:102000007B68180001F045FD031E00D126E17B68C6
:102010005B681B7C1B07DB0FDBB201225340DBB28A
:10202000002B1DD07B684833180001F0C5FB7B688E
:10203000180001F05BFC7B685A687B685B68127C67
:102040001207D20FD2B224215B1801210A4050019D
:102050005A7820218A43111C021C0A435A7074E1E9
:102060007B685B681B7CDB06DB0FDBB2002B04D0DC
:102070007B684833180001F01AFD7B685B681B7CA5
:102080009B06DB0FDBB2002B04D07B6848331800C3
:1020900001F01DFD7B685B685B7C5B07DB0FDBB2DF
:1020A000002B1BD07B685B685B7C1B07DB0FDBB204
:1020B00001225340DBB2002B10D07B685B681B7C95
:1020C0009B06DB0FDBB201225340DBB2002B05D0B5
:1020D0007B684833180001F007FD22E07B685B68ED
:1020E0005B7C1B07DB0FDBB2002B1AD07B685B68C5
:1020F0005B7C5B07DB0FDBB201225340DBB2002BC2
:102100000FD07B685B681B7C9B06DB0FDBB2012278
:102110005340DBB2002B04D07B684833180001F039
:10212000F0FC7B685B681B7C40221340DBB2002B19
:1021300005D17B684833180001F0F0FC0CE07B68A7
:102140005B681B7C40221340DBB2002B04D07B6811
:102150004833180001F0EFFC7B685B681B7C7F2232
:102160009343DBB2002B05D17B684833180001F0A4
:10217000EFFC0CE07B685B681B7C7F229343DBB247
:10218000002B04D07B684833180001F0EEFC7B681C
:102190005B685B7CDB07DB0FDBB2002B1BD07B6853
:1021A0005B685B7C9B07DB0FDBB201225340DBB239
:1021B000002B10D07B685B681B7CDB06DB0FDBB27F
:1021C00001225340DBB2002B05D07B684833180056
:1021D00001F0D8FC22E07B685B685B7C9B07DB0F2F
:1021E000DBB2002B1AD07B685B685B7CDB07DB0F04
:1021F000DBB201225340DBB2002B0FD07B685B685F
:102200001B7CDB06DB0FDBB201225340DBB2002B71
:1022100004D07B684833180001F0F0FC7B685B68F1
:102220001B7C07221340DBB2012B09D100F0DCFF3D
:10223000031E05D000F0E7FF031E01D0012300E0DC
:102240000023002B00D17DE07B684833180001F0AB
:102250000EFD7B68180001F021FD73E07B6818001B
:1022600001F031FD031E00D16CE07B685B681B7CD4
:1022700007221340DBB2022B0AD17B688C33180093
:10228000FEF73AFB031E03D07B68180001F040FB09
:102290007B685B681B7C1B07DB0FDBB201225340B2
:1022A000DBB2002B4ED07B68180001F01FFB7B686F
:1022B0005A687B685B68127C1207D20FD2B2242165
:1022C0005B1801210A4050015A7820218A43111CD1
:1022D000021C0A435A7035E07B68180001F0D9FBF4
:1022E000031E31D07B685B68DB7C5B06DB0FDBB2F7
:1022F000002B0DD07B6848331A007B685B685B8AD3
:102300009B049B0C9BB21900100001F0EAFC1BE03F
:102310007B685B68DB7C1B06DB0FDBB2002B13D01A
:102320007B6848331A007B685B685B8A9B049B0C64
:102330009BB21900100001F010FD05E0C04604E05A
:10234000C04602E0C04600E0C046C046BD4602B0FE
:1023500080BDC046F0B58BB000AF786039607B6857
:102360005C229B5CDBB2002B00D1D1E27B685C225B
:10237000002199542723FB1800221A702623FB18EA
:1023800001221A707B689B6D180001F022FD03008A
:102390003B621223FB1800221A801E23FB18002226
:1023A0001A801C23FB1800221A801A23FB18002213
:1023B0001A801923FB1801221A702622BB181B78D9
:1023C000002B00D1A4E2BB181B780A2BF5D89A0089
:1023D000C94BD3181B689F467B689B6D1A787B6836
:1023E0001B789A4204D07B689B6D1B78002B04D12C
:1023F0002623FB1802221A7089E22623FB180A22E0
:102400001A7084E23B6A072B01D9032200E00A22FA
:102410002623FB181A707AE27B689B6D1A003B6AD0
:10242000DBB2023BDBB212257C1919001000FEF76B
:10243000A5FA0300238028003B181B88DAB27B68CA
:10244000996D3B6A023BCB5C9A420AD13B181B88D0
:102450001B12DAB27B68996D3B6A013BCB5C9A42F6
:1024600004D02623FB180A221A7050E22623FB18F8
:1024700004221A704BE27B689B6D9B781B021AB298
:102480007B689B6DDB781BB213431AB21E217B184D
:102490001A807B689B6D1B791B021AB27B689B6D4F
:1024A0005B791BB213431AB21A203B181A807A18B0
:1024B0003B1812881B88D3189AB21C23FB18013AC8
:1024C0001A807B689B6D5B78032B04D12623FB1855
:1024D00005221A701BE27B689B6D5B78102B04D180
:1024E0002623FB1806221A7011E22723FB1801226B
:1024F0001A702623FB1808221A7008E23B6A082B80
:1025000004D02623FB180A221A7000E21C23FB18B1
:102510001B88092B08D92723FB1802221A702623AF
:10252000FB1808221A70F2E11A23FB181B885B00C3
:102530003B627B689B6D3A6AD2B29A701823FB1893
:1025400000221A7018203B181A781A23FB181B88CF
:102550009A422DDA1E243B191A883B181B78D3188F
:102560007A6808335B00D31804331B8819127B6820
:102570009A6D3B181B785B000333C9B2D1543B19E9
:102580001A883B181B78D3187A6808335B00D31875
:10259000043319887B689A6D3B181B7802335B0003
:1025A000C9B2D1543B183A18127801321A70C9E7EF
:1025B0003B6A03333B622623FB1809221A70A6E10B
:1025C0001A23FB181B885B0009333A6A9A4204D02D
:1025D0002623FB180A221A7099E11C23FB181B887A
:1025E000082B08D92723FB1802221A702623FB1870
:1025F00008221A708BE12623FB1807221A7086E145
:102600001923FB1801221A701623FB1800221A80C6
:1026100016257A191A23FB1812881B889A4200D3B0
:10262000CAE07B191A881E203B181B88D3187A68C9
:102630004C21D3185B181B78002B5FD07B689A6DF8
:102640007B191B885B000733D35C1B0219B27B68C4
:102650009A6D7B191B8804335B00D35C1AB210247B
:102660003B190A431A801923FB1819787B191A8819
:1026700006003B181B88D2187B6814325200D35ACC
:102680001BB23A190020125ED417D80F9A42444167
:102690002300DBB21A000A4019203B18511E8A4160
:1026A0001A703B181B787A191188BA1912888A187F
:1026B00079681C3252008A180232128812B2102431
:1026C00039190020095E91420CDD7A191188BA1976
:1026D00012888A1879681C3252008A1802321288CD
:1026E000002A01D1012200E000221A401923FB1820
:1026F000511E8A411A7058E0287100087B689A6D53
:1027000016243B191B885B000733D35C1B021AB2EB
:102710007B68996D3B191B8804335B00CB5C1BB253
:1027200013431AB20E257B191A801926BB191A7881
:102730003B1919881E203B181B88C9187B68143167
:102740004900C95A7B191888002388425B41DBB2D3
:102750001A40BB19511E8A411A70BB191B783A19CD
:1027600011881E203A1812888A1879681C32520083
:102770008A18023212887919098891420CD93A19BB
:1027800011883A1812888A1879681C3252008A18FF
:1027900002321288002A01D1012200E000221A40F0
:1027A0001923FB18511E8A411A701622BB18BA1839
:1027B000128801321A802BE71923FB181B78002B93
:1027C0004BD01523FB1800221A7015203B181A78DD
:1027D0001A23FB181B889A4225DA7B689A6D3B18EE
:1027E0001B785B000733D35C1B021AB27B68996DC0
:1027F0003B181B7804335B00CB5C1BB2134319B24C
:102800001E23FB181A883B181B78D31889B27A68E4
:102810005B00D31802330A1C1A803B183A1812784E
:1028200001321A70D1E71E217A181C23FB18128876
:102830001B889A420AD87B181B887A18591C118069
:102840003A0019001000FEF774F9ECE706233B622A
:102850002623FB1809221A7059E02723FB180322AC
:102860001A702623FB1808221A7050E07B689B6DB3
:102870005A787B689B6D802149420A43D2B25A70D4
:102880007B689B6D2722BA1812789A7003233B62EB
:102890002623FB1809221A7039E07B689B6D1A0009
:1028A0003B6ADBB212257C1919001000FEF766F8AE
:1028B000030023802C003B191B88D8B27B689A6DDB
:1028C0003B6A591C3962011CD1543B191B881B12ED
:1028D000D8B27B689A6D3B6A591C3962011CD1548D
:1028E0007B689B6D3A6A1100180001F080FA26237C
:1028F000FB1800221A700AE07B689B6D180001F03B
:102900008CFA2623FB1800221A7000E0C04654E51A
:10291000C046BD460BB0F0BD80B500AF014B1800FE
:10292000BD4680BD0038014080B500AF014B1800A6
:10293000BD4680BD0030014080B500AF014B18009E
:10294000BD4680BD0800024080B500AF014B1800B5
:10295000BD4680BD1C00024080B500AF014B180091
:10296000BD4680BD3000024080B500AF014B18006D
:10297000BD4680BD4400024080B500AF014B180049
:10298000BD4680BD5800024080B582B000AF78607F
:1029900039607B683A681A607B681800BD4602B0EF
:1029A00080BD000080B500AF014B1800BD4680BD62
:1029B00010E000E090B583B000AF78607C68FFF76E
:1029C000F1FF03005C60C046BD4603B090BD80B51A
:1029D00000AFFFF7E7FF030000229A60C046BD4644
:1029E00080BD90B583B000AF0200FB1D1A70FB1DC7
:1029F0001B7801221340DCB2FFF7D4FF0300012251
:102A0000224092001968042081430A431A60C0469C
:102A1000BD4603B090BD80B500AFFFF7C3FF030014
:102A20001A6802210A431A60C046BD4680BD80B5BF
:102A300000AFFFF7B7FF03001A6801210A431A60CD
:102A4000C046BD4680BD000080B500AF01F0F4F97E
:102A50000300024A1A60C046BD4680BD5F0A0200FC
:102A600080B500AF014B1800BD4680BD002C014071
:102A700080B500AFFFF7F4FF03001A8A08218A43EC
:102A80001A82C046BD4680BD80B500AF014B18001C
:102A9000BD4680BD0004004080B500AFFFF7F4FFE5
:102AA00003001A8A08218A431A82C046BD4680BDA7
:102AB00080B500AF014B1800BD4680BD002000402E
:102AC00080B500AFFFF7F4FF03001A8A08218A439C
:102AD0001A82C046BD4680BD80B500AF014B1800CC
:102AE000BD4680BD0044014080B500AFFFF7F4FF54
:102AF00003001A8A08218A431A82C046BD4680BD57
:102B000080B500AF014B1800BD4680BD00480140B4
:102B100080B500AFFFF7F4FF03001A8A08218A434B
:102B20001A82C046BD4680BD80B500AF01F08CF969
:102B3000C046BD4680BD80B500AF01F095F9C046E6
:102B4000BD4680BD80B500AF01F09EF9C046BD46D0
:102B500080BD80B500AF01F0A9F9C046BD4680BD7B
:102B600080B500AF01F0B4F9C046BD4680BD00009D
:102B700080B500AF014B1800BD4680BD007C000849
:102B800080B500AFFEF706FC03001A6980210A43F6
:102B90001A61C046BD4680BD80B582B000AF786086
:102BA0007B681800BD4602B080BD80B582B000AF22
:102BB00078607B680E331800BD4602B080BDF0B56A
:102BC0008BB000AF78607B6820330E22FF211800A5
:102BD00004F013FA7B68012252421A630823FB189F
:102BE00018000E231A00002104F007FA7B689B6B83
:102BF0003B623B6A7B623B6A8022D200944663441C
:102C0000FB617A6AFB699A4226D07B6ABB617B686A
:102C10001B6B5A1C7B681A63BB691B780D2B12D87F
:102C2000BB691B781800BB6959787B6820221B1888
:102C30009B180A1C1A70BB691B781A000823FB1822
:102C40000121995403E0BB691B78FF2B03D07B6AF9
:102C500002337B62D5E7C0467B689B6B180001F0AE
:102C600049F902007B681B6B5B00D4187B689B6B87
:102C7000180001F048F90300321C1900200001F08F
:102C80004FF903001A0001235340DBB2002B05D09B
:102C90007B6834220121995400231CE00826BB19CB
:102CA0001800FFF779FF0400BB191800FFF77DFF3C
:102CB00003002A1C1900200001F049F9031E09D065
:102CC0007B68D8697B6820330E22190004F08CF9E8
:102CD000012300E000231800BD460BB0F0BD00004A
:102CE00084B090B5C64600B582B000AF78600420CD
:102CF0001024A4460824A046B844C444604401609B
:102D0000426083607B680E220421102084460820E4
:102D10008046B844C44461449B180E22180004F055
:102D200063F97B681800FDF7A5FD104A7B681A60FF
:102D30007B680E331A007B68DA617B68012252429D
:102D40001A637B68342200219954FFF711FF0300B6
:102D50001A007B689A637B681800BD4602B004BC09
:102D6000904690BC08BC04B01847C046E07100080B
:102D700080B582B000AF7860054A7B681A607B68D6
:102D80001800FDF7C9FD7B681800BD4602B080BD84
:102D9000E071000880B582B000AF7860054A7B68BA
:102DA0001A607B6800225A607B681800BD4602B03A
:102DB00080BDC046EC71000880B582B000AF78607D
:102DC00039607B681800FFF7E5FF074A7B681A60E7
:102DD0007B683A689A607B68180001F0CFF87B68DE
:102DE0001800BD4602B080BDD471000880B582B025
:102DF00000AF786039607B681800FFF7CBFF074AA7
:102E00007B681A607B683A689A607B68180001F0FA
:102E1000D5F87B681800BD4602B080BDC8710008B7
:102E200080B582B000AF786039607B683A681A601C
:102E30007B681800BD4602B080BD80B582B000AF8F
:102E4000786001F0DBF801F0E0F801F0E5F801F05E
:102E5000EAF801F0F5F801F001F901F00DF901F0DF
:102E600019F901F029F901F035F901F03DF97B6814
:102E70001800BD4602B080BD80B584B000AFF860D8
:102E8000B9607A601A00BB1C1A80FB681800FFF753
:102E900081FF154AFB681A60FB6800221A72FB6802
:102EA00000225A72FB6800225A81FB68BA68DA6015
:102EB000FB687A681A61FB6800229A82FB6800222C
:102EC000DA82FB68BA1C12881A837B68180001F04A
:102ED0001DF90200FB681900100001F026F9FB68DB
:102EE0001800BD4604B080BDBC71000880B584B038
:102EF00000AFF860B960BB1D1A80FB681800FDF7D1
:102F0000A5FC0C4AFB681A60FB6800221A73FB6878
:102F100000225A73FB680022DA81FB68BA681A61E2
:102F2000FB68BA1D12889A82FB681800BD4604B07F
:102F300080BDC046B071000880B584B000AFF860B5
:102F4000B9607A603B60FB6800221A70FB68BA685F
:102F50005A60FB687A689A60FB683A68DA60FB68D6
:102F60001800BD4604B080BD80B584B000AFF860E5
:102F7000B9607A60FB6800221A70FB68BA685A6010
:102F8000FB687A689A60FB681800BD4604B080BD93
:102F900080B584B000AFF860B9607A603B60FB68D0
:102FA000BA681A60FB687A685A60FB683A689A6087
:102FB000FB6800229A81FB6800229A73FB68180064
:102FC000BD4604B080BD80B584B000AFF860B96084
:102FD0007A603B60FB6800221A70FB68BA685A602E
:102FE000FB687A689A60FB683A68DA60FB68BA69DD
:102FF0001A61FB681800BD4604B080BD80B582B080
:1030000000AF786001F09EF801F0A3F801F0A8F895
:1030100001F0ADF801F0B2F801F0B7F8C046BD46D6
:1030200002B080BD80B584B000AF786039603B6885
:103030001B7838221340DBB2082B3ED03B681B784C
:1030400038221340DBB2102B34D03B681B78382277
:103050001340DBB2182B2AD03B681B783822134070
:10306000DBB2202B20D03B681B7838221340DBB228
:10307000282B16D03B681B7838221340DBB2302B4C
:103080000CD03B681B7838221340DBB2382B02D1BE
:10309000E1235B0213E096239B0110E096235B0281
:1030A0000DE0E1231B020AE096231B0207E0E12367
:1030B000DB0104E09623DB0101E0E1239B01FB60DF
:1030C0003B681B78DB07DB0FDBB2002B01D0012252
:1030D00000E000220B23FB181A703B681B780222C9
:1030E0001340DBB2002B01D1002200E001220A23B1
:1030F000FB181A703B681B7804221340DBB2002BCC
:1031000001D1002200E0022209217B181A707B689D
:10311000FA681A607B680B22BA1812781A717B68F9
:103120000A22BA1812785A717B687A1812789A7142
:103130007868BD4604B080BD80B582B000AF7860CD
:1031400039607B689B6D3A681100180001F040F807
:10315000C046BD4602B080BD80B500AF01F0C3F8E7
:1031600003001BB29BB2DB0BDBB21800BD4680BD77
:1031700080B500AF01F0B7F803001A008023DB012F
:1031800013405A1E9341DBB21800BD4680BD80B586
:1031900000AF01F0A8F803001A0080239B01134040
:1031A0005A1E9341DBB21800BD4680BD80B500AF0A
:1031B00001F099F803001A0080235B0113405A1EA6
:1031C0009341DBB21800BD4680BD80B500AF01F071
:1031D0008AF803001A0080231B0113405A1E9341F2
:1031E000DBB21800BD4680BD80B500AF01F07BF8B2
:1031F00003001A008023DB0013405A1E9341DBB208
:103200001800BD4680BD80B500AF01F06CF803002A
:103210001A00042313405A1E9341DBB21800BD4626
:1032200080BD80B582B000AF78600A00BB1C1A80F8
:10323000BB1C1B88180001F060F8BB1C00229B5EC1
:103240001800BD4602B080BD80B582B000AF786086
:1032500001F063F803001BB21800BD4602B080BD48
:1032600080B500AF01F063F803001A00802313401B
:103270005A1E9341DBB21800BD4680BD80B582B0B6
:1032800000AF78607B685B68180001F05AF87B68D3
:103290005B68180001F06CF87B6800221A70C04669
:1032A000BD4602B080BD80B500AF01F01CF8030040
:1032B0001BB2DB439BB2DB0BDBB21800BD4680BD0B
:1032C00080B582B000AF78607B681800FFF7D6FF4A
:1032D000C046BD4602B080BD80B582B000AF786008
:1032E0007B681B78042B00D9A0E09A00514BD318BF
:1032F0001B689F4600F0FCF8031E2ED0FFF747FF27
:10330000031E12D07B685B68180001F041F87B68EF
:103310005B68180001F052F87B685B68180001F0E8
:1033200063F87B6801221A707BE001F06DF8031EE0
:1033300000D176E07B685B68180001F074F87B6868
:103340005B68180001F03AF87B685B68180001F0D0
:103350004BF87B6802221A7063E07B689B6800214F
:103360001800FFF75EFF7B6803221A7059E0FFF731
:103370002CFF031E13D07B685B68180000F0E1FF90
:103380007B685B68180000F0F3FF7B689B68002196
:103390001800FFF746FF7B6803221A7043E0FFF72F
:1033A000F6FE031E3FD07B685B68180000F0C9FF83
:1033B0007B685B68180000F0DBFF7B6800221A70F6
:1033C00031E0FFF702FF031E13D07B685B68180033
:1033D00000F0B7FF7B685B68180000F0C9FF7B68EE
:1033E0009B6800211800FFF71CFF7B6803221A70FE
:1033F0001BE0FFF7DBFE031E17D07B685B6818003D
:1034000000F09FFF7B685B68180000F0B1FF7B68ED
:1034100004221A7009E07B6800221A7006E0C04698
:1034200004E0C04602E0C04600E0C046C046BD46DB
:1034300002B080BD5471000880B582B000AF7860E2
:103440007B681B78033B5A425341DBB21800BD46F0
:1034500002B080BD80B582B000AF78607B681B7819
:10346000043B5A425341DBB21800BD4602B080BD56
:1034700080B500AF00F037FF03001A008023DB00A7
:1034800013405A425341DBB21800BD4680BD80B59F
:1034900000AF00F028FF03001A00042313405A4233
:1034A0005341DBB21800BD4680BD80B582B000AF8D
:1034B00078607B68180000F04EFAC046BD4602B046
:1034C00080BD80B582B000AF78600A00BB1C1A8056
:1034D00000F023FF03001BB2BA1C0021525ED31A76
:1034E0005A1E9341DBB21BB21800BD4602B080BD2C
:1034F00080B500AF00F0F7FE03001A0080231B0127
:1035000013405A425341DBB21800BD4680BD80B51E
:1035100082B000AF78607B689B7B012B04D0022BCC
:1035200012D0002B36D135E07B681B68180000F004
:1035300090FF03001A0001235340DBB2002B26D07A
:103540007B6800229A7322E07B685B68180000F0B9
:103550008EFF03001A0001235340DBB2002B0FD073
:103560007B685B68180000F097FF031E06D17B683C
:103570005B68180000F09BFF031E01D0012300E0F0
:103580000023002B05D07B6800229A7301E0C0461F
:1035900000E0C046C046BD4602B080BD80B582B0E6
:1035A00000AF78607B68180000F07BF8C046BD462D
:1035B00002B080BD90B583B000AF78607B681B78A7
:1035C000012B43D002DC002B03D058E0022B18D093
:1035D00055E07B685B68180000F025FF7B685B683E
:1035E000180000F0EBFE7B685B68180000F0A9FE95
:1035F0007B685B68180000F0F7FE7B6802221A7097
:103600003DE0FFF7C4FD031E36D07B685B68180001
:1036100000F0AEFE7B685B68180000F0B9FE7B68C6
:103620005B68180000F0CAFE7B685B68180000F059
:10363000DBFE7B689A687B68DC681000FFF704FE9D
:10364000030023807B6801221A7015E0FFF7AEFDAE
:10365000031E13D07B685B68180000F089FE7B684E
:103660009A687B681C691000FFF7EEFD0300238059
:103670007B6803221A7001E0C04600E0C046C046E5
:10368000BD4603B090BD80B582B000AF78607B6866
:103690001B78033B5A425341DBB21800BD4602B0CF
:1036A00080BD80B582B000AF78607B685B68180031
:1036B00000F047FE7B685B68180000F059FE7B68ED
:1036C00000221A70C046BD4602B080BD80B582B0EF
:1036D00000AF78607B681B78042B00D965E09A0006
:1036E000344BD3181B689F46FFF751FD031E55D07E
:1036F0007B68180000F01FFA7B68180000F0D7F90B
:103700007B6800221A7049E0FFF750FD031E47D086
:103710007B68180000F00FFA7B68180000F0C7F90A
:103720007B6800221A703BE07B68DA687B681021B6
:103730005B5E1900100000F0C5FE031E03D1FFF709
:1037400035FD031E01D0012300E00023002B29D00A
:103750007B68180000F0ABF97B6800221A7021E04A
:103760007B68DA687B6810215B5E1900100000F04E
:10377000C1FE031E03D1FFF70AFD031E01D0012382
:1037800000E00023002B0FD07B68180000F08FF9B9
:103790007B6800221A7007E0C04606E0C04604E0DD
:1037A000C04602E0C04600E0C046C046BD4602B08A
:1037B00080BDC0466871000880B582B000AF7860F7
:1037C0007B68180000F053FAC046BD4602B080BDC9
:1037D00080B582B000AF78607B681B78023B5A42AC
:1037E0005341DBB21800BD4602B080BD80B582B047
:1037F00000AF78600A00BB1C1A807B68BA1C128874
:103800009A817B689B7B012B2FD0022B37D0002B1A
:1038100038D17B685B68180000F029FE03001A00AD
:1038200001235340DBB2002B0FD07B685B6818008C
:1038300000F032FE031E06D17B685B68180000F0C2
:1038400036FE031E01D0012300E00023002B18D018
:103850007B681A68BB1C00215B5E1900100000F039
:10386000A5FE7B6801229A730BE07B681A68BB1C7B
:1038700000215B5E1900100000F098FE02E0C046D7
:1038800000E0C046C046BD4602B080BD80B582B0F3
:1038900000AF78607B681B785A425341DBB2180056
:1038A000BD4602B080BD80B582B000AF78607B6855
:1038B00001221A707B685B682422995C072081438F
:1038C000081C032101439954C046BD4602B080BD87
:1038D00080B582B000AF78607B681B78013B5A42AC
:1038E0005341DBB21800BD4602B080BD80B582B046
:1038F00000AF78607B6800221A707B685B682422C6
:10390000995C072081439954C046BD4602B080BDF2
:1039100080B582B000AF78607B6804221A707B6843
:103920005B682422995C07208143081C0221014323
:103930009954C046BD4602B080BD80B582B000AF8C
:1039400078607B681B78033B5A425341DBB2180016
:10395000BD4602B080BD80B582B000AF78607B68A4
:103960001B68180001F022F97B685B68180001F001
:103970003AF97B6800229A73C046BD4602B080BD0A
:1039800080B582B000AF78607B689B7B012B2AD02A
:10399000022B16D0002B29D17B685B68180000F041
:1039A0007BFD03001A0001235340DBB2002B04D03F
:1039B0007B685B68180001F02EF97B6802229A731D
:1039C00014E07B685B68180000F066FD03001A00D5
:1039D00001235340DBB2002B07D07B685B681800E3
:1039E00001F019F901E0C04600E0C046C046BD46FE
:1039F00002B080BD80B582B000AF78607B689B7BF1
:103A0000012B2AD0022B16D0002B29D17B685B68B2
:103A1000180000F04CFD03001A0001235340DBB2F4
:103A2000002B04D07B685B68180001F04DF97B68BF
:103A300002229A7314E07B685B68180000F037FD7F
:103A400003001A0001235340DBB2002B07D07B6830
:103A50005B68180001F038F901E0C04600E0C0469C
:103A6000C046BD4602B080BD80B582B000AF786070
:103A70007B6803221A707B685B682422995C0720AC
:103A80008143081C042101439954C046BD4602B03D
:103A900080BD80B582B000AF78607B681B78043B46
:103AA0005A425341DBB21800BD4602B080BD80B51A
:103AB00082B000AF78607B685B68180000F058FC4B
:103AC0007B6800221A70C046BD4602B080BD80B53A
:103AD00082B000AF78607B689B68180001F083F8C3
:103AE000C046BD4602B080BD80B582B000AF7860F0
:103AF0007B689B68180001F08EF8C046BD4602B096
:103B000080BD80B582B000AF78607B689B6818008C
:103B100001F0DAF8C046BD4602B080BD80B582B083
:103B200000AF78607B685B68180001F026F9C0463A
:103B3000BD4602B080BD80B582B000AF78607B68C2
:103B40005B68180000F0FDFBC046BD4602B080BDBA
:103B500080B582B000AF78607B685B68180000F0C9
:103B60002DFCC046BD4602B080BD80B582B000AF1E
:103B700078607B685B68180001F015F9C046BD46A7
:103B800002B080BD80B582B000AF78607B681B78E2
:103B9000042B2CD89A00184BD3181B689F4600F0B2
:103BA00033FC031E22D07B685B68180000F03BFCEE
:103BB0007B685B68180000F017FC7B6801221A70B4
:103BC00014E07B685B68180000F0D2FB7B685B68E0
:103BD000180000F028FC7B685B68180000F004FC0B
:103BE0007B6801221A7002E0C04600E0C046C04671
:103BF000BD4602B080BDC0467C71000880B582B071
:103C000000AF78607B681B78012B18D002DC002B9A
:103C100003D028E0042B26DC25E001F0DAF8031EAF
:103C200020D07B685B68180000F0B2FB7B685B68A3
:103C3000180000F0D9FB7B6802221A7012E07B6842
:103C40005B68180000F094FB7B685B68180000F06C
:103C50009FFB7B685B68180000F0C6FB7B68022254
:103C60001A7000E0C046C046BD4602B080BD80B5B7
:103C700082B000AF78607B681800FFF75CFF7B685C
:103C80001800FFF714FF7B681800FFF720FF7B6820
:103C900000221A70C046BD4602B080BD80B582B019
:103CA00000AF78607B6802221A707B685B68242210
:103CB000995C07208143081C012101439954C046A7
:103CC000BD4602B080BD80B582B000AF78607B6831
:103CD0001B78053B5A425341DBB21800BD4602B087
:103CE00080BD80B582B000AF78600A00BB1C1A802E
:103CF0007B681B78002B2CD17B68DB681800FFF7F2
:103D0000A3FA03001A007B681A827B6810229B5E6C
:103D10009AB2BB1C1B88D31A9BB21AB27B681A8258
:103D20007B681800FFF714FF7B681800FFF703FF9C
:103D3000BB1C1B88002B09D07B685B68180000F057
:103D400027FB7B685B68180000F04EFB7B68032252
:103D50001A70C046BD4602B080BD80B582B000AFCB
:103D600078600A00BB1C1A807B681B78002B2CD162
:103D70007B68DB681800FFF767FA03001A007B68AE
:103D80001A827B6810229B5E9AB2BB1C1B88D318D8
:103D90009BB21AB27B681A827B681800FFF7D8FEC4
:103DA0007B681800FFF7C7FEBB1C1B88002B09D0DF
:103DB0007B685B68180000F036FB7B685B68180066
:103DC00000F012FB7B6804221A70C046BD4602B0A8
:103DD00080BD80B582B000AF786001F009F80300C3
:103DE0001A00FF239B1A1800BD4602B080BD80B5A3
:103DF00082B000AF78603960FCF788FA01F002F811
:103E000001F018F83B689BB2180001F02BF801F0A4
:103E100039F8C046BD4602B080BD80B582B000AF63
:103E2000786000F0EFFFFF2001F038F801F046F86D
:103E3000C046BD4602B080BD80B500AF014B180042
:103E4000BD4680BD2038014080B582B000AF0F2351
:103E50007B6001F03FF803001A680F210A431A60E3
:103E6000C046BD4602B080BD80B582B000AFF02331
:103E70007B6001F02FF803001A68F0210A431A60F2
:103E8000C046BD4602B080BD80B582B000AFF02311
:103E90001B017B6001F01EF803001A68F021090184
:103EA0000A431A60C046BD4602B080BD80B582B0EC
:103EB00000AFF0231B027B6001F00CF803001A68CE
:103EC000F02109020A431A60C046BD4602B080BD17
:103ED00080B582B000AFF0231B037B6000F0FAFFD7
:103EE00003001A68F02109030A431A60C046BD4660
:103EF00002B080BD80B582B000AF78607B681800EA
:103F0000BD4602B080BD80B582B000AF78607B68EE
:103F10008022D200944663441800BD4602B080BDA2
:103F200090B585B000AFF860B9603B1D1A70B968F4
:103F3000FB68221C180000F0D5FF0200BB689B1A2A
:103F40005A425341DBB21800BD4605B090BD90B552
:103F500085B000AFF860B9603B1D1A70B968FB68A6
:103F6000221C180000F0D3FF0200BB689B1A5A42C3
:103F70005341DBB21800BD4605B090BD80B584B09A
:103F800000AF78600C4B1B68FB60FB68002B0BD00C
:103F9000FB685B68002B03D0FB685B68FB60F7E79E
:103FA000FB687A685A6002E0034B7A681A60C04680
:103FB000BD4604B080BDC0468802002080B584B0F4
:103FC00000AF78600C4B1B68FB60FB68002B0BD0CC
:103FD000FB685B68002B03D0FB685B68FB60F7E75E
:103FE000FB687A685A6002E0034B7A681A60C04640
:103FF000BD4604B080BDC046A402002080B500AF1D
:1040000000F09AFFC046BD4680BD80B500AF00F00D
:104010009AFFC046BD4680BD80B500AFFCF706FBE9
:10402000C046BD4680BD80B500AFFEF719FD030058
:104030001A6A802149000A431A62C046BD4680BD03
:1040400080B500AFFEF70CFD03009A6807218A4394
:1040500003210A439A60C046BD4680BD80B500AFCB
:10406000FEF7FEFC0300DA6970218A4310210A433F
:10407000DA61C046BD4680BD80B500AFFEF7F0FCFA
:1040800003009A6903218A4301210A439A61C046C9
:10409000BD4680BD80B500AFFEF7E2FC03009A6923
:1040A00004490A40802149000A439A61C046BD463E
:1040B00080BDC046FFFCFFFF80B500AFFEF7D0FC1F
:1040C0000300DA69F0218A4350210A43DA61C046CD
:1040D000BD4680BD80B500AFFEF7C2FC03000022E4
:1040E0005A62C046BD4680BD80B500AFFEF7B8FC41
:1040F00003001A8801210A431A80C046BD4680BDCC
:1041000080B500AF0E231800BD4680BD80B582B0DB
:1041100000AF7860FFF7F4FF03001800FCF7AAF87F
:104120007B681800BD4602B080BD80B582B000AF8C
:10413000786039603B68180000F00CFFC046BD464F
:1041400002B080BD80B500AF00F05BFFC046BD4649
:1041500080BD80B500AF00F0DDFFC046BD4680BD2C
:1041600080B500AF01F02AF8C046BD4680BD80B5DD
:1041700000AF01F077F8C046BD4680BD80B500AF06
:1041800001F0C4F8C046BD4680BD80B500AF01F067
:104190000FF9C046BD4680BD80B500AF014B180089
:1041A000BD4680BD2438014080B500AF014B1800EA
:1041B000BD4680BD2838014080B500AF1B231800E4
:1041C000BD4680BD80B500AF0A231800BD4680BD46
:1041D00090B585B000AF7860396001F03DF901F02D
:1041E00044F901F047F93B681B68180001F049F9F0
:1041F0003B681B79012B08D1012001F057F93B687E
:104200005B79180001F072F902E0002001F04EF92C
:104210003B689B79180001F089F9012001F0A6F9AB
:10422000012001F0C0F901F0DBF901F0E5F92A20E5
:1042300001F0EEF901F0F9F901F004FA01F00FFADA
:10424000012001F019FA01F034FA7B68180001F03E
:1042500037FAFFF7A1FF0300180001F03EFAFF2034
:1042600000F01CFE08243B1900221A703B190022A2
:104270005A703B1900229A703B190122DA703B19DF
:1042800000221A713B1901225A713B19180001F0E2
:1042900031FA00F013FE7B68180001F08BFAFFF78B
:1042A00083FF0300180001F092FA3B1901221A70F3
:1042B0003B1900225A713B19180001F095FA01F0E0
:1042C000F3FAFFF779FF03001800FBF7D3FF01F0C3
:1042D000F8FAFFF777FF03001800FBF7CBFFC046A3
:1042E000BD4605B090BD80B500AF01F0F7FA030000
:1042F0001B689BB21800BD4680BD90B583B000AF6F
:104300000200BB1D1A80BB1D1C88FEF7A9FB030021
:104310005C62C046BD4603B090BD80B500AFFEF7FD
:104320009FFB03005B6A9BB21800BD4680BD80B551
:1043300000AF01F0DBFA03001B689BB21800BD461A
:1043400080BD80B582B000AF786001F0D7FA7B689D
:104350001B681A78802149420A431A707B681B68DF
:104360005A7801218A435A70C046BD4602B080BDCA
:1043700080B582B000AF786001F0C7FA7B681B6837
:104380005A7808210A435A70C046BD4602B080BD23
:1043900080B582B000AF786001F0BEFA7B681B6820
:1043A0001A7840210A431A707B681B681A7820210A
:1043B0008A431A70C046BD4602B080BD80B582B047
:1043C00000AF786001F0AFFA7B681B685A7804216F
:1043D0000A435A707B681B685A7802218A435A70D4
:1043E000C046BD4602B080BD80B582B000AF7860E7
:1043F00001F0A0FA7B681B685A7808218A435A703A
:10440000C046BD4602B080BD80B500AFFFF76BFF70
:1044100003001A0080239B0113405A425341DBB230
:104420001800BD4680BD80B582B000AF786001F055
:1044300088FA7B681B681A7820210A431A707B6807
:104440001B681A7840218A431A70C046BD4602B0E4
:1044500080BD80B582B000AF78607B681B7ADBB22C
:104460005A1E9341DBB21800BD4602B080BD80B534
:1044700082B000AF78607B681B7BDBB2002B06D07C
:104480007B681B7BDBB2032B01D0012300E0002300
:104490001800BD4602B080BD80B582B000AF786024
:1044A000FEF75AFE03001800BD4602B080BD80B57D
:1044B00082B000AF7860FEF75BFE03001800BD46D7
:1044C00002B080BD80B582B000AF78600A00BB1C2E
:1044D0001A80FFF722FF03001BB2BA1C0021525EB4
:1044E000D017D90F9A4248410300DBB21800BD46ED
:1044F00002B080BD80B582B000AF78600A00BB1CFE
:104500001A80FFF70AFF03001AB2BB1C00215B5E92
:10451000D80FD1179A4248410300DBB21800BD46BC
:1045200002B080BD90B583B000AF78607B68142284
:104530009A5E7B680A215B5E9A4210DD7B681424D8
:104540001C5F7B681A697B6818215B5E190010008C
:1045500001F02CFA03009C4201DA012300E0002361
:104560001800BD4603B090BD90B583B000AF786031
:104570007B6814229A5E7B680A215B5E9A4210DA9D
:104580007B6814241C5F7B681A697B6818215B5E5A
:104590001900100001F0E6F903009C4201DD01233F
:1045A00000E000231800BD4603B090BD80B582B086
:1045B00000AF78600A00BB1C1A807B68BA1C1288A6
:1045C0009A827B6816229B5EBA1C0021525E9A4238
:1045D00000D1E7E27B681B7ADBB2052B00D9E1E270
:1045E0009A00CD4BD3181B689F467B681B69180047
:1045F00001F0AEF97B681B691800FEF725FE030089
:104600001A00BB1C012100201B5E934201DB00232A
:10461000191CCBB2002B68D07B68DB681800FFF751
:1046200002FF7B681A697B6818215B5E1900100025
:1046300001F098F903001A00BB1C00215B5ED8173B
:10464000D10F934248410300DBB2002B16D07B68A8
:10465000DB681800FFF7B2FE7B68DB681800FFF725
:1046600070FE7B681A69BB1C00215B5E190010009C
:1046700001F08CF97B6802221A7230E07B681A69BB
:104680007B6818215B5E1900100001F06BF90300D4
:104690001A00BB1C012100201B5E934201DB00239A
:1046A000191CCBB2002B1AD07B68DB68180000F015
:1046B0007AFB7B68DB68180000F05FFB7B68186999
:1046C0007B6818229B5E9AB2BB1C1B88D3189BB2D6
:1046D0001BB2190001F05AF97B6801221A727B683B
:1046E000DB681800FFF780FE55E27B681B69180045
:1046F000FEF7AAFD03001A00BB1C012100201B5E6F
:10470000934201DC0023191CCBB2002B00D142E202
:104710007B68DB681800FFF73BFE7B681A697B68E3
:1047200018215B5E1900100001F040F903001A0027
:10473000BB1C00215B5ED80FD1179A424841030091
:10474000DBB2002B16D07B68DB681800FFF736FE63
:104750007B68DB681800FFF7F4FD7B681A69BB1CF7
:1047600000215B5E1900100001F010F97B68042243
:104770001A7230E07B681A697B6818215B5E190049
:10478000100001F013F903001A00BB1C01210020E6
:104790001B5E934201DC0023191CCBB2002B1AD004
:1047A0007B68DB68180000F0FEFA7B68DB681800A5
:1047B00000F0E3FA7B681869BB1C1A887B68182133
:1047C0005B5E9BB2D31A9BB21BB2190001F0DEF8FC
:1047D0007B6803221A727B68DB681800FFF704FE0F
:1047E000D9E17B681A697B6818215B5E19001000AB
:1047F00001F0B8F803001A00BB1C00215B5ED80F63
:10480000D1179A4248410300DBB2002B1ED07B68CF
:10481000DB681800FFF7D2FD7B681A697B681821F6
:104820005B5E1900100001F0C1F803001A007B68FC
:104830005A817B681A697B680A215B5E1900100047
:1048400001F0A4F87B6805221A72ABE17B68186955
:104850007B6818229B5E9AB2BB1C1B88D3189BB244
:104860001BB2190001F092F89CE17B681B691800EB
:10487000FEF7EAFC03001A00BB1C012100201B5EAE
:10488000934201DB0023191CCBB2002B15D07B68AF
:10489000DB681800FFF755FD7B68DB681800FFF741
:1048A00067FD7B6800221A72BB1C00229A5E7B683F
:1048B00011001800FFF77AFE6FE17B681A697B68C8
:1048C00018215B5E1900100001F04CF803001A007B
:1048D000BB1C00215B5ED817D10F934248410300F7
:1048E000DBB2002B00D158E17B6818697B68182285
:1048F0009B5E9AB2BB1C1B88D3189BB21BB21900DB
:1049000001F044F87B68DB68180000F04CFA7B6823
:1049100001221A7241E1C046907100087B681A6951
:104920007B6818215B5E1900100001F03FF803005E
:104930001A00BB1C00215B5ED817D10F934248417F
:104940000300DBB2002B2CD07B681869BB1C1A88D3
:104950007B6818215B5E9BB2D31A9BB21BB2190015
:1049600001F014F87B68DB681800FFF727FD7B680F
:104970001A697B6818215B5E1900100000F0F2FFD5
:1049800003001A007B685A817B681A697B680A21D8
:104990005B5E1900100000F0F9FF7B6805221A72B7
:1049A00000E17B681869BB1C1A887B6818215B5E74
:1049B0009BB2D31A9BB21BB2190000F0E7FFF1E0E3
:1049C0007B681B691800FEF73FFC03001A00BB1C44
:1049D000012100201B5E934201DC0023191CCBB295
:1049E000002B15D07B68DB681800FFF7AAFC7B68FA
:1049F000DB681800FFF7BCFC7B6800221A72BB1C46
:104A000000229A5E7B6811001800FFF7CFFDC6E018
:104A10007B681A697B6818215B5E1900100000F042
:104A2000C5FF03001A00BB1C00215B5ED80FD11725
:104A30009A4248410300DBB2002B00D1AFE07B6813
:104A40001869BB1C1A887B6818215B5E9BB2D31A5D
:104A50009BB21BB2190000F099FF7B68DB6818005D
:104A600000F0A1F97B6803221A7298E07B68DB688A
:104A7000180000F0AFFF031E07D07B681800FFF797
:104A800051FD031E01D0012300E00023002B04D0C0
:104A90007B68BA1C12885A8183E07B68DB68180047
:104AA00000F098FF031E11D07B681A697B681821FB
:104AB0005B5E1900100000F055FF03001A00BB1CDC
:104AC00000215B5E934201DD012300E00023002B07
:104AD00016D07B68DB68180000F065F97B68186900
:104AE0007B6818229B5E9AB2BB1C1B88D3189BB2B2
:104AF0001BB2190000F04AFF7B6801221A7250E0D5
:104B00007B68DB68180000F070FF031E07D07B682D
:104B10001800FFF729FD031E01D0012300E0002348
:104B2000002B04D07B68BA1C12885A8139E07B685C
:104B3000DB68180000F059FF031E11D07B681A696A
:104B40007B6818215B5E1900100000F02FFF030046
:104B50001A00BB1C00215B5E934201DA012300E0D6
:104B60000023002B1DD07B68DB68180000F01BF9C8
:104B70007B681869BB1C1A887B6818215B5E9BB236
:104B8000D31A9BB21BB2190000F000FF7B6803220E
:104B90001A72C04605E0C04604E0C04602E0C046C6
:104BA00000E0C046C046BD4602B080BD80B582B0C0
:104BB00000AF78607B681B7ADBB25A1E9341DBB290
:104BC000002B0CD07B68DB681800FFF7BAFB7B6812
:104BD000DB681800FFF7CCFB7B6800221A72C04626
:104BE000BD4602B080BD80B582B000AF78607B6802
:104BF0001B7BDBB25A1E9341DBB2002B07D07B68D4
:104C00001B69180000F0FCFE7B6803221A73C04683
:104C1000BD4602B080BD80B582B000AF7860FEF7BF
:104C20009BFA03001A0001235340DBB2002B06D08D
:104C30007B681B7BDBB2002B01D1012300E000234A
:104C4000002B0CD07B681B69180000F0F7FE7B6816
:104C500001221A737B68180000F006FF30E07B68C1
:104C60001B7BDBB2023B5A425341DBB2002B08D024
:104C70007B681B69180000F0C3FE7B6804221A736E
:104C80001EE07B681B7BDBB2042B04D07B681B7BA4
:104C9000DBB2052B01D1012300E00023002B03D060
:104CA0007B6804221A730BE07B681B7BDBB2033B3F
:104CB0005A425341DBB2002B02D07B6803221A73A5
:104CC000C046BD4602B080BD80B582B000AF7860FE
:104CD000FEF74EFA03001A0001235340DBB2002B0B
:104CE00006D07B681B7BDBB2002B01D1012300E0E7
:104CF0000023002B0CD07B681B69180000F0CEFE4F
:104D00007B6802221A737B68180000F0ADFE30E069
:104D10007B681B7BDBB2013B5A425341DBB2002B69
:104D200008D07B681B69180000F06AFE7B680522CA
:104D30001A731EE07B681B7BDBB2042B04D07B68FC
:104D40001B7BDBB2052B01D1012300E00023002BEC
:104D500003D07B6805221A730BE07B681B7BDBB2F8
:104D6000033B5A425341DBB2002B02D07B68032243
:104D70001A73C046BD4602B080BD80B582B000AF98
:104D8000786000F0A1FE7B681B685A7801210A4315
:104D90005A707B681B681A787F210A401A70C046D7
:104DA000BD4602B080BD80B582B000AF786000F033
:104DB00092FE7B681B685A7802210A435A707B680E
:104DC0001B685A7804218A435A70C046BD4602B017
:104DD00080BD80B500AFFFF786FA03001A0080237C
:104DE0005B0113405A425341DBB21800BD4680BDFF
:104DF00080B500AF00F076FE03001B689BB2180080
:104E0000BD4680BD80B500AFFDF7A6FD03001A6862
:104E100001218A431A60FDF79FFD03001B680122F0
:104E200013405A1E9341DBB2002B00D0F3E7C0467B
:104E3000BD4680BD80B500AFFDF786FD03001A6852
:104E400001218A431A60FDF77FFD03001B680122E0
:104E500013405A1E9341DBB2002B00D0F3E7C0464B
:104E6000BD4680BD90B583B000AF0200BB1D1A8067
:104E7000BB1D1C8800F03EFE03001C60C046BD4602
:104E800003B090BD80B500AFFDF75EFD03001A686A
:104E900001210A431A60C046BD4680BD90B583B06B
:104EA00000AF0200BB1D1A80BB1D1C8800F01AFE5B
:104EB00003001C60C046BD4603B090BD80B500AF86
:104EC000FDF74AFD03001A6801210A431A60C04633
:104ED000BD4680BD80B500AF014B1800BD4680BD0A
:104EE00004000240B0B584B000AFF860B9603B1D6B
:104EF0001A70281C00F00FFEB968FB68221C18000D
:104F000000F024FE03001800BD4604B0B0BDB0B5EB
:104F100084B000AFF860B9603B1D1A70281C00F027
:104F20003BFEB968FB68221C180000F050FE03002D
:104F30001800BD4604B0B0BD80B500AF00F064FEFF
:104F4000C046BD4680BD80B500AF00F0BBFEC04688
:104F5000BD4680BD80B584B000AF78600C4B1B6847
:104F6000FB60FB68002B0BD0FB685B68002B03D059
:104F7000FB685B68FB60F7E7FB687A685A6002E0F1
:104F8000034B7A681A60C046BD4604B080BDC04677
:104F90008C02002080B582B000AF78607B68DBB205
:104FA00003221340DBB21800BD4602B080BD80B5BD
:104FB00082B000AF78607B689B08DBB201221340AF
:104FC000DBB21800BD4602B080BD80B582B000AF34
:104FD00078607B68DB08DBB203221340DBB2180089
:104FE000BD4602B080BD80B582B000AF78607B68FE
:104FF0005B09DBB203221340DBB21800BD4602B0EE
:1050000080BDB0B500AF00F0BBFE00F0C1FE0300F4
:105010001A6803218A431A600120FFF7BBFF0300CF
:105020001C0000F0B5FE03001A6822431A6000F06D
:10503000B7FE03001A6801218A431A600120FFF7B6
:10504000B6FF03001C0000F0ABFE03001A68224309
:105050001A6000F0ADFE03001A6803218A431A604B
:105060000120FFF7B2FF03001C0000F0A1FE0300C7
:105070001A6822431A6000F0A3FE03001A68012197
:105080008A431A600120FFF7AEFF03001C0000F006
:1050900097FE03001A6822431A6000F099FEC0468A
:1050A000BD46B0BD80B582B000AF78607B68DBB232
:1050B00003221340DBB21800BD4602B080BD80B5AC
:1050C00082B000AF78607B689B08DBB2012213409E
:1050D000DBB21800BD4602B080BD80B582B000AF23
:1050E00078607B68DB08DBB203221340DBB2180078
:1050F000BD4602B080BD80B582B000AF78607B68ED
:105100005B09DBB203221340DBB21800BD4602B0DC
:1051100080BD0000B0B500AF00F06BFE00F070FE87
:1051200003001A6824490A401A600120FFF7BAFFF9
:1051300003009C0300F064FE03001A6822431A6017
:1051400000F066FE03001A6880218A431A6001207D
:10515000FFF7B5FF0300DC0100F05AFE03001A68F8
:1051600022431A6000F05CFE03001A6812490A40EC
:105170001A600120FFF7B1FF03009C0300F050FE0E
:1051800003001A6822431A6000F052FE03001A68F6
:1051900080218A431A600120FFF7ADFF0300DC0184
:1051A00000F046FE03001A6822431A6000F048FE31
:1051B000C046BD46B0BDC046FF3FFFFFB0B500AF23
:1051C00000F017FE00F01CFE03001A6824490A4094
:1051D0001A600120FFF766FF03001C0300F010FEB9
:1051E00003001A6822431A6000F012FE03001A68D6
:1051F00040218A431A600120FFF761FF03009C01F0
:1052000000F006FE03001A6822431A6000F008FE50
:1052100003001A6812490A401A600120FFF75DFF77
:1052200003001C0300F0FCFD03001A6822431A600F
:1052300000F0FEFD03001A6840218A431A60012035
:10524000FFF759FF03009C0100F0F2FD03001A680C
:1052500022431A6000F005FEC046BD46B0BDC04600
:10526000FFCFFFFFB0B500AF00F0C3FD00F0C8FDF9
:1052700003001A6824490A401A600120FFF712FF50
:1052800003009C0200F0BCFD03001A6822431A6070
:1052900000F0BEFD03001A6820218A431A60012035
:1052A000FFF70DFF03005C0100F0B2FD03001A6878
:1052B00022431A6000F0B4FD03001A6812490A4044
:1052C0001A600120FFF709FF03009C0200F0A8FD0F
:1052D00003001A6822431A6000F0AAFD03001A684E
:1052E00020218A431A600120FFF705FF03005C01BB
:1052F00000F09EFD03001A6822431A6000F0C2FD10
:10530000C046BD46B0BDC046FFF3FFFFB0B500AF1D
:1053100000F036FD00F03CFD03001A68C0218A430E
:105320001A600120FFF736FE03009C0100F030FDFB
:1053300003001A6822431A6000F032FD03001A6865
:1053400008218A431A600120FFF731FE0300DC00C8
:1053500000F026FD03001A6822431A6000F028FDC1
:1053600003001A68C0218A431A600120FFF72DFE4E
:1053700003009C0100F01CFD03001A6822431A6020
:1053800000F01EFD03001A6808218A431A600120FC
:10539000FFF729FE0300DC0000F012FD03001A688D
:1053A00022431A6000F07FFDC046BD46B0BD00003C
:1053B000B0B500AF00F01DFD00F022FD03001A683B
:1053C000920092081A600120FFF76CFE03009C0710
:1053D00000F016FD03001A6822431A6000F018FD61
:1053E00003001A681B490A401A600120FFF767FE94
:1053F0000300DC0300F00CFD03001A6822431A606E
:1054000000F00EFD03001A68920092081A60012055
:10541000FFF763FE03009C0700F002FD03001A681B
:1054200022431A6000F004FD03001A6809490A408B
:105430001A600120FFF75FFE0300DC0300F0F8FCB8
:1054400003001A6822431A6000F03EFDC046BD46C4
:10545000B0BDC046FF7FFFFF80B500AF00F045FD47
:1054600000F04AFDC046BD4680BD80B500AFC046D5
:10547000BD4680BD80B500AFFAF7F9FFC046BD4616
:1054800080BD90B583B000AF7860FBF72BF80300C8
:1054900079681800FAF738FE03001C0000F036FDAA
:1054A00003001C60C046BD4603B090BD80B582B00D
:1054B00000AF0200FB1D1A70FB1D1B78002B08D0EB
:1054C000FDF72AFA03001A688021C9000A431A600E
:1054D00006E0FDF721FA03001A6803490A401A6042
:1054E000C046BD4602B080BDFFFBFFFF80B582B065
:1054F00000AF0200FB1D1A70FB1D1B78002B08D0AB
:10550000FDF70AFA03001A68802189000A431A602D
:1055100006E0FDF701FA03001A6803490A401A6021
:10552000C046BD4602B080BDFFFDFFFF90B585B00F
:1055300000AF0200FB1D1A7000F0F0FC03001B68B6
:10554000FB60FB68084A1340FB60FB1D1B781B03D4
:10555000FA681343FB60FC6800F0E0FC03001C6089
:10556000C046BD4605B090BDFFCFFFFF80B582B0FD
:1055700000AF0200FB1D1A70FB1D1B78002B07D02B
:10558000FDF7CAF903001A6804210A431A6006E00D
:10559000FDF7C2F903001A6804218A431A60C04665
:1055A000BD4602B080BD80B582B000AF0200FB1DD9
:1055B0001A70FB1D1B78002B07D0FDF7ADF9030017
:1055C0001A6808210A431A6006E0FDF7A5F90300EE
:1055D0001A6808218A431A60C046BD4602B080BDE1
:1055E00080B500AF00F0A2FC03001A6840210A4316
:1055F0001A60C046BD4680BD80B500AF00F096FC85
:1056000003001A6880210A431A60C046BD4680BD67
:1056100090B583B000AF78607C6800F08FFC030029
:105620001C60C046BD4603B090BD80B500AF00F021
:1056300075FC03001A68802109040A431A60C046F9
:10564000BD4680BD80B500AF00F070FC03001A6855
:10565000802149000A431A60C046BD4680BD80B51E
:1056600000AF00F063FC03001A688021C9010A43FF
:105670001A60C046BD4680BD80B582B000AF020052
:10568000FB1D1A70FB1D1B78002B07D0FDF744F99A
:1056900003001A6801210A431A6006E0FDF73CF98D
:1056A00003001A6801218A431A60C046BD4602B051
:1056B00080BD80B500AF00F049FCC046BD4680BD4E
:1056C00090B583B000AF78607C6800F047FC0300C1
:1056D0001C60C046BD4603B090BD90B583B000AF1E
:1056E00078607C6800F042FC03001C60C046BD4648
:1056F00003B090BD90B585B000AF7860FDF72CF990
:10570000030000221A600023FB607B681B781A1CD0
:1057100001231340DBB2012213401B01FA68102160
:105720008A431343FB607B685B781A1C0323134096
:10573000DBB2032213409B02FA681C490A40134360
:10574000FB607B689B781A1C03231340DBB20322A7
:1057500013401B02FA6816490A401343FB607B683A
:10576000DB7801221340DB01FA6880218A4313436E
:10577000FB607B681B79012213409B01FA68402182
:105780008A431343FB607B685B79012213405B0112
:10579000FA6820218A431343FB60FC68FDF7DCF8BC
:1057A00003001C60C046BD4605B090BDFFF3FFFF7F
:1057B000FFFCFFFF90B583B000AF78607C6800F01D
:1057C000DDFB03001C60C046BD4603B090BD90B534
:1057D00083B000AF78607C6800F0D8FB03001C60E9
:1057E000C046BD4603B090BD90B585B000AF7860AF
:1057F000FDF7AAF8030000221A600023FB607B6813
:105800001B781A1C01231340DBB2012213401B0139
:10581000FA6810218A431343FB607B685B781A1C8B
:1058200003231340DBB2032213409B02FA681C4996
:105830000A401343FB607B689B781A1C03231340C8
:10584000DBB2032213401B02FA6816490A401343D5
:10585000FB607B68DB7801221340DB01FA68802162
:105860008A431343FB607B681B79012213409B0131
:10587000FA6840218A431343FB607B685B7901220D
:1058800013405B01FA6820218A431343FB60FC68E4
:10589000FDF75AF803001C60C046BD4605B090BD38
:1058A000FFF3FFFFFFFCFFFF80B500AFFDF734F80B
:1058B00003001A688021C9040A431A60C046BD4625
:1058C00080BD80B500AFFDF73FF803001A680221E4
:1058D0000A431A60C046BD4680BD000080B500AFD7
:1058E000014B1800BD4680BD1004004880B500AFD4
:1058F000014B1800BD4680BD1000004880B500AFC8
:1059000000F04CFBC046BD4680BD80B500AF00F046
:105910004FFBC046BD4680BD80B500AF00F053FBD5
:10592000C046BD4680BD80B500AF00F056FBC04606
:10593000BD4680BD80B500AF00F05AFBC046BD46F5
:1059400080BD80B500AF00F05DFBC046BD4680BDA8
:1059500080B582B000AF786000F05FFBC046BD4606
:1059600002B080BD80B582B000AF78600A00BB1C79
:105970001A80FEF7D2FC03001A00BB1C1B88D31A46
:105980009BB21BB21800BD4602B080BD80B582B08C
:1059900000AF78600A00BB1C1A80BB1C1B88180073
:1059A00000F047FBC046BD4602B080BD80B582B066
:1059B00000AF78600A00BB1C1A80FEF7AEFC030043
:1059C0001A00BB1C1B88D3189BB21BB21800BD4623
:1059D00002B080BD80B582B000AF786000F039FBC6
:1059E00003001800BD4602B080BD80B582B000AF94
:1059F000786000F03CFB03001800BD4602B080BD9B
:105A000080B582B000AF786000F03FFB7B681B6818
:105A10005A7810210A435A707B681B681A7808214B
:105A20008A431A7000F038FB7B681B681A781021D3
:105A30008A431A70C046BD4602B080BD80B582B0B0
:105A400000AF786000F02FFB7B681B681A78082194
:105A50000A431A707B681B685A7810218A435A706F
:105A6000C046BD4602B080BD80B582B000AF786050
:105A70007B685B7B01225340DBB2002B08D07A6845
:105A8000054B11001800FAF74BFE7B6801225A7390
:105A9000C046BD4602B080BDC800002080B582B0BF
:105AA00000AF786000F006FB7B681B681A78102155
:105AB0000A431A707B681B685A7810218A435A700F
:105AC000C046BD4602B080BD80B500AF00F0F9FA17
:105AD000C046BD4680BD80B500AF00F0FDFAC046AF
