:020000040800F2
:10000000001000202102000871020008710200089F
:1000100000000000000000000000000000000000E0
:100020000000000000000000000000007102000855
:100030000000000000000000710200081508000820
:10004000710200080000000071020008710200083F
:1000500071020008710200087102000871020008B4
:1000600000000000650A0008730A0008850A0008FD
:1000700071020008710200081F0A00080000000059
:100080002D0A000800000000000000003B0A0008E4
:1000900000000000490A0008570A00087102000821
:1000A000000000007102000800000000110A0008B2
:1000B0000000000000000000000000000000000040
:1000C00010B5064C2378002B07D1054B002B02D02E
:1000D000044800E000BF0123237010BD8800002009
:1000E0000000000084750008044B10B5002B03D0FD
:1000F0000349044800E000BF10BDC04600000000F6
:100100008C00002084750008002243088B4274D3C1
:1001100003098B425FD3030A8B4244D3030B8B4208
:1001200028D3030C8B420DD3FF22090212BA030C11
:100130008B4202D31212090265D0030B8B4219D3F2
:1001400000E0090AC30B8B4201D3CB03C01A524112
:10015000830B8B4201D38B03C01A5241430B8B425A
:1001600001D34B03C01A5241030B8B4201D30B0343
:10017000C01A5241C30A8B4201D3CB02C01A52416A
:10018000830A8B4201D38B02C01A5241430A8B422D
:1001900001D34B02C01A5241030A8B4201D30B0216
:1001A000C01A5241CDD2C3098B4201D3CB01C01A30
:1001B000524183098B4201D38B01C01A524143093A
:1001C0008B4201D34B01C01A524103098B4201D328
:1001D0000B01C01A5241C3088B4201D3CB00C01A95
:1001E000524183088B4201D38B00C01A524143080D
:1001F0008B4201D34B00C01A5241411A00D2014632
:10020000524110467047FFE701B5002000F006F8A4
:1002100002BDC0460029F7D076E770477047C04658
:100220000D4885460D480E490E4A002302E0D45879
:10023000C4500433C4188C42F9D30B4A0B4C00232E
:1002400001E013600432A242FBD300F024FC07F06B
:1002500007F900F081FCFEE70010002000000020FC
:10026000880000204C77000888000020C002002091
:10027000FEE7000080B582B000AF0200FB1D1A70DF
:10028000FB1D1B785BB21F221A40044B01219140D9
:100290000A001A60C046BD4602B080BD00E100E021
:1002A00080B500AF014B1800BD4680BD0010024074
:1002B00080B582B000AF78607B681A6804218A43F9
:1002C0001A60C046BD4602B080BD000080B500AFD8
:1002D000014B1800BD4680BD0010024080B500AF44
:1002E000014B1800BD4680BD0410024080B500AF30
:1002F000014B1800BD4680BD1810024080B500AF0C
:10030000014B1800BD4680BD1410024080B500AFFF
:10031000C046BD4680BD80B500AFC046BD4680BD6D
:1003200080B582B000AF0200FB1D1A70FB1D1B7868
:10033000002B13D0FB1D1B78042B0DD0FB1D1B784D
:10034000052B07D0FB1D1B78062B01D1064B06E0C1
:10035000064B04E0064B02E0064B00E0064B18009B
:10036000BD4602B080BDC046808D5B00C0C62D007A
:10037000001BB70000366E01006CDC0290B585B042
:1003800000AF0200FB1D1A70FFF7A8FF03001B68F7
:10039000FB60FB6870229343FB60FB1D1B781B0115
:1003A000FA681343FB60FC68FFF798FF03001C60CA
:1003B000C046BD4605B090BD90B585B000AF020007
:1003C000FB1D1A70FFF78AFF03001B68FB60FB68C8
:1003D00003229343FB60FB1D1B78FA681343FB6009
:1003E000FC68FFF77BFF03001C60C046BD4605B0FC
:1003F00090BD80B500AFFFF769FF03001A68802346
:100400009B0413405A425341DBB2002B00D0F2E769
:10041000C046BD4680BD80B500AFFFF757FF030063
:100420001A68802149040A431A60C046BD4680BD4F
:1004300080B500AFFFF74AFF03001A6880239B02D4
:1004400013405A425341DBB2002B00D0F2E7C046C2
:10045000BD4680BD80B500AFFFF738FF03001A68C6
:10046000802149020A431A60C046BD4680BD80B55E
:1004700000AFFFF73BFF03001A688021C9010A4360
:100480001A60FFF733FF03001A688023DB01134073
:100490005A425341DBB2002B00D0F2E7C046BD46C2
:1004A00080BD000080B582B000AF0200FB1D1A7055
:1004B000FB1D1B78002B08D0FFF710FF03001A6804
:1004C000802149020A431A6006E0FFF707FF030094
:1004D0001A6803490A401A60C046BD4602B080BD92
:1004E000FFFFFEFF80B582B000AFFFF7F7FE03000D
:1004F0001B681B0ADAB2FB1D07210A401A70FB1D9C
:100500001B781800FFF70CFF03001800BD4602B06F
:1005100080BD000090B585B000AF0200FB1D1A70D1
:10052000FFF7DCFE03001B68FB60FB68084A134012
:10053000FB60FB1D1B781B02FA681343FB60FC6821
:10054000FFF7CCFE03001C60C046BD4605B090BD61
:10055000FFF8FFFF90B585B000AF0200FB1D1A70D9
:10056000FFF7BCFE03001B68FB60FB68084A1340F2
:10057000FB60FB1D1B789B04FA681343FB60FC685F
:10058000FFF7ACFE03001C60C046BD4605B090BD41
:10059000FFFFC3FF80B500AFFFF7B0FE03001A688E
:1005A000802189020A431A60FFF7A8FE03001A6837
:1005B00080239B0213405A425341DBB2002B00D0F0
:1005C000F2E7C046BD4680BD80B500AFFFF796FE9E
:1005D00003001A688021C9020A431A60FFF78EFEE1
:1005E00003001A688023DB0213405A425341DBB2F6
:1005F000002B00D0F2E7C046BD4680BD80B500AFFD
:10060000FFF77CFE03001A6801210A431A60FFF716
:1006100075FE03001B68012213405A425341DBB2AE
:10062000002B00D0F3E7C046BD4680BD80B500AFCB
:10063000FFF75CFE03001A68802109010A431A6073
:10064000FFF754FE03001A6880231B0113405A422F
:100650005341DBB2002B00D0F2E7C046BD4680BD5F
:1006600080B500AF214B1B681800FFF721FE204B1F
:100670001B68180000F01EFB1E4B1B68180000F0E2
:1006800028FB1D4B1B68180000F02EFB1B4B1B6842
:10069000180000F034FB1A4B1B68180000F03AFBFE
:1006A000184B1B68180000F042FB174B1B68180022
:1006B00000F04AFB154B1B68180000F054FB144B6C
:1006C0001B68180000F05EFB124B1B68180000F05E
:1006D00068FB114B1B68180000F072FB0F4B1B6886
:1006E000180000F07CFBC046BD4680BDA400002081
:1006F000BC000020A8000020AC000020B8000020B2
:1007000004000020C4000020080000200C0000208D
:10071000100000201400002018000020C00000205D
:1007200080B582B000AF786039607B683A681100AC
:10073000180000F05FFBC046BD4602B080BD80B52A
:1007400082B000AF786039607B683A6811001800A9
:1007500000F06FFBC046BD4602B080BD90B587B0CB
:1007600000AF78607B687B617B69180000F0B1FBAB
:100770000300FB607B69180000F0C8FB0300BB604E
:100780000823FA180C243B191100180000F0CEFBC6
:10079000031E10D03B19180000F0E7FB03003B617B
:1007A0003B691B681B683A69100098473B191800A1
:1007B00000F0CDFBE4E7C046BD4607B090BD80B574
:1007C00082B000AF78607B6800221A607B680022EC
:1007D0005A607B681800BD4602B080BD80B582B00B
:1007E00000AF78607B681800FFF7E9FF7B681800AE
:1007F000BD4602B080BD80B582B000AF78607B6836
:100800001800FFF7EBFF00F0BBFB7B681800BD464C
:1008100002B080BD80B500AF034B1800FFF79EFF0C
:10082000C046BD4680BDC046C800002080B582B02D
:1008300000AF78607B6800221A607B6800225A60F3
:100840007B681800BD4602B080BD000080B582B054
:1008500000AF78607B6804331800FFF7E7FF044AB5
:100860007B681A607B681800BD4602B080BDC04638
:10087000E076000880B582B000AF78607B68180031
:10088000FFF7E4FF054A7B681A607B6800221A7351
:100890007B681800BD4602B080BDC046D476000813
:1008A00080B582B000AF78607B685B695A1C7B685A
:1008B0005A61C046BD4602B080BD80B582B000AF6F
:1008C000786039607B683A681A617B68180000F0CC
:1008D0003BF8C046BD4602B080BD80B582B000AFD7
:1008E00078607B6800225A617B68180000F014F879
:1008F000C046BD4602B080BD80B582B000AF786012
:100900007B6859697B681A69002391425B41DBB2BD
:100910001800BD4602B080BD80B582B000AF7860DF
:100920007B681B7B002B08D07B6800221A737A68D7
:10093000044B11001800FFF702FFC046BD4602B08D
:1009400080BDC046C800002080B582B000AF78608E
:100950007B681B7B01225340DBB2002B08D07B68F5
:1009600001221A737A68044B11001800FFF7D8FEB1
:10097000C046BD4602B080BDC800002080B584B02E
:1009800000AF78600A00FB1C1A700A23FB180122D2
:1009900052421A80FB1C1B78FA1C591E11705A1EF9
:1009A0009341DBB2002B29D07B685A1C7A601B78FC
:1009B00099B20A22BB18BA1812884A401A8000233A
:1009C000FB60FB68072BE5DC0A217B181B880122F2
:1009D000134009D07B181B885B101BB20B4A534095
:1009E0001AB27B181A8005E00A217B181B885A105E
:1009F0007B181A80FB680133FB60E2E70A23FB18CF
:100A00001B881800BD4604B080BDC04601A0FFFF92
:100A100080B500AF00F0CCFAC046BD4680BD80B5C1
:100A200000AF00F0E1FAC046BD4680BD80B500AF22
:100A300000F0F6FAC046BD4680BD80B500AF00F0BC
:100A40000BFBC046BD4680BD80B500AF00F020FB6B
:100A5000C046BD4680BD80B500AF00F035FBC04646
:100A6000BD4680BD80B500AF00F04AFBC046BD4624
:100A700080BD80B500AF00F05FFB00F079FBC046A1
:100A8000BD4680BD80B500AF00F08EFB00F0A8FB36
:100A9000C046BD4680BD80B582B000AFFB1D0022C0
:100AA0001A70012000F080FCFFF7D4FCFFF7C0FCB7
:100AB000FB1D1B78DBB20133DBB2FA1D191C117070
:100AC0005A1E9341DBB2002B00D0F1E70020FFF764
:100AD00055FC0020FFF71EFD0420FFF73BFD012021
:100AE000FFF7E0FCFFF797FCFFF783FCFB1D1B788B
:100AF000DBB20133DBB2FA1D191C11705A1E93418F
:100B0000DBB2002B00D0F1E70220FFF755FCFB1D04
:100B10001B78DBB20133DBB2FA1D191C11705A1EAF
:100B20009341DBB2002B00D0F1E7C046BD4602B0D6
:100B300080BD80B582B000AF78600A00BB1C1A800F
:100B40007B681A68BB1C1B881900100001F0CCF8E8
:100B5000C046BD4602B080BD80B5B4B000AF304ADB
:100B600030493B1D180000F051FCFFF779FD2E4B7A
:100B70001B68180000F0ADF82A4B0722DA82284BD8
:100B8000DA89284B1A83274B254A128A5A83244B29
:100B90009A7C244B1A70234B1B789AB2214B9A8370
:100BA0001F4B18229A5E1F4BDA831D4B1A229A5E46
:100BB0001C4B1A841A4B14229B5E9AB2194B1A854D
:100BC000184B3F22DA87174B01229A85154B40229A
:100BD000FF219952124B18229A5E124B5A86104BE3
:100BE0001A21595E0F4B462299520E4B5622012173
:100BF00099540C4B48220D4999520D4A094B11004A
:100C0000180000F09FFC3B1D180000F0B1FC3B1DDC
:100C10001A00044B1100180001F0E2FB30BFF2E7AC
:100C2000D00100200C0200201C000020E02E00005B
:100C3000E001002080B500AF9023DB051800BD4621
:100C400080BD000080B500AF014B1800BD4680BDDF
:100C50000004004880B500AF014B1800BD4680BDC0
:100C60000008004880B500AF014B1800BD4680BDAC
:100C7000000C004880B500AF014B1800BD4680BD98
:100C80000014004880B500AF014B1800BD4680BD80
:100C90000038014080B500AF014B1800BD4680BD53
:100CA000002C014080B500AF014B1800BD4680BD4F
:100CB0000030014080B582B000AF786001F076FE70
:100CC00003001A6802218A431A60C046BD4602B07A
:100CD00080BD80B582B000AF78607B6800229A61E9
:100CE000C046BD4602B080BD80B582B000AF78601E
:100CF0007B6800229A61C046BD4602B080BD80B5C7
:100D000082B000AF78607B6800229A61C046BD4621
:100D100002B080BD80B582B000AF78607B681A6891
:100D20001203120B1A60C046BD4602B080BD80B5EA
:100D300082B000AF786001F041FE030000225A80CB
:100D4000C046BD4602B080BD80B582B000AF7860BD
:100D500001F03CFE03001A685204520C1A60C046AF
:100D6000BD4602B080BD80B582B000AF786001F0B2
:100D700035FE03001A685204520C1A60C046BD4684
:100D800002B080BD80B582B000AF786001F02EFE69
:100D900003001A685204520C1A60C046BD4602B0E5
:100DA00080BD80B582B000AF786001F027FE0300FF
:100DB0001A685204520C1A60C046BD4602B080BD8B
:100DC00080B582B000AF786001F020FE03001A68A1
:100DD0005204520C1A60C046BD4602B080BD80B5B8
:100DE00082B000AF78607B6800221A65C046BD46BD
:100DF00002B080BD80B582B000AF786039607B689A
:100E00005A683B685A607B685B68002B03D07B683C
:100E10005B683A689A607B683A685A607B681B68CE
:100E2000002B02D17B683A681A60C046BD4602B00A
:100E300080BD80B582B000AF786039603B685B6888
:100E4000002B0ED03B689B68002B0AD03B685B6888
:100E50003A6892689A603B689B683A6852685A6040
:100E60002DE03B689B68002B0FD03B689A687B683D
:100E70001A607B681B6800225A607B681B68002B25
:100E80001DD17B6800225A6019E03B685B68002B2B
:100E90000FD03B685A687B685A607B685B680022A9
:100EA0009A607B685B68002B09D17B6800221A601E
:100EB00005E07B6800221A607B6800225A603B686C
:100EC00000225A603B6800229A60C046BD4602B0CC
:100ED00080BD80B584B000AF78607B681A680C2351
:100EE000FB181100180001F099FDFB681800BD46C1
:100EF00004B080BD80B582B000AF78607B6800220E
:100F00001A607B681800BD4602B080BD80B584B011
:100F100000AF78600023FB600C23FB181800FFF77C
:100F2000E9FFFB681800BD4604B080BD80B582B003
:100F300000AF786039607B681A683B681B68D31A19
:100F40005A1E9341DBB21800BD4602B080BD80B589
:100F500082B000AF78607B681B689A687B681A6013
:100F60007B681800BD4602B080BD80B582B000AF7E
:100F700078607B681B681800BD4602B080BD000029
:100F800080B582B000AF094B7B60084B180001F0C0
:100F90005BFD01F066FD012001F06DFD01F085FDB6
:100FA00001F08FFDC046BD4602B080BD7FBB000092
:100FB00080B582B000AF0B4B1B687B607B68002B59
:100FC00009D07B681B681B687A68100098477B68AB
:100FD0005B687B60F2E701F081FDC046BD4602B070
:100FE00080BDC0468C02002080B582B000AF0B4BA4
:100FF0001B687B607B68002B09D07B681B681B68C3
:101000007A68100098477B685B687B60F2E701F0C4
:1010100079FDC046BD4602B080BDC04690020020AA
:1010200080B582B000AF0B4B1B687B607B68002BE8
:1010300009D07B681B681B687A68100098477B683A
:101040005B687B60F2E701F071FDC046BD4602B00F
:1010500080BDC0469402002080B582B000AF0B4B2B
:101060001B687B607B68002B09D07B681B681B6852
:101070007A68100098477B685B687B60F2E701F054
:1010800069FDC046BD4602B080BDC0469802002042
:1010900080B582B000AF0B4B1B687B607B68002B78
:1010A00009D07B681B681B687A68100098477B68CA
:1010B0005B687B60F2E701F061FDC046BD4602B0AF
:1010C00080BDC0469C02002080B582B000AF0B4BB3
:1010D0001B687B607B68002B09D07B681B681B68E2
:1010E0007A68100098477B685B687B60F2E701F0E4
:1010F00059FDC046BD4602B080BDC046A0020020DA
:1011000080B582B000AF0B4B1B687B607B68002B07
:1011100009D07B681B681B687A68100098477B6859
:101120005B687B60F2E701F049FDC046BD4602B056
:1011300080BDC046A402002080B582B000AF0B4B3A
:101140001B687B607B68002B09D07B681B681B6871
:101150007A68100098477B685B687B60F2E701F073
:1011600034FDC046BD4602B080BDC046A802002086
:1011700080B582B000AF0B4B1B687B607B68002B97
:1011800009D07B681B681B687A68100098477B68E9
:101190005B687B60F2E701F01FFDC046BD4602B010
:1011A00080BDC046AC02002080B582B000AF0B4BC2
:1011B0001B687B607B68002B09D07B681B681B6801
:1011C0007A68100098477B685B687B60F2E701F003
:1011D0000AFDC046BD4602B080BDC046B002002038
:1011E00080B582B000AF0B4B1B687B607B68002B27
:1011F00009D07B681B681B687A68100098477B6879
:101200005B687B60F2E701F0F5FCC046BD4602B0CA
:1012100080BDC046B402002080B582B000AF7860C7
:101220007B6800221A807B6800225A807B6801223A
:101230001A717B686422DA807B68FA2292001A8134
:101240007B68054A5A817B688022D2019A817B683B
:101250001800BD4602B080BD00C0FFFFB0B598B019
:1012600002AF78607B680E331800FFF7D5FF7B680C
:101270001800FFF7FFFA214A7B681A607B680E337B
:101280001A007B68DA617B68012252421A637B682C
:1012900034220021995401F0B5FC03001A007B6848
:1012A0009A6301F0B7FC7B68180001F0D2FC0300E0
:1012B0001A0001235340DBB2002B15D048217B18C4
:1012C0000F4A31CA31C312881A807B180C2438198E
:1012D00069469A890A8019685A689B6801F04AFD34
:1012E0003B19180001F08EFD7B681800FFF72CFBFE
:1012F0007B681800BD4616B0B0BDC046B076000889
:101300009C75000880B582B000AF786039607B685A
:1013100001221A707B6802229B18142200211800F7
:1013200006F0CBF87B6816229B18142200211800C7
:1013300006F0C3F87B682A229B18142200211800AB
:1013400006F0BBF87B683E229B181422002118008F
:1013500006F0B3F87B6852229B180A22002118007D
:1013600006F0ABF87B683A68DA657B68602200219A
:1013700099547B6864337A681100180001F066FDA7
:101380007B6870337A681100180001F079FD7B6882
:101390001800BD4602B080BD80B500AF014B1800FB
:1013A000BD4680BD0020024090B583B000AF020072
:1013B000FB1D1A70FB1D1B7807221340DCB2FFF7E0
:1013C000EBFF0300072222401968072081430A43EC
:1013D0001A60C046BD4603B090BD000080B582B023
:1013E00000AF78607B681800FFF744FA064A7B6814
:1013F0001A607B6800221A617B6800225A617B6850
:101400001800BD4602B080BDC876000890B587B010
:1014100002AFF860B9607A60FB6800221A70FB685E
:10142000BA685A60FB687A689A60FB680C331A00E5
:10143000BB6826331900100001F03CFDFB68103337
:10144000180001F044FDFB6814331800FB680C33EE
:101450001900FB6810331A007B6814241B5F01F02D
:1014600055FDFB6830331800FB680C3319007B68AE
:10147000DB8A1A0001F084FDFB6848331800FB6822
:101480000C3319007B68DB8A1A0001F09FFDFB68B2
:1014900064331800FB680C331900FB6830331A0002
:1014A000FB68103301F0BEFDFB6878331800FB6861
:1014B0000C331900FB6810331A0001F0CBFDFB68F8
:1014C00084331800FB6814331900FB6830331A00AA
:1014D000FB6848331C00FB6810330093230001F0C5
:1014E000CDFDFB689C331800FB680C331900FB68CA
:1014F00010331A007B6818331C007B681A33009382
:10150000230001F0DCFDFB68B0331800FFF766FF35
:10151000FB68C82200219954FB68C9220021995414
:10152000FB68CA2201219954FB68CB2200219954FF
:10153000FB680C33180001F0DDFDFB681800BD46A8
:1015400005B090BD90B585B000AF786039600824D3
:101550003B193A681100180001F0E0FD3A197B6868
:101560001100180001F064FEC046BD4605B090BDF4
:1015700090B583B000AF78607B685C6801F068FE6E
:1015800003001900242301220A401001E25C10210B
:101590008A43111C021C0A43E2547B685C6801F018
:1015A00063FE03001900242301220A409001E25C3B
:1015B00040218A43111C021C0A43E2547B685C6888
:1015C00001F060FE03001900242301220A405001AB
:1015D000E25C20218A43111C021C0A43E2547B680E
:1015E0005C6801F05EFE0300190024230122114013
:1015F0000800E25C01218A43111C021C0A43E254E8
:101600007B685C6801F05CFE030019002423012262
:101610000A409018E25C02218A43111C021C0A4312
:10162000E2547B685C6801F05AFE03001900242331
:1016300001220A40D000E25C08218A43111C021CEE
:101640000A43E25401F05AFE031E03D101F065FE85
:10165000031E01D0012100E000217B685B68242289
:10166000012001408C00995C04208143081C211C4E
:10167000014399547B685B6824229B5C1B07DB0F4A
:10168000DBB2002B05D07B6810330021180001F07D
:1016900052FE7B6810331A007B685C68100001F012
:1016A0005DFE030063847B685A687B685B68127C1C
:1016B0001207D20FD2B226215B1801210A40500135
:1016C0005A7820218A43111C021C0A435A707B68F5
:1016D00048331A007B685C68100001F04BFE030081
:1016E0001A002623E318D0015A787F210A40111CE2
:1016F000021C0A435A707B685B687A68CA21525C94
:1017000026215B1801210A4090015A7840218A4322
:10171000111C021C0A435A7001F036FE0300190026
:101720007B685B6801224A40D2B226215B18012106
:101730000A40D0005A7808218A43111C021C0A432F
:101740005A707B68DB681B781B07DB0FDBB201225A
:101750005340DBB2002B0CD07B68DB681B78DB06C8
:10176000DB0FDBB201225340DBB2002B01D00122A0
:1017700000E000227B685B6826215B1801210A409B
:1017800010015A7810218A43111C021C0A435A7016
:101790007B681B78052B00D9A1E29A00D44BD318A3
:1017A0001B689F467B68CA229B5C01225340DBB2C8
:1017B000002B12D07B687833180001F0F3FD7B68B2
:1017C00002221A707B685B682622995C072081439D
:1017D000081C0121014399547CE201F0F8FD031E2D
:1017E00012D07B687833180001F0FEFD7B6805227B
:1017F0001A707B685B682622995C07208143081C6D
:1018000005210143995465E201F022FD031E00D138
:1018100060E27B687833180001F0F2FD7B68783372
:10182000180001F09DFE031E27D07B68CA2200210C
:1018300099547B685B687A68CA21525C26215B18E0
:1018400001210A4090015A7840218A43111C021C50
:101850000A435A707B687833180001F0A3FD7B6857
:1018600002221A707B685B682622995C07208143FC
:10187000081C0121014399542CE27B68783318003D
:1018800001F07CFE031E12D07B687833180001F053
:10189000ABFD7B6805221A707B685B682622995C29
:1018A00007208143081C05210143995412E201F0ED
:1018B00073FE031E03D101F07EFE031E01D001233F
:1018C00000E00023002B00D104E27B68C922012143
:1018D00099547B68CA22012199547B685B687A68B5
:1018E000CA21525C26215B1801210A4090015A78D6
:1018F00040218A43111C021C0A435A707B687833CA
:10190000180001F071FD7B6805221A707B685B6826
:101910002622995C07208143081C05210143995424
:10192000D8E17B68CA229B5C002B0DD07B6801222A
:101930001A707B685B682622995C07208143081C2B
:10194000032101439954CAE101F026FE031E03D18D
:1019500001F031FE031E01D0012300E00023002B23
:101960002BD07B68C922012199547B68CA220121AE
:1019700099547B685B687A68CA21525C26215B189F
:1019800001210A4090015A7840218A43111C021C0F
:101990000A435A707B688433180001F01AFE7B6892
:1019A00005221A707B685B682622995C07208143B8
:1019B000081C05210143995491E101F081FC031EAB
:1019C0000ED07B6810331A007B689B681A215B5E1F
:1019D0001900100001F009FE031E01D0012300E0F0
:1019E0000023002B19D07B688433180001F0F1FD2F
:1019F0007B689B681A229A5E7B681033110018007E
:101A000001F099FC7B6810331A007B685C68100059
:101A100001F0A4FC0300638461E101F042FC031EB9
:101A20000ED07B6810331A007B689B6818215B5EC0
:101A30001900100001F0D9FD031E01D0012300E0C0
:101A40000023002B19D07B688433180001F0C1FDFE
:101A50007B689B6818229A5E7B681033110018001F
:101A600001F069FC7B6810331A007B685C68100029
:101A700001F074FC0300638431E17B685B680A2237
:101A80009B5E002B0CD17B681033180001F066FCC4
:101A9000031E05D101F0C0FD031E01D0012300E0AB
:101AA0000023002B07D07B68CA22012199547B6850
:101AB00001221A7013E17B688433180001F0BBFD2A
:101AC0000DE101F084FC031E14D07B689C331800E8
:101AD00001F00DFE7B6805221A707B685B68262288
:101AE000995C07208143081C052101439954F3E0C8
:101AF000AC75000801F0ACFB031E00D1ECE07B6884
:101B00009C33180001F0FFFD7B689C33180001F046
:101B100063FE031E24D07B689A687B685B6818218B
:101B2000525EDA837B689A687B685B681A21525E32
:101B30001A847B689C33180001F05CFE7B680222EB
:101B40001A707B685B682622995C07208143081C19
:101B50000121014399547B68CB2201219954BBE0B8
:101B600001F01AFD031E03D101F025FD031E01D073
:101B7000012300E00023002B00D1ADE07B68C922E7
:101B8000012199547B68CA22012199547B685B68C2
:101B90007A68CA21525C26215B1801210A40900113
:101BA0005A7840218A43111C021C0A435A707B68F0
:101BB0009C33180001F09BFD7B6805221A707B683E
:101BC0005B682622995C07208143081C052101439C
:101BD000995481E001F0E0FC031E03D101F0EBFC1D
:101BE000031E06D07B68C9229B5C002B01D0012319
:101BF00000E00023002B05D07B686433180001F05F
:101C00000FFE6BE001F0C8FC031E03D101F0D3FC12
:101C1000031E09D07B68C9229B5C01225340DBB2C2
:101C2000002B01D0012300E00023002B39D07B687A
:101C30006433180001F06AFE7B68C92201219954BF
:101C40007B68CA22012199547B68B0331800FEF7E3
:101C500044FE7B68B0331A00FA23DB001900100041
:101C6000FEF72BFE7B685B687A68CA21525C2621EE
:101C70005B1801210A4090015A7840218A43111CC7
:101C8000021C0A435A707B6805221A707B685B68E5
:101C90002622995C07208143081C052101439954A1
:101CA0001CE001F02BFB031E05D001F084FC031E99
:101CB00001D0012300E00023002B0FD07B686433A8
:101CC000180001F0ADFD7B68C9220021995405E0A0
:101CD000C04604E0C04602E0C04600E0C046C04640
:101CE000BD4603B090BDC04680B582B000AF7860FD
:101CF0000A00BB1C1A80BB1C1B88092B00D963E39C
:101D00009A00D24BD3181B689F467B685A687B6841
:101D10005B6852885A837B685B681A331A007B6859
:101D20009B6812881A8256E37B685A687B685B68F6
:101D300092889A839A8B7B689B68D2B29A744AE3A2
:101D40007B685B68DB88D03B5A425341DAB2C04BB8
:101D50001A7040E3BE4B1B78002B0CD0BC4B00220A
:101D60001A707B685A687B685B6812891A837A6884
:101D700092681B8BD381B64B01221A702BE37B68D0
:101D8000180001F0CFFD031E00D11FE37B688433F0
:101D90001A007B685B680A215B5E1900100001F085
:101DA000CFFD13E37B68180001F0BCFD031E09D0D2
:101DB0007B6848331A007B685B689B8A19001000B7
:101DC00001F00EFE7B685A687B685B6892891A8511
:101DD0001B8D1AB27B689A857B689B687A682C2178
:101DE000525E9A82F7E27B685B68D9897B684422FD
:101DF00099527B689B687A684421525ADA82EAE2F7
:101E00007B68180001F095FE031E09D07B685B68B3
:101E10001B7C1B07DB0FDBB2002B01D0012300E092
:101E20000023002B18D07B68180001F08FFE7B6820
:101E30005A687B685B68127C1207D20FD2B22621E7
:101E40005B1801210A4050015A7820218A43111C55
:101E5000021C0A435A70BBE27B68180001F08BFE3B
:101E6000031E3BD07B685B681B7C1B07DB0FDBB270
:101E700001225340DBB2002B1DD07B687833180061
:101E800001F0B2FA7B68180001F083FE7B685A68A3
:101E90007B685B68127C1207D20FD2B226215B18D6
:101EA00001210A4050015A7820218A43111C021C4A
:101EB0000A435A708FE27B685B681B7C07221340E1
:101EC000DBB2022B00D083E27B687833180001F08C
:101ED00069FA7B68180001F06EFE79E27B681800F1
:101EE00001F07EFE031E29D07B685B681B7C1B070C
:101EF000DB0FDBB201225340DBB2002B00D167E2E3
:101F00007B689C33180001F0F2FB7B68180001F03D
:101F100040FE7B685A687B685B68127C1207D20FB0
:101F2000D2B226215B1801210A4050015A782021A3
:101F30008A43111C021C0A435A7049E27B6818004C
:101F400001F0F0FC031E00D1A0E07B685B681B7C05
:101F50001B07DB0FDBB201225340DBB2002B1DD08D
:101F60007B688433180001F034FB7B68180001F0B3
:101F700010FE7B685A687B685B68127C1207D20F80
:101F8000D2B226215B1801210A4050015A78202143
:101F90008A43111C021C0A435A701CE27B685B686E
:101FA0001B7CDB06DB0FDBB2002B07D17B685B6899
:101FB0001B7C9B06DB0FDBB2002B04D07B688433D9
:101FC000180001F01BFE7B685B685B7C5B07DB0F26
:101FD000DBB2002B10D07B685B685B7C1B07DB0FE0
:101FE000DBB201225340DBB2002B05D07B68843387
:101FF000180001F01DFE17E07B685B685B7C1B0727
:10200000DB0FDBB2002B0FD07B685B685B7C5B0770
:10201000DB0FDBB201225340DBB2002B04D07B6824
:102020008433180001F041FE7B685B681B7C07224B
:102030001340DBB2022B0DD17B688433180001F012
:10204000DDFD7B68180001F0B6FDC1E1C475000834
:10205000880200207B685B681B7C07221340DBB290
:10206000042B00D0B4E17B68CB229B5C012253405F
:10207000DBB2002B00D1ABE17B688433180001F0A8
:10208000BDFD7B68180001F04DFEA1E17B681800E2
:1020900001F05DFE031E00D126E17B685B681B7CBE
:1020A0001B07DB0FDBB201225340DBB2002B1DD03C
:1020B0007B686433180001F029FC7B68180001F08C
:1020C00068FD7B685A687B685B68127C1207D20FD8
:1020D000D2B226215B1801210A4050015A782021F2
:1020E0008A43111C021C0A435A7074E17B685B68C6
:1020F0001B7CDB06DB0FDBB2002B04D07B68643378
:10210000180001F032FE7B685B681B7C9B06DB0FCE
:10211000DBB2002B04D07B686433180001F035FE7D
:102120007B685B685B7C5B07DB0FDBB2002B1BD043
:102130007B685B685B7C1B07DB0FDBB201225340D3
:10214000DBB2002B10D07B685B681B7C9B06DB0F2F
:10215000DBB201225340DBB2002B05D07B68643335
:10216000180001F01FFE22E07B685B685B7C1B07A8
:10217000DB0FDBB2002B1AD07B685B685B7C5B07F4
:10218000DB0FDBB201225340DBB2002B0FD07B68A8
:102190005B681B7C9B06DB0FDBB201225340DBB28A
:1021A000002B04D07B686433180001F008FE7B68C4
:1021B0005B681B7C40221340DBB2002B05D17B689F
:1021C0006433180001F008FE0CE07B685B681B7C40
:1021D00040221340DBB2002B04D07B68643318002C
:1021E00001F007FE7B685B681B7C7F229343DBB2B8
:1021F000002B05D17B686433180001F007FE0CE06A
:102200007B685B681B7C7F229343DBB2002B04D08E
:102210007B686433180001F006FE7B685B685B7CBA
:10222000DB07DB0FDBB2002B1BD07B685B685B7CC2
:102230009B07DB0FDBB201225340DBB2002B10D037
:102240007B685B681B7CDB06DB0FDBB20122534043
:10225000DBB2002B05D07B686433180001F0F0FD81
:1022600022E07B685B685B7C9B07DB0FDBB2002BAB
:102270001AD07B685B685B7CDB07DB0FDBB201227B
:102280005340DBB2002B0FD07B685B681B7CDB0606
:10229000DB0FDBB201225340DBB2002B04D07B68A2
:1022A0006433180001F008FE7B685B681B7C072222
:1022B0001340DBB2012B09D101F020F8031E05D039
:1022C00001F02BF8031E01D0012300E00023002BB6
:1022D00000D17DE07B686433180001F026FE7B6846
:1022E000180001F039FE73E07B68180001F049FE28
:1022F000031E00D16CE07B685B681B7C07221340E7
:10230000DBB2022B0AD17B68B0331800FEF7F4FA77
:10231000031E03D07B68180001F04DFC7B685B68EE
:102320001B7C1B07DB0FDBB201225340DBB2002B0F
:102330004ED07B68180001F02CFC7B685A687B68E3
:102340005B68127C1207D20FD2B226215B180121E2
:102350000A4050015A7820218A43111C021C0A436A
:102360005A7035E07B68180001F0F1FC031E31D093
:102370007B685B68DB7C5B06DB0FDBB2002B0DD080
:102380007B6864331A007B685B685B8A9B049B0CE8
:102390009BB21900100001F002FE1BE07B685B6835
:1023A000DB7C1B06DB0FDBB2002B13D07B686433B6
:1023B0001A007B685B685B8A9B049B0C9BB21900CC
:1023C000100001F028FE05E0C04604E0C04602E02F
:1023D000C04600E0C046C046BD4602B080BDC04613
:1023E000F0B58BB000AF786039607B6860229B5C91
:1023F000DBB2002B00D1D5E27B686022002199542A
:102400002723FB1800221A702623FB1801221A70BA
:102410007B68DB6D180001F03AFE03003B6212237B
:10242000FB1800221A801E23FB1800221A801C238E
:10243000FB1800221A801A23FB1800221A80192385
:10244000FB1801221A702622BB181B78002B00D122
:10245000A8E2BB181B780A2BF5D89A00CA4BD318F0
:102460001B689F467B68DB6D1A787B681B789A42F5
:1024700004D07B68DB6D1B78002B04D12623FB186E
:1024800002221A708DE22623FB180A221A7088E2B3
:102490003B6A072B01D9032200E00A222623FB18FE
:1024A0001A707EE27B68DB6D1A003B6ADBB2023B8E
:1024B000DBB212257C1919001000FEF75FFA030049
:1024C000238028003B181B88DAB27B68D96D3B6AF1
:1024D000023BCB5C9A420AD13B181B881B12DAB232
:1024E0007B68D96D3B6A013BCB5C9A4204D02623C2
:1024F000FB180A221A7054E22623FB1804221A70D1
:102500004FE27B68DB6D9B781B021AB27B68DB6D48
:10251000DB781BB213431AB21E217B181A807B682A
:10252000DB6D1B791B021AB27B68DB6D5B791BB21A
:1025300013431AB21A203B181A807A183B181288D3
:102540001B88D3189AB21C23FB18013A1A807B68A7
:10255000DB6D5B78032B04D12623FB1805221A7050
:102560001FE27B68DB6D5B78102B04D12623FB1800
:1025700006221A7015E22723FB1801221A7026235F
:10258000FB1808221A700CE23B6A082B04D02623A1
:10259000FB180A221A7004E21C23FB181B88092B63
:1025A00008D92723FB1802221A702623FB180822B9
:1025B0001A70F6E11A23FB181B885B003B627B68EC
:1025C000DB6D3A6AD2B29A701823FB1800221A7097
:1025D00018203B181A781A23FB181B889A422DDA08
:1025E0001E243B191A883B181B78D3187A680833C5
:1025F0005B00D31806331B8819127B68DA6D3B1811
:102600001B785B000333C9B2D1543B191A883B18BD
:102610001B78D3187A6808335B00D31806331988FF
:102620007B68DA6D3B181B7802335B00C9B2D1546A
:102630003B183A18127801321A70C9E73B6A033323
:102640003B622623FB1809221A70AAE11A23FB1801
:102650001B885B0009333A6A9A4204D02623FB1890
:102660000A221A709DE11C23FB181B88092B08D92C
:102670002723FB1802221A702623FB1808221A703F
:102680008FE12623FB1807221A708AE11923FB1811
:1026900001221A701623FB1800221A8016257A19B7
:1026A0001A23FB1812881B889A4200D3CEE07B19AC
:1026B0001A881E203B181B88D3187A685221D31819
:1026C0005B181B78002B61D07B68DA6D7B191B8847
:1026D0005B000733D35C1B0219B27B68DA6D7B1990
:1026E0001B8804335B00D35C1AB210243B190A43E5
:1026F0001A801923FB1819787B191A8806003B18D1
:102700001B88D3187A6814335B00D31802331B88F4
:102710001BB23A190020125ED417D80F9A424441D6
:102720002300DBB21A000A4019203B18511E8A41CF
:102730001A703B181B787A191188BA1912888A18EE
:1027400079681C3252008A180632128812B210249C
:1027500039190020095E91420CDD7A191188BA19E5
:1027600012888A1879681C3252008A180632128838
:10277000002A01D1012200E000221A401923FB188F
:10278000511E8A411A705AE0EC7500087B68DA6DB8
:1027900016243B191B885B000733D35C1B021AB25B
:1027A0007B68D96D3B191B8804335B00CB5C1BB283
:1027B00013431AB20E257B191A801926BB191A78F1
:1027C0003B1919881E203B181B88CB1879681433D5
:1027D0005B00CB18023319887B19188800238842C4
:1027E0005B41DBB21A40BB19511E8A411A70BB19FA
:1027F0001B783A1911881E203A1812888A187968AD
:102800001C3252008A1806321288791909889142BE
:102810000CD93A1911883A1812888A1879681C322A
:1028200052008A1806321288002A01D1012200E0E3
:1028300000221A401923FB18511E8A411A701622D1
:10284000BB18BA18128801321A8027E71923FB181F
:102850001B78002B4BD01523FB1800221A70152073
:102860003B181A781A23FB181B889A4225DA7B68D2
:10287000DA6D3B181B785B000733D35C1B021AB27E
:102880007B68D96D3B181B7804335B00CB5C1BB2B3
:10289000134319B21E23FB181A883B181B78D31850
:1028A00089B27A685B00D31802330A1C1A803B187D
:1028B0003A18127801321A70D1E71E217A181C23B7
:1028C000FB1812881B889A420AD87B181B887A1832
:1028D000591C11803A0019001000FEF72AF9ECE7A4
:1028E00006233B622623FB1809221A7059E027238E
:1028F000FB1803221A702623FB1808221A7050E0D6
:102900007B68DB6D5A787B68DB6D802149420A4326
:10291000D2B25A707B68DB6D2722BA1812789A708F
:1029200003233B622623FB1809221A7039E07B68D7
:10293000DB6D1A003B6ADBB212257C19190010000E
:10294000FEF71CF8030023802C003B191B88D8B22B
:102950007B68DA6D3B6A591C3962011CD1543B1902
:102960001B881B12D8B27B68DA6D3B6A591C39622E
:10297000011CD1547B68DB6D3A6A1100180001F02C
:1029800094FB2623FB1800221A700AE07B68DB6D9B
:10299000180001F0A0FB2623FB1800221A7000E0AB
:1029A000C04650E5C046BD460BB0F0BD80B500AF97
:1029B000014B1800BD4680BD0038014080B500AF16
:1029C000014B1800BD4680BD0030014080B500AF0E
:1029D000014B1800BD4680BD0800024080B500AF25
:1029E000014B1800BD4680BD1C00024080B500AF01
:1029F000014B1800BD4680BD3000024080B500AFDD
:102A0000014B1800BD4680BD4400024080B500AFB8
:102A1000014B1800BD4680BD5800024080B582B011
:102A200000AF786039607B683A681A607B6818008C
:102A3000BD4602B080BD000080B500AF014B18005C
:102A4000BD4680BD10E000E090B583B000AF786077
:102A50007C68FFF7F1FF03005C60C046BD4603B031
:102A600090BD80B500AFFFF7E7FF030000229A603A
:102A7000C046BD4680BD90B583B000AF0200FB1DCF
:102A80001A70FB1D1B7801221340DCB2FFF7D4FF44
:102A900003000122224092001968042081430A4366
:102AA0001A60C046BD4603B090BD80B500AFFFF7C9
:102AB000C3FF03001A6802210A431A60C046BD46DC
:102AC00080BD80B500AFFFF7B7FF03001A68012192
:102AD0000A431A60C046BD4680BD000080B500AF05
:102AE00001F008FB0300024A1A60C046BD4680BDE3
:102AF0005F0A020080B500AF014B1800BD4680BDE3
:102B0000002C014080B500AFFFF7F4FF03001A8AE4
:102B100008218A431A82C046BD4680BD80B500AFF9
:102B2000014B1800BD4680BD0004004080B500AFD9
:102B3000FFF7F4FF03001A8A08218A431A82C0466D
:102B4000BD4680BD80B500AF014B1800BD4680BDBD
:102B50000020004080B500AFFFF7F4FF03001A8AA1
:102B600008218A431A82C046BD4680BD80B500AFA9
:102B7000014B1800BD4680BD0044014080B500AF48
:102B8000FFF7F4FF03001A8A08218A431A82C0461D
:102B9000BD4680BD80B500AF014B1800BD4680BD6D
:102BA0000048014080B500AFFFF7F4FF03001A8A28
:102BB00008218A431A82C046BD4680BD80B500AF59
:102BC00001F0A0FAC046BD4680BD80B500AF01F05F
:102BD000A9FAC046BD4680BD80B500AF01F0B2FA8B
:102BE000C046BD4680BD80B500AF01F0BDFAC0460D
:102BF000BD4680BD80B500AF01F0C8FAC046BD46F5
:102C000080BD000080B500AF014B1800BD4680BDFF
:102C1000007C000880B500AFFEF7BEFB03001A6918
:102C200080210A431A61C046BD4680BD80B582B08E
:102C300000AF78607B681800BD4602B080BD80B5EB
:102C400082B000AF78607B680E331800BD4602B0DA
:102C500080BDF0B58BB000AF78607B6820330E226A
:102C6000FF21180004F029FC7B68012252421A63FC
:102C70000823FB1818000E231A00002104F01DFC85
:102C80007B689B6B3B623B6A7B623B6A8022D20023
:102C900094466344FB617A6AFB699A4226D07B6A58
:102CA000BB617B681B6B5A1C7B681A63BB691B7812
:102CB0000D2B12D8BB691B781800BB6959787B684B
:102CC00020221B189B180A1C1A70BB691B781A005B
:102CD0000823FB180121995403E0BB691B78FF2BE3
:102CE00003D07B6A02337B62D5E7C0467B689B6B6F
:102CF000180001F05DFA02007B681B6B5B00D418C2
:102D00007B689B6B180001F05CFA0300321C190011
:102D1000200001F063FA03001A0001235340DBB2E4
:102D2000002B05D07B6834220121995400231CE03C
:102D30000826BB191800FFF779FF0400BB1918001B
:102D4000FFF77DFF03002A1C1900200001F05DFA47
:102D5000031E09D07B68D8697B6820330E221900D6
:102D600004F0A2FB012300E000231800BD460BB0D5
:102D7000F0BD000084B090B5C64600B582B000AF8B
:102D8000786004201024A4460824A046B844C44413
:102D900060440160426083607B680E220421102041
:102DA000844608208046B844C44461449B180E22DF
:102DB000180004F079FB7B681800FDF75BFD104AF2
:102DC0007B681A607B680E331A007B68DA617B6867
:102DD000012252421A637B68342200219954FFF782
:102DE00011FF03001A007B689A637B681800BD46D8
:102DF00002B004BC904690BC08BC04B01847C04662
:102E0000B076000880B582B000AF7860054A7B6874
:102E10001A607B681800FDF77FFD7B681800BD46CF
:102E200002B080BDB076000880B582B000AF786097
:102E3000054A7B681A607B6800225A607B6818002C
:102E4000BD4602B080BDC046BC76000880B582B0E9
:102E500000AF786039607B681800FFF7E5FF074A2C
:102E60007B681A607B683A689A607B68180001F09A
:102E7000E3F97B681800BD4602B080BDA476000867
:102E800080B582B000AF786039607B681800FFF7CA
:102E9000CBFF074A7B681A607B683A689A607B6858
:102EA000180001F0E9F97B681800BD4602B080BD4A
:102EB0009876000880B582B000AF786039607B6892
:102EC0003A681A607B681800BD4602B080BD80B5C4
:102ED00082B000AF786001F0EFF901F0F4F901F091
:102EE000F9F901F0FEF901F009FA01F015FA01F023
:102EF00021FA01F02DFA01F03DFA01F049FA01F052
:102F000051FA7B681800BD4602B080BD80B584B020
:102F100000AFF860B9607A601A00BB1C1A80FB68C9
:102F20001800FFF781FF154AFB681A60FB68002252
:102F30001A72FB6800225A72FB6800225A81FB68F1
:102F4000BA68DA60FB687A681A61FB6800229A82C4
:102F5000FB680022DA82FB68BA1C12881A837B683D
:102F6000180001F031FA0200FB681900100001F0AE
:102F70003AFAFB681800BD4604B080BD8C760008A4
:102F800080B584B000AFF860B960BB1D1A80FB68E3
:102F90001800FDF75BFC0C4AFB681A60FB68002216
:102FA0001A73FB6800225A73FB680022DA81FB68FF
:102FB000BA681A61FB68BA1D12889A82FB68180009
:102FC000BD4604B080BDC0468076000880B584B0A0
:102FD00000AFF860B960BB1D1A80FB681800FDF7F0
:102FE00035FC0F4AFB681A60FB6800221A73FB6805
:102FF00000225A73FB680022DA81FB68BA681A6102
:10300000FB6800229A82FB6800229A75FB68BA1D51
:1030100012881A83FB681800BD4604B080BDC04604
:103020007476000880B584B000AFF860B9607A604B
:103030003B60FB6800221A70FB68BA685A60FB6844
:103040007A689A60FB683A68DA60FB681800BD46E7
:1030500004B080BD80B584B000AFF860B9607A601C
:10306000FB6800221A70FB68BA685A60FB687A68CD
:103070009A60FB681800BD4604B080BD80B584B07E
:1030800000AFF860B9607A603B60FB68BA681A60AC
:10309000FB687A685A60FB683A689A60FB68BA69AC
:1030A000DA60FB6800221A82FB6800225A82FB6801
:1030B00000221A75FB681800BD4604B080BD80B5BB
:1030C00084B000AFF860B9607A603B60FB680022B2
:1030D0001A70FB68BA685A60FB687A689A60FB6885
:1030E0003A68DA60FB68BA691A61FB681800BD4685
:1030F00004B080BD80B582B000AF786001F080F987
:1031000001F085F901F08AF901F08FF901F094F9E5
:1031100001F099F9C046BD4602B080BD80B584B0CB
:1031200000AF786039603B681B7838221340DBB20F
:10313000082B3ED03B681B7838221340DBB2102BA3
:1031400034D03B681B7838221340DBB2182B2AD0CE
:103150003B681B7838221340DBB2202B20D03B6821
:103160001B7838221340DBB2282B16D03B681B7823
:1031700038221340DBB2302B0CD03B681B7838224E
:103180001340DBB2382B02D1E1235B0213E096231C
:103190009B0110E096235B020DE0E1231B020AE095
:1031A00096231B0207E0E123DB0104E09623DB0109
:1031B00001E0E1239B01FB603B681B78DB07DB0F31
:1031C000DBB2002B01D0012200E000220B23FB1810
:1031D0001A703B681B7802221340DBB2002B01D12E
:1031E000002200E001220A23FB181A703B681B78BA
:1031F00004221340DBB2002B01D1002200E00222A6
:1032000009217B181A707B68FA681A607B680B22A8
:10321000BA1812781A717B680A22BA1812785A7191
:103220007B687A1812789A717868BD4604B080BDC0
:1032300080B582B000AF786039607B68DB6D3A683A
:103240001100180001F022F9C046BD4602B080BD51
:1032500080B500AF01F0A5F903001BB29BB2DB0BF8
:10326000DBB21800BD4680BD80B500AF01F099F912
:1032700003001A00022313405A1E9341DBB21800C8
:10328000BD4680BD80B500AF01F08BF903001A0088
:103290008023DB0113405A1E9341DBB21800BD4668
:1032A00080BD80B500AF01F07CF903001A008023D7
:1032B0009B0113405A1E9341DBB21800BD4680BDEE
:1032C00080B500AF01F06DF903001A0080235B01A7
:1032D00013405A1E9341DBB21800BD4680BD80B535
:1032E00000AF01F05EF903001A0080231B011340B8
:1032F0005A1E9341DBB21800BD4680BD80B500AFB9
:1033000001F04FF903001A008023DB0013405A1E1E
:103310009341DBB21800BD4680BD80B500AF01F01F
:1033200040F903001A00042313405A1E9341DBB2F4
:103330001800BD4680BD80B582B000AF78600A003D
:10334000BB1C1A80BB1C1B88180001F034F9BB1C85
:1033500000229B5E1800BD4602B080BD80B582B0E1
:1033600000AF786001F037F903001BB21800BD46CA
:1033700002B080BD80B582B000AF78607B689B7D75
:103380001800BD4602B080BD80B500AF01F02DF938
:1033900003001A00802313405A1E9341DBB2180029
:1033A000BD4680BD80B582B000AF78607B685B6849
:1033B000180001F024F97B685B68180001F036F909
:1033C0007B6800221A70C046BD4602B080BD80B541
:1033D00000AF01F0E6F803001BB2DB439BB2DB0B4E
:1033E000DBB21800BD4680BD80B582B000AF78600A
:1033F0007B681800FFF7D6FFC046BD4602B080BD0F
:1034000080B582B000AF78607B681B78042B00D950
:10341000A0E09A00514BD3181B689F4600F0FCF8BF
:10342000031E2ED0FFF73DFF031E12D07B685B68A2
:10343000180001F00BF97B685B68180001F01CF9BB
:103440007B685B68180001F02DF97B6801221A7017
:103450007BE001F037F9031E00D176E07B685B6802
:10346000180001F03EF97B685B68180001F004F970
:103470007B685B68180001F015F97B6802221A70FE
:1034800063E07B689B6800211800FFF754FF7B68AE
:1034900003221A7059E0FFF722FF031E13D07B6846
:1034A0005B68180001F0ABF87B685B68180001F0FE
:1034B000BDF87B689B6800211800FFF73CFF7B6824
:1034C00003221A7043E0FFF7ECFE031E3FD07B6837
:1034D0005B68180001F093F87B685B68180001F0E6
:1034E000A5F87B6800221A7031E0FFF7F8FE031E92
:1034F00013D07B685B68180001F081F87B685B681B
:10350000180001F093F87B689B6800211800FFF712
:1035100012FF7B6803221A701BE0FFF7D1FE031E27
:1035200017D07B685B68180001F069F87B685B68FE
:10353000180001F07BF87B6804221A7009E07B68B0
:1035400000221A7006E0C04604E0C04602E0C04611
:1035500000E0C046C046BD4602B080BD18760008F7
:1035600080B582B000AF78607B681B78033B5A421D
:103570005341DBB21800BD4602B080BD80B582B0B9
:1035800000AF78607B681B78043B5A425341DBB242
:103590001800BD4602B080BD80B500AF01F001F853
:1035A00003001A008023DB0013405A425341DBB270
:1035B0001800BD4680BD80B500AF00F0F2FF0300EB
:1035C0001A00042313405A425341DBB21800BD468F
:1035D00080BD80B582B000AF78607B68180000F0D5
:1035E0000DFBC046BD4602B080BD80B582B000AFC5
:1035F00078600A00BB1C1A8000F0EDFF03001BB2CC
:10360000BA1C0021525ED31A5A1E9341DBB21BB280
:103610001800BD4602B080BD80B500AF00F0C1FF0C
:1036200003001A0080231B0113405A425341DBB2AE
:103630001800BD4680BD80B582B000AF78607B6861
:103640001B7D012B05D047DD022B12D0032B33D07D
:1036500049E07B681B68180001F059F803001A0064
:1036600001235340DBB2002B38D07B6800221A754F
:1036700034E07B685B68180001F057F803001A001B
:1036800001235340DBB2002B0FD07B685B6818002E
:1036900001F060F8031E06D17B685B68180001F03A
:1036A00064F8031E01D0012300E00023002B17D093
:1036B0007B6800221A7513E07B689B68180001F094
:1036C0005FF803001A0001235340DBB2002B09D03E
:1036D0007B6800221A7505E0C04604E0C04602E09F
:1036E000C04600E0C046C046BD4602B080BD80B5C1
:1036F00082B000AF78607B68180000F07BF8C046AD
:10370000BD4602B080BD90B583B000AF78607B68E5
:103710001B78012B43D002DC002B03D058E0022B96
:1037200018D055E07B685B68180000F0DAFF7B6812
:103730005B68180000F0A0FF7B685B68180000F071
:103740005EFF7B685B68180000F0ACFF7B680222BC
:103750001A703DE0FFF7A5FD031E36D07B685B685D
:10376000180000F063FF7B685B68180000F06EFFD4
:103770007B685B68180000F07FFF7B685B6818005F
:1037800000F090FF7B689A687B68DC681000FFF7A8
:10379000E5FD030023807B6801221A7015E0FFF726
:1037A0008FFD031E13D07B685B68180000F03EFF9E
:1037B0007B689A687B681C691000FFF7CFFD0300E7
:1037C00023807B6803221A7001E0C04600E0C046F7
:1037D000C046BD4603B090BD80B582B000AF7860F2
:1037E0007B681B78033B5A425341DBB21800BD464D
:1037F00002B080BD80B582B000AF78607B685B6846
:10380000180000F0FCFE7B685B68180000F00EFFFB
:103810007B6800221A70C046BD4602B080BD000021
:1038200080B582B000AF78607B681B78042B00D92C
:1038300065E09A00344BD3181B689F46FFF731FDB3
:10384000031E55D07B68180000F0D3FA7B6818007F
:1038500000F08BFA7B6800221A7049E0FFF730FD18
:10386000031E47D07B68180000F0C3FA7B6818007D
:1038700000F07BFA7B6800221A703BE07B68DA6814
:103880007B6810215B5E1900100000F08EFF031EA4
:1038900003D1FFF715FD031E01D0012300E0002333
:1038A000002B29D07B68180000F05FFA7B680022AB
:1038B0001A7021E07B68DA687B6810215B5E190072
:1038C000100000F08AFF031E03D1FFF7EAFC031E7D
:1038D00001D0012300E00023002B0FD07B681800EB
:1038E00000F043FA7B6800221A7007E0C04606E049
:1038F000C04604E0C04602E0C04600E0C046C04604
:10390000BD4602B080BDC0462C76000880B582B0AE
:1039100000AF78607B68180000F007FBC046BD462A
:1039200002B080BD80B582B000AF78607B681B7844
:10393000023B5A425341DBB21800BD4602B080BD83
:1039400080B582B000AF78600A00BB1C1A807B682B
:10395000BA1C12881A827B681B7D012B2FD038DCA1
:10396000002B00D038E07B685B68180000F0DDFEBB
:1039700003001A0001235340DBB2002B0FD07B68F9
:103980005B68180000F0E6FE031E06D17B685B68EA
:10399000180000F0EAFE031E01D0012300E000231E
:1039A000002B18D07B681A68BB1C00215B5E1900D5
:1039B000100000F06FFF7B6801221A750BE07B6836
:1039C0001A68BB1C00215B5E1900100000F062FF4A
:1039D00002E0C04600E0C046C046BD4602B080BD21
:1039E00080B582B000AF78600A00BB1C1A807B688B
:1039F0009B7D01225340DBB2002B00D189E0BB1C30
:103A00001B88002B00D184E0FFF722FC03001A0082
:103A100001235340DBB2002B0FD0FFF725FC03003E
:103A20001A0001235340DBB2002B06D07B681B7BBE
:103A3000DBB2002B01D1012300E00023002B10D0CA
:103A40007B681B69180001F025FA7B6801221A7354
:103A50007B68BA1C12889A827B68180001F030FAE1
:103A600062E0FFF701FC031E06D07B681B7BDBB224
:103A7000002B01D1012300E00023002B10D07B6834
:103A80001B69180001F036FA7B6802221A737B6802
:103A9000BA1C12889A827B68180001F011FA43E080
:103AA000FFF7D6FB031E06D07B681B7BDBB2002B27
:103AB00001D1012300E00023002B03D07B6800220A
:103AC0001A7331E07B681B7BDBB2043B5A425341E3
:103AD000DBB2002B03D07B6804221A7324E07B68DE
:103AE0001B7BDBB2053B5A425341DBB2002B03D0B8
:103AF0007B6805221A7317E07B681B7BDBB2033BF4
:103B00005A425341DBB2002B0ED07B6803221A735A
:103B10000AE0BB1C1B88002B07D17B6800229A752A
:103B20007B6800221A7300E0C046C046BD4602B062
:103B300080BD80B582B000AF78607B681B785A4248
:103B40005341DBB21800BD4602B080BD80B582B0E3
:103B500000AF78607B6801221A707B685B68262260
:103B6000995C07208143081C032101439954C046F6
:103B7000BD4602B080BD80B582B000AF78607B6882
:103B80001B78013B5A425341DBB21800BD4602B0DC
:103B900080BD80B582B000AF78607B6800221A706B
:103BA0007B685B682622995C072081439954C04654
:103BB000BD4602B080BD80B582B000AF78607B6842
:103BC00004221A707B685B682622995C0720814377
:103BD000081C022101439954C046BD4602B080BD75
:103BE00080B582B000AF78607B681B78033B5A4297
:103BF0005341DBB21800BD4602B080BD80B582B033
:103C000000AF78607B681B68180001F089F97B6859
:103C10005B68180001F0A1F97B689B68180001F04F
:103C2000B4F97B6800221A75C046BD4602B080BD5B
:103C300080B582B000AF78607B681B7D012B2DD0F2
:103C400002DC002B03D02CE0022B15D029E07B688E
:103C50005B68180000F07EFD03001A00012353404A
:103C6000DBB2002B04D07B685B68180001F0A5F97B
:103C70007B6802221A7514E07B685B68180000F00C
:103C800069FD03001A0001235340DBB2002B07D06B
:103C90007B685B68180001F090F901E0C04600E025
:103CA000C046C046BD4602B080BD80B582B000AF00
:103CB00078607B681B7D012B2DD002DC002B03D0AC
:103CC0002CE0022B15D029E07B685B68180000F01F
:103CD0004CFD03001A0001235340DBB2002B04D03B
:103CE0007B685B68180001F0C1F97B6802221A75D5
:103CF00014E07B685B68180000F037FD03001A00D1
:103D000001235340DBB2002B07D07B685B681800AF
:103D100001F0ACF901E0C04600E0C046C046BD4637
:103D200002B080BD80B582B000AF78607B680322AE
:103D30001A707B685B682622995C07208143081C07
:103D4000042101439954C046BD4602B080BD80B5F0
:103D500082B000AF78607B681B78043B5A425341C5
:103D6000DBB21800BD4602B080BD80B582B000AFA6
:103D700078607B685B68180000F058FC7B68002264
:103D80001A70C046BD4602B080BD80B582B000AF9B
:103D900078607B689B68180001F0DFF8C046BD467C
:103DA00002B080BD80B582B000AF78607B689B6850
:103DB000180001F002F9C046BD4602B080BD80B5D2
:103DC00082B000AF78607B689B68180001F04EF904
:103DD000C046BD4602B080BD80B582B000AF7860FD
:103DE0007B685B68180001F09AF9C046BD4602B0D6
:103DF00080BD80B582B000AF78607B685B681800DA
:103E000000F0FDFBC046BD4602B080BD80B582B06B
:103E100000AF78607B685B68180000F02DFCC0463E
:103E2000BD4602B080BD80B582B000AF78607B68CF
:103E30005B68180001F089F9C046BD4602B080BD3C
:103E400080B582B000AF78607B681B78042B2CD8DB
:103E50009A00184BD3181B689F4600F033FC031ED2
:103E600022D07B685B68180000F03BFC7B685B68D5
:103E7000180000F017FC7B6801221A7014E07B68C0
:103E80005B68180000F0D2FB7B685B68180000F0EC
:103E900028FC7B685B68180000F004FC7B6801224A
:103EA0001A7002E0C04600E0C046C046BD4602B0FF
:103EB00080BDC0464076000880B582B000AF786013
:103EC0007B681B78012B18D002DC002B03D028E084
:103ED000042B26DC25E001F04EF9031E20D07B6880
:103EE0005B68180000F0B2FB7B685B68180000F0AC
:103EF000D9FB7B6802221A7012E07B685B681800AD
:103F000000F094FB7B685B68180000F09FFB7B6807
:103F10005B68180000F0C6FB7B6802221A7000E0A4
:103F2000C046C046BD4602B080BD80B582B000AF7D
:103F300078607B681800FFF75CFF7B681800FFF76C
:103F400014FF7B681800FFF720FF7B6800221A70BF
:103F5000C046BD4602B080BD80B582B000AF78607B
:103F60007B6802221A707B685B682622995C0720B6
:103F70008143081C012101439954C046BD4602B04B
:103F800080BD80B582B000AF78607B681B78053B50
:103F90005A425341DBB21800BD4602B080BD80B525
:103FA00082B000AF78600A00BB1C1A807B681B7867
:103FB000002B2CD17B68DB681800FFF7CFF90300DA
:103FC0001A007B681A827B6810229B5E9AB2BB1C27
:103FD0001B88D31A9BB21AB27B681A827B681800BE
:103FE000FFF714FF7B681800FFF703FFBB1C1B885B
:103FF000002B09D07B685B68180000F027FB7B680A
:104000005B68180000F04EFB7B6803221A70C04604
:10401000BD4602B080BD80B582B000AF78600A00B6
:10402000BB1C1A807B681B78002B2CD17B68DB685B
:104030001800FFF793F903001A007B681A827B6867
:1040400010229B5E9AB2BB1C1B88D3189BB21AB27B
:104050007B681A827B681800FFF7D8FE7B6818001F
:10406000FFF7C7FEBB1C1B88002B09D07B685B6871
:10407000180000F036FB7B685B68180000F012FB4C
:104080007B6804221A70C046BD4602B080BD80B570
:1040900082B000AF786001F07DF803001A00FF23C2
:1040A0009B1A1800BD4602B080BD80B582B000AF3B
:1040B00078603960FCF72AF901F076F801F08CF8A5
:1040C0003B689BB2180001F09FF801F0ADF8C046C4
:1040D000BD4602B080BD80B582B000AF786001F00F
:1040E00063F8FF2001F0ACF801F0BAF8C046BD4615
:1040F00002B080BD80B500AF014B1800BD4680BD49
:104100002038014080B582B000AF0F237B6001F002
:10411000B3F803001A680F210A431A60C046BD466F
:1041200002B080BD80B582B000AFF0237B6001F0AB
:10413000A3F803001A68F0210A431A60C046BD467E
:1041400002B080BD80B582B000AFF0231B017B6060
:1041500001F092F803001A68F02109010A431A607D
:10416000C046BD4602B080BD80B582B000AFF0232E
:104170001B027B6001F080F803001A68F02109023D
:104180000A431A60C046BD4602B080BD80B582B009
:1041900000AFF0231B037B6001F06EF803001A6888
:1041A000F02109030A431A60C046BD4602B080BD33
:1041B00080B582B000AF78607B681800BD4602B061
:1041C00080BD80B582B000AF78607B688022D2006D
:1041D000944663441800BD4602B080BD90B585B0DA
:1041E00000AFF860B9603B1D1A70B968FB68221C0B
:1041F000180001F049F80200BB689B1A5A4253416B
:10420000DBB21800BD4605B090BD90B585B000AFDB
:10421000F860B9603B1D1A70B968FB68221C180071
:1042200001F047F80200BB689B1A5A425341DBB2C7
:104230001800BD4605B090BD80B584B000AF786071
:104240000C4B1B68FB60FB68002B0BD0FB685B68AA
:10425000002B03D0FB685B68FB60F7E7FB687A68BC
:104260005A6002E0034B7A681A60C046BD4604B04B
:1042700080BDC0468C02002080B584B000AF78605D
:104280000C4B1B68FB60FB68002B0BD0FB685B686A
:10429000002B03D0FB685B68FB60F7E7FB687A687C
:1042A0005A6002E0034B7A681A60C046BD4604B00B
:1042B00080BDC046A802002080B500AF01F00EF816
:1042C000C046BD4680BD80B500AF01F00EF8C046C7
:1042D000BD4680BD80B500AFFCF7A8F9C046BD461D
:1042E00080BD80B500AFFEF705FC03001A6A80218F
:1042F00049000A431A62C046BD4680BD80B500AF82
:10430000FEF7F8FB03009A6807218A4303210A435A
:104310009A60C046BD4680BD80B500AFFEF7EAFB9F
:104320000300DA6970218A4310210A43DA61C0462A
:10433000BD4680BD80B500AFFEF7DCFB03009A6987
:1043400003218A4301210A439A61C046BD4680BDCC
:1043500080B500AFFEF7CEFB03009A6904490A401E
:10436000802149000A439A61C046BD4680BDC046CF
:10437000FFFCFFFF80B500AFFEF7BCFB0300DA696E
:10438000F0218A4350210A43DA61C046BD4680BD10
:1043900080B500AFFEF7AEFB030000225A62C046B4
:1043A000BD4680BD80B500AFFEF7A4FB03001A88B0
:1043B00001210A431A80C046BD4680BD80B500AFCA
:1043C0000E231800BD4680BD80B582B000AF786076
:1043D000FFF7F4FF03001800FBF74CFF7B681800A1
:1043E000BD4602B080BD80B582B000AF7860396054
:1043F0003B68180000F080FFC046BD4602B080BD9B
:1044000080B500AF00F0CFFFC046BD4680BD80B58F
:1044100000AF01F051F8C046BD4680BD80B500AF89
:1044200001F09EF8C046BD4680BD80B500AF01F0EA
:10443000EBF8C046BD4680BD80B500AF01F038F94D
:10444000C046BD4680BD80B500AF01F083F9C046CF
:10445000BD4680BD80B500AF014B1800BD4680BD94
:104460002438014080B500AF014B1800BD4680BD27
:104470002838014080B500AF1B231800BD4680BD21
:1044800080B500AF0A231800BD4680BD90B585B049
:1044900000AF7860396001F0B1F901F0B8F901F0CE
:1044A000BBF93B681B68180001F0BDF93B681B793C
:1044B000012B08D1012001F0CBF93B685B79180092
:1044C00001F0E6F902E0002001F0C2F93B689B79B7
:1044D000180001F0FDF9012001F01AFA012001F0A5
:1044E00034FA01F04FFA01F059FA2A2001F062FA89
:1044F00001F06DFA01F078FA01F083FA012001F081
:104500008DFA01F0A8FA7B68180001F0ABFAFFF70A
:10451000A1FF0300180001F0B2FAFF2000F090FEA6
:1045200008243B1900221A703B1900225A703B19CB
:1045300000229A703B190122DA703B1900221A718D
:104540003B1901225A713B19180001F0A5FA00F03D
:1045500087FE7B68180001F0FFFAFFF783FF030076
:10456000180001F006FB3B1901221A703B190022CA
:104570005A713B19180001F009FB01F067FBFFF7C6
:1045800079FF03001800FBF775FE01F06CFBFFF7E5
:1045900077FF03001800FBF76DFEC046BD4605B06F
:1045A00090BD80B500AF01F06BFB03001B689BB2B0
:1045B0001800BD4680BD90B583B000AF0200BB1DA2
:1045C0001A80BB1D1C88FEF795FA03005C62C0468A
:1045D000BD4603B090BD80B500AFFEF78BFA030077
:1045E0005B6A9BB21800BD4680BD80B500AF01F08C
:1045F0004FFB03001B689BB21800BD4680BD80B511
:1046000082B000AF786001F04BFB7B681B681A78C2
:10461000802149420A431A707B681B685A7801213D
:104620008A435A70C046BD4602B080BD80B582B094
:1046300000AF786001F03BFB7B681B685A7808216B
:104640000A435A70C046BD4602B080BD80B582B0F4
:1046500000AF786001F032FB7B681B681A7840215C
:104660000A431A707B681B681A7820218A431A70E3
:10467000C046BD4602B080BD80B582B000AF786054
:1046800001F023FB7B681B685A7804210A435A70A7
:104690007B681B685A7802218A435A70C046BD461F
:1046A00002B080BD80B582B000AF786001F014FB2D
:1046B0007B681B685A7808218A435A70C046BD46F9
:1046C00002B080BD80B500AFFFF76BFF03001A009A
:1046D00080239B0113405A425341DBB21800BD4670
:1046E00080BD80B582B000AF786001F0FCFA7B68D5
:1046F0001B681A7820210A431A707B681B681A7895
:1047000040218A431A70C046BD4602B080BD80B5C4
:1047100082B000AF78607B681B7ADBB25A1E93418F
:10472000DBB21800BD4602B080BD80B582B000AFDC
:1047300078607B681B7BDBB2002B06D07B681B7B21
:10474000DBB2032B01D0012300E000231800BD469B
:1047500002B080BD80B582B000AF7860FEF778FD12
:1047600003001800BD4602B080BD80B582B000AF26
:104770007860FEF787FD03001800BD4602B080BDDB
:1047800080B582B000AF78607B681B7BDBB2002B0A
:1047900006D07B681B7BDBB2032B01D0012300E03A
:1047A00000231800BD4602B080BD80B582B000AFC6
:1047B00078600A00BB1C1A80FFF70DFF03001BB2D4
:1047C000BA1C0021525ED017D90F9A42484103000B
:1047D000DBB21800BD4602B080BD80B582B000AF2C
:1047E00078600A00BB1C1A80FFF7F5FE03001AB2BE
:1047F000BB1C00215B5ED80FD1179A4248410300D1
:10480000DBB21800BD4602B080BD90B583B000AFEA
:1048100078607B6814229A5E7B680A215B5E9A420C
:1048200010DD7B6814241C5F7B681A697B68182183
:104830005B5E1900100001F08BFA03009C4201DA64
:10484000012300E000231800BD4603B090BD90B5E1
:1048500083B000AF78607B6814229A5E7B680A217F
:104860005B5E9A4210DA7B6814241C5F7B681A69CD
:104870007B6818215B5E1900100001F045FA030007
:104880009C4201DD012300E000231800BD4603B077
:1048900090BD000080B582B000AF78600A00BB1CFC
:1048A0001A807B68BA1C12889A827B6816229B5EEB
:1048B000BA1C0021525E9A4200D1E7E27B681B7A63
:1048C000DBB2052B00D9E1E29A00CD4BD3181B686F
:1048D0009F467B681B69180001F00CFA7B681B6916
:1048E0001800FEF73BFD03001A00BB1C012100204D
:1048F0001B5E934201DB0023191CCBB2002B68D056
:104900007B68DB681800FFF7ECFE7B681A697B6840
:1049100018215B5E1900100001F0F6F903001A007F
:10492000BB1C00215B5ED817D10F934248410300A6
:10493000DBB2002B16D07B68DB681800FFF79CFE0B
:104940007B68DB681800FFF75AFE7B681A69BB1C9E
:1049500000215B5E1900100001F0EAF97B68022279
:104960001A7230E07B681A697B6818215B5E190057
:10497000100001F0C9F903001A00BB1C012100203E
:104980001B5E934201DB0023191CCBB2002B1AD013
:104990007B68DB68180000F0D8FB7B68DB681800D8
:1049A00000F0BDFB7B6818697B6818229B5E9AB299
:1049B000BB1C1B88D3189BB21BB2190001F0B8F9BD
:1049C0007B6801221A727B68DB681800FFF76AFEB9
:1049D00055E27B681B691800FEF7C0FC03001A0053
:1049E000BB1C012100201B5E934201DC0023191C2B
:1049F000CBB2002B00D142E27B68DB681800FFF7E6
:104A000025FE7B681A697B6818215B5E190010001F
:104A100001F09EF903001A00BB1C00215B5ED80F59
:104A2000D1179A4248410300DBB2002B16D07B68B5
:104A3000DB681800FFF720FE7B68DB681800FFF7D3
:104A4000DEFD7B681A69BB1C00215B5E190010004B
:104A500001F06EF97B6804221A7230E07B681A69F3
:104A60007B6818215B5E1900100001F071F90300EA
:104A70001A00BB1C012100201B5E934201DC0023B5
:104A8000191CCBB2002B1AD07B68DB68180000F031
:104A90005CFB7B68DB68180000F041FB7B681869F1
:104AA000BB1C1A887B6818215B5E9BB2D31A9BB231
:104AB0001BB2190001F03CF97B6803221A727B6873
:104AC000DB681800FFF7EEFDD9E17B681A697B68A7
:104AD00018215B5E1900100001F016F903001A009E
:104AE000BB1C00215B5ED80FD1179A4248410300DE
:104AF000DBB2002B1ED07B68DB681800FFF7BCFD23
:104B00007B681A697B6818215B5E1900100001F050
:104B10001FF903001A007B685A817B681A697B6859
:104B20000A215B5E1900100001F002F97B68052282
:104B30001A72ABE17B6818697B6818229B5E9AB297
:104B4000BB1C1B88D3189BB21BB2190001F0F0F8F4
:104B50009CE17B681B691800FEF700FC03001A004B
:104B6000BB1C012100201B5E934201DB0023191CAA
:104B7000CBB2002B15D07B68DB681800FFF73FFD38
:104B80007B68DB681800FFF751FD7B6800221A7212
:104B9000BB1C00229A5E7B6811001800FFF77AFEAA
:104BA0006FE17B681A697B6818215B5E1900100051
:104BB00001F0AAF803001A00BB1C00215B5ED817A5
:104BC000D10F934248410300DBB2002B00D158E1E2
:104BD0007B6818697B6818229B5E9AB2BB1C1B8895
:104BE000D3189BB21BB2190001F0A2F87B68DB68F6
:104BF000180000F0AAFA7B6801221A7241E1C0464F
:104C0000547600087B681A697B6818215B5E19007E
:104C1000100001F09DF803001A00BB1C00215B5E30
:104C2000D817D10F934248410300DBB2002B2CD0A0
:104C30007B681869BB1C1A887B6818215B5E9BB275
:104C4000D31A9BB21BB2190001F072F87B68DB68C3
:104C50001800FFF711FD7B681A697B6818215B5EFD
:104C60001900100001F050F803001A007B685A8107
:104C70007B681A697B680A215B5E1900100001F0ED
:104C800057F87B6805221A7200E17B681869BB1C23
:104C90001A887B6818215B5E9BB2D31A9BB21BB249
:104CA000190001F045F8F1E07B681B691800FEF778
:104CB00055FB03001A00BB1C012100201B5E934220
:104CC00001DC0023191CCBB2002B15D07B68DB68FC
:104CD0001800FFF794FC7B68DB681800FFF7A6FC60
:104CE0007B6800221A72BB1C00229A5E7B6811004E
:104CF0001800FFF7CFFDC6E07B681A697B681821B2
:104D00005B5E1900100001F023F803001A00BB1CC1
:104D100000215B5ED80FD1179A4248410300DBB2F5
:104D2000002B00D1AFE07B681869BB1C1A887B6838
:104D300018215B5E9BB2D31A9BB21BB2190000F024
:104D4000F7FF7B68DB68180000F0FFF97B6803223F
:104D50001A7298E07B68DB68180001F00DF8031EFA
:104D600007D07B681800FFF750FD031E01D0012318
:104D700000E00023002B04D07B68BA1C12885A8103
:104D800083E07B68DB68180000F0F6FF031E11D09B
:104D90007B681A697B6818215B5E1900100000F0BF
:104DA000B3FF03001A00BB1C00215B5E934201DDD0
:104DB000012300E00023002B16D07B68DB6818007D
:104DC00000F0C3F97B6818697B6818229B5E9AB271
:104DD000BB1C1B88D3189BB21BB2190000F0A8FFA4
:104DE0007B6801221A7250E07B68DB68180000F0D3
:104DF000CEFF031E07D07B681800FFF728FD031EB7
:104E000001D0012300E00023002B04D07B68BA1CF2
:104E100012885A8139E07B68DB68180000F0B7FF20
:104E2000031E11D07B681A697B6818215B5E19002C
:104E3000100000F08DFF03001A00BB1C00215B5E18
:104E4000934201DA012300E00023002B1DD07B6890
:104E5000DB68180000F079F97B681869BB1C1A88B8
:104E60007B6818215B5E9BB2D31A9BB21BB2190000
:104E700000F05EFF7B6803221A72C04605E0C04660
:104E800004E0C04602E0C04600E0C046C046BD4661
:104E900002B080BD80B582B000AF786000F082FFC4
:104EA0007B681B681A7808210A431A707B681B68A4
:104EB0005A7810218A435A70C046BD4602B080BD60
:104EC00080B582B000AF78607B685B7B0122534085
:104ED000DBB2002B08D07A68054B11001800FBF7F5
:104EE0001FFC7B6801225A73C046BD4602B080BDDC
:104EF000C800002080B582B000AF786000F059FF94
:104F00007B681B681A7810210A431A707B681B683B
:104F10005A7810218A435A70C046BD4602B080BDFF
:104F200080B582B000AF78607B681B7ADBB25A1E16
:104F30009341DBB2002B0CD07B68DB681800FFF7D5
:104F40005EFB7B68DB681800FFF770FB7B68002264
:104F50001A72C046BD4602B080BD80B582B000AFB7
:104F600078607B681B7BDBB25A1E9341DBB2002B5F
:104F700007D07B681B69180000F022FF7B680322C2
:104F80001A73C046BD4602B080BD80B582B000AF86
:104F900078607B681B7BDBB25A1E9341DBB2002B2F
:104FA00007D07B681B69180000F00AFF7B680322AA
:104FB0001A73C046BD4602B080BD80B582B000AF56
:104FC0007860FEF745F903001A0001235340DBB275
:104FD000002B06D07B681B7BDBB2002B01D10123A9
:104FE00000E00023002B0CD07B681B691800FFF742
:104FF00051FF7B6801221A737B68180000F0FEFEE7
:1050000030E07B681B7BDBB2023B5A425341DBB290
:10501000002B08D07B681B69180000F0D1FE7B686C
:1050200004221A731EE07B681B7BDBB2042B04D0C6
:105030007B681B7BDBB2052B01D1012300E0002341
:10504000002B03D07B6804221A730BE07B681B7B68
:10505000DBB2033B5A425341DBB2002B02D07B68E8
:1050600003221A73C046BD4602B080BD80B582B02F
:1050700000AF7860FEF706F903001A0001235340E1
:10508000DBB2002B06D07B681B7BDBB2002B01D18F
:10509000012300E00023002B0CD07B681B69180063
:1050A000FFF728FF7B6802221A737B68180000F064
:1050B000A5FE30E07B681B7BDBB2013B5A425341CB
:1050C000DBB2002B08D07B681B69180000F078FE6B
:1050D0007B6805221A731EE07B681B7BDBB2042B06
:1050E00004D07B681B7BDBB2052B01D1012300E0E0
:1050F0000023002B03D07B6805221A730BE07B682A
:105100001B7BDBB2033B5A425341DBB2002B02D084
:105110007B6803221A73C046BD4602B080BD80B5CD
:1051200082B000AF786000F083FE7B681B685A781D
:1051300001210A435A707B681B681A787F210A4054
:105140001A70C046BD4602B080BD80B582B000AFC7
:10515000786000F074FE7B681B685A7802210A436D
:105160005A707B681B685A7804218A435A70C0467B
:10517000BD4602B080BD80B500AFFFF712FA030054
:105180001A0080235B0113405A425341DBB21800DE
:10519000BD4680BD80B500AF00F058FE03001B681F
:1051A0009BB21800BD4680BD80B500AFFDF71EFC68
:1051B00003001A6801218A431A60FDF717FC0300F7
:1051C0001B68012213405A1E9341DBB2002B00D012
:1051D000F3E7C046BD4680BD80B500AFFDF7FEFBDE
:1051E00003001A6801218A431A60FDF7F7FB0300E8
:1051F0001B68012213405A1E9341DBB2002B00D0E2
:10520000F3E7C046BD4680BD90B583B000AF020055
:10521000BB1D1A80BB1D1C8800F020FE03001C6013
:10522000C046BD4603B090BD80B500AFFDF7D6FBCC
:1052300003001A6801210A431A60C046BD4680BDBA
:1052400090B583B000AF0200BB1D1A80BB1D1C8847
:1052500000F0FCFD03001C60C046BD4603B090BDDD
:1052600080B500AFFDF7C2FB03001A6801210A43B5
:105270001A60C046BD4680BD80B500AF014B180026
:10528000BD4680BD04000240B0B584B000AFF860F8
:10529000B9603B1D1A70281C00F0F1FDB968FB686D
:1052A000221C180000F006FE03001800BD4604B0E2
:1052B000B0BDB0B584B000AFF860B9603B1D1A70E6
:1052C000281C00F01DFEB968FB68221C180000F0C5
:1052D00032FE03001800BD4604B0B0BD80B500AF7B
:1052E00000F046FEC046BD4680BD80B500AF00F070
:1052F0009DFEC046BD4680BD80B584B000AF7860DD
:105300000C4B1B68FB60FB68002B0BD0FB685B68D9
:10531000002B03D0FB685B68FB60F7E7FB687A68EB
:105320005A6002E0034B7A681A60C046BD4604B07A
:1053300080BDC0469002002080B582B000AF78608A
:105340007B68DBB203221340DBB21800BD4602B01B
:1053500080BD80B582B000AF78607B689B08DBB20F
:1053600001221340DBB21800BD4602B080BD80B5FB
:1053700082B000AF78607B68DB08DBB203221340A9
:10538000DBB21800BD4602B080BD80B582B000AF70
:1053900078607B685B09DBB203221340DBB2180044
:1053A000BD4602B080BDB0B500AF00F09DFE00F07C
:1053B000A3FE03001A6803218A431A600120FFF745
:1053C000BBFF03001C0000F097FE03001A68224395
:1053D0001A6000F099FE03001A6801218A431A60DE
:1053E0000120FFF7B6FF03001C0000F08DFE030054
:1053F0001A6822431A6000F08FFE03001A68032126
:105400008A431A600120FFF7B2FF03001C0000F07E
:1054100083FE03001A6822431A6000F085FE030031
:105420001A6801218A431A600120FFF7AEFF0300CA
:105430001C0000F079FE03001A6822431A6000F095
:105440007BFEC046BD46B0BD80B582B000AF78607F
:105450007B68DBB203221340DBB21800BD4602B00A
:1054600080BD80B582B000AF78607B689B08DBB2FE
:1054700001221340DBB21800BD4602B080BD80B5EA
:1054800082B000AF78607B68DB08DBB20322134098
:10549000DBB21800BD4602B080BD80B582B000AF5F
:1054A00078607B685B09DBB203221340DBB2180033
:1054B000BD4602B080BD0000B0B500AF00F04DFEAB
:1054C00000F052FE03001A6824490A401A600120C5
:1054D000FFF7BAFF03009C0300F046FE03001A68C2
:1054E00022431A6000F048FE03001A6880218A43B4
:1054F0001A600120FFF7B5FF0300DC0100F03CFE5D
:1055000003001A6822431A6000F03EFE03001A6886
:1055100012490A401A600120FFF7B1FF03009C0303
:1055200000F032FE03001A6822431A6000F034FED5
:1055300003001A6880218A431A600120FFF7ADFF3B
:105540000300DC0100F028FE03001A6822431A6001
:1055500000F02AFEC046BD46B0BDC046FF3FFFFF7B
:10556000B0B500AF00F0F9FD00F0FEFD03001A68D1
:1055700024490A401A600120FFF766FF03001C035C
:1055800000F0F2FD03001A6822431A6000F0F4FDF7
:1055900003001A6840218A431A600120FFF761FF67
:1055A00003009C0100F0E8FD03001A6822431A6022
:1055B00000F0EAFD03001A6812490A401A6001204F
:1055C000FFF75DFF03001C0300F0DEFD03001A6817
:1055D00022431A6000F0E0FD03001A6840218A436C
:1055E0001A600120FFF759FF03009C0100F0D4FD71
:1055F00003001A6822431A6000F0E7FDC046BD466A
:10560000B0BDC046FFCFFFFFB0B500AF00F0A5FDB5
:1056100000F0AAFD03001A6824490A401A6001201C
:10562000FFF712FF03009C0200F09EFD03001A68C2
:1056300022431A6000F0A0FD03001A6820218A436B
:105640001A600120FFF70DFF03005C0100F094FDDC
:1056500003001A6822431A6000F096FD03001A68DE
:1056600012490A401A600120FFF709FF03009C025B
:1056700000F08AFD03001A6822431A6000F08CFDD6
:1056800003001A6820218A431A600120FFF705FFF2
:1056900003005C0100F080FD03001A6822431A60D9
:1056A00000F0A4FDC046BD46B0BDC046FFF3FFFFFD
:1056B000B0B500AF00F018FD00F01EFD03001A6841
:1056C000C0218A431A600120FFF736FE03009C01C7
:1056D00000F012FD03001A6822431A6000F014FD66
:1056E00003001A6808218A431A600120FFF731FE7F
:1056F0000300DC0000F008FD03001A6822431A6072
:1057000000F00AFD03001A68C0218A431A600120D4
:10571000FFF72DFE03009C0100F0FEFC03001A6859
:1057200022431A6000F000FD03001A6808218A4332
:105730001A600120FFF729FE0300DC0000F0F4FCF2
:1057400003001A6822431A6000F061FDC046BD469E
:10575000B0BD0000B0B500AF00F0FFFC00F004FDEC
:1057600003001A68920092081A600120FFF76CFE8D
:1057700003009C0700F0F8FC03001A6822431A603B
:1057800000F0FAFC03001A681B490A401A60012065
:10579000FFF767FE0300DC0300F0EEFC03001A686D
:1057A00022431A6000F0F0FC03001A68920092088D
:1057B0001A600120FFF763FE03009C0700F0E4FC81
:1057C00003001A6822431A6000F0E6FC03001A681E
:1057D00009490A401A600120FFF75FFE0300DC035D
:1057E00000F0DAFC03001A6822431A6000F020FD82
:1057F000C046BD46B0BDC046FF7FFFFF80B500AFCD
:1058000000F027FD00F02CFDC046BD4680BD80B5F0
:1058100000AFC046BD4680BD80B500AFFAF727FE99
:10582000C046BD4680BD90B583B000AF7860FAF742
:1058300059FE030079681800FAF766FC03001C00A3
:1058400000F018FD03001C60C046BD4603B090BDCB
:1058500080B582B000AF0200FB1D1A70FB1D1B78E3
:10586000002B08D0FDF7A2F803001A688021C900B8
:105870000A431A6006E0FDF799F803001A68034925
:105880000A401A60C046BD4602B080BDFFFBFFFF64
:1058900080B582B000AF0200FB1D1A70FB1D1B78A3
:1058A000002B08D0FDF782F803001A6880218900D8
:1058B0000A431A6006E0FDF779F803001A68034905
:1058C0000A401A60C046BD4602B080BDFFFDFFFF22
:1058D00090B585B000AF0200FB1D1A7000F0D2FC3D
:1058E00003001B68FB60FB68084A1340FB60FB1D5C
:1058F0001B781B03FA681343FB60FC6800F0C2FCD2
:1059000003001C60C046BD4605B090BDFFCFFFFF41
:1059100080B582B000AF0200FB1D1A70FB1D1B7822
:10592000002B07D0FDF742F803001A6804210A4350
:105930001A6006E0FDF73AF803001A6804218A436A
:105940001A60C046BD4602B080BD80B582B000AFCF
:105950000200FB1D1A70FB1D1B78002B07D0FDF702
:1059600025F803001A6808210A431A6006E0FDF7CB
:105970001DF803001A6808218A431A60C046BD4614
:1059800002B080BD80B500AF00F084FC03001A684F
:1059900040210A431A60C046BD4680BD80B500AFB5
:1059A00000F078FC03001A6880210A431A60C046A0
:1059B000BD4680BD90B583B000AF78607C6800F0D4
:1059C00071FC03001C60C046BD4603B090BD80B5AD
:1059D00000AF00F057FC03001A68802109040A4355
:1059E0001A60C046BD4680BD80B500AF00F052FCD5
:1059F00003001A68802149000A431A60C046BD4668
:105A000080BD80B500AF00F045FC03001A6880211E
:105A1000C9010A431A60C046BD4680BD80B582B048
:105A200000AF0200FB1D1A70FB1D1B78002B07D076
:105A3000FCF7BCFF03001A6801210A431A6006E064
:105A4000FCF7B4FF03001A6801218A431A60C046BC
:105A5000BD4602B080BD80B500AF00F02BFCC04653
:105A6000BD4680BD90B583B000AF78607C6800F023
:105A700029FC03001C60C046BD4603B090BD90B534
:105A800083B000AF78607C6800F024FC03001C60E9
:105A9000C046BD4603B090BD90B585B000AF7860FC
:105AA000FCF7A4FF030000221A600023FB607B6860
:105AB0001B781A1C01231340DBB2012213401B0187
:105AC000FA6810218A431343FB607B685B781A1CD9
:105AD00003231340DBB2032213409B02FA681C49E4
