:020000040800F2
:100000000010002049020008990200089902000827
:1000100000000000000000000000000000000000E0
:10002000000000000000000000000000990200082D
:10003000000000000000000099020008E904000828
:1000400099020008000000009902000899020008C7
:100050009902000899020008990200089902000814
:10006000000000004506000871060008BD060008F3
:100070009902000899020008150800080000000015
:10008000950500080000000000000000C105000800
:1000900000000000ED05000819060008990200089C
:1000A0000000000099020008000000006905000837
:1000B0000000000000000000000000000000000040
:1000C00010B5064C2378002B07D1054B002B02D02E
:1000D000044800E000BF0123237010BD2000002071
:1000E0000000000000260008044B10B5002B03D0D0
:1000F0000349044800E000BF10BDC04600000000F6
:10010000240000200026000802B471464908490076
:10011000095C49008E4402BC7047C04603B4714676
:10012000490840004900095E49008E4403BC7047FD
:10013000002243088B4274D303098B425FD3030A26
:100140008B4244D3030B8B4228D3030C8B420DD339
:10015000FF22090212BA030C8B4202D312120902C7
:1001600065D0030B8B4219D300E0090AC30B8B4205
:1001700001D3CB03C01A5241830B8B4201D38B03B3
:10018000C01A5241430B8B4201D34B03C01A524158
:10019000030B8B4201D30B03C01A5241C30A8B429B
:1001A00001D3CB02C01A5241830A8B4201D38B0286
:1001B000C01A5241430A8B4201D34B02C01A52412A
:1001C000030A8B4201D30B02C01A5241CDD2C3099C
:1001D0008B4201D3CB01C01A524183098B4201D318
:1001E0008B01C01A524143098B4201D34B01C01A03
:1001F000524103098B4201D30B01C01A5241C3087B
:100200008B4201D3CB00C01A524183088B4201D3E9
:100210008B00C01A524143088B4201D34B00C01AD5
:100220005241411A00D20146524110467047FFE741
:1002300001B5002000F006F802BDC0460029F7D045
:1002400076E770477047C0460D4885460D480E4911
:100250000E4A002302E0D458C4500433C4188C4220
:10026000F9D30B4A0B4C002301E013600432A24285
:10027000FBD300F04BFA02F08DF901F0B5FDFEE77B
:100280000010002000000020200000207026000840
:10029000200000204C020020FEE7000000280BD0C8
:1002A00004280BD005280BD0063843425841054B93
:1002B00040421840C01870470348FCE70348FAE77B
:1002C0000348F8E7C0C62D00006CDC0200366E0162
:1002D000001BB7007021034A000113688B431843C9
:1002E00010607047041002400321034A13688B43D7
:1002F000184310607047C046041002408023034931
:100300009B040A681A42FCD07047C04600100240A5
:100310008023034A5B0411680B4313607047C04697
:1003200000100240802303499B020A681A42FCD055
:100330007047C046001002408023034A5B021168E8
:100340000B4313607047C046001002408022044BEC
:10035000D20119681143196019681142FCD0704725
:1003600018100240034B10B518684005400FFFF706
:1003700095FF10BD04100240034A044913680002AF
:100380000B4018431060704704100240FFF8FFFF55
:10039000034A0449136880040B40184310607047F7
:1003A00004100240FFFFC3FF8022044B9202196831
:1003B0001143196019681142FCD0704714100240B3
:1003C0008022044BD2021968114319601968114246
:1003D000FCD07047141002400122044B19681143ED
:1003E000196019681142FCD07047C04614100240D1
:1003F0008022044B120119681143196019681142D7
:10040000FCD07047181002400421234B1A6813686F
:100410008B431360214A224B02391B6813688B43BC
:100420001360204B1A68002393611F4A126893617E
:100430001E4A126893611E4A11680A681203120B61
:100440000A601C4A1C4912681C4A53801C4A1268E4
:100450000A685204520C0A601A491B4A12680A6858
:100460005204520C0A60194A194912680A68520467
:10047000520C0A601749184A12680A685204520C52
:100480000A601649164A12680A685204520C0A6039
:10049000144A126813657047840000200038014038
:1004A00090000020700000207400002080000020D8
:1004B00004000020880000200800024000300140B5
:1004C000080000201C0002400C000020100000204A
:1004D0003000024044000240140000205800024056
:1004E000180000208C000020054B10B51C68002C63
:1004F00005D0236820001B689847A468F7E710BD63
:1005000044010020037B002B0CD101330373064B05
:100510005A684260002A00D090601A685860002A29
:1005200000D118607047C04644010020F0B5012595
:10053000030041180A4E0B488B420FD008241A784A
:10054000504042102840070090B2002F01D0724066
:1005500090B2013C002CF4D10133EDE7F0BDC04670
:1005600001A0FFFFFFFF0000074B10B51C68002C27
:1005700005D0236820001B6898476468F7E7034BA1
:10058000034A1A6010BDC0466800002020380140B0
:100590005F0A0200084B10B51C68002C05D02368C8
:1005A00020001B6898476468F7E70821034A138A0C
:1005B0008B43138210BDC046600000200004004041
:1005C000084B10B51C68002C05D0236820001B6860
:1005D00098476468F7E70821034A138A8B4313821C
:1005E00010BDC0465C00002000200040084B10B544
:1005F0001C68002C05D0236820001B68984764689D
:10060000F7E70821034A138A8B43138210BDC046C3
:100610005800002000440140084B10B51C68002C15
:1006200005D0236820001B6898476468F7E7082115
:10063000034A138A8B43138210BDC0465400002026
:1006400000480140084B10B51C68002C05D02368F9
:1006500020001B6898476468F7E70F23034A116876
:100660000B43136010BDC046500000200400024040
:100670000F4B70B51C68002C05D0236820001B6848
:1006800098476468F7E7F0220A4D29680A432A6010
:10069000094A1468002C05D0236820001B6898477D
:1006A0006468F7E7F0232A681B0113432B6070BDD1
:1006B0004C0000200400024048000020104B70B5A0
:1006C0001C68002C05D0236820001B6898476468CC
:1006D000F7E7F0220B4D120229680A432A600A4A02
:1006E0001468002C05D0236820001B6898476468B4
:1006F000F7E7F0232A681B0313432B6070BDC04645
:1007000044000020040002404000002037B56B4642
:10071000DD1D002307221A492B700B6893431A0032
:10072000012313430B60FFF707FEFFF7FBFD2C7857
:100730000134E4B22C70002CF9D12000FFF7CAFD7F
:100740002000FFF719FE0420FFF722FE80230D4A48
:100750005B0211680B431360FFF7DAFDFFF7CEFD74
:100760002B780133DBB22B70002BF9D10220FFF77D
:10077000BBFD2B780133DBB22B70002BF9D137BDD9
:1007800000200240041002404A688B68002A0DD005
:10079000002B08D093608B685A6000234B608B60FD
:1007A00070470360F8E742609360F6E7002BF8D1EA
:1007B00003604360F1E7000010B5037B0100002BEC
:1007C00004D0002303730248FFF7DEFF10BDC046CC
:1007D0004401002010B50400024B0360FFF7ECFF5A
:1007E000200010BD30260008084B10B51C68002CF6
:1007F00005D0236820001B6898476468F7E7082144
:10080000034A138A8B43138210BDC0466400002044
:10081000002C014010B5FFF7E7FF10BD012370B5B4
:10082000040003700D0012220021023001F0DFFEEF
:10083000200012220021143001F0D9FE20001222E3
:100840000021263001F0D3FE200012220021383092
:1008500001F0CDFE2000092200214A3001F0C7FE40
:100860002200002321005832656513702366114A67
:10087000114B5C31E36513686466002B02D1116093
:1008800004E013005A68002AFBD1596000232100BC
:10089000E3660A4A0A4B6831A36613682467002B93
:1008A00002D1116004E013005A68002AFBD159609C
:1008B000200070BD680000203C2600084C0000208D
:1008C00048260008F0B50500203585B004000E224A
:1008D000FF21280001F08BFE01235B4223630E22DF
:1008E0000021684601F083FEA36B802219000126D7
:1008F000D2009818226B88420FD0013222630A7806
:100900000D2A08D84F78A2180132D7776F460A7897
:10091000BE540231EEE7FF2AFBD1226B334952006D
:100920009B18C21AD210002A1CDD1E888E4203D1E9
:100930005E888E4209D002336A4698421FD0012356
:1009400000203434237005B0F0BD9E888E4201D063
:100950000433F1E7DE888E4201D00633ECE708333A
:10096000013AE0E7C21A5210022A1BD0032A14D01F
:10097000012A1DD119881D4A9142DDD16A4603AB77
:100980001178002903D05178002913D101320E23A8
:100990006B4400209A42D6D120E01988134A914234
:1009A000CAD102331988114A9142C5D10233E1E715
:1009B0000300C1E79178002901D10232E7E7D1783D
:1009C000002901D10332E2E704329A42D8D16B46C2
:1009D000187B0028B7D0587B0028B4D0E0690E22DD
:1009E000290001F0FBFD0120ADE7C046FFFF00003C
:1009F000024B18684004C00F7047C04610040048FE
:100A0000024B1868C004C00F7047C046100400486D
:100A10002022064B1A600368A03A19780A43012184
:100A20001A705A788A435A707047C04618000048B6
:100A30008022044B12041A600823026851780B4389
:100A4000537070471800004810B504004068FFF765
:100A5000DFFF6068FFF7ECFF0023237010BD10B5C7
:100A600004004068FFF7D4FF6068FFF7E1FF002350
:100A7000237010BD8022054BD2031A602023026828
:100A800011780B4340218B431370704718000048C6
:100A90008022054B52021A600423026851780B43EE
:100AA00002218B43537070471804004870B504004E
:100AB000007A013804280FD80F4DFFF725FB030EED
:100AC000030E0E001422A35EE06863819BB2EB6309
:100AD00005232372FFF7DCFF70BDE068FFF798FF86
:100AE000E068FFF7A5FFA38A0822E38200232372B0
:100AF000EB689343EB60EFE7002C01408022082174
:100B0000034B1A60026853788B4353707047C0469A
:100B1000180000484023044A1360026811780B4310
:100B200020218B43137070471800004870B50400F3
:100B30000078032847D8FFF7E7FA022E47568023AC
:100B40002A4D1B012A681A421DD1FFF759FF0028C0
:100B50000BD06068FFF78EFF6068FFF799FF606851
:100B6000FFF7CCFF022323702DE02B68DB042AD48F
:100B70006068FFF7CFFF6068FFF78AFF6068FFF7E4
:100B8000BDFF0123EFE72A681A421CD00022184B50
:100B90005A620323E7E7154B1D6880231B011D40A4
:100BA00006D06068FFF734FF6068FFF741FFEDE7AC
:100BB000FFF726FF002806D06068FFF729FF60686E
:100BC000FFF736FF257070BD084B1A681205E8D490
:100BD0001B689B04F7D56068FFF71AFF6068FFF792
:100BE00027FF0423BFE70023BDE7C04610040048E9
:100BF000002C0140037810B50400012B13D0002B0A
:100C000002D0022B25D010BD4068FFF783FF60683B
:100C1000FFF73EFF6068FFF7FBFE6068FFF76EFFBF
:100C200001232370EFE7FFF7EBFE0028EBD06068AD
:100C3000FFF7FEFE0D4BE2685B6A60681380FFF70A
:100C400019FF6068FFF724FF6068FFF757FF022372
:100C5000E7E7074B1B689B04D5D54068FFF7E8FE24
:100C6000024B22695B6A13800323DAE7002C014000
:100C7000100400480122054B1A60022302685178D3
:100C80000B4304218B4353707047C046180400483F
:100C900070B504000D001622A35EA582AB4231D0D0
:100CA000207AC0B205282DD8FFF72EFA035D749084
:100CB000A2B608237B4EF2681343F360736A1BB23B
:100CC0009D422EDAE068FFF725FF726A218B521AE7
:100CD00012B2954217DBE068FFF7DAFE0423ADB2EB
:100CE000F56323728022704B9203E0681A60012240
:100CF000036859780A437F215A701A780A401A709B
:100D0000FFF7FCFE70BD736A5B1A1BB29D42E9DA05
:100D1000E068FFF7AFFF238B5D19ADB2F5630323E6
:100D2000DFE7736A1BB29D42ECDDE068FFF7A2FECD
:100D3000726A238B9A1812B2954206DCE068ADB253
:100D4000FFF7A6FEF5630223CBE7726A9B181BB27E
:100D50009D42C7DDE068FFF78DFF238BED1AADB232
:100D6000F5630123BDE74F4E238B726A9A1812B2C6
:100D700095420BDCE068FFF78BFE726A238B9B18B1
:100D80009BB26381F36305232372BBE7ED1AADB217
:100D9000F563B7E743494B6A1BB29D4208DAE06846
:100DA000FFF736FEE068FFF743FE0023237272E789
:100DB0004A6A238B9A1812B29542A3DBED1AADB2A0
:100DC000CD63E068FFF756FF0123DDE7354E218B49
:100DD000736A4A195B1A92B21BB2F2639D4200DA3F
:100DE00090E7E068FFF754FE736A228B9B1AC7E70F
:100DF0002C494B6A1BB29D42D1DC4A6A238BD21A22
:100E000012B2954200DD7DE75D19ADB2CD63E068B9
:100E1000FFF730FF0323B7E7244B1A6852060CD4C0
:100E20000A21625EAA4208DA1E4A516A228B5218CF
:100E300012B2954201DA658164E71A68520606D457
:100E4000184E228B716A521812B2954216DC1A683B
:100E500052061BD41B685B0600D453E7114E228B4D
:100E6000736A9B1A1BB29D4200DB4BE7E068FFF7F9
:100E700001FF238B5D19ADB2F563CBE7E068FFF7A7
:100E8000F9FE238BED1AADB2F5639DE70A21625E90
:100E9000AA42DFDD034A218B526A521A12B29542EE
:100EA000D8DDC8E7002C01401800004810000048B9
:100EB0000122044B19689143196019681142FCD151
:100EC0007047C0463000024070B58024074B2401B3
:100ED0001B68234209D08568FFF7EAFF044B5835A9
:100EE0001A6814431C6001232B7070BD1C3801402C
:100EF000203801400122044B196891431960196898
:100F00001142FCD17047C0461C0002400123024A36
:100F100011680B43136070473000024010B5202465
:100F2000084B1B6823420CD0FFF7E4FFFFF7C0FF1C
:100F3000FF22054B1A60FFF7E9FF044B1A681443C0
:100F40001C6010BD0000024034000240040002405A
:100F500010B5FFF735FA032001210E4B1A688243C2
:100F60001A601A680A431A600B4B1A688A431A609F
:100F70001A681A60094B1A6882431A601A681A6064
:100F8000074B1A688A431A601A681A60054B1A6878
:100F90001A6010BD0004004804040048080400481A
:100FA0000C0400482004004810B5FFF7FDF9902319
:100FB00080218020DB051A680E4CC90122401A608E
:100FC0001A68114319600C4B1968814319601A683B
:100FD0001A600A4B1A6822401A601A681A60084B95
:100FE0001A6882431A601A681A60064B1A681A60F7
:100FF00010BDC046FF3FFFFF040000480800004846
:101000000C0000482000004810B5FFF7CDF99023F0
:1010100080214020DB051A680E4C490122401A60ED
:101020001A68114319600C4B1968814319601A68DA
:101030001A600A4B1A6822401A601A681A60084B34
:101040001A6882431A601A681A60064B1A681A6096
:1010500010BDC046FFCFFFFF040000480800004855
:101060000C0000482000004810B5FFF79DF99023C0
:1010700080212020DB051A680E4CC90022401A602E
:101080001A68114319600C4B1968814319601A687A
:101090001A600A4B1A6822401A601A681A60084BD4
:1010A0001A6882431A601A681A60064B1A681A6036
:1010B00010BDC046FFF3FFFF0400004808000048D1
:1010C0000C0000482000004810B5FFF779F9C02057
:1010D0000F4B1A6882431A60402219680A4308219C
:1010E0001A600C4B1A688A431A601A681A600A4B15
:1010F0001A6882431A601A681A60084B1A688A4391
:101100001A601A681A60064B1A681A6010BDC04649
:101110000004004804040048080400480C04004887
:101120002004004810B5FFF73FF99022D20513685C
:101130000F489B009B08136080231168DB050B435D
:1011400013600C4B1968014019601A681A600A4A4A
:1011500013689B009B08136013681360074B1A68A1
:1011600002401A601A681A60054B5A685A6010BD2E
:10117000FF7FFFFF04000048080000480C00004803
:101180002000004880221021094B12031A600368D6
:1011900008205A780A435A701A78824380201A70BD
:1011A000044A000610601A788A431A707047C046D5
:1011B000180400481800004810B5037B0400002BF9
:1011C00004D00069FFF7DEFF0323237310BD70B561
:1011D00004680500237A002B07D0E068FFF718FCAD
:1011E000E068FFF725FC002323726868FFF7E4FF3F
:1011F0000023AB7370BD0000F7B501251021AE4F81
:1012000042683B68D61CF27FDB0B2B408A431B01F4
:101210001343F3770400FFF7EBFB20222840430140
:10122000F07F904318433B68F0775B0B2B401A002C
:101230006368DE1CF37FAB431343F377FFF7E0FBF8
:10124000022228404300F07F90431843F07708269D
:1012500063683A68D91CC87FD20A2A40B043D200DA
:101260000243CA773A68C87F920A043E2A40B043D4
:1012700092000243CA77197C9048C9082940490165
:101280008C462021426A1A849A1DD67F8E4361467D
:101290003143D177210084310091097840260191B2
:1012A000294089018C46D17FB14366463143D177CD
:1012B00021783E0001390700032925D80800FEF7F0
:1012C00023FF024BA5E0019B002B0DD120005430E1
:1012D000FFF7BAFB02230721237063680533DA7F27
:1012E0008A43110001220DE033681B040DD4200055
:1012F0005430FFF7A9FB05220720636822709B1872
:10130000D97F81430A43DA77F7BD33681B04FBD5E5
:10131000250054352800FFF709FC2B78032B0AD150
:1013200000234021009A2800137063680633DA7F97
:101330008A43DA77CCE7042B01D12800D9E7336858
:101340005B05E1D40123009A1370402263680633E1
:10135000D97F0A43DA77F0E70199002907D00721FE
:101360000533DA7F25708A4311000322CAE725007E
:10137000336860355B050AD40123009928000B709F
:10138000D17F3F330B43D377FFF721FFB3E7FFF75D
:1013900037FB002810D0A2687B6A1821525E1BB26E
:1013A0009A4209D02800FFF712FFA3681B8B7B62CB
:1013B0007A6A63681A84A7E733689B0406D5A26833
:1013C0007B6A1A21525E1BB29A4219D1AB7B012B68
:1013D0000ED0022B98D1636E1B7B002B00D093E7BD
:1013E00033681B0409D4FFF703FB002805D18BE702
:1013F000236E1B7A002B00D086E70023AB7383E7B4
:101400002800FFF7E4FEA3685B8BD0E733681B047A
:1014100004D420007030FFF722FB6CE733681B0414
:1014200000D471E7250070352800FFF7E3FB2B7827
:10143000032B17D1A26863681820115E28009983D6
:101440001A21525EDA83FFF70AFB02230721237079
:10145000636885345A1DD37F8B4306390B43D3779A
:10146000217051E733685B0500D54DE70123009AF1
:1014700028001370402263680633D97F0A43DA7765
:10148000C9E7250048352B78012B08D0022B00D066
:101490003AE7FFF7B5FA002800D135E703E03368F3
:1014A0009B0400D430E7E06CFFF7B2FAE06CFFF782
:1014B000BFFA00232B7027E710040048002C0140DE
:1014C00010B504004068FFF7A3FA6068FFF7B0FAB0
:1014D000A068FFF771FE0023237010BD10B5040053
:1014E000007BC0B205280DD8FEF70EFE030D17498C
:1014F0001C34637B002B05D021002648FFF744F9FC
:101500000023637310BD244B1B681B04FAD52069AC
:10151000FFF738FE03232373F4E7FFF769FA002887
:10152000F0D0F4E7E389A28A01339BB2E3819A42C7
:10153000E8D8012308222373236918491B680A602D
:1015400019780A4310211A705A788A435A70002376
:10155000E381D7E7E389A28A01339BB2E3819A4210
:10156000D0D8802102230E4A090223732369116017
:1015700010211B681A780A431A705A78E5E7E38944
:10158000A28A01339BB2E3819A42BBD80023237322
:10159000DEE7C0464401002010040048180400485B
:1015A00018000048437B002B0CD1074B5A6842605F
:1015B000002A00D090601A685860002A00D1186094
:1015C000012343737047C04644010020164B10B5F9
:1015D0001B6804001B0413D4037B002B10D10822CA
:1015E000036912491B680A6019780A4310211A70AE
:1015F0005A788A435A7001230373FFF7D3FF10BD53
:10160000237B022B04D12069FFF7BCFD042309E0F2
:10161000237B042BFAD0237B052BF7D0237BDBB273
:10162000032BECD12373EAE71004004818040048A8
:1016300010B50400FFF7DCF9002815D1237B002B3F
:1016400012D18021124A09022369116010211B68FE
:1016500020001A780A431A705A788A435A70022373
:101660002373FFF79FFF10BD237B012B04D120695B
:10167000FFF788FD052309E0237B042BFAD0237BA9
:10168000052BF7D0237BDBB2032BECD12373EAE7E6
:101690001800004870B5040007290BD80800FEF7B1
:1016A00033FD040A1018244B52596268538813837F
:1016B000A268138270BD626893885383A268937492
:1016C000F8E76368DB88D03B5A425341C24A137043
:1016D000F0E7C14B1A78002A04D061680A89CA82EF
:1016E000A168CA8101221A70E4E72378022BE1D1B4
:1016F0002600636860360A255D5FB37BB581002BE9
:1017000006D0012BD6D12900206EFFF7C1FAD1E710
:10171000636E1B7B002BCDD1B04B1B681B0406D521
:101720002900206EFFF7B4FA0123B373C2E7FFF775
:101730005FF90028F4D1BDE763680C229B5EA268C4
:10174000A3859382B6E76368A21DDB89D387A2686D
:10175000D382AFE72378002B13D163681A7C12077A
:10176000A8D501220721581D2270C27F06338A4363
:10177000110003220A43C2772022D97F0A43DA7775
:1017800098E7012B2DD163681D7C2B07DE0F002B02
:1017900015DB20005430FFF757F9072062682670E8
:1017A000511DCB7F06328343CB77937A1B07DB0F28
:1017B000D17F19305B0181430B43D3777AE707264A
:1017C0003540022D00D075E720005430FFF73CF97A
:1017D0000423237063680533DA7FB2431543DD7752
:1017E00068E7032B16D163681B7C1B07DD0F002BFA
:1017F00000DA5FE720007030FFF731F907206268F8
:101800002570511DCB7F06328343CB77937A1B071C
:10181000DB0FCDE7022B60D163681B7C1A07D50F65
:10182000002A04DB20006030FFF7D1FCE6E7DA068F
:1018300001D49B0603D520006030FFF7C8FC636825
:101840005A7C1307DB0F520700D4F8E0002B06D1B7
:10185000230060339B7B002B14D0022B1ED0072665
:1018600063681D7C3540022D28D120006030FFF7D1
:10187000AEFC0423626823700532D37FB3431D435B
:10188000D57717E7554B1B681B0402D4606EFFF732
:101890009DFE2300022260339A73E0E74F4B1B68E2
:1018A0001B04DCD4606EFFF791FED8E7FFF7A0F8C9
:1018B0000028EED1606EFFF7BBFEEAE7042D00D0F2
:1018C000F8E6230085331B78002B00D0F2E62000D9
:1018D0006030FFF77CFC03237BE7042B00D08DE016
:1018E00063681B7C1A07D50F002A04DB20004830F0
:1018F000FFF7E6FD82E7DB0602D5E06CFFF798F81C
:1019000063681B7C9B0602D5206DFFF755FC62685F
:10191000517C0B07DB0F490700D4A5E0002B05D154
:10192000137C9B0602D4206DFFF750FE6368E06CC9
:101930001B7C5B0638D48022294B92031A6001225B
:10194000036859780A437F215A701A780A401A703E
:101950006368E06C1B7C7F2B29D8FFF799F86268DD
:10196000517C8B07DB0FC90700D488E0002B09D11D
:10197000137CDB0606D4250048352B78002B19D0C4
:10198000022B24D0072663681D7C3540012D00D032
:1019900090E6124B1B685B0500D48BE620004830B4
:1019A000FFF78EFD022314E7FFF732F8D0E7FFF7C9
:1019B00061F9D4E7094B1B689B04E3D4E06CFFF7A3
:1019C00059F8E06CFFF79AF801232B70DAE7E06C26
:1019D000FFF72EF8F2E7C0466C0000201004004824
:1019E000180000482F4B1B68DB04CBD4E06CFFF7DA
:1019F00091F8E06CFFF782F80223E6E7052B00D0B0
:101A000058E6072563681A7C2A40022A06D1042179
:101A1000581D2170C17FA9430A43C2771A7C12075F
:101A2000D10F002A00DA45E607202170591DCA7F30
:101A300006338243CA772021DA7F8A439FE6002B50
:101A400000D10CE7230060339B7B002B00D12DE7F6
:101A5000022B00D003E7FEF7CBFF002800D0FEE604
:101A6000606EFFF7E5FDFAE6002B00D15EE7137C20
:101A70009B0600D55AE7206DFFF7DAFD56E7002BED
:101A800000D17FE7137CDB0600D57BE725004835D6
:101A90002B78002BA6D0012B00D073E7E06CFEF76B
:101AA000C7FFA3E71004004870B5FEF77DFC902344
:101AB000DB051A68104D114C2A401A608022196803
:101AC00092020A431A600E4B1868204018601A6888
:101AD0001A600C4B1968294019601A681A600A4B81
:101AE0001A6822401A601A681A600223074A51686D
:101AF0000B43536070BDC046FFFFFCFFFFFEFFFFBE
:101B000004000048080000480C000048200000487D
:101B100070B5FEF749FC9023DB051A68104D114C97
:101B20002A401A608022196812030A431A600E4B79
:101B30001868204018601A681A600C4B1968294010
:101B400019601A681A600A4B1A6822401A601A68EB
:101B50001A602023074A51680B43536070BDC0468A
:101B6000FFFFF3FFFFFDFFFF0400004808000048EF
:101B70000C0000482000004810B5FEF715FC90232B
:101B8000C020DB051A6882431A60802219680A4364
:101B900008211A600C4B1A688A431A601A681A6086
:101BA0000A4B1A6882431A601A681A60084B1A684E
:101BB0008A431A601A681A608023064A5B0111681A
:101BC0000B43136010BDC0460400004808000048E5
:101BD0000C0000482000004810B5FEF7E5FB9023FC
:101BE0003020DB051A6882431A60202219680A43F4
:101BF00004211A600C4B1A688A431A601A681A602A
:101C00000A4B1A6882431A601A681A60084B1A68ED
:101C10008A431A601A681A608023064A5B001168BA
:101C20000B43136010BDC046040000480800004884
:101C30000C0000482000004810B5FEF7B5FB9023CB
:101C40000C20DB051A6882431A60082219680A43CF
:101C500002211A600B4B1A688A431A601A681A60CC
:101C6000094B1A6882431A601A681A60074B1A688F
:101C70008A431A601A681A601023054A11680B43D8
:101C8000136010BD04000048080000480C00004824
:101C90002000004870B50E000500FFF76DFFFFF74C
:101CA0009BFFFFF7C9FFFEF751FB3468FEF75AFBB5
:101CB0002100FEF73DFA3A4B3A4C18603379012B7C
:101CC0006AD180232268DB00134323607379002BE1
:101CD0005ED0802322689B001343334A236013683D
:101CE00032491940B37900261B030B4313600423C8
:101CF00021680B432360082321680B4340212360A4
:101D00002B4B1868014319608021186801432A2071
:101D10001960284908608021106809040143116096
:101D20008022196852000A431A6080221968D20181
:101D30000A431A600123226813432360FEF74CFB19
:101D40001D4B1E4A1D601E4B1A60FF221D4B1A6060
:101D50001D4B5F3A1E601A60FFF7D8F81B4B1C4AF8
:101D60001D601C4B1A6090221B4B1E601A60802263
:101D70002168D2040A4322608022184912050A60B1
:101D80000222186802431A608023DB000B6070BDDA
:101D90002368134A1340A0E72368124AFAE7C046B3
:101DA0000C3801400038014004380140FFCFFFFFEC
:101DB00008380140143801403C00024024380140FA
:101DC0003800024034000240300002402800024047
:101DD00028380140240002401C00024000E100E0DD
:101DE000FFFDFFFFFFFBFFFFF0B5D14D00272B00EC
:101DF000AFB00CAC2433CF4EE36027706560A660B3
:101E0000FFF752FEFFF784FEFEF7F2FA802107206B
:101E1000C94B49001A6A0A431A629A689039824388
:101E2000043802439A60DA698A4394461022614674
:101E30000A43DA619A69C1498243023802439A61CE
:101E40009A690A4080214900114399615F621A88AA
:101E5000104318801422B35EB94AA38562610FAAA9
:101E6000226210AA62628022B64BD201A761277754
:101E70006777E78316971A60B34A1368BB4203D1AA
:101E800011AB136005E013005A68002AFBD111AAB8
:101E90005A600027AD4BF18A23631BAB1F704523AB
:101EA0000AAA9B181F700E220FAB2364E364A3657C
:101EB000636733000AA81218D18718331EAA177057
:101EC000E36721AA330018A9177011A810AAE265C8
:101ED000A266A2672165206661666763A763E787DC
:101EE000012427A90F801A3376212C932DAB1C7067
:101EF0008D230AA809180F7028A90F701B181F70CE
:101F0000FFF726F8FFF750F8FFF77EF8FFF7ACF879
:101F1000FFF7DAF8FFF706F9FEF776FA8C4B1B6845
:101F20009F610723AB82F389EB82338A2B83B37CD7
:101F30002B706B831823F25EAA831A21735EEA85E5
:101F4000AA1CD387EB832B00824A4E331C702B1DB7
:101F5000DA8738238049327C2C85A9631340082B0B
:101F60004BD0102B4CD0182B4DD0202B4DD0282BE4
:101F70004ED0302B4ED0383B591E8B4177495B42B7
:101F80000B40E12149025B186A499007097C52071E
:101F9000C907C90FC00F0A93D20F0AAB1971587144
:101FA00052001900686D9A71FFF774FE604B583348
:101FB00007930CA8FFF720F9079B1B78DBB205936A
:101FC000002B00D153E10027FF22079B1F70644BB9
:101FD0001B6804979BB2D61A00970197544B5A6D11
:101FE000197812780223914203D00833002A00D1D5
:101FF000083B023B082BF1D88DE0E1239B01C3E7AE
:102000009623DB01C0E7E123FBE796231B02BBE736
:10201000E123FBE796235B02B6E702230193043337
:1020200079E003230193DB1875E006260923023BC0
:1020300071E000243E4B05995A6D089306920732D1
:102040009446009A52000992A3B2BB4200D3C7E063
:10205000009B089AE3184A33D35C099A02936346BB
:1020600018785B780002034360008018089A1BB25E
:102070001018028FC58C0392029A002A00D1A0E0AA
:102080002DB2EA0FD817AB4242411140039A15B264
:102090009D4203DA50424241D3B20293029B19405F
:1020A000022301349C44CFE70A23023B072E32D996
:1020B000073B30E01E4BB11E5C6DC9B22000A41975
:1020C000FEF734FAA31E19780A23C2B2023B9142EA
:1020D00021D1013C00122278C0B2063B82421AD0C4
:1020E000063318E0124B5B6D9A78D97812021143CF
:1020F00000911A795F7912021743CA19013A92B214
:1021000004925A781300032A05D00423102A02D01F
:102110000123019305331800FEF700F8C6FFCCFF3A
:10212000E4FF240047008BFF85009100AB00C04610
:10213000D000002094000020002C0140FFFCFFFF95
:102140005426000800E100E064000020602600083A
:102150001C000020E02E00003F00FF008063FEFF17
:10216000340002400A23023B082ED4D1049B082BE2
:1021700000D952E7002243497D004B6D9D70974284
:1021800011DD009B486D9B1808335B00CB189C88C1
:10219000560080192412C470486D9B88861901323C
:1021A0003371D2B2EBE7EE1C40E70A237A00093222
:1021B000023BB242AFD1049A033B082AABD9033B9E
:1021C0002CE7029A9BB2AB42524103981140059A08
:1021D000834203D9020050424241D2B211405FE72C
:1021E000002900D11DE70023264CBB420EDA0698D9
:1021F00059004118009AC879D218097A5200000291
:10220000A218084301335080DBB2EEE7009B049A2A
:10221000934200D909E75C1CA4B219000CA8FFF78F
:1022200039FA0094F2E78023164A5B42516D032687
:10223000487803434B70536D019A9A70F6E6114C3F
:10224000F1B2656D2800FEF771F9A855626D731C37
:102250000012D054FEF72CFE0236FEF74BFE0A4A5F
:10226000B3B213600123094A11680B43136030BFF6
:102270009FE6FEF71DFEFF22054B1A60FEF746FEA5
:10228000F5E7C046D0000020200002401C000240BC
:1022900034000240044B1A69120603D5034A5A60FF
:1022A000034A5A607047C046002002402301674538
:1022B000AB89EFCD70B5464D04002878042818D8B6
:1022C000FDF722FF031D39586D00230034331978C0
:1022D0000323002911D13F4AE0691378E41801343F
:1022E000C65CE07F864207D10133DBB20E2B01D002
:1022F000137070BD1170FCE701232B70F9E7364EA7
:10230000F368DB07F5D433691B06F2D5FFF7C2FF8C
:1023100001233269134333612E4BA06B1978E369B3
:102320005A5C2E4B1A701B78226B1B020B43520017
:1023300013520223E1E7284BDA689206D9D520220E
:10234000D9680A43DA60802219690A431A61234B6B
:102350001A78204B1B78E3180133DA778022236B3D
:10236000920001332363934202D901233434237052
:102370000023C2E7184CE368DB07BAD423691B06C5
:10238000B7D5FFF787FF0223226913432361144B5C
:10239000636140232269134323610423ADE70E4B9D
:1023A000DA689206A5D52022D96800260A43DA60A9
:1023B0008022196920000A431A61230034331E70F9
:1023C00020300E22FF2100F012F926632E7090E7D4
:1023D0003E0000203C000020002002403D00002084
:1023E000007C0008414B424AF0B51A609022414BF4
:1023F000D2051A60404B414A41491A60414B424A5A
:1024000001241A60414B424A99B01A60414B424A3A
:102410001A60424B424A1A60424B434A1A60434B8D
:10242000434A1A600023434A13605360424A516092
:102430000421936010680143116002211068014378
:10244000116011683D48214311603D4AC3810382F8
:1024500042613C4A4360826102000E32C261012245
:102460005242026302003432836003731370364BAE
:10247000364F83638023364A8474076011690B43A7
:102480001361FEF71FFA051E21D101AC0E2231495E
:10249000200000F0A3F805A90B0045CC45C3322667
:1024A00022886E441A8030000E2200F097F8012333
:1024B00009AC5B42236316AB1D70234B6560A560BE
:1024C000257320000997E661A363FEF783F91B4C8F
:1024D0002000FEF717F8204A2049200000F044F8B9
:1024E0001F492048FEF79AF919B0F0BD840000207A
:1024F000001002407000002074000020000400481A
:102500007FBB000078000020000800487C0000200D
:10251000000C0048800000200014004890000020BB
:10252000003801408C000020002C01408800002071
:10253000003001404401002010E000E09400002041
:102540006400B80B00C00040007C00083026000882
:10255000002002401826000800000020D5070008CF
:102560004C010020D00000200B0010B50100180025
:1025700000F002F810BD000010B50400044813007C
:10258000002804D00A000220210000E000BF10BD96
:102590000000000070B500260C4D0D4C641BA4100B
:1025A000A64209D1002600F02BF80A4D0A4C641B04
:1025B000A410A64205D170BDB300EB589847013670
:1025C000EEE7B300EB5898470136F2E764260008BF
:1025D00064260008642600086C260008002310B555
:1025E0009A4200D110BDCC5CC4540133F8E703001B
:1025F0001218934200D1704719700133F9E70000B7
:10260000F8B5C046F8BC08BC9E467047F8B5C04651
:08261000F8BC08BC9E467047AF
:102618000000000001006400B80B00C0004000008A
:102628000000000000000000B522000800000000C3
:1026380000000000C90E00080000000000000000B3
:102648001D0F00080000000000000000AD0A00088F
:0C2658000000000000000000DD1400087D
:08266400E9000008E52300086D
:04266C00C1000008A1
:102670000000000000000240080002401C00024070
:102680003000024044000240580002400000004870
:0400000508000249A4
:00000001FF
