:020000040800F2
:100000000010002049020008990200089902000827
:1000100000000000000000000000000000000000E0
:10002000000000000000000000000000990200082D
:10003000000000000000000099020008E905000827
:1000400099020008000000009902000899020008C7
:100050009902000899020008990200089902000814
:10006000000000004507000871070008BD070008F0
:1000700099020008990200081D090008000000000C
:10008000950600080000000000000000C1060008FE
:1000900000000000ED06000819070008990200089A
:1000A0000000000099020008000000006906000836
:1000B0000000000000000000000000000000000040
:1000C00010B5064C2378002B07D1054B002B02D02E
:1000D000044800E000BF0123237010BD2000002071
:1000E00000000000E02B0008044B10B5002B03D0EB
:1000F0000349044800E000BF10BDC04600000000F6
:1001000024000020E02B000802B471464908490091
:10011000095C49008E4402BC7047C04603B4714676
:10012000490840004900095A49008E4403BC704701
:10013000002243088B4274D303098B425FD3030A26
:100140008B4244D3030B8B4228D3030C8B420DD339
:10015000FF22090212BA030C8B4202D312120902C7
:1001600065D0030B8B4219D300E0090AC30B8B4205
:1001700001D3CB03C01A5241830B8B4201D38B03B3
:10018000C01A5241430B8B4201D34B03C01A524158
:10019000030B8B4201D30B03C01A5241C30A8B429B
:1001A00001D3CB02C01A5241830A8B4201D38B0286
:1001B000C01A5241430A8B4201D34B02C01A52412A
:1001C000030A8B4201D30B02C01A5241CDD2C3099C
:1001D0008B4201D3CB01C01A524183098B4201D318
:1001E0008B01C01A524143098B4201D34B01C01A03
:1001F000524103098B4201D30B01C01A5241C3087B
:100200008B4201D3CB00C01A524183088B4201D3E9
:100210008B00C01A524143088B4201D34B00C01AD5
:100220005241411A00D20146524110467047FFE741
:1002300001B5002000F006F802BDC0460029F7D045
:1002400076E770477047C0460D4885460D480E4911
:100250000E4A002302E0D458C4500433C4188C4220
:10026000F9D30B4A0B4C002301E013600432A24285
:10027000FBD300F0CBFA02F07DFC02F0CFF8FEE7F2
:100280000010002000000020200000205C2C00084E
:100290002000002050020020FEE743690133436143
:1002A0007047000030B50300007A0138042819D8DF
:1002B000214AD968FFF728FF0317031728001424E1
:1002C000185F0968588180B2D06305221A728022B3
:1002D0001A4B52021A6006224B7893431A000423E9
:1002E00013434B7030BD80200C6815490004086032
:1002F0000820617801436170998AD98200211972BE
:10030000D3688343D360EDE7202009680C4D0D4C82
:10031000286008880440802020430880802008242A
:1003200000042860487820434870998AD9820021C7
:100330001972D368A343E5E7002C01401804004874
:10034000180000487FFEFFFF20220168044B1A605E
:100350000B88044A1A40802313430B807047C04621
:10036000180000487FFEFFFF8022094B12031A602D
:100370000388084A1A4080235B01134380220380CC
:10038000054B12061A6010220378934303707047DE
:1003900018040048F7EFFFFF1800004800280BD0B2
:1003A00004280BD005280BD0063843425841054B92
:1003B00040421840C01870470348FCE70348FAE77A
:1003C0000348F8E7C0C62D00006CDC0200366E0161
:1003D000001BB7007021034A000113688B431843C8
:1003E00010607047041002400321034A13688B43D6
:1003F000184310607047C046041002408023034930
:100400009B040A681A42FCD07047C04600100240A4
:100410008023034A5B0411680B4313607047C04696
:1004200000100240802303499B020A681A42FCD054
:100430007047C046001002408023034A5B021168E7
:100440000B4313607047C046001002408022044BEB
:10045000D20119681143196019681142FCD0704724
:1004600018100240034B10B518684005400FFFF705
:1004700095FF10BD04100240034A044913680002AE
:100480000B4018431060704704100240FFF8FFFF54
:10049000034A0449136880040B40184310607047F6
:1004A00004100240FFFFC3FF8022044B9202196830
:1004B0001143196019681142FCD0704714100240B2
:1004C0008022044BD2021968114319601968114245
:1004D000FCD07047141002400122044B19681143EC
:1004E000196019681142FCD07047C04614100240D0
:1004F0008022044B120119681143196019681142D6
:10050000FCD07047181002400421234B1A6813686E
:100510008B431360214A224B02391B6813688B43BB
:100520001360204B1A68002393611F4A126893617D
:100530001E4A126893611E4A11680A681203120B60
:100540000A601C4A1C4912681C4A53801C4A1268E3
:100550000A685204520C0A601A491B4A12680A6857
:100560005204520C0A60194A194912680A68520466
:10057000520C0A601749184A12680A685204520C51
:100580000A601649164A12680A685204520C0A6038
:10059000144A126813657047840000200038014037
:1005A00090000020700000207400002080000020D7
:1005B00004000020880000200800024000300140B4
:1005C000080000201C0002400C0000201000002049
:1005D0003000024044000240140000205800024055
:1005E000180000208C000020054B10B51C68002C62
:1005F00005D0236820001B689847A468F7E710BD62
:1006000048010020037B002B0CD101330373064B00
:100610005A684260002A00D090601A685860002A28
:1006200000D118607047C04648010020F0B5012590
:10063000030041180A4E0B488B420FD008241A7849
:10064000504042102840070090B2002F01D0724065
:1006500090B2013C002CF4D10133EDE7F0BDC0466F
:1006600001A0FFFFFFFF0000074B10B51C68002C26
:1006700005D0236820001B6898476468F7E7034BA0
:10068000034A1A6010BDC0466800002020380140AF
:100690005F0A0200084B10B51C68002C05D02368C7
:1006A00020001B6898476468F7E70821034A138A0B
:1006B0008B43138210BDC046600000200004004040
:1006C000084B10B51C68002C05D0236820001B685F
:1006D00098476468F7E70821034A138A8B4313821B
:1006E00010BDC0465C00002000200040084B10B543
:1006F0001C68002C05D0236820001B68984764689C
:10070000F7E70821034A138A8B43138210BDC046C2
:100710005800002000440140084B10B51C68002C14
:1007200005D0236820001B6898476468F7E7082114
:10073000034A138A8B43138210BDC0465400002025
:1007400000480140084B10B51C68002C05D02368F8
:1007500020001B6898476468F7E70F23034A116875
:100760000B43136010BDC04650000020040002403F
:100770000F4B70B51C68002C05D0236820001B6847
:1007800098476468F7E7F0220A4D29680A432A600F
:10079000094A1468002C05D0236820001B6898477C
:1007A0006468F7E7F0232A681B0113432B6070BDD0
:1007B0004C0000200400024048000020104B70B59F
:1007C0001C68002C05D0236820001B6898476468CB
:1007D000F7E7F0220B4D120229680A432A600A4A01
:1007E0001468002C05D0236820001B6898476468B3
:1007F000F7E7F0232A681B0313432B6070BDC04644
:1008000044000020040002404000002037B56B4641
:10081000DD1D002307221A492B700B6893431A0031
:10082000012313430B60FFF707FEFFF7FBFD2C7856
:100830000134E4B22C70002CF9D12000FFF7CAFD7E
:100840002000FFF719FE0420FFF722FE80230D4A47
:100850005B0211680B431360FFF7DAFDFFF7CEFD73
:100860002B780133DBB22B70002BF9D10220FFF77C
:10087000BBFD2B780133DBB22B70002BF9D137BDD8
:1008800000200240041002404A688B68002A0CD005
:10089000002B07D093605A6000234B608B60704739
:1008A0000360F8E742609360F6E7002BF8D103603D
:1008B0004360F1E710B5037B0100002B04D0002357
:1008C00003730248FFF7E0FF10BDC0464801002057
:1008D000002310B54361FFF7EDFF10BD10B5040014
:1008E000024B0360FFF7E6FF200010BD102C00084C
:1008F000084B10B51C68002C05D0236820001B682D
:1009000098476468F7E70821034A138A8B431382E8
:1009100010BDC04664000020002C014010B5FFF758
:10092000E7FF10BD012370B5040003700D00122213
:100930000021023002F04BF9200014220021143073
:1009400002F045F9200012220021283002F03FF980
:100950002000122200213A3002F039F92000092249
:1009600000214C3002F033F92200002321005C32D8
:10097000A56513706366114A114B603123661368D5
:10098000A466002B02D1116004E013005A68002A0B
:10099000FBD159600023210023670A4A0A4B6C31BE
:1009A000E36613686467002B02D1116004E0130052
:1009B0005A68002AFBD15960200070BD68000020F1
:1009C0001C2C00084C000020282C0008F0B5050065
:1009D000203585B004000E22FF21280002F0F7F830
:1009E00001235B4223630E220021684602F0EFF8E8
:1009F000A36B802219000126D2009818226B814235
:100A00000FD0013222630A780D2A08D84F78A21835
:100A10000132D7776F460A78BE540231EEE7FF2ADB
:100A2000FBD1226B3C4952009B18C21AD210002AFB
:100A30001BDD1E888E4203D15E888E4208D00233B1
:100A400098422AD0012300203434237005B0F0BD31
:100A50009E888E4201D00433F2E7DE888E4201D0B8
:100A60000633EDE70833013AE1E7C21A5210022AD1
:100A70000AD0032A03D0012A0BD00300E0E719882B
:100A8000254A9142DCD102331988234A9142D7D1B9
:100A900002331988204A9142D2D103236A46117841
:100AA000002936D05178002908D1511C0E236B44FF
:100AB00000209942CAD125E00A00F0E79178002988
:100AC00001D1911CF2E7D178002901D1D11CEDE7C9
:100AD000013B111D002BEFD10E206844431A022B5D
:100AE00009D0032B03D0012B09D00100DEE71379D5
:100AF000002BDBD0511D0B78002BD7D001310B78A8
:100B0000002BD3D0E0690E22290002F057F8012013
:100B10009CE71100CAE7C046FFFF0000024B1868BF
:100B20004004C00F7047C0461004004810B50400D0
:100B3000007BC0B205280DD8FFF7E6FA030D184771
:100B40001D33637B002B05D021002548FFF79CFE59
:100B50000023637310BD234B1B681B04FAD5236964
:100B60001868FFF701FC03232373F3E7FFF7D6FFB1
:100B70000028EFD0F3E7E389A28A01339BB2E38137
:100B80009A42E7D8012323732369174A1968082377
:100B9000164813600A88024013430B800023E38148
:100BA000D8E7E389A28A01339BB2E3819A42D1D884
:100BB0000223802223732369120219680C4B1A60E6
:100BC0000B880C4A1A401023E6E7E389A28A013316
:100BD0009BB2E3819A42BDD800232373DFE7C0466E
:100BE000480100201004004818040048F7EFFFFFF8
:100BF00018000048EFEFFFFF024B18688004C00F99
:100C00007047C04610040048024B1868C004C00F6B
:100C10007047C046100400482022436810B51B6886
:100C2000084C094922601A88114080220A431A8020
:100C3000802212042260082259780A435A70002345
:100C4000037010BD180000487FFEFFFF70B5040060
:100C50000078032800D980E0FFF756FA02804B9C09
:100C60004D4D2B681B055CD4FFF7C6FF00281DD037
:100C700060254022636849481B6802601978A943CF
:100C80000A4380211A70464A4902116006215A78A7
:100C90008A43110004220A435A708022082102600C
:100CA0005A788A435A700123237056E02B689B04BC
:100CB00053D480226021636838481B68D2030260E5
:100CC0001A788A43110020220A4380211A70344A7C
:100CD0004902116006215A788A43110004220A430E
:100CE0005A708022082102605A788A435A7002237F
:100CF000DAE7294B1D6880231B011D4016D02022F6
:100D0000636826481B68274902601A8811408022C0
:100D10000A431A80802212040260082259780A438A
:100D20005A700022204B5A620323BDE7FFF764FF8D
:100D3000002812D02022636818481B6819490260F5
:100D40001A88114080220A431A808022120402600D
:100D5000082259780A435A70257070BD0E4B1B68E3
:100D60001B05CCD4FFF750FF0028F6D02022636883
:100D70000A481B680B4902601A88114080220A4306
:100D80001A80802212040260082259780A435A709D
:100D9000042389E7002387E710040048180000486F
:100DA000180400487FFEFFFF002C01400120024B89
:100DB0001B689B089843704710040048037870B57F
:100DC0000400012B52D0002B02D0022B26D070BD84
:100DD0008022436860201B682E49D2030A602025C8
:100DE0001A78824380202A431A702B4A40021060EE
:100DF00006205A7882431000042202435A701A884F
:100E000026480D600240802002431A8008600821B5
:100E10005A788A435A7002232370D8E7FFF7ECFE12
:100E20000028D4D0802263681A49120460251B6808
:100E30000A60402218780A60A843024380201A7092
:100E4000154A4002106006205A788243100004229E
:100E500002435A7080220A6008215A788A435A70E5
:100E60000F4BE2685B6A13800123D5E7FFF7CCFEE6
:100E70000028ACD08021636809041A68054B19600A
:100E8000082351780B435370054B22695B6A13802A
:100E90000323C1E718000048180400487FFEFFFF45
:100EA000002C01402022436810B51B68084C0949FA
:100EB00022601A88114080220A431A80802212047C
:100EC0002260082259780A435A700023037010BD2B
:100ED000180000487FFEFFFF8021436809041A685C
:100EE000044B1960082351780B435370002303709F
:100EF0007047C0461800004810B50400007801385B
:100F000003280FD8FFF700F9020F121EFFF774FE37
:100F1000002807D06068FFF717FA2000FFF7DCFF12
:100F20000023237010BDFFF76FFEF1E70A4B10217D
:100F3000625E5B6A1BB29A42EFDAFFF765FE002839
:100F4000EBD1EFE7044B1021625E5B6A1BB29A4261
:100F5000E3DDFFF751FEF2E7002C0140F0B503009E
:100F600020251622865E8E4201D19E82F0BD187A1F
:100F7000C0B2052807D8FFF7D1F80800A900CA00B9
:100F8000FC00180136019982F0E70822C2489982D4
:100F9000C4682243C260426A12B291424ADA6027B0
:100FA0004024DA68BD4D12682C601678BE43344385
:100FB0001470466A1C8B361B36B2B1421BDB80268E
:100FC000B74C7602266006265478B64FB443023EEC
:100FD0003443547020242C60148889B22740802424
:100FE0003C431480C1631E72802308212B60537818
:100FF0008B435370BAE7466A361B36B2B142F3DA16
:101000000127A74E6118376056780537BE43370071
:1010100002263E4356708026B6032E60A14F1688E6
:1010200089B23740802676003E431680C163032193
:101030001972D9E7426A12B2914200DC96E7802425
:1010400060262027DA68954D1268E4032C60147836
:10105000B4433C431470466A1C8BA61936B2B142A5
:1010600015DC80268E4C760226600626547889B2DE
:10107000B44326000424344354701488894E2F60EE
:101080002640802434431480C1630221D0E7466A9D
:10109000A61936B2B142A7DD0126814F091B3E6079
:1010A00057780536B743BC46022766463743577024
:1010B0008027BF032F607B4E178889B23E40802770
:1010C0007F0037431780C1630121B1E772481A8B53
:1010D000446A9982141924B2A14214DC8024D9688C
:1010E00064020D686E490C6006246978A1430C0007
:1010F000042121436970416A521892B25A81C26335
:1011000005221A7232E7891A89B2C1632EE7624852
:10111000426A12B2914213DADA68624C10685F4F89
:1011200002883D60224080242243028080221204F3
:101130003A604278783C2243427000221A7212E7E9
:10114000446A1A8B9982141924B2A14200DA0DE77D
:10115000891A89B2C16301200621DA681468504AED
:10116000106062788A43110002220A43627018728A
:10117000FCE649481E8B446A7518A41BADB224B224
:101180009982C563A14200DAF0E68021DA6849025B
:101190001468434A1160062162788A4311000422D0
:1011A0000A436270426A921BA7E73B48426A12B246
:1011B0009142B1DC446A1A8B9982A41A24B2A142EA
:1011C00000DDD3E6511889B2C1630121DA681068E5
:1011D000334A1160427805318A43110002220A43E2
:1011E000427003228DE7304A9982106840060CD481
:1011F0000A24185F884208DA2748446A188B0019C5
:1012000000B2814201DA5981B0E61068400606D486
:10121000214D188B6C6A041924B2A1421EDC10689F
:1012200040062CD41268520600D49FE61A4C1A8B42
:10123000606A801A00B2814200DB97E60125D86817
:1012400051180668164889B2056070780535A843BC
:101250000500022028437070E163C2E701240626DE
:10126000DA68091A17680E4A89B214607A78B243AC
:101270001600022232437A70E9631C7276E60A2471
:10128000185F8842CEDD04481C8B406A001B00B208
:101290008142B8DCC6E7C046002C01401800004877
:1012A000180400487FFEFFFF1000004810B5037BC4
:1012B0000400002B05D003691868FFF755F80323D5
:1012C000237310BD70B502680400137A002B13D08D
:1012D0002021D3680B4D1B680B48296019880840F2
:1012E0008021014319808021090429600821587850
:1012F00001435970002313726068FFF7D7FF002382
:10130000A37370BD180000487FFEFFFF10B50400F6
:101310004068FFF719F82000FFF7DEFDA068FFF72F
:10132000C5FF0023237010BDF0B501261021C34D69
:1013300042682B68D71CFA7FDB0B33408A431B01C2
:10134000134385B0FB770400FFF7E8FB2022304011
:101350004301F87F90431843F8776768FFF74CFC28
:1013600002000337F87F3240B0431043F8776768D4
:10137000FFF74AFC02218022033730404300F87F08
:1013800012018843296818430A40F87717006368F8
:10139000791E8F410193D91C0823C87FFF00984311
:1013A0003843C8772868430502D428688008064077
:1013B0000427C87FB600B8430643CE77A04E002A64
:1013C00001D000227262726A019B01201A84197C8A
:1013D0009A1D2023D77FC90801409F434901394303
:1013E0002700D177A6373B781900014002938B0183
:1013F00003934023D17F9943039B19430300D17783
:1014000090490968C9098B43DB0003930823D17F06
:101410009943039B1943D177E368197800239C46CD
:101420000B0703D4C906C90F484084466346190117
:101430001023D07F98430143D177207801380328C7
:1014400026D8FEF76BFE04005400CE001601029B66
:10145000002B0DD120005C30FFF7DEFB02230721BB
:10146000237063680533DA7F8A43110001220DE09F
:101470002B681B040ED420005C30FFF7CDFB052247
:101480000720636822709B18D97F81430A43DA776B
:1014900005B0F0BD2B681B04FAD526005C36300081
:1014A000FFF7D4FB3378032B09D1002340213B7095
:1014B000636830000633DA7F8A43DA77CCE7042B9F
:1014C00001D13000D9E72B685B050BD42200012342
:1014D000A532137040223B7063680633D97F0A43FC
:1014E000DA77EEE7FFF762FC0028EFD1D0E7029B46
:1014F000002B09D001220721019B22700533DA7FDE
:101500008A4311000322C1E72B685B0526D5FFF74C
:101510004DFC002822D1FFF777FB00282ED1FFF7E2
:101520006BFB00283CD163680A229B5E002B45D0F0
:1015300026006836B37B012B4BD0022BA8D1E36E7B
:101540001A7B002A02D01B7B032BA1D12B681B0422
:1015500044D4FFF7E3FA002840D199E722000123A1
:10156000A5321370402220003B7063686830063358
:10157000D97F0A43DA77FFF7A5FE80E7A268736A8E
:101580001821525E1BB29A42C9D020006830FFF782
:1015900099FEA3681B8B7362726A63681A8477E78B
:1015A000A268736A1A21525E1BB29A42BBD0200015
:1015B0006830FFF787FEA3685B8BECE7736A1BB2AA
:1015C000002BB5D12B681B05B2D401233B702370CF
:1015D0005EE7A36E1B7A002B00D059E70023B3739C
:1015E00056E72B681B0404D420007830FFF75AFC20
:1015F00045E72B681B0400D44AE726007836300004
:10160000FFF7DCFB3378032B1ED1A2686368182038
:10161000115E300099831A21525EDA83FFF742FC93
:101620000223072123706368A7345A1DD37F8B439D
:1016300006390B43D37721702AE7C04610040048CF
:10164000002C0140100000482B685B050CD42200E0
:101650000123A532137040223B70636830000633CB
:10166000D97F0A43DA77C1E7FFF7A0FB0028EED164
:101670000EE780262B68F600334209D12300A533FC
:101680001B78002B08D020004830FFF735FCFFE620
:10169000FFF78CFB0028F1D12B68334229D12600BB
:1016A000A5363378002B28D1200001254830FFF7DC
:1016B0002DFE357026008C363D703000FFF708F99E
:1016C000FA23DB0033613000FEF79CFF40206368A3
:1016D0003A78591D06332A40DD7F92018543154330
:1016E000DD770523CA7F3938824323701343CB77D4
:1016F000CEE6FFF75BFB0028D1D12B685B0500D459
:10170000C6E6FFF753FB002800D1C1E620004830B1
:10171000FFF7F2FBA534002359E7C0460122044B32
:1017200019689143196019681142FCD17047C0468D
:101730003000024070B58024074B24011B6823420F
:1017400009D08568FFF7EAFF044B5C351A6814433B
:101750001C6001232B7070BD1C38014020380140F3
:101760000122044B19689143196019681142FCD198
:101770007047C0461C00024010B520240A4B1B686D
:1017800023420FD0FFF7ECFFFFF7C8FFFF22074B04
:101790001A600123064A11680B431360054B1A684F
:1017A00014431C6010BDC0460000024034000240DB
:1017B000300002400400024010B5FEF781FE032015
:1017C00001210E4B1A6882431A601A680A431A6094
:1017D0000B4B1A688A431A601A681A60094B1A6818
:1017E00082431A601A681A60074B1A688A431A60A3
:1017F0001A681A60054B1A681A6010BD0004004888
:1018000004040048080400480C0400482004004870
:1018100010B5FEF749FE902380218020DB051A6871
:101820000E4CC90122401A601A68114319600C4B12
:101830001968814319601A681A600A4B1A682240B5
:101840001A601A681A60084B1A6882431A601A688C
:101850001A60064B1A681A6010BDC046FF3FFFFFB2
:1018600004000048080000480C0000482000004820
:1018700010B5FEF719FE902380214020DB051A6881
:101880000E4C490122401A601A68114319600C4B32
:101890001968814319601A681A600A4B1A68224055
:1018A0001A601A681A60084B1A6882431A601A682C
:1018B0001A60064B1A681A6010BDC046FFCFFFFFC2
:1018C00004000048080000480C00004820000048C0
:1018D00010B5FEF7E9FD902380212020DB051A6872
:1018E0000E4CC90022401A601A68114319600C4B53
:1018F0001968814319601A681A600A4B1A682240F5
:101900001A601A681A60084B1A6882431A601A68CB
:101910001A60064B1A681A6010BDC046FFF3FFFF3D
:1019200004000048080000480C000048200000485F
:1019300010B5FEF7C5FDC0200F4B1A6882431A6030
:10194000402219680A4308211A600C4B1A688A431E
:101950001A601A681A600A4B1A6882431A601A6879
:101960001A60084B1A688A431A601A681A60064B94
:101970001A681A6010BDC0460004004804040048FC
:10198000080400480C0400482004004810B5FEF785
:101990008BFD9022D20513680F489B009B081360B3
:1019A00080231168DB050B4313600C4B1968014061
:1019B00019601A681A600A4A13689B009B08136032
:1019C00013681360074B1A6802401A601A681A609D
:1019D000054B5A685A6010BDFF7FFFFF04000048A6
:1019E000080000480C00004820000048437B002B02
:1019F0000CD1074B5A684260002A00D090601A68E8
:101A00005860002A00D11860012343737047C04614
:101A100048010020164B10B51B6804001B0412D4AB
:101A2000037B002B0FD10369124A1968082312485F
:101A300013600A88024013430B80012320002373A4
:101A4000FFF7D4FF10BD237B022B05D12369186853
:101A5000FEF78AFC042309E0237B042BFAD0237BC6
:101A6000052BF7D0237BDBB2032BEBD12373E9E704
:101A70001004004818040048F7EFFFFF10B50400F9
:101A8000FFF74CF8002814D1237B002B11D18022C2
:101A9000236912021968114B20001A600B88104A42
:101AA0001A40102313430B8002232373FFF79EFF7A
:101AB00010BD237B012B05D123691868FEF754FC68
:101AC000052309E0237B042BFAD0237B052BF7D0D9
:101AD000237BDBB2032BEBD12373E9E7180000482B
:101AE000EFEFFFFFF8B50400082910D80800FEF753
:101AF00015FB09000F0015001D00290053005B00B5
:101B000062004202626853881383A2681382F8BDA0
:101B1000626893885383A2689374F8E76368DB88EC
:101B2000D03B5A425341C24A1370F0E7C04B1A7877
:101B3000002A04D061680A89CA82A168CA81012288
:101B40001A70E4E72378022BE1D126006368683637
:101B50000A255D5FB37BB581002B06D0012BD6D162
:101B60002900A06EFFF7FAF9D1E7E36E1A7B002A8D
:101B700002D01B7B032BCAD1AE4B1B681B0406D5BE
:101B80002900A06EFFF7EAF90123B373BFE7FEF760
:101B9000C5FF0028F4D1BAE762689389D384A268AC
:101BA0001BB2A3859382B2E76368A21DDB89D3874A
:101BB000A268D382ABE72378002B0CD163681A7C30
:101BC0001207A4D501229C4922709A8C11409B4A8D
:101BD0000A439A849BE7012B2DD163681D7C2B0758
:101BE000DE0F002B15DB20005C30FFF715F8072017
:101BF00062682670511DCB7F06328343CB77937A80
:101C00001B07DB0FD17F19305B0181430B43D37777
:101C10007DE707263540022D00D078E720005C30B4
:101C2000FEF7FAFF0423237063680533DA7FB243BB
:101C30001543DD776BE7032B16D163681B7C1B070D
:101C4000DD0F002B00DA62E720007830FFF72AF979
:101C5000072062682570511DCB7F06328343CB7706
:101C6000937A1B07DB0FCDE7022B70D163681B7CD7
:101C70001A07D50F002A04DB20006830FFF722FB8B
:101C8000E6E7DA0601D49B0603D520006830FFF7AB
:101C900019FB63685A7C1307DB0F52072FD5002B03
:101CA00006D1230068339B7B002B14D0022B1ED05F
:101CB000072663681D7C3540022D39D1200068302D
:101CC000FFF700FB0423626823700532D37FB34320
:101CD0001D43D5771BE7574B1B681B0402D4E06EEE
:101CE000FFF798FE2300022268339A73E0E7514B16
:101CF0001B681B04DCD4E06EFFF78CFED8E7002BDA
:101D0000D6D0230068339B7B002B09D0022BCFD188
:101D1000FEF704FF0028CBD1E06EFFF7AFFEC7E768
:101D2000FEF7FCFE0028DDD1E06EFFF7A7FED9E745
:101D3000042D00D0EBE62300A7331B78002B00D046
:101D4000E5E620006830FFF7BDFA03236BE7042BBC
:101D500000D0EEE063681B7C1A07D50F002A04DB75
:101D600020004830FFF7D2FA72E7DB0603D52000E7
:101D70004830FFF7B1F863681B7C9B0602D5206DE5
:101D8000FFF794FA6268517C0B07DB0F49075DD5BA
:101D9000002B05D1137C9B0602D4206DFFF73AFE81
:101DA0006368E06C1B7C5B0659D480220168244B7D
:101DB00092031A600B88234A1A4080235B00134366
:101DC0000B806268E36C157C19686EB21E484B7814
:101DD000002E47DB8026760206600620834318002B
:101DE000042303434B70517C8B07DB0FC9076CD571
:101DF000002B09D1137CDB0606D42200483213786D
:101E0000002B35D0022B4DD007263540012D00D0B8
:101E10007DE6084B1A68520500D478E61B685B071C
:101E200000D474E620004830FFF770FA0223FAE687
:101E30006C00002010040048F8DFFFFF03200000C2
:101E4000180000487FFEFFFF18040048002BA7D0B1
:101E5000137C9B06A4D4206DFFF710FEA0E7FEF7CD
:101E600073FAAEE701260660062083430438B8E71C
:101E7000764B1B689B04C7D480216020E36C744EB2
:101E80001B68C90331601978814308002021014390
:101E900019708021316008205978814359700123DD
:101EA0001370B1E78020E36C694900041B68086087
:101EB00080206026C00308601878B0430600202008
:101EC0003043187080200860E5E7002B9CD0137C1D
:101ED000DB0699D4210048310B78002B11D0012B5F
:101EE00092D1E36C5A481A68802360271B04036070
:101EF000402316780360BE4333431370802303608E
:101F000010E0524B1B68DB0400D57DE7E36C6027D3
:101F10001A68402310784E4EB84333600343137061
:101F200080233360082053788343537002230B705F
:101F30006AE7052B00D0EAE507256268137C2B4091
:101F4000022B0CD121008C3148690969884206D3E3
:101F50000421501D2170C17FA9430B43C377137C1B
:101F60001B07D90F002B00DAD1E52170938C39497A
:101F70000B409384CBE52178042900D0C7E5636842
:101F8000DA7C50062ED5260048363278002A00D05A
:101F9000BDE580275D8A304BAD045B6AAD0C5B1BF1
:101FA0003382E06C2D4B7F0202681F600627537856
:101FB000BB430B435370FEF7C7F9002D0FD0E36C02
:101FC00060241A68402311782148A14303600B4321
:101FD000137080230821036053788B4353700323CD
:101FE000337094E5D20900D191E526004836327865
:101FF000002A00D08BE580275D8A174BAD045B6A11
:10200000AD0CEB183382E06C144B7F0202681F604A
:1020100006275378BB430B435370FEF795F9002D09
:1020200012D080226021E36C09481B68D203026051
:102030001A788A43110020220A431A70802208214C
:1020400002605A788A435A700423C9E71004004892
:1020500018000048F8DFFFFF002C0140180400487A
:1020600070B5FEF721FA9023DB051A68104D114C6C
:102070002A401A608022196892020A431A600E4BA5
:102080001868204018601A681A600C4B19682940BB
:1020900019601A681A600A4B1A6822401A601A6896
:1020A0001A600223074A51680B43536070BDC04653
:1020B000FFFFFCFFFFFEFFFF040000480800004890
:1020C0000C0000482000004870B5FEF7EDF99023A1
:1020D000DB051A68104D114C2A401A6080221968DD
:1020E00012030A431A600E4B1868204018601A68E1
:1020F0001A600C4B1968294019601A681A600A4B5B
:102100001A6822401A601A681A602023074A516828
:102110000B43536070BDC046FFFFF3FFFFFDFFFFA1
:1021200004000048080000480C0000482000004857
:1021300010B5FEF7B9F99023C020DB051A68824379
:102140001A60802219680A4308211A600C4B1A6829
:102150008A431A601A681A600A4B1A6882431A6026
:102160001A681A60084B1A688A431A601A681A605B
:102170008023064A5B0111680B43136010BDC04603
:1021800004000048080000480C00004820000048F7
:1021900010B5FEF789F990233020DB051A688243D9
:1021A0001A60202219680A4304211A600C4B1A682D
:1021B0008A431A601A681A600A4B1A6882431A60C6
:1021C0001A681A60084B1A688A431A601A681A60FB
:1021D0008023064A5B0011680B43136010BDC046A4
:1021E00004000048080000480C0000482000004897
:1021F00010B5FEF759F990230C20DB051A688243CD
:102200001A60082219680A4302211A600B4B1A68E7
:102210008A431A601A681A60094B1A6882431A6066
:102220001A681A60074B1A688A431A601A681A609B
:102230001023054A11680B43136010BD04000048C9
:10224000080000480C0000482000004870B50E004F
:102250000500FFF76DFFFFF79BFFFFF7C9FFFEF7D4
:10226000F5F83468FEF7FEF82100FDF761FF3B4BFF
:102270003B4C18603379012B00D06BE0802322683F
:10228000DB00134323607379002B5FD08023226827
:102290009B001343334A2360136833491940B379D1
:1022A00001261B030B431360042321680B432360A7
:1022B000082321680B43402123602C4B18680143FD
:1022C00019608021186801432A2019602849086094
:1022D00080211068090401431160802219685200AE
:1022E0000A431A6080221968D2010A431A602368DF
:1022F00033432360FEF7F0F81E4B1F4A1D601F4B4F
:10230000A0211A60FF221E4B1A6000221D4B1A608A
:10231000196019680E431E601B4B1C491D601C4B45
:1023200019601C4B1A6090321A6080222168D20416
:102330000A4322608022184912050A6002221868A6
:1023400002431A608023DB000B6070BD2368134AD0
:1023500013409FE72368124AFAE7C0460C38014051
:102360000038014004380140FFCFFFFF083801402A
:10237000143801403C00024024380140380002403B
:10238000340002403000024028000240283801405A
:10239000240002401C00024000E100E0FFFDFFFFBE
:1023A000FFFBFFFF38230A7813B51340082B23D017
:1023B000102B24D0182B25D0202B25D0282B26D02D
:1023C000302B26D0383B59424B4113495B420B40DE
:1023D000962189015B1800936B46D4079107520739
:1023E000C90FD20F52005971E40F6946806D1C71FC
:1023F0009A71FFF72BFF13BDE1239B01EBE79623B7
:10240000DB01E8E7E123FBE796231B02E3E7E12397
:10241000FBE796235B02DEE7809C0100F0B5002419
:10242000B7B00CAB1C70D84BD84D0D9324330F9321
:102430000E95FFF715FEFFF747FEFEF759F88021CE
:1024400007207026D24B49001A6A0A431A629A681A
:102450008243043802439A60DA69B24316001022BC
:102460003243DA619A69CB4E8243023802439A6161
:102470009A69324011439961F021DA698A43110067
:1024800050220A43DA615C621A88104318801422D1
:10249000AB5EC14A129411920CAA14775477D4837C
:1024A0000FAA149210AA15920CAA93858022BB4BF6
:1024B000D20116941A60BA4A1368A34203D111AB31
:1024C000136005E013005A68002AFBD111AA5A6074
:1024D0000024B44BE98A18931BAB1C703D230CAA53
:1024E0009B181C7013000633D9871EAB1C7010ABF1
:1024F0002193259328932C932B0018332D932B0095
:102500001A332E9332AB18A91C70A74B2091279138
:1025100029A90C80083376212F93802323A80470E7
:1025200011A826900CA809185B020C70D4872AA960
:102530000FAA0C701C921F9224922B9219941A9439
:1025400030943194339435933494FFF735F9FFF791
:102550005FF9FFF78DF9FFF7BBF9FFF7E9F9FFF72F
:1025600015FAFDF7D1FF914B87481B68FF269C6148
:1025700007238382EB890134C3822B8A0383AB7CDC
:10258000037043831823EA5E82831A216B5EC38340
:10259000A98A0286C1843F21021DD3870300418797
:1025A00029005033824A1C701031831D4485868770
:1025B000DA87FFF7F7FE0A9608940CA8FEF7B4FE38
:1025C000714A13005C331978C9B20791002900D110
:1025D00048E100211970774B0A981B689BB2C61A14
:1025E000936D12781D78AA4259D10D000223033B46
:1025F0002F0002950195072B5AD81800FDF78EFD84
:102600005D0074008D00B3000B000E011A01510033
:1026100006260623F1E75C4B7C009A6D0799099228
:10262000073294461A190592002204923A004C325D
:102630009B180B936B46019A1B8A9A4200D8CCE0F8
:10264000049A0B9B9B5C059A0393634618785B780E
:1026500000020343108D1BB202000598408F0690C4
:102660000398002800D1A9E014B22000DA17E40F83
:1026700083425441069A214012B29A4204DA069AE1
:1026800050424241D3B20393039B1940049B013350
:10269000049302239C44059B02330593CAE7002D53
:1026A000A4D0FFF73BF80A9A424B1A60424AD5E0A1
:1026B0000023072EA1D807339FE7334BB11E9C6D33
:1026C000C9B22000A419FDF7B1FFA31E19780A238F
:1026D000C2B2033B914290D1013C00122278C0B2B9
:1026E00082428AD1063B88E7274B9B6D9A78DF7838
:1026F000120217431A795979120211437A18013AD2
:10270000019195B25A780223032A00D175E701336B
:10271000102A00D171E7089B32E00A23033B082E00
:1027200000D06AE7092D2AD8019B17495B009C4617
:1027300062468B6D9A700022019B934210DDBB189C
:1027400008335B00CB189C88886D560080192412D2
:10275000C470886D9B88861901323371D2B2EBE761
:102760006646033655E7019B5A000A230932033BAC
:10277000B24200D041E7033B082D00D83DE70223D9
:102780000293052339E7C046D000002094000020C2
:10279000002C0140FFFCFFFF342C000800E100E0AA
:1027A00064000020402C0008442C00081C0000207D
:1027B000E02E0000340002403000024003989BB23B
:1027C0009342404101400698079A834203D9020090
:1027D00050424241D2B2114058E703230029CFD0E2
:1027E0000023214C019A93420DDA099859004118AF
:1027F000C879FA18097A52000002A2180843013376
:102800005080DBB2EEE7BD4200D201E77C1C39000C
:10281000A4B20CA8FFF766F92700F4E78023124A58
:102820005B42916D0326487803434B70936D029A87
:102830009A70EEE60C4CF1B2A56D2800FDF7F6FE9D
:10284000A855A36D00129B195870FEF767FFFEF79D
:1028500087FF064AB31C9BB21360054A13680899A8
:102860000B43136030BFA8E6D000002020000240D8
:102870001C000240044B1A69120603D5034A5A6031
:10288000034A5A607047C046002002402301674552
:10289000AB89EFCD70B5464D04002878042818D8D0
:1028A000FDF732FC031D39586D00230034331978CD
:1028B0000323002911D13F4AE0691378E418013459
:1028C000C65CE07F864207D10133DBB20E2B01D01C
:1028D000137070BD1170FCE701232B70F9E7364EC1
:1028E000F368DB07F5D433691B06F2D5FFF7C2FFA7
:1028F00001233269134333612E4BA06B1978E369CE
:102900005A5C2E4B1A701B78226B1B020B43520031
:1029100013520223E1E7284BDA689206D9D5202228
:10292000D9680A43DA60802219690A431A61234B85
:102930001A78204B1B78E3180133DA778022236B57
:10294000920001332363934202D90123343423706C
:102950000023C2E7184CE368DB07BAD423691B06DF
:10296000B7D5FFF787FF0223226913432361144B76
:10297000636140232269134323610423ADE70E4BB7
:10298000DA689206A5D52022D96800260A43DA60C3
:102990008022196920000A431A61230034331E7013
:1029A00020300E22FF2100F012F926632E7090E7EE
:1029B0003E0000203C000020002002403D0000209E
:1029C000007C0008414B424AF0B51A609022414B0E
:1029D000D2051A60404B414A41491A60414B424A74
:1029E00001241A60414B424A99B01A60414B424A55
:1029F0001A60424B424A1A60424B434A1A60434BA8
:102A0000434A1A600023434A13605360424A5160AC
:102A10000421936010680143116002211068014392
:102A2000116011683D48214311603D4AC381038212
:102A300042613C4A4360826102000E32C26101225F
:102A40005242026302003432836003731370364BC8
:102A5000364F83638023364A8474076011690B43C1
:102A60001361FDF7B3FF051E21D101AC0E223149E0
:102A7000200000F0A3F805A90B0045CC45C3322681
:102A800022886E441A8030000E2200F097F801234D
:102A900009AC5B42236316AB1D70234B6560A560D8
:102AA000257320000997E661A363FDF717FF1B4C10
:102AB0002000FDF7A7FD204A2049200000F044F83F
:102AC0001F492048FDF72EFF19B0F0BD84000020FB
:102AD0000010024070000020740000200004004834
:102AE0007FBB000078000020000800487C00002028
:102AF000000C0048800000200014004890000020D6
:102B0000003801408C000020002C0140880000208B
:102B1000003001404801002010E000E09400002057
:102B20006400E80300C00040007C0008102C00088E
:102B300000200240F82B000800000020DD080008FB
:102B400050010020D00000200B0010B5010018003B
:102B500000F002F810BD000010B504000448130096
:102B6000002804D00A000220210000E000BF10BDB0
:102B70000000000070B500260C4D0D4C641BA41025
:102B8000A64209D1002600F02BF80A4D0A4C641B1E
:102B9000A410A64205D170BDB300EB58984701368A
:102BA000EEE7B300EB5898470136F2E7502C0008E7
:102BB000502C0008502C0008582C0008002310B599
:102BC0009A4200D110BDCC5CC4540133F8E7030035
:102BD0001218934200D1704719700133F9E70000D1
:102BE000F8B5C046F8BC08BC9E467047F8B5C0466C
:082BF000F8BC08BC9E467047CA
:102BF8000000000001006400E80300C0004000007D
:102C080000000000000000009528000800000000F7
:102C18000000000035170008000000000000000058
:102C2800791700080000000000000000A502000855
:102C380000000000000000002D0B0008000000004C
:082C4800000000009B020008DF
:082C5000E9000008C529000895
:042C5800C1000008AF
:102C5C000000000000000240080002401C0002407E
:102C6C00300002404400024058000240000000487E
:0400000508000249A4
:00000001FF
